:020000040001F9
:10800000082C0020F58001000F8101001181010082
:108010000000000000000000000000000000000060
:1080200000000000000000000000000013810100BB
:108030000000000000000000158101001781010010
:108040001981010019810100698301001981010072
:108050001981010000000000A181010019810100C7
:1080600019810100198101001981010019810100A4
:108070001981010019810100198101001981010094
:1080800019810100ED8201001981010019810100AF
:108090000D8301001981010019810100198101007E
:1080A000198101001981010000000000000000009A
:1080B00000000000000000000000000000000000C0
:1080C0000348854600F05AF8004800478D910100AA
:1080D000082C0020401E00BF00BF00BF00BF00BF33
:1080E00000BF00BF00BF00BF00BF00BF00BFF1D195
:1080F000704700000321094802680A4302600848EB
:1081000002680A4302600748804707480047FEE7C5
:10811000FEE7FEE7FEE7FEE7FEE70000240500407D
:108120005405004015830100C180010030B50B46A5
:10813000014600202022012409E00D46D5409D4241
:1081400005D31D469540491B2546954040191546C7
:10815000521E002DF1DC30BD03460B439B0703D0BC
:1081600009E008C9121F08C0042AFAD203E00B78FC
:108170000370401C491C521EF9D27047064C012561
:10818000064E05E0E36807CC2B430C3C98471034BF
:10819000B442F7D3FFF798FFC49D0100E49D0100AE
:1081A000F8B50024FF25013501262746009428460E
:1081B00001F08AFA002808D034484068304204D0E0
:1081C000334800212818344301602D1D76007F1CA0
:1081D000ADB2042FEBD3FF207D3001F075FA0028FB
:1081E00007D02C4800210160400704432A48006959
:1081F00000902A4F200712D00126002526420AD0DF
:108200002748AA00111808690969C004C00E89032B
:10821000BA58890F904776006D1C042DEED3002CC0
:1082200030DA00241D4E0021301940304156491CDF
:1082300025D00778BD06AD0E284600F0B1FD8000C0
:108240003658002E1BD0BF090121A940154AA800AD
:1082500080180068009A8003800F114202D0022823
:1082600002D00CE003280AD1032F05D102280AD03E
:108270000221284601F018FA39462846B047641C06
:10828000042CCFD3F8BD0321F3E7000000630040C6
:10829000006000407C610040000500508423002005
:1082A00000650040000700508307FF22DB0E9A4064
:1082B0008907090E994000280BDA0007000F0838DB
:1082C000830808489B001818C36993430B43C36194
:1082D0007047830804489B001B18186890430843A4
:1082E0001860704700ED00E000E400E010B50649BA
:1082F0000020086048608860C86003494039086011
:10830000486001F0D1FA10BD4011014010B501F0F4
:1083100061FA10BD10B500F041FE002805D00E49ED
:108320000C484860C8130D4988610D48018CC9B2DA
:1083300001290ED1818C09070BD1018D0906090F86
:10834000042906D1808D0006000F02D105490120C5
:10835000886010BDDFFF07C000050040006C0040D2
:10836000C00F00F000060040F0B53C4D012185B083
:108370004902284601F0B7F901270026384C0028A9
:1083800023D0FF212531284601F0A8F900281CD070
:10839000FF2025302E508120324980008860607D8A
:1083A000002800D16F600221684601702E490868DC
:1083B00008600390E17C68460172E0680190E67411
:1083C00006CC6846083C90471DE00421284601F091
:1083D0008AF9002817D0FF210931284601F07EF9DB
:1083E000002810D001F0C2F9E07C217D88420AD13A
:1083F000607D002800D16F6081201A49800088606C
:10840000207D01F0C9F9FF211D31284601F066F9F0
:1084100000280DD0A07C218A884202D901F086FA7A
:1084200006E0FF211D316E50002801D001F094FAC2
:10843000FF214531284601F051F900280CD0FF20DA
:1084400045302E50607D002800D02F60E07C002851
:1084500002D0207D01F0A0F905B0F0BD0020004061
:10846000CC23002000230040802400400FB410B52E
:1084700003A9044B044A029800F024F810BC08BC7D
:1084800004B018473F8F0100B820002030B4744674
:10849000641E2578641CAB4200D21D46635D5B0000
:1084A000E31830BC184702E008C8121F08C1002AB0
:1084B000FAD170477047002001E001C1121F002A65
:1084C000FBD17047FFB581B00546002706E025289F
:1084D0000AD0049A039990476D1C7F1C28780028C5
:1084E000F5D1384605B0F0BD002269786D1C104604
:1084F0002E2913D1697804226D1C2A2909D10299E9
:108500006D1C01C9029109E00A235843303808184C
:108510006D1C29780B46303B092BF5D92B78002BA5
:10852000DFD0632B07D0732B10D0049A1846039921
:1085300090477F1C2DE002996C460B782370091D33
:108540000291002161706E46012104E0029940C948
:1085500002910021C94352070AD5002400E0641C9F
:1085600084420DDA8C42FADB325D002AF7D107E053
:10857000002400E0641C8C42FCDB305D0028F9D153
:108580003F1904E03078049A761C03999047641EE2
:10859000F8D26D1CA2E70000044842680121C90519
:1085A0000B46934383600A40C26070470005005049
:1085B00070B50024064D06E06968E000085C012102
:1085C00000F058FE641C28788442F5D3002070BD6A
:1085D00084200020F8B515460C460646052A01D22F
:1085E0000720F8BD00F01CFF002803D100F0EEFECC
:1085F0000028F6D1104900204E600C70C8608D60D4
:1086000008610E4D0DE0E0006968801900918178E5
:108610006A46517000780A4A694600F07BFE0028DD
:10862000DFD12046641EE4B20028ECD1054A0021C7
:10863000024800F041F8F8BD84200020249B01008E
:108640004D8F0100798E0100BFF34F8F044903481D
:10865000C860BFF34F8F00BFFDE700000400FA05BC
:1086600000ED00E010B58268C368934203D000F0CB
:1086700053FC002010BD052010BD002906D0002AA3
:1086800002D0531E134203D0092070470E207047BA
:108690000160838000218160C1600846704710B589
:1086A0008268C3689A1A83889A4203D800F03EFC15
:1086B000002010BD042010BD094B9B68002B07D083
:1086C000002A07D0002805D00068037C002B03D0C7
:1086D00008207047072070474174426100207047AE
:1086E00098200020FFB59007002581B014460E4663
:1086F000002832D11B4F002C31D001F015F804981E
:1087000078610320387033461821224600204B43FD
:10871000BC601834C10089180D704D708E704C60AB
:108720001C19401C0328F5DBFD607D7001240E48F8
:10873000BD702405046003211420FFF7B5FD0B482C
:1087400004600B4C0198A06003211120FFF7ACFDE1
:1087500060683861002005B0F0BD0720FBE7BD6010
:10876000FBE700009820002080E200E000E100E04C
:1087700000150140FEB50D461B49174689680446A1
:1087800000292AD0002C28D0052D01D20720FEBDBB
:108790006069002821D0607C012820D0002601F0EB
:1087A0003FF9C0001049019089684018694601F0FE
:1087B00061F9002815D0012101700C494460496815
:1087C0000830E2C008490198896841186846007875
:1087D000487001F041F80020FEBD0820FEBD2E4685
:1087E000DDE70420FEBD00009820002000150140B8
:1087F000F8B5134D0446A96800291CD0002C1AD0E6
:108800006069002817D00026267401F009F9C70016
:10881000A8686946381801F02DF900280DD002210A
:1088200001704460A868391868460078487001F003
:1088300013F83046F8BD0820F8BD0420F8BD00004C
:108840009820002070B50446224888B01E460D00CE
:1088500042601CD0A888296882B21F48FFF70DFF2C
:10886000002815D1A889A96882B21B481030FFF7EB
:1088700004FF00280CD1202218496846FFF76CFC41
:10888000A06806902079002804D0012103E0072089
:1088900008B070BD00216846017506776079002830
:1088A00000D00E2069464875E0780290A0780390C9
:1088B00020780190607800900949684600F0B8FD82
:1088C0000028E5D100F066FE02480121801C00F07E
:1088D00007FEDDE77C20002064230020E49A0100ED
:1088E0007D99010010B50446064801214470401CE2
:1088F00000F05CFE112803D121460348FFF7CFFEAC
:1089000010BD00007C20002074230020F8B507462D
:108910000024234802E0641C042C1AD2A2008258CE
:10892000BA42F8D1042C14D21D481E4E0C3800292E
:1089300029D001290ED002290BD1600020188019FE
:108940004578002D05D018480169002901D0284636
:108950008847F8BD61006118755C8E19717800292F
:108960000CD011490A224968806851430E4A521CB2
:10897000FFF700FF002801D10B4847700A48B17883
:1089800014300155DDE78068FFF732FF06486100CB
:10899000611814308919005D8D78A842D1D0F8BDD6
:1089A000B49A0100382300206420002010B5064A44
:1089B0000649032000F070F8002803D00022114679
:1089C000FFF742FE10BD0000198A0100CD0C000027
:1089D00070B50023042811D2440004190D4D012A5A
:1089E00002D101290DD0002246008019094E8019BC
:1089F00000290CD0012906D0022906D007231846E9
:108A000070BD0D30C2B22A55F9E74270F7E78270A7
:108A1000F5E700003823002010B510490D280A782A
:108A200006D00E2819D1172A08D0521C0A7007E068
:108A3000002A01D0521EF9E7172000E0002008703C
:108A40000878064A8100121D515800F017F80028D6
:108A500003D000221146FFF7F7FD10BD00200020D3
:108A600010B5054A0146127A0020D20702D0084606
:108A700000F062F810BD00006420002070B50D46C3
:108A8000FFF7EEFF0446294602A0FFF7EFFC204661
:108A900070BD00002573000070B50E4620490546E4
:108AA0004E608D6000200A61A9071ED500240122B6
:108AB00011462046FFF78CFF641C042C02D20028CC
:108AC000F5D012E0002810D1720804211548FFF7F4
:108AD00081FD002809D1FFF76BFD002805D1114861
:108AE000114A00211438FFF7E7FDE90706D00F22ED
:108AF0000E4952058A600023CB608A6100280DD19F
:108B000008480B4A00211C38FFF7D6FD002805D184
:108B10000448084A01211838FFF7CEFD70BD000057
:108B200064200020C49A0100318D0100000500502E
:108B3000E58F010099850100FEB57A4D0722EB68AB
:108B400092059A4302936B6800939C0006461B199A
:108B500000200121019349050746734C3300FFF7BC
:108B600095FC180D1515374755677C887F8891DE71
:108B70009E9E9E9E9EC8CED1D8DEDE140F21029A04
:108B800049059143A160E7602F70FEBDA260E760D8
:108B900060680F2252055040800209D5A160E7604D
:108BA000022E02D1E120C0000AE07D20400107E052
:108BB000E160A760022E01D1C82001E0FF209130C2
:108BC0002E706421FFF7B2FA0099414300223FE082
:108BD000A260E76060680F2252055040800204D511
:108BE000A160E76019204001EAE7E160A760E3E7E0
:108BF000A260E76060680F2252055040800202D5F3
:108C0000A160E760D1E7E160A760D7E7A260E76015
:108C100060680F2252055040800202D5A160E760D3
:108C200001E0E160A7602E700098410000220FE093
:108C3000A260E76060680F2252055040800202D5B2
:108C4000A160E76001E0E160A7602E70009900225A
:108C500036480068FFF78EFDFEBDA260E7601BE0AE
:108C600061680120800502468A43A2600140E160FC
:108C700010E06068012189050A468243A26008402D
:108C8000E060E3E76068012189050A468243A2604B
:108C90000840E0600199C9E7E160A7602DE0234842
:108CA0004068FFF7A5FD11218A1B01D0002807D0DD
:108CB0000F22E96852051140A160E760EF60FEBD38
:108CC0000121C905E960012A0CD91046C821484391
:108CD0006421FFF72BFA696800224143134840687A
:108CE000FFF748FD0F22E96852051140E160A760D7
:108CF000FEBD0F214905A160E7602E70FEBD072271
:108D00009205AAE70D214905A160E76001218905C7
:108D1000C2E70321C905A160E7608910BCE70F2104
:108D20004905B9E76420002000050050A89A010019
:108D300010B500780221FFF7E9FD10BD0022D243F3
:108D4000830004490428CA5002D30818203002774F
:108D50007047000084230020F0B50025ED43002A71
:108D600002D00023042601E0042308260B4C04E073
:108D70009F00E7597F1C04D05B1CB342F8D3284600
:108D8000F0BD26185DB2203635709E00A151002A34
:108D9000F5D1E11820310877F1E7000084230020A5
:108DA000024909182020085670470000842300203B
:108DB000054901208861054900224A6082079060C8
:108DC00048680028FCD070470005004000010040C2
:108DD000F8B52348C16800293ED00E6821494C6887
:108DE0000769C078E11B0D022D0AED1C002814D183
:108DF00001201D4A000450601B4A403A50601B4944
:108E0000400008601A4908601A49012008602F20B4
:108E1000FFF760F912490120C870B54200D235460B
:108E2000E81900020F4B000A403318600D4A5168E0
:108E3000001B091B0902090A0002000AC91C814221
:108E400009D9506818602F20FFF744F9012007491D
:108E5000400480390860F8BD00F066FCF8BD0000F1
:108E600098200020001501404013014080E200E0FE
:108E700000E100E000100140F8B500260124154D86
:108E800023E06968F0004718387821462A69814054
:108E9000114218D08A432A6100F08EFA3A782146AE
:108EA000EB68914019400346934099420BD1797881
:108EB000012901D0012100E000217B684140002B05
:108EC00001D010469847761CF6B228788642D8D34F
:108ED000F8BD00008420002010B50E4900234A7818
:108EE0008C78A24212D0521CD2B24A70022A00D10F
:108EF0004B704A78074B920018339A580260086901
:108F000010180002000A0861012010BD0360002053
:108F100010BD000098200020826883881A400368F2
:108F20009A5C0A708168491C81607047C2688388B6
:108F30001A4003689954C168491CC160704710B554
:108F40000446C0B2FFF7CEFC204610BDF8B5074678
:108F5000104E0125BD403068FFF74AFC00280DD1B6
:108F60000D4C2069284207D1384600F025FA002828
:108F7000E06804D0284303E0A8432061F8BDA8437B
:108F8000E0602069002228432061A1683068FFF773
:108F9000F1FBF8BD249B0100842000201048018CC7
:108FA000C9B2012917D1818C090714D1018D090695
:108FB0000A0F03D1828D1206120F0ED0090F01295C
:108FC00003D1828D1206120F07D0032903D1808DA1
:108FD0000006000F01D000207047012070470000FC
:108FE000C00F00F010B50448017AC90702D000781C
:108FF000FFF7A2FD10BD000064200020F8B52C4949
:10900000C8680A690C780F79896886469446009189
:109010003EE00099E20055182A7836E018235343C1
:109020006968521CC918AB78D2B2934200D10022B1
:109030000B78022B02D0032B27D123E04E68034686
:10904000014603E0B14204D00B46C96900291CD097
:10905000F8E7002919D08B4208D1C069002805D152
:10906000144F0126BE600026B44601270E68C96968
:10907000D961002909D00B689B190B6005E00174C8
:10908000C06900E000210028F9D169789142C5D17A
:109090002146641EE4B20029BBD1054962460A613B
:1090A000C8600F71704501D00120F8BD0020F8BDE7
:1090B0009820002000100140F8B5044631480026F1
:1090C000C168009107784EE02E48F90080680D18BD
:1090D00043E0002C02D02046E4691FE028781821E4
:1090E00041436A68401CC0B251182870AA78904267
:1090F00000D12E700A784868012A30D1027C002AFB
:109100002DD18A684260CA6882600A69C260496972
:1091100081611C490979002900D0466019494368DA
:109120000A699C46991A0902174B090A994202D208
:109130008268891807E06146511A09028268090AA3
:109140008A4202D9511A016000E00660466001219E
:1091500086600174C66100F087FB002CB9D12878C5
:1091600069788842BAD138467F1EFFB20028ABD159
:109170000448C1680098814201D00120F8BD002058
:10918000F8BD000098200020FFFF7F0088B0FFF7A7
:109190000FFE00231A4A03211846FFF7A3FA0028FE
:1091A00003D000221146FFF74FFA164A04AB07CA54
:1091B00007C3154800900120019014480290FF2039
:1091C000013003900323124A694604A8FFF73AFBD3
:1091D000002803D000221146FFF736FAFFF7E6FB1E
:1091E0000948094A401E0078D21C81005158FFF7F7
:1091F00045FC002803D000221146FFF725FAFEE7C0
:10920000C02100209C9A010001200020C0200020E5
:10921000799901008207D30EFF229A408907090E2F
:1092200010B5994000280BDA03071B0F083B9C0878
:109230000C4BA400E318DC6994430C43DC6107E0A9
:109240008408094BA400E418236893430B4323606C
:10925000C106C90E0120884004490860044908601D
:1092600010BD000000ED00E000E400E080E200E05E
:1092700000E100E0F3B581B00F46019800F03CFA40
:10928000012400281E4E019817D0FFF789FD801990
:109290002030007F8009032802D0012806D007E093
:1092A0001848006901998C40204201D1022100E058
:1092B0000321019800F0F8F9FEBD00F029FA00281A
:1092C000FAD00198FFF76CFD05468100C81D0E4AD3
:1092D000F93089180A6980B222430A610B494018A3
:1092E00000210160002FE7D00198FFF759FD8000B1
:1092F00030580028E0D00648AC404460FEBD000075
:1093000084230020000500500065004000600040FC
:1093100000630040FEB5044623480E460019202194
:1093200041560027C8171346401C01D0082738E0D3
:10933000F27819462046FFF70FFD0546401C2FD056
:10934000B078002807D01948A1000918086802223F
:109350009043086007E000217378204600910A4698
:10936000019100F069F9F078002810D01048AA00A7
:109370001018317802690F4B1A400261E206D20CD4
:109380008907890B0A4301690A43026109E006481B
:10939000327840192030017F92011143017700E0BB
:1093A00004273846FEBD000084230020000700503B
:1093B00000650040FFE0FCFF03490969C140C807A0
:1093C000C00F00D0012070470005005070B5124D4D
:1093D0002879002801D0082070BD0F4900204039AD
:1093E000421E0B182033401CC0B21A702028F8D33C
:1093F00000242046FFF7A2FC641CE4B2082CF8D33A
:1094000003210620FFF706FF01200449C00748603A
:1094100001202871002070BDC4230020006300409B
:1094200002480079002800D001207047C4230020A2
:10943000F3B50446244881B0807D002801D008207F
:10944000FEBD002C00D1214C206800F022F92078CC
:10945000012739461E4E8140B1600021606800F04E
:109460000FF91C4DA0696862607D217D0843E866A4
:1094700003CCE8606961207B083C01280ED1002103
:10948000A06800F0FDF8E06800F003F9207B3946A1
:109490008140B160E168A068A96028610A4E029825
:1094A000706021693160002806D00C4A217F0A488B
:1094B00050600220FFF7AEFE042028600020F07408
:1094C000B074B7757075FEBDCC230020049B0100FD
:1094D00000050050002500408000020000230040ED
:1094E000F8B5294DEA7C002A01D01120F8BDE974B5
:1094F000E86000202875687D002801D100F05CF943
:109500006868224C002805D08120214980004860ED
:109510000020F8BDFF212531204600F0DFF8054688
:10952000FF210931204600F0D9F80746FF214531D7
:10953000204600F0D3F80646394631432943E9D0A6
:109540002846304306D100F011F90F48C17C007D58
:109550008142DFD8FF21453100206050FF212531B5
:1095600060500949002DC87401D00320F8BD002EB9
:1095700001D00F20F8BD497D0120002901D02060D5
:10958000C6E76060C4E70000CC2300200020004054
:109590000023004010B5044C607D002803D100F08A
:1095A0000BF90120607510BDCC230020F8B5204CCC
:1095B0000026A27C002A01D01120F8BDA174A06071
:1095C000002020821B4DFF271D37E8510120A86095
:1095D00000F0ACF96168002911D024E0FF270137C1
:1095E0002946144800F07AF8002802D1208AB842AF
:1095F000F6D1208AB84203D000F098F900E03D4649
:10960000A07C218A8842E9D8218AC81FF9380CD069
:10961000084F2946384600F061F80028F9D00120AB
:10962000F8600020A0743046F8BD0F26F9E700006E
:10963000CC2300200020004030B552000A4399009E
:10964000039C0A432102049D0A4329040A43024958
:1096500080004018026030BD0007005030B5520055
:109660000A439900039C0A432102049D0A432904EA
:109670000A43024980004018026030BD00070050D4
:109680001CB500220B46009211460192FFF7E6FF3F
:109690001CBD1CB5002100910B4601220191114611
:1096A000FFF7DCFF1CBD00008200064810180268AE
:1096B00003231B049A430260026809040A43026000
:1096C0007047000000070050034940180068012857
:1096D00000D0002070470000006000404058002883
:1096E00000D0012070470322120280184068084011
:1096F00000D001207047000004490818202141567D
:10970000042901DB012070470020704784230020DA
:109710000449081820214156042901D2012070472C
:10972000002070478423002070B501240B49600499
:1097300008600B4940108860094940398860094D2C
:109740006C602F20FEF7C6FCAC60074D00242F2074
:109750002C61FEF7BFFCEC7070BD000080E100E002
:10976000401301400010014098200020FF210748CD
:10977000093100224250064881690648037DC268CB
:10978000D154017D491C0175704700000020004044
:1097900000250040CC2300201FB5012269460A7035
:1097A00008720448C16801910021C17406C8684666
:1097B00090471FBDCC230020FF2205482532002101
:1097C0008150FF2209328150012101607047000061
:1097D00000200040FEB51F4C00252769E06802907C
:1097E0006846FFF779FB0190FFF708FC06460198F1
:1097F000002822D000230098E16817E00E680A468E
:10980000864202D9301A086012E0801BF318002645
:109810001660D668D169B446002E07D0FE1836020D
:10982000360A566066469660D56115460029E5D130
:109830002846E160FFF740FC06E02846FFF73CFCC5
:10984000002801D1002E02D00298FFF7C1FA0020B3
:109850002071FEBD9820002001200249000508600B
:109860007047000000E200E010B50E4BD9680029F7
:1098700006D002680C68A24204D8A21A0A60C1612C
:10988000D86010BD0B4604E00B46C969121B0029C5
:1098900004D00C689442F7D3A41A0C600260C16132
:1098A000D86110BD98200020F8B51E4DEC68002C42
:1098B00036D01D48002740682969401A0602360A3A
:1098C0002068B0421AD8361AC7192246107CE469BB
:1098D000002811D0002010746B69002B09D0916909
:1098E00050699847002807D000221146FEF7ACFEC9
:1098F00002E0516990698847002CE1D16978A87825
:10990000814206D1401CC0B2A870022801D10020BB
:10991000A87004490006800D18310F50FFF79CFF16
:10992000F8BD00009820002000150140FF210748E5
:109930001D31002242500648028A8168895C028AF1
:10994000521C02820348C1617047000000200040A1
:10995000CC230020002500401FB500216A4611706D
:109960001072044882680192817406C86846904764
:109970001FBD0000CC230020704700007CB501789B
:10998000254D01290AD002292FD000292CD12946A2
:109990002248FEF767FE00282ED031E040680178AB
:1099A0001E481038FEF77BFE1C4C103C002805D0EA
:1099B00001216A4611700190684608E0A068E168DC
:1099C000081A012805D100206946087068466968B0
:1099D0008847A068E168081AA188884204D80E4820
:1099E0000121801CFFF77CFD7CBD02216A461170BD
:1099F000C068019068460CE001210748FFF7D6FDDA
:109A000006488168C0688842EED103206946087024
:109A10006846696888477CBD7C200020742300204C
:109A200012494868C005C00D19D0103840B200284E
:109A300007DA0207120F083A920892005118C96912
:109A400004E081080A4A8900891809688007C00E65
:109A5000C1400806800F012803D0032803D002204C
:109A600070470020704701207047000000ED00E0C3
:109A700000E400E042788378521CD2B2934200D1D5
:109A800000220378934201D1002070470A70416898
:109A90004078182250430818704700000B09080A44
:109AA0000100000000509D00F82200201823002033
:109AB00044230020110000001200000013000000E9
:109AC00014000000110003000D89010012000300C2
:109AD0000D890100130003000D890100140003002B
:109AE0000D890100090000000B0000000A000000C1
:109AF00008000000000000000000000000509D0071
:109B000003000000090000000B0000000A00000034
:109B100008000000000000000000000000509D0050
:109B200003000000E4230020030000004253505FC4
:109B3000494E4449434154455F555345525F535440
:109B40004154455F300A0D004253505F494E44492D
:109B5000434154455F414C4552545F300A0D00006B
:109B60004253505F494E4449434154455F55534524
:109B7000525F53544154455F310A0D004253505FC8
:109B8000494E4449434154455F414C4552545F312D
:109B90000A0D00004253505F494E44494341544529
:109BA0005F555345525F53544154455F320A0D008F
:109BB0004253505F494E4449434154455F414C45EF
:109BC00052545F320A0D00004253505F494E4449DF
:109BD000434154455F555345525F53544154455F8B
:109BE000330A0D004253505F494E444943415445A6
:109BF0005F414C4552545F330A0D00004253505FA1
:109C0000494E4449434154455F434F4E4E454354AA
:109C100045440A0D000000004253505F494E44493C
:109C2000434154455F4144564552544953494E4778
:109C30005F44495245435445440A0D004253505F26
:109C4000494E4449434154455F49444C450A0D003F
:109C50004253505F494E4449434154455F55534533
:109C6000525F53544154455F4F46460A0D00000071
:109C70004253505F494E4449434154455F414C452E
:109C800052545F4F46460A0D000000004253505F99
:109C9000494E4449434154455F424F4E44494E4723
:109CA0000A0D00004253505F494E44494341544518
:109CB0005F5343414E4E494E470A0D004253505F99
:109CC000494E4449434154455F41445645525449E5
:109CD00053494E470A0D00004253505F494E4449D4
:109CE000434154455F53454E545F4F4B0A0D0000AE
:109CF0004253505F494E4449434154455F52435695
:109D00005F4F4B0A0D0000004253505F494E4449DB
:109D1000434154455F555345525F53544154455F49
:109D20004F4E0A0D000000004253505F494E444917
:109D3000434154455F53454E445F4552524F520A8A
:109D40000D0000004253505F494E44494341544581
:109D50005F464154414C5F4552524F520A0D00003C
:109D60004253505F494E4449434154455F52435624
:109D70005F4552524F520A0D000000004253505F9F
:109D8000494E4449434154455F4144564552544924
:109D900053494E475F57484954454C4953540A0D5F
:109DA000000000004253505F494E4449434154452E
:109DB0005F4144564552544953494E475F534C4FB7
:109DC000570A0D00E49D010000200020C0000000A3
:109DD000A6840100A49E0100C0200020480B0000C2
:109DE000B6840100000000003C9C0100A49C01001E
:109DF000BC9C01007C9D0100A49D0100189C0100F9
:109E00008C9C0100FC9B0100D89C0100289D010056
:109E1000F09C0100609D0100449D0100489B0100F1
:109E20007C9B0100B09B0100E49B0100709C010041
:109E3000509C01002C9B0100609B0100949B010041
:109E4000C89B0100089D0100000000000000000008
:109E50000000000000000000000000000000000002
:109E600000000000000000000000000000000000F2
:109E700000000000000000000000000000000000E2
:109E800000000000000000000000000000000000D2
:109E900000000000000000000000000000000000C2
:049EA0000024F400A6
:04000005000180C1B5
:00000001FF
