:020000040001F9
:1080000058290020D5800100EF800100F180010097
:108010000000000000000000000000000000000060
:10802000000000000000000000000000F3800100DC
:108030000000000000000000F5800100F780010052
:10804000F9800100F9800100A9810100F980010097
:10805000F980010000000000F9800100F9800100B2
:10806000F9800100F9800100F9800100F980010028
:10807000F9800100F9800100F9800100F980010018
:10808000F9800100F9800100F9800100F980010008
:10809000F9800100F9800100F9800100F9800100F8
:1080A000F9800100F98001000000000000000000DC
:1080B00000000000000000000000000000000000C0
:1080C0000348854600F034F800480047E584010085
:1080D000582900200321094802680A430260084821
:1080E00002680A4302600748804707480047FEE7E6
:1080F000FEE7FEE7FEE7FEE7FEE70000240500409E
:108100005405004055810100C180010003460B4326
:108110009B0703D009E008C9121F08C0042AFAD23D
:1081200003E00B780370401C491C521EF9D27047C3
:10813000064C0125064E05E0E36807CC2B430C3CBA
:1081400098471034B442F7D3FFF7BEFFF88B010015
:10815000188C010010B500F0A1F9002805D00E49D7
:108160000C484860C8130D4988610D48018CC9B29C
:1081700001290ED1818C09070BD1018D0906090F48
:10818000042906D1808D0006000F02D10549012087
:10819000886010BDDFFF07C000050040006C004094
:1081A000C00F00F000060040F0B53C4D012185B045
:1081B0004902284600F08FFB01270026384C002892
:1081C00023D0FF212531284600F080FB00281CD059
:1081D000FF2025302E508120324980008860607D4C
:1081E000002800D16F600221684601702E4908689E
:1081F00008600390E17C68460172E0680190E674D3
:1082000006CC6846083C90471DE00421284600F053
:1082100062FB002817D0FF210931284600F056FBE9
:10822000002810D000F060FBE07C217D88420AD15C
:10823000607D002800D16F6081201A49800088602D
:10824000207D00F067FBFF211D31284600F03EFB3A
:1082500000280DD0A07C218A884202D900F022FC9F
:1082600006E0FF211D316E50002801D000F030FCE7
:10827000FF214531284600F029FB00280CD0FF20C3
:1082800045302E50607D002800D02F60E07C002813
:1082900002D0207D00F03EFB05B0F0BD0020004084
:1082A0003C210020002300408024004010B5024AF9
:1082B000024900F014F810BD8F8401001420002042
:1082C00002E008C8121F08C1002AFAD1704770479F
:1082D000002001E001C1121F002AFBD17047F8B550
:1082E00016460F460446002503E03946B047641C95
:1082F0006D1C20780028F8D12846F8BDBFF34F8FB9
:1083000004490348C860BFF34F8F00BFFDE700007A
:108310000400FA0500ED00E010B58268C3689342DE
:1083200003D000F0A1F8002010BD052010BD0029E9
:1083300006D0002A02D0531E134203D009207047F2
:108340000E2070470160838000218160C160084673
:10835000704710B58268C3689A1A83889A4203D816
:1083600000F08CF8002010BD042010BD10B50446AC
:1083700009488168C2688088511A814207D1012169
:10838000064800F0A5F9002801D0052010BD2146BF
:108390000148FFF7C1FF10BD1C2100200E20002066
:1083A00070B50446224888B01E460D0042601CD0BD
:1083B000A888296882B21F48FFF7B9FF002815D1A5
:1083C000A889A96882B21B481030FFF7B0FF0028C7
:1083D0000CD1202218496846FFF798FEA068069045
:1083E0002079002804D0012103E0072008B070BDE7
:1083F00000216846017506776079002800D00E20BC
:1084000069464875E0780290A07803902078019042
:10841000607800900949684600F002F90028E5D12B
:1084200000F0B0F902480121801C00F051F9DDE7AD
:108430000C2000201C210020B88B0100098B0100BA
:1084400010B50446064801214470401C00F0A6F90E
:10845000112803D121460348FFF77BFF10BD000020
:108460000C2000202C210020826883881A40036899
:108470009A5C0A708168491C81607047C268838871
:108480001A4003689954C168491CC160704710B50F
:108490000446C0B2FFF7D4FF204610BD1048018C3F
:1084A000C9B2012917D1818C090714D1018D0906A0
:1084B0000A0F03D1828D1206120F0ED0090F012967
:1084C00003D1828D1206120F07D0032903D1808DAC
:1084D0000006000F01D00020704701207047000007
:1084E000C00F00F0002288B01146104600F030FAAC
:1084F000274B02219A1E009100F088FA2449254C4E
:10850000C91E886000200121034603220D468540D4
:10851000ED012D0F02D085002D192A60401C202866
:10852000F4D30F221C4852058260C3601B4B0DCB55
:10853000019017480292C01E049019480690FF202F
:1085400001300393059107900323164A04A901A85B
:10855000FFF726FF002803D000221146FFF7CEFECA
:1085600011A0FFF7A3FE6846FFF700FF0028FAD12D
:1085700068460078FFF764FF0028F9D16846007864
:10858000712801D05128EED10AA0FFF78FFEFEE737
:10859000032000200007005000050050AC8B0100B4
:1085A0001C200020F18A01000A0D53746172743A94
:1085B000200A0D00200A0D45786974210A0D00007B
:1085C0008207D30EFF229A408907090E10B5994001
:1085D00000280BDA03071B0F083B9C080C4BA40078
:1085E000E318DC6994430C43DC6107E08408094B21
:1085F000A400E418236893430B432360C106C90E0B
:1086000001208840044908600449086010BD00004A
:1086100000ED00E000E400E080E200E000E100E0C6
:10862000F3B50446244881B0807D002801D008209D
:10863000FEBD002C00D1214C206800F035F92078D7
:10864000012739461E4E8140B1600021606800F06C
:1086500018F91C4DA0696862607D217D0843E866B9
:1086600003CCE8606961207B083C01280ED1002121
:10867000A06800F006F9E06800F016F9207B3946A2
:108680008140B160E168A068A96028610A4E029843
:10869000706021693160002806D00C4A217F0A48A9
:1086A00050600220FFF78CFF042028600020F07447
:1086B000B074B7757075FEBD3C210020D88B0100E9
:1086C000000500500025004080000200002300400B
:1086D000F8B5294DEA7C002A01D01120F8BDE974D3
:1086E000E86000202875687D002801D100F022F99B
:1086F0006868224C002805D081202149800048600C
:108700000020F8BDFF212531204600F0DFF80546A6
:10871000FF210931204600F0D9F80746FF214531F5
:10872000204600F0D3F80646394631432943E9D0C4
:108730002846304306D100F0D7F80F48C17C007DB1
:108740008142DFD8FF21453100206050FF212531D3
:1087500060500949002DC87401D00320F8BD002ED7
:1087600001D00F20F8BD497D0120002901D02060F3
:10877000C6E76060C4E700003C2100200020004004
:108780000023004010B5044C607D002803D100F0A8
:10879000D1F80120607510BD3C210020F8B5204CB7
:1087A0000026A27C002A01D01120F8BDA174A0608F
:1087B000002020821B4DFF271D37E8510120A860B3
:1087C00000F070F96168002911D024E0FF2701371B
:1087D0002946144800F07AF8002802D1208AB842CD
:1087E000F6D1208AB84203D000F05CF900E03D46A3
:1087F000A07C218A8842E9D8218AC81FF9380CD088
:10880000084F2946384600F061F80028F9D00120C9
:10881000F8600020A0743046F8BD0F26F9E700008C
:108820003C2100200020004030B552000A4399004E
:10883000039C0A432102049D0A4329040A43024976
:1088400080004018026030BD0007005030B5520073
:108850000A439900039C0A432102049D0A43290408
:108860000A43024980004018026030BD00070050F2
:108870001CB500220B46009211460192FFF7D4FF6F
:108880001CBD1CB500220B46009211460192FFF759
:10889000DDFF1CBD1CB5002100910B46012201919A
:1088A0001146FFF7C1FF1CBD1CB5002100910B460E
:1088B000012201911146FFF7C9FF1CBD0121814032
:1088C00001488160704700000005005040580028B2
:1088D00000D001207047032212028018406808402F
:1088E00000D0012070470000FF2107480931002215
:1088F0004250064881690648037DC268D154017D13
:10890000491C017570470000002000400025004010
:108910003C2100201FB5012269460A7008720448F4
:10892000C16801910021C17406C8684690471FBD07
:108930003C210020FF220548253200218150FF22E2
:108940000932815001210160704700000020004081
:10895000F8B505273F0215460E46002825D0274CBE
:108960000920FFF797FF0820FFF794FF002103205D
:10897000FFF77EFF0120FFF78DFF2148092181606D
:108980000821C160032101610120FFF797FF012148
:10899000C907E0194162002E05D0012E1CD0022E1D
:1089A0001CD0032E1CD000211BE0164C1F20FFF70B
:1089B00071FF1420FFF76EFF00211620FFF758FF0C
:1089C0001E20FFF767FF10481F2181601421C1603E
:1089D000162101611E20D8E7022102E0042100E0F7
:1089E00006210122002D00D0114341650023FF2103
:1089F00009310B5102602046F8BD000000400040E4
:108A0000004500400030004000350040FFB596466C
:108A10000025224A81B02B46904201D11E2400E05D
:108A2000012401221E4EA240F2602AE07246052770
:108A3000D65C3F02C2199446D66103273F03C61D88
:108A4000F93600E06D1CB268002A01D1BD42F9D3AD
:108A5000BD4205D12046FFF731FF002005B0F0BD33
:108A60000027B7600A9A002A12D0012A10D0624665
:108A70009269002B03D0049EF618203EF2775B1C0F
:108A80009BB28B42D2D32046FFF718FF0120E5E7C7
:108A900062469269049EF254F1E700000030004003
:108AA00000050050FF2107481D31002242500648B2
:108AB000028A8168895C028A521C02820348C16171
:108AC00070470000002000403C21002000250040AD
:108AD0001FB500216A461170107204488268019225
:108AE000817406C8684690471FBD00003C210020E5
:108AF00010B50178022901D0012904D10022406873
:108B00001146FFF7FBFB10BD7CB50178254D01290F
:108B10000AD002292FD000292CD129462248FFF75C
:108B2000FBFB00282ED031E0406801781E48103849
:108B3000FFF70FFC1C4C103C002805D001216A46B1
:108B400011700190684608E0A068E168081A0128E1
:108B500005D1002069460870684669688847A068A2
:108B6000E168081AA188884204D80E480121801CB7
:108B7000FFF7AEFD7CBD02216A461170C06801900E
:108B800068460CE001210748FFF708FE06488168A7
:108B9000C0688842EED1032069460870684669685B
:108BA00088477CBD0C2000202C2100200B09080ADE
:108BB0000100000000509D00090000000B000000B3
:108BC0000A00000008000000000000000000000093
:108BD00000509D0003000000090000000B00000091
:108BE0000A00000008000000000000000000000073
:108BF00000509D0003000000188C010000200020A0
:108C00001C000000C0820100348C01001C200020E8
:108C10003C090000D0820100008FFF00000000002E
:108C20000000000000000000000000000000000044
:048C30000024F40028
:04000005000180C1B5
:00000001FF
