:020000040001F9
:1080000060280020D5800100EF800100F180010090
:108010000000000000000000000000000000000060
:10802000000000000000000000000000F3800100DC
:108030000000000000000000F5800100F780010052
:10804000F9800100F9800100F9800100F980010048
:10805000F98001000000000031810100F980010079
:1080600081820100F9800100F9800100F98001009E
:10807000F9800100F9800100F9800100F980010018
:10808000F9800100F9800100F9800100F980010008
:10809000F9800100F9800100F9800100F9800100F8
:1080A000F9800100F98001000000000000000000DC
:1080B00000000000000000000000000000000000C0
:1080C0000348854600F022F800480047BD840100BF
:1080D000602800200321094802680A43026008481A
:1080E00002680A4302600748804707480047FEE7E6
:1080F000FEE7FEE7FEE7FEE7FEE70000240500409E
:10810000540500402D820100C1800100064C01256C
:10811000064E05E0E36807CC2B430C3C984710342F
:10812000B442F7D3FFF7D0FFF888010018890100A7
:10813000F8B50024FF25013501262746009428467E
:1081400000F0C8FB002808D031484068304204D015
:10815000304800212818344301602D1D76007F1C13
:10816000ADB2042FEBD3FF207D3000F0B3FB00282D
:1081700007D02948002101604007044327480069CF
:108180000090274E200712D00127002527420AD051
:108190002448AA00111808690969C004C00E89039F
:1081A000B258890F90477F006D1C042DEED3002C30
:1081B0001DDA3046203014214156491C17D0077D66
:1081C000BC06A40E204600F0D7F880003558002DDC
:1081D0000DD0BE090121A140134AA00080180068FB
:1081E000009A8003800F114202D0022802D0F8BD0D
:1081F0000328FCD1032E05D1022807D002212046F6
:1082000000F058FB31462046A847F8BD0321F6E7A9
:1082100000630040006000407C61004000050050A9
:1082200024200020006500400007005010B500F039
:10823000D1F8002805D00E490C484860C8130D49F4
:1082400088610D48018CC9B201290ED1818C0907C2
:108250000BD1018D0906090F042906D1808D000676
:10826000000F02D105490120886010BDDFFF07C063
:1082700000050040006C0040C00F00F00006004008
:10828000F8B500260F4C35463746A800FF30413080
:1082900080B22158002910D001210904A9400322ED
:1082A0001202A21852680A4207D02750B2000649AB
:1082B000054B89581B1F9A5890476D1C042DE4D319
:1082C000F8BD0000008000401820002002E008C82F
:1082D000121F08C1002AFAD170477047002001E040
:1082E00001C1121F002AFBD170470000BFF34F8F5E
:1082F00004490348C860BFF34F8F00BFFDE700008B
:108300000400FA0500ED00E00003000F01D000209A
:1083100070470120704700000022D24383000449C7
:108320000428CA5002D30818203002747047000095
:1083300024200020F0B50025ED43002A02D00023C0
:10834000042601E0042305260A4C04E09F00E759B7
:108350007F1C04D05B1CB342F8D32846F0BD5DB24D
:10836000261835759E00A151002AF6D1E11820315A
:108370000874F2E724200020024909181420085646
:10838000704700002420002072B602480168491C92
:10839000016070471C20002003490868401E0860E7
:1083A00000D162B6704700001C20002001218140EE
:1083B00003484068014201D0012070470020704707
:1083C00008200020014610B501208840FFF79CFFDF
:1083D00010BD00001048018CC9B2012917D1818C51
:1083E000090714D1018D09060A0F03D1828D1206E7
:1083F000120F0ED0090F012903D1828D1206120F20
:1084000007D0032903D1808D0006000F01D0002082
:108410007047012070470000C00F00F0012181402B
:108420000804000C00D00120704700003EB5204831
:1084300002A900680290152000F0C4F8002803D0BB
:1084400000221146FFF752FF002001460090012351
:10845000184A194800F0B9F901A800F021F90028DC
:1084600003D000221146FFF741FFFF21413112489E
:1084700000F0A8F90446152000F0F0F8024668461E
:108480002146007900F036F9002803D00022114679
:10849000FFF72CFF6846007900F04CF9002803D064
:1084A00000221146FFF722FF152000F0E1F83EBD43
:1084B000EC880100400D03000020002000F056F978
:1084C000002803D000221146FFF710FF00F050F8FB
:1084D000002803D000221146FFF708FF094A0021B7
:1084E000094800F089F9002803D000221146FFF75F
:1084F000FDFE06490120C860FFF798FF024800F022
:1085000057F9FEE7E988010000200020008C0040B8
:108510008207D30EFF229A408907090E10B59940B1
:1085200000280BDA03071B0F083B9C080C4BA40028
:10853000E318DC6994430C43DC6107E08408094BD1
:10854000A400E418236893430B432360C106C90EBB
:1085500001208840044908600449086010BD0000FB
:1085600000ED00E000E400E080E200E000E100E077
:1085700070B5124D687D002801D0082070BD0F49EC
:1085800000202039421E0B18401CC0B21A7520284A
:10859000F9D300242046FFF7BFFE641CE4B2052C8B
:1085A000F8D303210620FFF7B3FF01200449C007D9
:1085B000486001206875002070BD00004420002044
:1085C00000630040FEB5044620480D460019142102
:1085D00041560026491C01D0082633E0A97800291D
:1085E0001DD0012200212046FFF7A4FE411C14D01B
:1085F000830017482A78181869780369154F3B409B
:1086000003610369E706FF0C9207920BC907C90AC9
:108610003B430A431343036104E0042612E00121B3
:10862000C94301756A780120A0400B49012A0BD08B
:10863000C860002100910B4601220191204611469D
:1086400000F026F93046FEBD8860F2E724200020C5
:1086500000650040FFE0ECFF0005005010B5FFF79B
:108660008BFE80060149000E401810BD00600040DE
:108670000949091814200856810008480918086992
:10868000032210431F22120202430A6100BF00BFEF
:1086900000BF0861704700002420002000650040F2
:1086A000F1B50427114E0024FFF76EFE0125A54009
:1086B000354204D02046FFF779FE00280AD0FFF7A4
:1086C0006BFE002F04D0641CAE43E4B2002EEBD14D
:1086D0003846F8BD064901204A68A040104348606A
:1086E000009800270470FFF757FEF1E7FFFF000036
:1086F0000820002070B514460D00064611D0002C4D
:108700000FD0FFF78BFE00280DD03046FFF74EFE4E
:1087100000280AD00648F1000818056144610020CD
:1087200070BD0E2070BD072070BD082070BD000018
:1087300000F5014010B50446FFF744FE00280FD0B5
:108740002046FFF76BFE002804D02046FFF72EFEE0
:10875000002807D001200449A0404860002010BD37
:10876000072010BD082010BD00F501400448017825
:10877000002901D085207047012101700020704739
:108780000820002070B5012424048C4003260568CD
:108790003602AD19002B01D06C6000E0AC600068BF
:1087A00089000818052109024018026470BD000004
:1087B000016801220A604079014A02211154704780
:1087C00010200020006840187047F0B5FF250235E2
:1087D00004688D40FF34FF340234059E2768AF43A0
:1087E00027600468FF34FF34023425681D43256088
:1087F0003346FFF7C7FFF0BDF8B504464079224F76
:108800000D46395C1646002901D00820F8BD002D20
:1088100002D11E49C00045180420E9782056FFF710
:1088200077FE6179184A8900083268685050002E36
:1088300028D06079111F80000E50052021680002A9
:1088400009186A784B68D2075B085B00D20F1343A4
:108850004B602268A9781218936889079B089B00CF
:10886000890F0B43936021682A7808180169120761
:1088700009090901120F114301616179012078543E
:108880000020F8BD0720F8BD10200020F08801006E
:1088900030B552000A439900039C0A432102049D0B
:1088A0000A4329040A43024980004018026030BD8F
:1088B00000070050820006481018026803231B04BA
:1088C0009A430260026809040A430260704700008C
:1088D00000070050034940180068012800D000201C
:1088E0007047000000600040704700000300010076
:1088F000040003030000000018890100002000208C
:1089000024000000CC8201003C89010024200020CA
:108910003C080000DC8201000080004008000000EC
:108920000000000000000000000000000000000047
:0C89300000000000000000000024F40023
:04000005000180C1B5
:00000001FF
