:020000040001F9
:10800000D8300020F58001000F81010011810100AE
:108010000000000000000000000000000000000060
:1080200000000000000000000000000013810100BB
:108030000000000000000000158101001781010010
:108040001981010019810100598401001981010081
:1080500019810100000000006D82010019810100FA
:1080600019810100198101001981010019810100A4
:108070001981010019810100198101001981010094
:1080800019810100B98301001981010019810100E2
:10809000D983010019810100E183010019810100E8
:1080A000198101001981010000000000000000009A
:1080B00000000000000000000000000000000000C0
:1080C0000348854600F0A2F800480047E9B30100E4
:1080D000D8300020401E00BF00BF00BF00BF00BF5F
:1080E00000BF00BF00BF00BF00BF00BF00BFF1D195
:1080F000704700000321094802680A4302600848EB
:1081000002680A4302600748804707480047FEE7C5
:10811000FEE7FEE7FEE7FEE7FEE70000240500407D
:108120005405004005840100C180010030B50B46B4
:10813000014600202022012409E00D46D5409D4241
:1081400005D31D469540491B2546954040191546C7
:10815000521E002DF1DC30BD70B5002425460028EC
:1081600001DA01244042002901DA01254942FFF7E2
:10817000DDFFAC4200D04042002C00D0494270BD2F
:1081800010B5431A934209D28318881803E0401EA1
:1081900001785B1E1970521EF9D210BD03460B43C5
:1081A0009B0703D009E008C9121F08C0042AFAD2AD
:1081B00003E00B780370401C491C521EF9D210BD1D
:1081C000D2B201E00270401C491EFBD2704700226F
:1081D000F6E710B513460A4604461946FFF7F0FFC6
:1081E000204610BD421C0178401C0029FBD1801A9A
:1081F000704730B504460020034600E05B1C934204
:1082000003D2E05CCD5C401BF8D030BD064C0125AC
:10821000064E05E0E36807CC2B430C3C984710342E
:10822000B442F7D3FFF750FF80C90100A0C9010095
:1082300030B58C180278401C13071B0F01D103784E
:10824000401C120906D10278401C03E005780D702D
:10825000401C491C5B1EF9D101E00B70491C521EE9
:10826000FBD1A142E6D3002030BD0000F8B50024C8
:10827000FF250135012627460094284603F00AFB16
:10828000002808D034484068304204D033480021E8
:108290002818344301602D1D76007F1CADB2042FD9
:1082A000EBD3FF207D3003F0F5FA002807D02C48EF
:1082B00000210160400704432A48006900902A4FCA
:1082C000200712D00126002526420AD02748AA00FE
:1082D000111808690969C004C00E8903BA58890FCA
:1082E000904776006D1C042DEED3002C30DA00246C
:1082F0001D4E0021301940304156491C25D00778C9
:10830000BD06AD0E284601F0FBFC80003658002E5D
:108310001BD0BF090121A940154AA8008018006898
:10832000009A8003800F114202D0022802D00CE094
:1083300003280AD1032F05D102280AD0022128469A
:1083400003F098FA39462846B047641C042CCFD372
:10835000F8BD0321F3E70000006300400060004027
:108360007C610040000500507C2700200065004033
:10837000000700508307FF22DB0E9A408907090E91
:10838000994000280BDA0007000F083883080848D6
:108390009B001818C36993430B43C361704783085C
:1083A00004489B001B1818689043084318607047E6
:1083B00000ED00E000E400E010B506490020086090
:1083C00048608860C860034940390860486004F02C
:1083D000D5F810BD4011014010B504F065F810BD8E
:1083E00010B507484068002807D08047002803D010
:1083F0000022114600F050FA10BD02F05DFE10BDE3
:108400004021002010B502F0A5FE002805D00E493D
:108410000C484860C8130D4988610D48018CC9B2E9
:1084200001290ED1818C09070BD1018D0906090F95
:10843000042906D1808D0006000F02D105490120D4
:10844000886010BDDFFF07C000050040006C0040E1
:10845000C00F00F000060040F0B53C4D012185B092
:108460004902284603F025FA01270026384C002847
:1084700023D0FF212531284603F016FA00281CD00E
:10848000FF2025302E508120324980008860607D99
:10849000002800D16F600221684601702E490868EB
:1084A00008600390E17C68460172E0680190E67420
:1084B00006CC6846083C90471DE00421284603F09E
:1084C000F8F9002817D0FF210931284603F0ECF90C
:1084D000002810D003F0EAFCE07C217D88420AD11C
:1084E000607D002800D16F6081201A49800088607B
:1084F000207D03F0F1FCFF211D31284603F0D4F963
:1085000000280DD0A07C218A884202D904F0C2F84C
:1085100006E0FF211D316E50002801D004F0D0F894
:10852000FF214531284603F0BFF900280CD0FF2079
:1085300045302E50607D002800D02F60E07C002860
:1085400002D0207D03F0C8FC05B0F0BD0020004043
:10855000C4270020002300408024004030B474462B
:10856000641E2578641CAB4200D21D46635D5B002F
:10857000E31830BC184702E008C8121F08C1002ADF
:10858000FAD170477047002001E001C1121F002A94
:10859000FBD17047F7B584B00025168807461580D3
:1085A000406B1446002813D003780598032E51D34E
:1085B0000221017021881122491C89B22180425474
:1085C0002188491C89B2218043542088401C208086
:1085D000386B00281DD005462088059902461232C6
:1085E000B24237D811220A5420881022401C80B28F
:1085F00020800A542088401C20800F202A5C238879
:10860000401ECA54228840B2521C22800028F5DA4B
:108610000025384620300290807B002806D0334663
:108620002246059902F0E2FD050014D10298407B34
:10863000002806D032462146059800F051FE05007C
:1086400009D1B878002823D0059886462088001DD7
:10865000B04202D90C2007B0F0BD684679DF00288F
:10866000F9D1218803207246505420881921401CDA
:1086700080B22080115420887146401C80B2208036
:1086800041186846008804F02BF8218840182080A3
:10869000F878002817D0218803230A46FB56C91C06
:1086A0000598B142D6D80221815421880122491C63
:1086B00089B2218042542188491C89B221804354C7
:1086C0002088401C20807868002817D0218800234B
:1086D000C3560A46C91C0598B142BBD80221815431
:1086E00021880A22491C89B2218042542188491CD0
:1086F00089B2218043542088401C2080388900287A
:108700000AD0009438460196062202210830059BC3
:1087100004F065F805009ED1388A00280AD000943C
:1087200038460196072203211030059B04F057F8C4
:10873000050090D1388B00280AD000943846019665
:10874000152214211830059B04F049F8050082D148
:10875000386A002806D033462246059901F080FC8D
:108760000500D8D1786A002806D0334622460599FC
:1087700002F0D6FE0500CED10298007B002807D07B
:10878000334622463846059903F027FC0500C2D13E
:108790003878002807D0334622463846059902F03B
:1087A000F3FE0500B7D1284655E710B50122022196
:1087B000002001F0D1F8002801D0072812D10722AB
:1087C0000221012001F0C8F8002801D0072809D1B2
:1087D00000210A22084601F0BFF8002801D007282E
:1087E00000D1002010BD0000044842680121C905E5
:1087F0000B46934383600A40C260704700050050F7
:1088000070B50024064D06E06968E000085C0121AF
:1088100002F040FF641C28788442F5D3002070BD2C
:108820000C210020F8B515460C460646052A01D253
:108830000720F8BD03F004F8002803D102F0D6FFAA
:108840000028F6D1104900204E600C70C8608D6081
:1088500008610E4D0DE0E000696880190091817893
:108860006A46517000780A4A694602F063FF0028A0
:10887000DFD12046641EE4B20028ECD1054A002175
:10888000024800F043F8F8BD0C21002078C901002F
:1088900059AE01002DA20100BFF34F8F04490348D8
:1088A000C860BFF34F8F00BFFDE700000400FA056A
:1088B00000ED00E0014B1B6818470000582700201E
:1088C00038B50C46A2680C235A43064B09789D58CC
:1088D000054A126A00920246204608302369A847DA
:1088E00038BD0000A8280020E820002010B5064967
:1088F00014230A785A435118091DFFF7E1FF042099
:1089000003F04AFC10BD0000DC270020094B9B68E7
:10891000002B07D0002A07D0002805D00068037C70
:10892000002B03D008207047072070474174426134
:108930000020704720210020FFB59007002581B05E
:1089400014460E46002832D11B4F002C31D003F0C4
:108950008BFA049878610320387033461821224638
:1089600000204B43BC601834C10089180D704D7055
:108970008E704C601C19401C0328F5DBFD607D7077
:1089800001240E48BD702405046003211420FFF764
:10899000F1FC0B4804600B4C0198A06003211120EE
:1089A000FFF7E8FC60683861002005B0F0BD0720E3
:1089B000FBE7BD60FBE700002021002080E200E033
:1089C00000E100E000150140FEB50D461B491746C9
:1089D0008968044600292AD0002C28D0052D01D210
:1089E0000720FEBD6069002821D0607C012820D0CE
:1089F000002603F0B7FEC0001049019089684018B6
:108A0000694603F0D9FE002815D0012101700C49F8
:108A1000446049680830E2C00849019889684118F3
:108A200068460078487003F081FD0020FEBD0820F4
:108A3000FEBD2E46DDE70420FEBD00002021002003
:108A400000150140F8B5134D0446A96800291CD053
:108A5000002C1AD06069002817D00026267403F075
:108A600081FEC700A8686946381803F0A5FE0028F3
:108A70000DD0022101704460A8683918684600785A
:108A8000487003F053FD3046F8BD0820F8BD0420BF
:108A9000F8BD00002021002010B5184C0121002253
:108AA00009042068FFF790FF002803D00022114638
:108AB000FFF7F2FE01210022C9036068FFF784FF7F
:108AC000002803D000221146FFF7E6FE00220C49E1
:108AD000A068FFF779FF002803D000221146FFF7B6
:108AE000DBFE05210022C903E068FFF76DFF0028C7
:108AF00003D000221146FFF7CFFE10BDCCC8010005
:108B000066260000F0B50546007D002493B00E46B1
:108B100000280DD0012001466846103103940173EE
:108B2000717B4173817BF92001406846891C817308
:108B30001C2104A8FFF74BFB6946087C022108436F
:108B4000694608742A7DEF21002A02D010221043C2
:108B500000E008406A461074059407940894287D44
:108B6000002800D003A8099001270A9410469771A5
:108B7000304A82800094B27B0270F27B427080782F
:108B8000F9221040F722801C1040EF2108404108D4
:108B9000490068468170317B017214210BA8FFF7F0
:108BA00016FB01A80B9068460C908786C486078741
:108BB00002A80F90A888AB1D0BAA04A9A2DF002869
:108BC00035D1B068002830D0684687711A49818055
:108BD0000094317C01700020014668464170807825
:108BE000F9210840F721801C0840EF210840410886
:108BF00049006846817011A8B16800F016FD06466C
:108C000014210BA8FFF7E3FA01A80B9068460C901B
:108C10008686C486068711A80F902A46E8880E32F9
:108C20000BA9A3DF002802D100E0EC81002013B0E3
:108C3000F0BD0000192A00000829000010B50C49F9
:108C40000C4803F0BDF9C1B20948683800F048FA91
:108C500000280BD0082809D00749884206D00749C8
:108C6000884203D000221146FFF716FE10BD000017
:108C7000502400200C2000200430000001340000AB
:108C8000F0B50C4693B01F216A46118007260027D5
:108C90009180002809D0C17849070DD502A9FFF7B6
:108CA00079FC002809D102AD01E000251780002CD5
:108CB0000ED0E078002802D0304613B0F0BD01AAF3
:108CC0000AA92046FFF766FC0028F6D10AAA02E0AE
:108CD00068460022878068468088C3B2684600885C
:108CE000C1B2284672DFE8E770B50D460499164612
:108CF000040042D0002E40D0424800224271C3609E
:108D00000161242231464048FFF73AFA00F0D0F8DA
:108D10003D493431084610380160203181603821E6
:108D20005C38FFF754FA3848217838380170A17858
:108D30008170E178C1706178417062692169426136
:108D40000161E268A168C26081600146E369A269CD
:108D5000CB618A61616A002919D00146AC310246B3
:108D6000B83241628A60636A1B880B80616A436A19
:108D7000898899800021436A06E00E2070BD666AEA
:108D8000B668765C5654491C9E888E42F7D8A16A14
:108D900000291CD01C4AAC3211460C398A60816211
:108DA000A36A9B888B80A16A836A09881980002145
:108DB000836A04E0A66AB668765C5654491C9E88AD
:108DC0008E42F7D82C210A5D0F4918390A73216A9F
:108DD000002909D00B4914310162226A52884A8065
:108DE000216A026A098811806168002904D0054956
:108DF000891D416061684160034829463838FFF7A2
:108E00003FFF70BD502000202425002010B50288AF
:108E10001A4C102A17D00021112A17D0192A11D163
:108E2000807900280ED1607901281BD002281FD03C
:108E300003281FD0042805D12171E2680846002AC2
:108E400000D0904710BD8088208110BD617080885F
:108E500021898842F9D1012005E021690029F4D057
:108E6000884710BD022000F04BF80028F5D110BD56
:108E70000320F8E7032020710420F4E750200020AD
:108E800010B5022801D003280ED1084C2078002804
:108E90000AD000202070607900F032F8002803D05A
:108EA0002169002900D0884710BD00005020002013
:108EB00010B507210148FFF78AF910BD682000208E
:108EC00010B50D480078012814D10C4C60780028AA
:108ED00010D16079002802D074DF00280BD1012066
:108EE0006070607900F00CF8002803D02169002937
:108EF00000D08847002010BD2425002050200020ED
:108F0000F0B5754C87B06071002606A8069602F091
:108F100061FD0127082806D000286FD10698002897
:108F200002D02770D4E00696FFF7C2FF6B4D687839
:108F3000002802D06079012805D0A87800280AD03E
:108F40006079022807D1E168002903D0E770082082
:108F5000884700E0E6706079012808D16878002829
:108F600009D05D48193002F0D1FC002803D06079A7
:108F7000022802D00CE002206071A878002805D0F9
:108F80005548193002F0C2FC002801D1032060715D
:108F9000287B002804D16079032801D10420607166
:108FA000287E002804D16079042801D166712671D9
:108FB000E16800290AD06079032801D0042805D18E
:108FC0002878002802D06078002818D0A6701821D0
:108FD0006846FFF7FCF8684606700196067203962D
:108FE000607901280FD0022816D03C4E243637462F
:108FF0005C3F03281CD004285ED13BE069E0A770E9
:1090000007208847E3E73448183001906846077026
:1090100046820682277152E02F4818300190684638
:10902000077029894182A98801820220207146E0C7
:10903000A88A69464882288A08822848243003F092
:109040003DFC002805D02878002802D06078002850
:1090500001D003202FE00220694608720420039605
:10906000F8701E4800213838FFF70AFE002830D17A
:10907000052020E0A88B69460882288C4882174882
:10908000243003F01BFC002805D02878002802D0EB
:109090006078002801D004200DE0022069460872A3
:1090A00004200396F8700D4800213838FFF7E8FDDA
:1090B00000280ED1062020716079002803D0684670
:1090C00073DF002805D1E168002901D020798847A5
:1090D000002007B0F0BD0000502000202425002013
:1090E00073B586B004002FD06A46217C127F002021
:1090F000914227D0002501266846009506804580CC
:1091000007A80190E188608A6A46A4DF002819D187
:109110006846007F2074608A0D49884216D0207D01
:10912000002813D00295039504950595E1886846BB
:109130000181867241888181049001980590608A3E
:1091400002A9A6DF08B070BD0E20FBE70820F9E7F2
:10915000FFFF000038B50D4604001AD0002D18D0CE
:10916000286820600020C043608228792075FF2095
:10917000207401216846817007490180221D6946DB
:109180000120A0DF002803D129462046FFF7BAFCC2
:1091900038BD0E2038BD00000F18000038B500287B
:1091A00024D0002922D00A88102A1AD0112A1AD0D5
:1091B000502A1BD1027D002A18D0CA884389891DF4
:1091C0009A4213D10A8B022A10D10268002A0DD0CC
:1091D000CB7E8C7E19022143C907C90F07D000211D
:1091E00006E0898801E00021C943418238BD0121A0
:1091F0006B4619706946904738BD000070B505464A
:1092000001461C220E48FEF7BBFF0E4C00262670BE
:109210002968002906D00822201DFEF7B1FF201D75
:109220007ADF02E00748001D7BDF002807D1401EDF
:1092300060806670044A00210448FFF767FB70BD38
:10924000102600207020002001C7010018C901006D
:10925000F8B5214C028800271E4DE689102A15D04A
:109260001E49112A21D0122A2DD0502A1CD1C28881
:10927000801DB24218D1028B022A15D1C27E837E94
:1092800010021843C007C00F0CD112E0818869801A
:1092900001461048082216310C30FEF771FF6F703E
:1092A000002E01D100F026FFF8BD0020C0436880E9
:1092B0006F700868FFF7C6FB0028F5D0A169002988
:1092C000F2D08847F8BD811D024808220C30FEF715
:1092D00057FFE7E7702000201026002018C9010082
:1092E0007CB5054608880C460930904201D90C200F
:1092F0007CBD684671DF0028FAD1218808206854B7
:1093000020881B21401C80B220802954208800A97D
:10931000401C80B22080401906220131FEF730FF48
:1093200020886946801D80B220800978002900D0FD
:10933000012129542088401C208000207CBD000091
:109340007FB504460121684681714A4981804A4AB5
:1093500001A90120A0DF00287ED1228825463C35C6
:10936000002A09D044482B46801C0090434861687D
:1093700000F0CEFC00287BD12289002A0AD03E488A
:109380002B460A3000903D48E168401F00F0C0FCC9
:1093900000286DD1228A002A0AD037482B46123085
:1093A000009036486169001F00F0B2FC00285FD1D0
:1093B000228B002A0AD030482B461A3000902F48C2
:1093C000E169801E00F0A4FC002851D1228C002A03
:1093D0000AD029482B46223000902848616AC01ED6
:1093E00000F096FC002843D1228D002A0AD02248A2
:1093F0002B462A3000902148E16A401E00F088FC8C
:10940000002835D1216B00290ED002A803F012F8F4
:1094100019482B46323000901848082202A9801FB4
:1094200000F076FC002823D1606B00280BD0124995
:109430002B463A310091027901681048401C00F037
:1094400067FC002814D1A16B002910D002A802F0FB
:10945000A1FA0948423000E00AE0009007482B4694
:10946000072202A9273000F053FC002800D1002079
:1094700004B070BD0A18000084200020292A0000D2
:1094800070B5044601F004F82146134800F082F854
:10949000114821461838FFF781FE2046FFF7D8FE15
:1094A000204600F08FF920880C4D102802D011289A
:1094B0000ED10AE0072000F073FA002803D0002242
:1094C0001146FFF7E9F9A08801E00020C043A88019
:1094D0002046FFF79BFC70BD0024002000200020E8
:1094E00030B50446008C134A8BB090421FD006AAB8
:1094F000204601F09DFD6946054608800020019048
:1095000002900390049022898A8001228A71088146
:1095100006A803910490208C01A9A6DF002804D19D
:1095200069460988A94200D00C200BB030BD082044
:10953000FBE70000FFFF000038B504460868206024
:10954000087960710020C0430D462084002022214C
:1095500008554C2108530121684681700C4901804F
:10956000A21D69460120A0DF00280FD12946204610
:1095700001F006FD002809D1A868002805D0294679
:10958000204600F08DF8002800D1002038BD0000F2
:109590000D18000038B50A88102A17D0112A17D0E4
:1095A000502A18D1CA888389891D9A4213D10A8BFF
:1095B000022A10D10268002A0DD0CB7E8C7E1902BF
:1095C0002143C907C90F07D0002106E0898801E0BF
:1095D0000021C943018438BD01216B4619706946D9
:1095E000904738BD70B5054604464035A8890E46FB
:1095F000142807D12622A118881EFEF7C1FDA889CC
:10960000401EA88180B241000919401CA8818E84A7
:1096100070BD20308170704770B504460D46084615
:10962000FEF7E0FD2080656070BD0A780270497821
:1096300041700220704700001CB5002348221549E4
:10964000082002F0DDFD002803D000221146FFF7BC
:1096500023F90020009001900120694608706846B7
:1096600060DF002803D000221146FFF715F90A48F1
:1096700002F0BCFD002803D000221146FFF70CF9D0
:10968000064802F0D5FD002803D000221146FFF75E
:1096900003F91CBDA02300208194010025C4010012
:1096A000F0B58FB00D4606461C216846FEF78FFDCB
:1096B0006846017802200143684601700024019445
:1096C000039404940594012708A80694877015490B
:1096D000684601840794E97B0177297C4177807F84
:1096E000F9210840F721801C0840EF21084041087B
:1096F000490068468177142109A8FEF768FD08A88B
:10970000099007A80A9068468785C4850786A868D7
:109710000D903346F088103309AA6946A2DF0FB0D6
:10972000F0BD0000382A00001CB5044681786A4666
:109730000C4802F063F9002812D160781C214843DC
:1097400009491C2340181A46694602F011FA0648D6
:1097500006494C30807A80000A5821466846904776
:109760001CBD0000E02000200C27002030C90100B3
:109770007CB5134E00250C463060002918D0694690
:10978000002000F0B5F8002819D101A9012000F04F
:10979000AFF8002813D1684601790020002901D0D4
:1097A000022004E069460978002900D00B202070CF
:1097B0007068002802D1FEF7F8FF054628467CBDF8
:1097C0004820002010B51C4C0188606810290DD07D
:1097D00011290AD1401E606007D1FEF7E6FF00287C
:1097E00003D02168002900D0884710BD00281ED171
:1097F00000210122084600F0AFF8002801D0072818
:1098000011D107220221012000F0A6F8002801D082
:10981000072808D104220221002000F09DF800282A
:1098200005D0072803D02168002900D08847606848
:10983000401C606010BD00004820002010B50320CF
:1098400000F008FA002801D0062800D1002010BD41
:10985000F8B507460024234802E0641C042C1AD201
:10986000A2008258BA42F8D1042C14D21D481E4ED0
:109870000C38002929D001290ED002290BD1600013
:10988000201880194578002D05D018480169002955
:1098900001D028468847F8BD61006118755C8E19B3
:1098A000717800290CD011490A2249688068514317
:1098B0000E4A521CFFF788F8002801D10B48477068
:1098C0000A48B17814300155DDE78068FFF7BAF82F
:1098D00006486100611814308919005D8D78A8422E
:1098E000D1D0F8BDE8C80100C024002030200020FD
:1098F00004280CD2074A1269074B80001B5C012028
:109900009840904300D0012008700020704700204C
:10991000FAE7000000050050E8C8010010B504286F
:1099200006D0072810D00A2801D102F01BFC10BD78
:1099300008481321808876DF08E00028F7D000224D
:109940001146FEF7A9FF10BDFFF7BAFA0828F4D1B7
:1099500010BD00000020002070B50023042811D2A3
:10996000440004190D4D012A02D101290DD0002215
:1099700046008019094E801900290CD0012906D013
:10998000022906D00723184670BD0D30C2B22A55F1
:10999000F9E74270F7E78270F5E70000C024002085
:1099A00010B5054A0146127A0020D20702D00846B7
:1099B00000F054F810BD00003020002070B50E46B5
:1099C000204905464E608D6000200A61A9071ED51A
:1099D0000024012211462046FFF7BEFF641C042C20
:1099E00002D20028F5D012E0002810D1720804211C
:1099F0001548FEF717FF002809D1FEF701FF0028E0
:109A000005D11148114A00211438FEF77FFFE907FC
:109A100006D00F220E4952058A600023CB608A616E
:109A200000280DD108480B4A00211C38FEF76EFFB4
:109A3000002805D10448084A01211838FEF766FFBE
:109A400070BD000030200020F8C80100919C01008A
:109A50000005005041B20100E9870100FEB57A4DD2
:109A60000722EB6892059A4302936B6800939C006F
:109A700006461B1900200121019349050746734C36
:109A80003300FEF76BFD180D1515374755677C88B9
:109A90007F8891DE9E9E9E9E9EC8CED1D8DEDE142B
:109AA0000F21029A49059143A160E7602F70FEBD26
:109AB000A260E76060680F2252055040800209D51D
:109AC000A160E760022E02D1E120C0000AE07D2003
:109AD000400107E0E160A760022E01D1C82001E04B
:109AE000FF2091302E706421FEF720FB0099414346
:109AF00000223FE0A260E76060680F2252055040FC
:109B0000800204D5A160E76019204001EAE7E16026
:109B1000A760E3E7A260E76060680F22520550404B
:109B2000800202D5A160E760D1E7E160A760D7E7D6
:109B3000A260E76060680F2252055040800202D5A3
:109B4000A160E76001E0E160A7602E70009841002D
:109B500000220FE0A260E76060680F2252055040CB
:109B6000800202D5A160E76001E0E160A7602E708D
:109B70000099002236480068FEF726FFFEBDA2606D
:109B8000E7601BE061680120800502468A43A2600D
:109B90000140E16010E06068012189050A468243C6
:109BA000A2600840E060E3E76068012189050A4699
:109BB0008243A2600840E0600199C9E7E160A760C4
:109BC0002DE023484068FEF73DFF11218A1B01D09C
:109BD000002807D00F22E96852051140A160E76014
:109BE000EF60FEBD0121C905E960012A0CD91046CC
:109BF000C82148436421FEF799FA6968002241436D
:109C000013484068FEF7E0FE0F22E9685205114054
:109C1000E160A760FEBD0F214905A160E7602E70DD
:109C2000FEBD07229205AAE70D214905A160E76064
:109C300001218905C2E70321C905A160E7608910F8
:109C4000BCE70F214905B9E730200020000500508E
:109C5000DCC80100F0B500210B4C0C4D03273F047C
:109C60008A00A25892005619326801238B400340A3
:109C700000D00323BA431B0413433360491C042957
:109C8000EED30020F0BD0000E8C80100000700503E
:109C900010B500780221FFF7DBFD10BD0022D24392
:109CA000830004490428CA5002D3081820300277E0
:109CB000704700007C270020F0B50025ED43002A06
:109CC00002D00023042601E0042308260B4C04E004
:109CD0009F00E7597F1C04D05B1CB342F8D3284691
:109CE000F0BD26185DB2203635709E00A151002AC5
:109CF000F5D1E11820310877F1E700007C2700203A
:109D00000249091820200856704700007C270020CF
:109D1000FFB58FB01E4615460F0004D10022114634
:109D20001046FEF7B9FD002D04D100221146104661
:109D3000FEF7B2FD1C216846FEF749FA6846017835
:109D400002200143684601700024019403940494A6
:109D50000594012108A80694817068460F99018432
:109D600007943178017771784177807FF921084035
:109D7000F721801C0840EF2108404108490068464F
:109D80008177142109A8FEF722FA08A8099007A8EC
:109D90000A9068468585C485058604480D9709AAFA
:109DA00069460088189BA2DF13B0F0BD8420002014
:109DB000F8B53E481422017851430C18E0680C2194
:109DC00048433A492769CC314018058941890091B7
:109DD000241D466801F0A0FE01463846FEF7A6F9AC
:109DE000002932D000200099A2884D436188AE1925
:109DF0008918CD1900222E4900280A6109D001F0E6
:109E00008BFE6188884222D0B54202D1A08800280A
:109E10001DD0A06802281AD001F07EFEA188CA19C0
:109E200001461046FEF782F9214C8808E06001F0F7
:109E300073FE01462846FEF779F9002911D000206B
:109E4000B5422FD000280ED02CE00120CBE701F046
:109E500063FE01463846FEF769F91549486103205B
:109E600021E00120ECE7ADB2B7B201F055FE0146AA
:109E70003846FEF75BF9064601F04EFE01462846DD
:109E8000FEF754F9864201D1781B09E001F044FE47
:109E9000064601F041FE01462846FEF747F9701AD2
:109EA00080082061022002F077F9F8BDDC2700204D
:109EB000E820002010B50748142201785143081803
:109EC0000079042802D000F059F810BD012002F0FA
:109ED00063F910BDDC27002010B50B48142201786F
:109EE00051430818094AC18811620079012806D037
:109EF000032801D0042801D1FFF75AFF10BD01202B
:109F000002F04AF910BD0000DC270020E820002004
:109F100014225043054A002180180171C18001229A
:109F20000161C2604161018170470000DC270020AF
:109F3000F8B5104C069E65780A2D19D027787D1942
:109F40000A2D00D30A3D14277D432D1928716A611B
:109F500003C92961E860EB802E816078401C607045
:109F600005480078002801D1FFF7B6FF0020F8BDB2
:109F70000420F8BDDC270020E820002010B50D4C9F
:109F800014212078484301190020091DFEF798FC90
:109F90002078FFF7BDFF6078401E60702078401C7D
:109FA000C0B220700A2801D100202070002002F0E9
:109FB000F3F810BDDC270020F8B52348C16800295C
:109FC0003ED00E6821494C680769C078E11B0D023C
:109FD0002D0AED1C002814D101201D4A00045060F8
:109FE0001B4A403A50601B49400008601A4908600B
:109FF0001A49012008602F20FEF76CF81249012051
:10A00000C870B54200D23546E81900020F4B000A6D
:10A01000403318600D4A5168001B091B0902090AE8
:10A020000002000AC91C814209D9506818602F201B
:10A03000FEF750F801200749400480390860F8BD58
:10A0400001F012FFF8BD00002021002000150140A2
:10A050004013014080E200E000E100E00010014018
:10A06000F8B50646108814468446801D0D46984271
:10A0700001D90C20F8BD32880720062AFAD3192707
:10A08000FF01184BBA4201D99A42F3D171880629CF
:10A09000F0D3B94201D99942ECD19A4203D0994206
:10A0A00001D08A42E6D80521604629542088122131
:10A0B000401C80B2208029542088401C80B220801F
:10A0C0004119308802F00CFB2188401880B22080B2
:10A0D0004119708802F004FB21884018208000207C
:10A0E000F8BD0000FFFF000010B500221146FEF78A
:10A0F000D3FB10BDF8B5164801F01EF8144D00262C
:10A100000C3D144C002807D0616900291CD00120A7
:10A110006A461070684616E02878002805D0616904
:10A12000002911D0684606700DE0687800280DD02F
:10A13000A168094800220068FEF746FC002803D009
:10A14000A169002900D088472E70F8BD6168F0E74A
:10A150007C2000201026002018C9010070B5094B92
:10A1600004469E7A082000250E4207D00648844205
:10A1700002D01889A04202D10020156070BD0520D0
:10A1800070BD00004C270020FFFF00000C21484359
:10A19000064910B5012240188272911E0181FF21EB
:10A1A000C1720721FEF713F810BD00004C270020F4
:10A1B00010B5134C207900071FD46069401C606102
:10A1C000E068002801D0042004E000F0E7FF002848
:10A1D00003D0022002F01CF910BD2069002809D02C
:10A1E0006068C10701D00320F4E7012108436060E3
:10A1F0000020EFE7FFF75EFE10BD02F0FDF810BD96
:10A20000E820002010B5084841680A0708D48A07EA
:10A2100002D5012211434160022002F0F9F810BD7D
:10A2200002F0EAF810BD0000E8200020F8B5002692
:10A230000124154D23E06968F0004718387821465D
:10A240002A698140114218D08A432A6101F0C4FA78
:10A250003A782146EB689140194003469340994271
:10A260000BD17978012901D0012100E000217B6820
:10A270004140002B01D010469847761CF6B2287852
:10A280008642D8D3F8BD00000C210020FEB50E4652
:10A29000044681786A46234801F0B0FB002826D1A5
:10A2A00060780C21204F4843C019807A40061FD4A3
:10A2B000022E1DD0012E1DD01C4DA0781C2148431C
:10A2C0001B49002341181C226846A847002813D0C8
:10A2D000022E0CD020780C21484313490C31401831
:10A2E000807A144980000A58214668469047FEBD8E
:10A2F000114DE2E7114DE0E7022EF8D060780C2115
:10A300004843C019817ABF221140817260781C21B4
:10A3100048430549403941181C231A466846A84756
:10A32000D8E70000E02000204C2700207DC301007A
:10A330004826002020C90100B1BD0100D5BC0100A4
:10A3400070B50546114A124800241C2363431B18AC
:10A350009B7EFF2B04D0641C072CF6D3104670BDE7
:10A360000A78022A09D01C2262431018FD22827644
:10A3700007221030FDF704FF04E01C216143081898
:10A38000FE2181762C700022E8E700004380000067
:10A3900048260020F7B505250F4F06460024002E5D
:10A3A0000AD01C206043C019072231461030FDF747
:10A3B00020FF002807D00AE01C206043C019018B51
:10A3C0000298814203D101980025046002E0641CD8
:10A3D000072CE4D32846FEBD482600207CB5054660
:10A3E00081B26A46074801F009FB040008D17421D4
:10A3F000684601F02DFB040002D1284601F092FAD4
:10A4000020467CBDE020002010B5100003D00022C3
:10A410001146FEF741FA002010BD00001FB5694645
:10A42000087301F07FFB002803D000221146FEF7DD
:10A4300033FA03A800F026FA002803D000221146C0
:10A44000FEF72AFA01A805210130FDF7C0FE694692
:10A45000487901221043E1210840DF210C300840F7
:10A4600069464871072088711020C871064800901D
:10A470000A71064800F02EFB002803D00022114686
:10A48000FEF70AFA1FBD000009A401000220002007
:10A49000F0B5054693B000200290FF24ED480E94DD
:10A4A000007800284BD0EC4F3868002847D001A82E
:10A4B00000F0DAF9002803D000221146FEF7ECF98B
:10A4C000281D05902A2069460883FF2000268871F0
:10A4D0000E710396E04C28880C3C10280ED0A888FA
:10A4E00003AA0221FFF73AFE002807D103980C21A6
:10A4F00041430919CA7A69468A714871288813222A
:10A5000017287CD00FDC10281BD0112853D013281B
:10A5100076D0142813D103980C2148430019C07A2F
:10A52000FF2871D08DE0CD4918286BD01C286AD047
:10A53000522804D1B87A8000095801A8884713B07E
:10A54000F0BDC74F03AA01213846FFF707FE0028D8
:10A55000F5D103990C20484302220019827211237D
:10A560006A4613745171A98801810722A91DFDF75C
:10A5700007FE287DC10707D04108B6480830405C77
:10A58000FF2808D00E9006E03A460EA9A81DFFF756
:10A5900001FF00280ED103990C22514309190E988E
:10A5A000C8728A7A08231A438A726946887101A898
:10A5B000FFF7BAF839E103980C2148430119887A6A
:10A5C000FD2210408872010706D5C0090DD0002178
:10A5D00001A8FFF75BFE08E068468079FF2804D0F9
:10A5E00001F0A0F9FF206946887103980C225043BE
:10A5F00010210019817212206946087415E17FE06C
:10A6000030E001E0D5E00EE1EA890EA90020FFF775
:10A61000C1FE00280ED103980C22504300190E9958
:10A62000C172837A0822134383726846817101A83C
:10A63000FFF77AF803980C2148430019C07AFF28E5
:10A6400006D003981C21484383494C394018029096
:10A6500003981C21484383494218A8880023029983
:10A6600082DF6CE768460274039B0C205843011993
:10A67000887A042210438872C87AFF2830D01620C6
:10A68000694608742420434373481A213038181847
:10A690000830FDF79CFD03980C2148430019817A8E
:10A6A00040221143817203990C2200204A430A90F0
:10A6B0001219D27A1C235A436A4B0C90D2180B926F
:10A6C0001C2251431A46C4328918079108900990F8
:10A6D0003A1DA88807AB00217FDF0028C1D1A4E084
:10A6E0000EA8FFF72DFE002801D00646DBE76946DD
:10A6F0000E98887103990C2251430919C872D2E748
:10A70000787A400840007872039A0C2094464243BD
:10A7100011198B7AFB2003408B7214206F4638741A
:10A72000A879002804D0C87AFFF758FEAE797CE0FB
:10A73000E879400779D5B879FF2876D008273B43D8
:10A740008B72EB7A9B0708D51C2503466B43454D5E
:10A750005B199D7E6D086D009D76CB7AFF2B64D0D2
:10A76000A25C022A10D01C2250433E4D0722401901
:10A770001030FDF705FD684680791C2148434019DB
:10A78000817EFD2211400EE061461C225143324A77
:10A790004C3A89184A8A1C2148433249401802839E
:10A7A000817E490849008176012101A8FFF76EFDED
:10A7B0003BE0A8790209012A23D10007000F0128F4
:10A7C0001FD103980C2242431219927A120718D50E
:10A7D000242148432049303940181A210830FDF718
:10A7E000F6FC16206946087403980C2148430119A9
:10A7F000887A602210438872787A0221084378723E
:10A800000FE003980C2250430019827A80231A43E8
:10A81000827215206A461074B87A8000095801A81F
:10A820008847002601E068460274324604A901A860
:10A83000FEF740F86846007C122800D07FE60398B7
:10A840000C2141430919897A0129F7D0FFF79EFCB1
:10A8500075E60000D02000205827002040C90100E4
:10A86000FFFF000048260020002806D0FF210170CD
:10A8700041708170C170002070470148704700002E
:10A880000E800000F0B585B0040036D029480025C0
:10A890000560457285722846FFF778FC254824211B
:10A8A0003038FDF794FC0026FF27304601F03AF8D7
:10A8B00021488755761C072EF7D37421684681807E
:10A8C0000721C1801D481C4900900831684601F0ED
:10A8D000A3F900280FD1184E0120083E30702078CF
:10A8E00000280CD069468888C988484381B2304620
:10A8F000103001F0ADF805B0F0BD1148FBE7114F85
:10A9000000240D48A1B202AA083001F077F800280F
:10A9100009D11C206043C01900231C2202A901F0A8
:10A9200027F9002801D03570E5E7641C072CE8D32F
:10A93000E1E7000058270020D820002049A90100A5
:10A940000E80000048260020FFB55D488FB00068EB
:10A95000189F1E46002875D0742F73D86846FFF7DD
:10A9600083FF002803D000221146FDF795FF002445
:10A97000684604700471254605970696A9B20DAA8B
:10A98000504801F03BF8002806D108220DA90F9885
:10A99000FDF72FFC002817D06D1C072DEED368465D
:10A9A0008578FF2D4ED01098032810D046481C21E2
:10A9B000301AFDF7BBFB012707281ED204A802901E
:10A9C000119800280BD011E068468570E7E7742FD6
:10A9D00003D04020694608716CE02020FAE7384631
:10A9E0003849A84010394968084261D0284601F02A
:10A9F0007DFE2020694608714AE031481C214C3810
:10AA0000301AFDF793FB00281DD02D482421303843
:10AA1000301AFDF78BFB01002C482CD040216A46F0
:10AA200011712B498E4245D0274AA9001C3A515832
:10AA3000B1423DD104A90291C07A854228D168462D
:10AA4000447025E034E004A802902021684601719A
:10AA500044701B480A940C300B9058380790684695
:10AA600080781C21484318494018089007A8069090
:10AA7000182005900CE0302269460A714C70CF70A6
:10AA8000807A800704D4114824212438FDF79FFBE5
:10AA9000109869460228087910D0022108436946B7
:10AAA000087104A8029001A96846119AFDF702FFF7
:10AAB00013B0F0BD694608790321EFE73843EFE7AB
:10AAC00058270020E0200020482600204C270020A6
:10AAD0001CC9010070B5064618480D4600780028CC
:10AAE0000ED01749002E0ED0002D0CD0286800285B
:10AAF00009D0144C2168002907D011480A3870BDCC
:10AB00000F48801F70BD084670BD20600522691D7A
:10AB1000201DFDF735FB2879A072207A022140081C
:10AB200040000843FB2210402072E07901231843C3
:10AB300008431040E0710020307070BDD02000202C
:10AB40000E8000005827002010B50E4900234A78D7
:10AB50008C78A24212D0521CD2B24A70022A00D182
:10AB60004B704A78074B920018339A580260086974
:10AB700010180002000A0861012010BD03600020C7
:10AB800010BD00002021002010B5002803D011289E
:10AB900002D0FDF7ABFE10BD024808224168114308
:10ABA000416010BDE820002010B51C4C21782046E3
:10ABB0004068012906D0022929D0032912D10007B3
:10ABC00017D513E0000711D415481422017851431A
:10ABD0000818C188A28B891A0904090CC18002D007
:10ABE00001F0CEFB10BDFFF7C9F910BD00F08CFCE1
:10ABF00010BD6069401C606100F0D0FA002803D0ED
:10AC0000207801F0C9FA10BDFFF754F910BD607843
:10AC1000044980000858804710BD0000E82000204B
:10AC2000DC27002064C9010010B528DFFFF7ACFF66
:10AC300010BD10B529DFFFF7A7FF10BD0EB511201D
:10AC4000694608720A2214A102A87CDF002803D0FA
:10AC500000221146FDF720FE124878DF002803D0BD
:10AC600000221146FDF718FE0020FF22009041321D
:10AC7000694601900A804122D2004A808880FF20E4
:10AC80009130C88068467ADF002803D00022114640
:10AC9000FDF702FE0EBD00004E6F726469635F48EF
:10ACA000524D000041030000002070470020704713
:10ACB00000207047F8B506464078242104464C43EE
:10ACC00024490C2250436118224A00254B68243243
:10ACD0008018AE462F469C46002B0CD0827A134635
:10ACE000D20908D05A0606D40D461A4A614689B2DE
:10ACF000175908358E46174C008924343B46724656
:10AD00002946A9DF0B2819D0002800D01248012FAE
:10AD100013D170780C214843001900890F4AA7DF2E
:10AD200000280AD00E49884212D0082810D0891C69
:10AD300088420DD011280BD00020F8BD70780C216E
:10AD4000484301230019008972462946A9DFE0E73C
:10AD50000148F8BD2827002041800000FFFF0000C7
:10AD60000230000070B50C46014660782422084D80
:10AD700050434019382300F0FBFE002807D16178CA
:10AD80002422514349194A68521C00D14A6070BDBF
:10AD900028270020F3B589B00D461A20694688831C
:10ADA00068780C2103274843224E3B4680190089CE
:10ADB00007AA6946AADF002838D1687824214843C9
:10ADC000741A001969468A8B0830FDF712FA0028B8
:10ADD000687807D0242148430119496800290DD01B
:10ADE000154E0CE00C2141438919897A89071DD43D
:10ADF000242148430019FDF7EAF917E00F4E2750C8
:10AE00006846828B6878242148430019426068783C
:10AE10004843001969460830FDF7B2F968782421E3
:10AE200048430119382324220998B04700200BB069
:10AE3000F0BD00004C270020B1BD0100D5BC0100D1
:10AE400010B5FFF737FF10BD10B5FFF78BFF10BD32
:10AE500010B5FFF79FFF10BDF8B50746104E01254E
:10AE6000BD403068FDF7EEFD00280DD10D4C206986
:10AE7000284207D1384600F0AFFC0028E06804D033
:10AE8000284303E0A8432061F8BDA843E06020699F
:10AE9000002228432061A1683068FDF795FDF8BDC8
:10AEA00078C901000C21002070B51B4C20790007E7
:10AEB0002ED41A481422017851430D182E6900F03F
:10AEC0002BFE0146E8882A89761E80188019FDF736
:10AED0002DF921690025002909D06169814206D137
:10AEE000E560606801210843606000200AE000F02E
:10AEF00055F9002802D00220E56003E0206900280F
:10AF000003D0032001F084FA70BDFEF7D3FF70BDBB
:10AF100001F072FA70BD0000E8200020DC2700205C
:10AF200010B51349134801F04BF8124C81B2143C90
:10AF3000A068401CA0600E486038FEF7D1FA0028D7
:10AF40000BD0082809D00C49884206D00B4988420A
:10AF500003D000221146FDF79FFC0321A068FDF7F6
:10AF6000E5F8002901D0012000E00020207010BD8C
:10AF70006024002014200020043000000134000070
:10AF8000F0B5002406460D46601C010795B0090F78
:10AF900008A810310C940174297B4174817CF92735
:10AFA0003940891C81741C2105A8FDF710F96846F9
:10AFB000017D10200143684601750CA806940A9093
:10AFC0000894099401220B9408A8827617496846D0
:10AFD00001870D94697B08A80175A97B4175817D66
:10AFE000F7203940891C0140EF200140114308A897
:10AFF000817514216846FDF7EAF80EA800900DA8A7
:10B0000001900FAA0021304600F012F80146684670
:10B0100001811421448181810FA804903346F08876
:10B0200008336A4605A9A2DF15B0F0BD372A000033
:10B03000F7B542790025002A00D004252222135CAE
:10B040000222002B00D01543CBB2FF2907D90122E1
:10B050001543029A090A53709170032602E002997F
:10B0600002264B7004464034A189002901D01021EA
:10B070000D43002716E0B11C142909D9A189C91B69
:10B080004A007900091824302431FDF779F80CE0E2
:10B09000029B7A0012189B19928C1A70120A5A702D
:10B0A000CEB27F1CA189B942E5DCA089C01BA0817A
:10B0B000029805703046FEBDF8B51E4C2078002879
:10B0C00037D02069002807D00026E068002805D086
:10B0D0000025002E04D013E00126F6E70125F8E74D
:10B0E000684651DF052806D0002806D00022114608
:10B0F000FDF7D2FB04E0012602E0216900988847B1
:10B10000002D12D1608869460880A06861DF05289B
:10B1100006D0002806D000221146FDF7BDFB04E052
:10B12000012502E0E168A0688847002ED8D0002DF4
:10B13000CFD0F8BD402100204188054802889142C7
:10B1400004D34088814201D8012070470020704715
:10B15000742000201048018CC9B2012917D1818CBC
:10B16000090714D1018D09060A0F03D1828D120639
:10B17000120F0ED0090F012903D1828D1206120F72
:10B1800007D0032903D1808D0006000F01D00020D5
:10B190007047012070470000C00F00F070B50E48E6
:10B1A0001422017851430C18256900F0B5FC0146C2
:10B1B000E08822896D1E80184019FCF7B7FF074907
:10B1C0004A69824206D3824202D10869002801D02E
:10B1D000002070BD012070BDDC270020E820002089
:10B1E000800701D0002070470120704730B51588D6
:10B1F000EC1C9C4201D90C2030BD02244C55138814
:10B200001C255B1C9BB21380CD5413885B1C9BB226
:10B210001380012807D0022807D0032807D004286C
:10B2200007D0072030BD002004E0012002E0CC540C
:10B2300001E00320C8541088401C1080002030BD5D
:10B2400010B50448017AC90702D00078FEF706FC61
:10B2500010BD000030200020F8B52C49C8680A69EC
:10B260000C780F7989688646944600913EE00099F3
:10B27000E20055182A7836E0182353436968521CB7
:10B28000C918AB78D2B2934200D100220B78022BBE
:10B2900002D0032B27D123E04E680346014603E08A
:10B2A000B14204D00B46C96900291CD0F8E7002937
:10B2B00019D08B4208D1C069002805D1144F01264E
:10B2C000BE600026B44601270E68C969D96100290D
:10B2D00009D00B689B190B6005E00174C06900E0A0
:10B2E00000210028F9D169789142C5D12146641E18
:10B2F000E4B20029BBD1054962460A61C8600F71FA
:10B30000704501D00120F8BD0020F8BD20210020AB
:10B3100000100140F8B5044631480026C16800918C
:10B3200007784EE02E48F90080680D1843E0002CA5
:10B3300002D02046E4691FE02878182141436A685A
:10B34000401CC0B251182870AA78904200D12E70CB
:10B350000A784868012A30D1027C002A2DD18A68F7
:10B360004260CA6882600A69C260496981611C4999
:10B370000979002900D04660194943680A699C464A
:10B38000991A0902174B090A994202D28268891850
:10B3900007E06146511A09028268090A8A4202D905
:10B3A000511A016000E00660466001218660017468
:10B3B000C66101F0C3F8002CB9D1287869788842B9
:10B3C000BAD138467F1EFFB20028ABD10448C1680D
:10B3D0000098814201D00120F8BD0020F8BD000096
:10B3E00020210020FFFF7F0098B001F009F93F4ABB
:10B3F0003F490320FEF7E2FA002803D0002211465D
:10B40000FDF74AFA01A90020FEF7B2F9002803D09F
:10B4100000221146FDF740FA6846007902285BD009
:10B42000002168460170FEF707F968460078FEF7CC
:10B43000F5FFFFF703FC382101A8FCF7C8FE022145
:10B4400068460171012484710621C171032585823A
:10B450002848069024210FA8FCF7B9FE10A8047212
:10B46000FF202D3000241390B42000941490224B20
:10B470000FAA214601A8FDF737FC002803D00022BF
:10B480001146FDF709FA00F0EFFD00F043FD1C2125
:10B490006846FCF79CFE0520C00301900F200004C5
:10B4A0000290009468460573144881896846C181FA
:10B4B000047413480590134806906846FDF79EFEF5
:10B4C000002803D000221146FDF7E6F9FDF7E4FA63
:10B4D0000320FDF715FD02E00121A2E748DF002867
:10B4E000FCD000221146FDF7D7F9F7E71D990100BE
:10B4F000CD0C000024200020C3B80100002400204F
:10B50000E9B80100E9A0010010B50448082241682B
:10B5100091434160007800F03FFE10BDE82000201C
:10B5200070B5144682880E4605462088111D4118C4
:10B53000921C994201D8FE2A01D90C2070BD521CE0
:10B5400032542088FF21401C80B220803154208852
:10B55000401C80B220808119288801F0C1F8218820
:10B56000401880B22080AA88002A09D0A968002942
:10B5700008D08019FCF704FE2088A9884018208094
:10B58000002070BD072070BDF8B50F460178144645
:10B590000546012902D16878002806D02088821C3F
:10B5A0009A422DD8012902D006E00720F8BD69781B
:10B5B0004118891C994223D8181A801E86B2684601
:10B5C00006802188B81C081869467DDF0028EDD167
:10B5D0002878022805D169460988B14201D8092195
:10B5E0000AE00821012805D16878B04202D86A46ED
:10B5F000108001E06846068068460088FE2801D970
:10B600000C20F8BD2288401CB8542088401C80B211
:10B610002080395420886946401C208009884018C1
:10B6200020800020F8BD00207047002070470020D7
:10B63000704700008207D30EFF229A408907090E47
:10B6400010B5994000280BDA03071B0F083B9C0834
:10B650000C4BA400E318DC6994430C43DC6107E065
:10B660008408094BA400E418236893430B43236028
:10B67000C106C90E012088400449086004490860D9
:10B6800010BD000000ED00E000E400E080E200E01A
:10B6900000E100E0F3B581B00F46019800F062F9D7
:10B6A000012400281E4E019817D0FEF729FB8019AF
:10B6B0002030007F8009032802D0012806D007E04F
:10B6C0001848006901998C40204201D1022100E014
:10B6D0000321019800F0CEF8FEBD00F04FF90028DC
:10B6E000FAD00198FEF70CFB05468100C81D0E4AF2
:10B6F000F93089180A6980B222430A610B4940185F
:10B7000000210160002FE7D00198FEF7F9FA8000D0
:10B7100030580028E0D00648AC404460FEBD000030
:10B720007C270020000500500065004000600040BC
:10B7300000630040FEB5044623480E460019202150
:10B7400041560027C8171346401C01D0082738E08F
:10B75000F27819462046FEF7AFFA0546401C2FD076
:10B76000B078002807D01948A100091808680222FB
:10B770009043086007E000217378204600910A4654
:10B78000019100F065F8F078002810D01048AA0068
:10B790001018317802690F4B1A400261E206D20C90
:10B7A0008907890B0A4301690A43026109E00648D7
:10B7B000327840192030017F92011143017700E077
:10B7C00004273846FEBD00007C27002000070050FB
:10B7D00000650040FFE0FCFF03490969C140C8075C
:10B7E000C00F00D0012070470005005070B5124D09
:10B7F0002879002801D0082070BD0F490020403969
:10B80000421E0B182033401CC0B21A702028F8D3F7
:10B8100000242046FEF742FA641CE4B2082CF8D358
:10B8200003210620FFF706FF01200449C0074860F6
:10B8300001202871002070BDBC270020006300405B
:10B8400002480079002800D001207047BC27002062
:10B8500030B552000A439900039C0A432102049D1B
:10B860000A4329040A43024980004018026030BD9F
:10B8700000070050820006481018026803231B04CA
:10B880009A430260026809040A430260704700009C
:10B8900000070050034940180068012800D000202C
:10B8A00070470000006000404058002800D0012090
:10B8B00070470322120280184068084000D001201F
:10B8C000704710B500280BD0032808D10220FEF7DE
:10B8D00067F8002803D000221146FCF7DDFF10BDF9
:10B8E00000F040FC10BD000010B50078002809D120
:10B8F00005483B21808876DF002803D000221146CE
:10B90000FCF7CAFF10BD0000002000200021425CAF
:10B91000002A01D001207047491C0629F7D30020D6
:10B920007047000070B505461C200D496843441857
:10B93000204611300621FCF74AFC20461021FCF776
:10B9400046FCFF2121740020A176C04320832846B5
:10B9500000F0CCFE024A0020A9001C3A505070BDF5
:10B96000482600200449081820214156042901DBFB
:10B9700001207047002070477C27002004490818E8
:10B9800020214156042901D2012070470020704730
:10B990007C27002070B50D00044604D1002211461A
:10B9A0001046FCF779FF002C04D100221146104606
:10B9B000FCF772FF2878207069886170090AA1700D
:10B9C000A988E170090A2171E8886071000AA071F4
:10B9D00070BD000007490979490701D40820704764
:10B9E000002804D0044949780160002070470E20E7
:10B9F00070470000E8200020DC27002030B5124B03
:10BA00001B795B0701D4082030BD002805D0002A2F
:10BA100003D00468002C10D101E00E2030BD0B4B88
:10BA20001D68002D09D045681889414369185D8952
:10BA3000454358682818884201D8072030BD146053
:10BA40000020516030BD0000E8200020A828002020
:10BA5000FEB5054625480E460079400701D408206A
:10BA6000FEBD002D03D02868002834D101E00E204F
:10BA7000FEBD1F4C216800292DD0608921894843D3
:10BA8000616841186868814225D9FFF7A9FB002841
:10BA90000FD06868019029680C2251430F1979680A
:10BAA0000091401A39890C46FCF740FB002912D15D
:10BAB00001E01020FEBD21463046FCF737FB00298F
:10BAC00009D1002E07D07889444301988119009844
:10BAD0000019814201D90720FEBD002002460090D6
:10BAE000334629460320FEF723FAFEBDE820002056
:10BAF000A828002010B507484469601C06D000F053
:10BB00000BF801462046FCF711FB10BD0120000791
:10BB1000406910BD0010001001200007006980B2CC
:10BB20007047000070B500240F482546047044702B
:10BB30002846FEF7EDF96D1C0A2DF9D30B4D6C80EC
:10BB4000FFF7D8FF861EFFF7E7FF46430648AE60C3
:10BB5000CC306C610460048144812C70AC610420A1
:10BB6000EC616860002070BDDC270020E820002028
:10BB7000FFB5274881B000791F4616460D4640079D
:10BB800002D4082005B0F0BD002D06D00198002891
:10BB900003D02868002815D101E00E20F2E71D4CE3
:10BBA000206800280ED06189208962684143891885
:10BBB0006A68914206D9002E04D0B04202D3F1192E
:10BBC000814201D90720DDE70198FFF709FB002832
:10BBD0001BD03846FFF704FB002816D06868FFF733
:10BBE000FFFA002811D068683246C1190198FCF7A5
:10BBF000C7FA009628680C214843245800220221E5
:10BC00002846019BA0470020BCE71020BAE70000AF
:10BC1000E8200020A8280020F8B52C4D04462879FB
:10BC20000E46400701D40820F8BD002C20D0002E7D
:10BC30001ED0206800281BD0FFF76EFF0146A088A9
:10BC4000814213D3102811D3E08800280ED0FFF7CB
:10BC500051FF471EFFF760FF4743E288A188A868AD
:10BC60004A431218974201D3890703D00720F8BD31
:10BC70000E20F8BD6988012926D031600C22144BB2
:10BC800051437060CA18506020685850A0881081D5
:10BC9000E0885081FFF740FF0646FFF73DFFA1888F
:10BCA000E288401E514340183146FCF755FA0446DD
:10BCB000FFF732FF0146A86861430818A86068884A
:10BCC000401C68800020F8BD0420F8BDE82000205A
:10BCD000A8280020F8B5044620481E4600791546DD
:10BCE0000F46400701D40820F8BD002F05D0002CD6
:10BCF00003D02068002815D101E00E20F8BD1848B7
:10BD0000016800290ED04289018940684A43101811
:10BD10006268904206D9002D04D0A94202D3A81926
:10BD2000884201D90720F8BD3846FFF759FA0028A4
:10BD300011D03046FFF754FA00280CD06068FFF7A6
:10BD40004FFA002807D02B463A462146012000969C
:10BD5000FEF7EEF8F8BD1020F8BD0000E820002046
:10BD6000A828002010B5114902460878002811D0F3
:10BD700004280FD0022A16D0032A0BD10A79120701
:10BD800011D48A69521C8A61032A08D0022802D081
:10BD900000F002FA10BD487800F03AFB10BD0D200B
:10BDA000FCF7A4FD10BDFEF7FFFE10BDE82000204B
:10BDB000F8B5044620481E46007915460F46400750
:10BDC00001D40820F8BD002F05D0002C03D0206836
:10BDD000002815D101E00E20F8BD1848016800299F
:10BDE0000ED04289018940684A4310186268904227
:10BDF00006D9002D04D0A94202D3A819884201D93E
:10BE00000720F8BD3846FFF7EBF9002811D030467F
:10BE1000FFF7E6F900280CD06068FFF7E1F9002889
:10BE200007D02B463A46214604200096FEF780F8BC
:10BE3000F8BD1020F8BD0000E8200020A828002050
:10BE400010B507480078002809D0054805491C307E
:10BE500000F0B6F881B203487038FDF7C3FB10BD9F
:10BE6000002000207024002070B501240B496004DC
:10BE700008600B4940108860094940398860094DC5
:10BE80006C602F20FCF726F9AC60074D00242F20B2
:10BE90002C61FCF71FF9EC7070BD000080E100E040
:10BEA000401301400010014020210020FF210748DD
:10BEB000093100224250064881690648037DC26864
:10BEC000D154017D491C01757047000000200040DD
:10BED00000250040C42700201FB5012269460A70D2
:10BEE00008720448C16801910021C17406C86846FF
:10BEF00090471FBDC427002010B504480122417897
:10BF0000514041700248FDF784FB10BD0020002025
:10BF10000024002070B51448012451216425846058
:10BF200022C004711049114800F03EF80E488C21DF
:10BF300010300160FF212D3141600A21816000260F
:10BF4000067301460948083000F02EF80648FF2124
:10BF500020300560F5318460416006730146034876
:10BF6000103000F021F870BD502400200C2000207B
:10BF700010B503680A6889689C1A8C4202D9591A5C
:10BF8000016010BD01210260017110BD10B54B6848
:10BF9000026889689C1A8C4202D95118016010BD50
:10BFA00000210360017110BD0A7B002A03D049689B
:10BFB0000160002102E00968016001210171704700
:10BFC00010B5044600790028204602D0FFF7DEFFB6
:10BFD00001E0FFF7CDFF206810BDFFB50746806A7E
:10BFE00081B0144600283DD000253846203000900E
:10BFF00033E00C20B96A68430E18B088801CFE2814
:10C0000002D90C2005B0F0BD22880299401C88544A
:10C0100020881622401C80B2208002990A54208871
:10C02000401C80B2208002994118308800F058FBF3
:10C030002188401880B22080B288002A0AD0B168D6
:10C0400000290FD0029BC018FCF79AF82088B1880D
:10C05000401820806D1C0098EDB2007BA842C8D823
:10C060000020CFE70720CDE730B59BB0032118A80B
:10C070000172142110A8FCF7AAF80024012510A8C9
:10C08000109405711AA81290601C0107090F10A8DE
:10C090001031017344738473601C0107090F10A8E9
:10C0A0001031C1730020014610A8017401462748D1
:10C0B000FDF742FA002803D000221146FCF7ECFB02
:10C0C000142115A8FCF783F80120014618A81031A7
:10C0D00041700120014618A81031817000200146EE
:10C0E00018A8C1700120014618A81031017110A8CC
:10C0F00015940576642118A817940170134815A9A2
:10C100001838FDF727F8002803D000221146FCF765
:10C11000C3FB40216846FCF75AF80DA16846FDF7BD
:10C120007BFA0120014608A8103101770020014662
:10C1300008A841776846FDF703F9002803D00022DC
:10C140001146FCF7A9FB1BB030BD00000024002005
:10C150004E6F7264696353656D69636F6E64756376
:10C16000746F720010B50020FDF71AFC002803D090
:10C1700000221146FCF790FBFDF760FB002803D07E
:10C1800000221146FCF788FB3CDF002803D0002288
:10C190001146FCF781FB10BD10B50F49002808704F
:10C1A00009D0012811D0022812D0032802D14869F1
:10C1B000FEF73AFD10BD00208861C861074840784D
:10C1C0000028F7D0FDF788FE10BD00F0D9F810BDAB
:10C1D00000F038F810BD0000E8200020DC27002027
:10C1E00010B508461146C046C04610BD002803D011
:10C1F0000249C860002070470E207047402100208F
:10C2000070B5002901D08C0701D0072070BD064C05
:10C210000125A16062800549636010DF0028F5D127
:10C22000257016202EDF70BD40210020E1C10100E5
:10C23000002803D002490861002070470E20704793
:10C2400040210020F8B5164C1422606840084000D8
:10C2500060601448017851430E183769FFF75CFCA1
:10C2600001463846FBF762FF05466061FFF754FC64
:10C270000146F0887F1EC019FBF758FF0222854255
:10C28000606801D1104300E090436060E1681040B5
:10C29000084303D0002000F0BBF8F8BD0220FAE705
:10C2A000E8200020DC27002010B502484069FEF796
:10C2B000BBFC10BDE820002010B5FFF71BFC441E9E
:10C2C000FFF72AFC4443FFF727FC04494A69521E42
:10C2D0005043CA682146FEF7ACFC10BDE8200020A0
:10C2E000F8B510481422017851430C182569FFF75E
:10C2F00013FC0146E088228980184019FBF716FFDD
:10C300000F46FFF7F7FB461EFFF706FC4643E088A3
:10C310002289F1198018044A40191269FEF789FC34
:10C32000F8BD0000DC270020E820002070B5FFF7F2
:10C33000F3FB0546FFF7DEFB441EFFF7EDFB604312
:10C340002946FBF7F3FEFEF76FFC70BD70B5FFF7F3
:10C35000E3FB8608FFF7E0FB0749496948430446C9
:10C36000FFF7C8FB451EFFF7D7FB6843324621465F
:10C37000FEF75FFC70BD0000E82000200020704741
:10C3800070B514481422017851430C18241DFFF78E
:10C39000C3FB6188104E884211D2FFF7BDFB618854
:10C3A0000D1AFFF7B9FB8208A188E06840182169DF
:10C3B00040194919FEF73DFCFFF7AEFB07E0A288E4
:10C3C000E06880188A082169FEF733FC6088F06114
:10C3D00070BD0000DC270020E820002010B50548D3
:10C3E0000079000703D4012000F012F810BD00F01E
:10C3F00003F810BDE820002010B504480822416869
:10C4000091434160407800F003F810BDE82000201F
:10C41000024948700249800008580047E82000207F
:10C4200050C9010010B50446FFF79CFC2046FCF7FC
:10C4300027FD10BD70B50C00054604D10022114641
:10C440001046FCF729FA002D04D1002211461046AF
:10C45000FCF722FA207828702088FF210902084082
:10C46000000A6870206809020840000CA870206863
:10C47000000EE87020792871207A68712089000AFE
:10C48000A871A068000CE87170BD000010B50548E7
:10C490000079000702D4FDF70DFD10BDFFF7ACFFDA
:10C4A00010BD0000E8200020FEB51F4C00252769C4
:10C4B000E06802906846FEF747FB0190FEF7CCFE6D
:10C4C00006460198002822D000230098E16817E072
:10C4D0000E680A46864202D9301A086012E0801BB4
:10C4E000F31800261660D668D169B446002E07D02E
:10C4F000FE183602360A566066469660D5611546C5
:10C500000029E5D12846E160FEF704FF06E0284651
:10C51000FEF700FF002801D1002E02D00298FDF79F
:10C520004BFD00202071FEBD20210020012002498A
:10C53000000508607047000000E200E010B50E4BF7
:10C54000D968002906D002680C68A24204D8A21A51
:10C550000A60C161D86010BD0B4604E00B46C96992
:10C56000121B002904D00C689442F7D3A41A0C6063
:10C570000260C161D86110BD20210020F8B51E4DB8
:10C58000EC68002C36D01D48002740682969401A05
:10C590000602360A2068B0421AD8361AC71922464F
:10C5A000107CE469002811D0002010746B69002B06
:10C5B00009D0916950699847002807D00022114698
:10C5C000FCF76AF902E0516990698847002CE1D1D3
:10C5D0006978A878814206D1401CC0B2A8700228B0
:10C5E00001D10020A87004490006800D18310F50B9
:10C5F000FFF79CFFF8BD000020210020001501403E
:10C6000010B500231D4A05211846FCF795F90028AE
:10C6100003D000221146FCF73FF9194A01211948BD
:10C62000FCF774F9002803D000221146FCF734F916
:10C630001448154A0121001DFCF768F9002803D0B1
:10C6400000221146FCF728F90E48104A0121083053
:10C65000FCF75CF9002803D000221146FCF71CF916
:10C6600008480B4A01210C30FCF750F9002803D090
:10C6700000221146FCF710F910BD0000D82100205F
:10C680003D8C0100CCC8010021AF010041BE01007A
:10C69000F9BE0100FF2107481D3100224250064823
:10C6A000028A8168895C028A521C02820348C16145
:10C6B0007047000000200040C427002000250040F3
:10C6C0001FB500216A4611701072044882680192F9
:10C6D000817406C8684690471FBD0000C42700202B
:10C6E0000870000A48700220704700000121814054
:10C6F000024842688A43426070470000D020002010
:10C7000038B51549154A488890420FD04A78144CDC
:10C71000521CD2B24A70237B934208D3091D75DFA5
:10C72000002803D0A169002900D0884738BD002522
:10C730004D70217C002907D03B2176DF002803D0F3
:10C74000A169002900D0884761690029EED06846B8
:10C750000570884738BD000070200020FFFF0000F2
:10C760001026002012494868C005C00D19D01038A5
:10C7700040B2002807DA0207120F083A9208920026
:10C780005118C96904E081080A4A890089180968B2
:10C790008007C00EC1400806800F012803D003287F
:10C7A00003D002207047002070470120704700002E
:10C7B00000ED00E000E400E042788378521CD2B241
:10C7C000934200D100220378934201D100207047A8
:10C7D0000A70416840781822504308187047FFB526
:10C7E00083B016460C9D0D9C1F46022200950194B5
:10C7F000039800F00CF8002807D13B461022314680
:10C8000000950194039800F002F807B0F0BDFFB561
:10C8100083B0074600200C9C8646268805463AE0F1
:10C820007868A90042181188684681805188C180C3
:10C830000022694601A865DF002839D168460178E1
:10C840000598814226D17046002801D0002200E0E0
:10C8500002222088891842180D998A4227D87146E9
:10C8600000290AD1401C80B22080069A04991154F4
:10C870002088401C208001208646218806980A18BE
:10C88000694601A865DF002812D169462088097829
:10C89000401820806D1C3888A842C1DC70460028F2
:10C8A0000AD02088801B401E80B2FF2802D90C20AD
:10C8B00007B0F0BD069988550020F9E701790029F5
:10C8C00002D1007B002800D00120704758210020B1
:10C8D0007821002098210020B82100208024002009
:10C8E000A0240020CC240020110000001200000031
:10C8F0001300000014000000110003005198010013
:10C900001200030051980100130003005198010028
:10C910001400030051980100F0250020FFFFFFFFE5
:10C920002FB6010095AD0100B1AC010051AE010080
:10C930002BB6010065AD0100ADAC010049AE0100B0
:10C9400027B60100B5AC0100A9AC010041AE010061
:10C950002DC301004DC30100A9C20100E1C20100C5
:10C96000B9C20100DDC3010005A20100B1A10100AF
:10C970008DC40100A9AE0100B4280020030000000E
:10C98000A0C90100002000205801000030820100F1
:10C99000BCC9010058210020800F000086850100DD
:10C9A0004201031FFFFF0C2A0D1801000F180100A0
:0CC9B0000A180103FCFFFF1424F400002F
:04000005000180C1B5
:00000001FF
