:020000040001F9
:10800000C8310020158101002F810100318101005C
:108010000000000000000000000000000000000060
:10802000000000000000000000000000338101009B
:1080300000000000000000003581010037810100D0
:108040003981010039810100ED8801003981010089
:1080500039810100000000005982010031820100D5
:1080600039810100CD880100DD88010039810100DE
:108070003981010039810100398101003981010014
:108080003981010031860100398101003981010007
:108090006187010039810100698701003981010090
:1080A000398101003981010000000000000000005A
:1080B00000000000000000000000000000000000C0
:1080C0000348854600F084F800480047BDAD010034
:1080D000C8310020401E00BF00BF00BF00BF00BF6E
:1080E00000BF00BF00BF00BF00BF00BF00BFF1D195
:1080F00070470000401E00BF00BF00BF00BF00BFB0
:1081000000BF00BF00BF00BF00BF00BF00BFF1D174
:10811000704700000321094802680A4302600848CA
:1081200002680A4302600748804707480047FEE7A5
:10813000FEE7FEE7FEE7FEE7FEE70000240500405D
:10814000540500402D880100C180010030B50B4668
:10815000014600202022012409E00D46D5409D4221
:1081600005D31D469540491B2546954040191546A7
:10817000521E002DF1DC30BD03460B439B0703D09C
:1081800009E008C9121F08C0042AFAD203E00B78DC
:108190000370401C491C521EF9D27047D2B201E054
:1081A0000270401C491EFBD270470022F6E710B552
:1081B00013460A4604461946FFF7F0FF204610BD55
:1081C000421C0178401C0029FBD1801A7047000036
:1081D000064C0125064E05E0E36807CC2B430C3C1A
:1081E00098471034B442F7D3FFF76EFF88C60100FA
:1081F000A8C6010030B58C180278401C13071B0F6D
:1082000001D10378401C120906D10278401C03E01A
:1082100005780D70401C491C5B1EF9D101E00B7004
:10822000491C521EFBD1A142E6D3002030BD000004
:10823000054900200860054881680548016000681C
:108240000449087370470000007100400075004049
:108250004020002080260020F8B50024FF250135AD
:10826000012627460094284603F044FA002808D047
:1082700034484068304204D0334800212818344341
:1082800001602D1D76007F1CADB2042FEBD3FF20C3
:108290007D3003F02FFA002807D02C480021016020
:1082A000400704432A48006900902A4F200712D053
:1082B0000126002526420AD02748AA00111808697D
:1082C0000969C004C00E8903BA58890F9047760027
:1082D0006D1C042DEED3002C30DA00241D4E00213D
:1082E000301940304156491C25D00778BD06AD0EE7
:1082F000284601F06FFF80003658002E1BD0BF09C2
:108300000121A940154AA80080180068009A80033E
:10831000800F114202D0022802D00CE003280AD1BB
:10832000032F05D102280AD00221284603F0BAF90A
:1083300039462846B047641C042CCFD3F8BD03212E
:10834000F3E7000000630040006000407C610040F3
:10835000000500506C280020006500400007005018
:1083600070B51F4C0E460546E18820460078582916
:108370002DD006DC002924D0242928D034291CD172
:108380001FE066291DD08A2921D0164AD14214D176
:10839000002800D0012003F09DF90020E080217822
:1083A00000291AD020703178491C31702988491C65
:1083B00009B22980B42900DB2880E088401CE080D5
:1083C00070BD002800D0012003F08CF9F5E70028EB
:1083D00000D0012003F07EF9EFE701212170E2E7F0
:1083E0006A2000208FFDFFFF10B5044680070CD1E6
:1083F00064212046FFF7AAFE002908D1FF21913110
:108400002046FFF7A3FE002901D0002010BD012067
:1084100010BD0000F8B5494C4949208E401C80B27F
:1084200020860A69474FD203D20F0126002A2AD09C
:1084300002460B3A272A02D3283AF92A03D20B2004
:1084400003F040F9F8BD0346FF3B01222E3BD20268
:10845000132B01D28A60F8BD0346FF3B423BB32B8E
:10846000EDD3B43B132BF5D3374BC418FF23E033C4
:108470009C42E4D3C419132CECD33249143940186C
:108480009842DCD3F8BD0869000CC007C00FF9D1D1
:108490000B2003F017F9208E0025811F13290AD223
:1084A00026706570A570E570607B00283FD1207E46
:1084B000401C20763BE00146FF221A3913329142DC
:1084C0000CD226706570A570E570607B00282ED1F7
:1084D0001E480660206C2064667325E00146FF3963
:1084E0002E39C72908D225706670A570E570607BAB
:1084F00000281CD1052016E00246FF3AFF21F63A7B
:10850000F4318A4204D225706570A670E5700EE0E1
:10851000C01988420BD225706570A570E670607B2B
:10852000002804D106206073094802F0FDFE0848C7
:108530002586083002F0EEFEF8BD00000020002085
:108540000005005017FCFFFFF7FDFFFF0070004023
:108550002CC5010070B5234C0E46054621892046E6
:108560008078582931D008DC002926D0012924D070
:1085700024292AD034291CD11FE066291DD08A293C
:1085800023D0194AD14214D1002826D0032003F069
:10859000A1F800202081A178002920D0A070317896
:1085A000491C31702988491C09B22980B42900DB93
:1085B00028802089401C208170BD002803D0032022
:1085C00003F090F8F5E70220FAE7002803D0032033
:1085D00003F080F8EDE70220FAE70220D7E7012157
:1085E000A170DCE76A2000208FFDFFFF8307FF22D8
:1085F000DB0E9A408907090E994000280BDA000724
:10860000000F0838830808489B001818C369934373
:108610000B43C3617047830804489B001B1818680C
:10862000904308431860704700ED00E000E400E06C
:1086300010B506490020086048608860C86003499A
:1086400040390860486003F025FD10BD401101402D
:10865000F8B52B49FFF77AFD00912A4904460A88AC
:10866000294DA2422FD0FF270C80284E6E3711E0F3
:108670003046FFF7B9FE002808D0FF206F30844253
:1086800001D3241A04E0761CB6B205E0FF3C6E3C30
:10869000761CB6B2BC42EBD2AE8000261C4F0CE07A
:1086A000A888FFF7A1FE002801D0012E23D0B85DD5
:1086B000A04204D8241A761CB6B21C2CF0D2761C28
:1086C000AE71641CEC71E12109010098FFF73EFDD9
:1086D0000C46287020463C21FFF738FD6870204684
:1086E0003C21FFF733FDA970EA79A979A88800F049
:1086F00011F82872F8BD1D2CE1D31D3CDBE700000A
:10870000805101006820002094260020B20700005C
:108710007CC5010070B50D4616466421FFF716FDB5
:10872000C0B20C46132801D96434E4B2A008001981
:108730000721FFF70BFD0948891940192038C07F30
:10874000401880B2A10703D1032D01D2401E80B290
:108750000721FFF7FBFC084670BD000070C5010053
:1087600010B503F02DFC10BD10B508484068002876
:1087700008D08047002804D0FF21054A413100F08D
:10878000B5FB10BD02F0A8F910BD0000A02100202B
:1087900030C6010070B5234C0E460546618920465F
:1087A0004078582931D008DC002926D0012924D06E
:1087B00024292AD034291CD11FE066291DD08A29FA
:1087C00023D0194AD14214D1002826D0052002F026
:1087D00081FF002060816178002920D060703178AD
:1087E000491C31702988491C09B22980B42900DB51
:1087F00028806089401C608170BD002803D005205E
:1088000002F070FFF5E70420FAE7002803D0052006
:1088100002F060FFEDE70420FAE70420D7E701212A
:108820006170DCE76A2000208FFDFFFF10B502F0C9
:10883000A3F9002805D01F491D484860C8131E49E8
:1088400088611E48018CC9B201290BD1828C1207A4
:1088500008D1028D1206120F042A03D1828D12064E
:10886000120F0AD0012921D1818C09071ED1018D57
:108870000906090F0A2904D007E0114A0121916075
:10888000F5E7828D1206120F05D00D290ED1808DCD
:108890000006000F0AD10B480168012904D00A49DB
:1088A000016001680129FCD1C021416110BD0000B7
:1088B000DFFF07C000050040006C0040C00F00F063
:1088C0000006004000EC06407593000010B5002142
:1088D000014802F087FD10BD0090004010B5012155
:1088E000014802F07FFD10BD00A00040F0B53C4DF6
:1088F000012185B04902284602F00BFF012700261E
:10890000384C002823D0FF212531284602F0FCFEF8
:1089100000281CD0FF2025302E50812032498000B5
:108920008860607D002800D16F6002216846017078
:108930002E49086808600390E17C68460172E0688F
:108940000190E67406CC6846083C90471DE004217F
:10895000284602F0DEFE002817D0FF210931284604
:1089600002F0D2FE002810D003F018F9E07C217D3F
:1089700088420AD1607D002800D16F6081201A49A9
:1089800080008860207D03F06FF9FF211D312846AB
:1089900002F0BAFE00280DD0A07C218A884202D9BC
:1089A00003F0D8FB06E0FF211D316E50002801D0F6
:1089B00003F026FCFF214531284602F0A5FE0028E1
:1089C0000CD0FF2045302E50607D002800D02F6055
:1089D000E07C002802D0207D03F046F905B0F0BD10
:1089E00000200040B42800200023004080240040E4
:1089F0000FB410B503A9044B044A029800F024F800
:108A000010BC08BC04B0184743A501009C210020FD
:108A100030B47446641E2578641CAB4200D21D46F7
:108A2000635D5B00E31830BC184702E008C8121F02
:108A300008C1002AFAD170477047002001E001C147
:108A4000121F002AFBD17047FFB581B005460027F1
:108A500006E025280AD0049A039990476D1C7F1CD4
:108A600028780028F5D1384605B0F0BD0022697895
:108A70006D1C10462E2913D1697804226D1C2A29F9
:108A800009D102996D1C01C9029109E00A235843DA
:108A9000303808186D1C29780B46303B092BF5D966
:108AA0002B78002BDFD0632B07D0732B10D0049AC8
:108AB0001846039990477F1C2DE002996C460B786D
:108AC0002370091D0291002161706E46012104E0AE
:108AD000029940C902910021C94352070AD50024D6
:108AE00000E0641C84420DDA8C42FADB325D002A1D
:108AF000F7D107E0002400E0641C8C42FCDB305D11
:108B00000028F9D13F1904E03078049A761C0399C3
:108B10009047641EF8D26D1CA2E700001CB51049F6
:108B200003C900900191684602F0A8FA0D4901209E
:108B30004A688003FF231B029A43104348600120C8
:108B400008600949486009490A681202120A830745
:108B50001A430A60064A80211160064908601CBD5C
:108B600068C50100007500400073004004E400E0A7
:108B700000E100E000700040F7B584B000251688E1
:108B800007461580406B1446002813D003780598DB
:108B9000032E51D30221017021881122491C89B270
:108BA000218042542188491C89B221804354208865
:108BB000401C2080386B00281DD005462088059970
:108BC00002461232B24237D811220A5420881022AB
:108BD000401C80B220800A542088401C20800F2036
:108BE0002A5C2388401ECA54228840B2521C22802C
:108BF0000028F5DA0025384620300290807B0028D6
:108C000006D033462246059901F0DAFF050014D15B
:108C10000298407B002806D032462146059800F095
:108C20003BFE050009D1B878002823D00598864678
:108C30002088001DB04202D90C2007B0F0BD684664
:108C400079DF0028F9D1218803207246505420880A
:108C50001921401C80B22080115420887146401C8C
:108C600080B2208041186846008803F06FFB21889D
:108C700040182080F878002817D0218803230A465E
:108C8000FB56C91C0598B142D6D8022181542188CF
:108C90000122491C89B2218042542188491C89B291
:108CA000218043542088401C20807868002817D0F9
:108CB00021880023C3560A46C91C0598B142BBD877
:108CC0000221815421880A22491C89B22180425400
:108CD0002188491C89B2218043542088401C20806F
:108CE000388900280AD000943846019606220221CD
:108CF0000830059B03F09FFB05009ED1388A0028B1
:108D00000AD0009438460196072203211030059BB3
:108D100003F091FB050090D1388B00280AD0009415
:108D200038460196152214211830059B03F083FB69
:108D3000050082D1386A002806D0334622460599BC
:108D400001F014FB0500D8D1786A002806D033461C
:108D50002246059902F00EF90500CED10298007B5B
:108D6000002807D0334622463846059902F0ADFF69
:108D70000500C2D13878002807D03346224638464D
:108D8000059902F02BF90500B7D1284655E710B533
:108D900001220221002001F02FF8002801D007282D
:108DA00012D107220221012001F026F8002801D06B
:108DB000072809D100210A22084601F01DF80028E1
:108DC00001D0072800D1002010BD000030B5A7B0A9
:108DD000382101A8FFF7E9F9022168460171002452
:108DE00084710521C17138210FA8FFF7DEF9012533
:108DF00010A885810D48149024211DA8FFF7D5F9EE
:108E000020A8057040202190B4202290084B1DAA74
:108E10000FA9009401A800F0BDFA002803D0054A6C
:108E2000054900F063F827B030BD00003420002071
:108E3000F9B8010048BB01004A0300000448426839
:108E40000121C9050B46934383600A40C260704705
:108E50000005005070B50024064D06E06968E0008A
:108E6000085C012102F078F9641C28788442F5D36B
:108E7000002070BD5C210020F8B515460C46064662
:108E8000052A01D20720F8BD02F03CFA002803D1E0
:108E900002F00EFA0028F6D1104900204E600C7046
:108EA000C8608D6008610E4D0DE0E00069688019B2
:108EB000009181786A46517000780A4A694602F04A
:108EC0009BF90028DFD12046641EE4B20028ECD1D3
:108ED000054A0021024800F049F8F8BD5C21002055
:108EE00028C60100A9A501007DA40100F8B504462B
:108EF00016460D460C2000F0A3FF012168460170C4
:108F00000078044B70C372B6684600780028FBD125
:108F1000F8BD00007021002010B58268C36893423C
:108F200003D001F0FBFA002010BD052010BD002980
:108F300006D0002A02D0531E134203D009207047E6
:108F40000E2070470160838000218160C160084667
:108F5000704710B58268C3689A1A83889A4203D80A
:108F600001F0E6FA002010BD042010BD094B9B68FB
:108F7000002B07D0002A07D0002805D00068037C0A
:108F8000002B03D0082070470720704741744261CE
:108F9000002070477C210020FFB59007002581B09C
:108FA00014460E46002832D11B4F002C31D002F05F
:108FB000D3FD049878610320387033461821224687
:108FC00000204B43BC601834C10089180D704D70EF
:108FD0008E704C601C19401C0328F5DBFD607D7011
:108FE00001240E48BD702405046003211420FFF7FE
:108FF000FDFA0B4804600B4C0198A060032111207E
:10900000FFF7F4FA60683861002005B0F0BD072072
:10901000FBE7BD60FBE700007C21002080E200E070
:1090200000E100E000150140FEB50D461B49174662
:109030008968044600292AD0002C28D0052D01D2A9
:109040000720FEBD6069002821D0607C012820D067
:10905000002603F0B3F9C000104901908968401858
:10906000694603F0D5F9002815D0012101700C499B
:10907000446049680830E2C008490198896841188D
:1090800068460078487002F0DDFF0020FEBD082031
:10909000FEBD2E46DDE70420FEBD00007C21002041
:1090A00000150140F8B5134D0446A96800291CD0ED
:1090B000002C1AD06069002817D00026267403F00F
:1090C0007DF9C700A8686946381803F0A1F900289F
:1090D0000DD0022101704460A868391868460078F4
:1090E000487002F0AFFF3046F8BD0820F8BD0420FC
:1090F000F8BD00007C21002010B5044609488168B5
:10910000C2688088511A814207D10121064802F0C5
:10911000E5F9002801D0052010BD21460148FFF7E0
:10912000FBFE10BD4C2800201E21002070B5044617
:10913000224888B01E460D0042601CD0A8882968CD
:1091400082B21F48FFF7F3FE002815D1A889A9684D
:1091500082B21B481030FFF7EAFE00280CD1202213
:1091600018496846FFF708F8A0680690207900289B
:1091700004D0012103E0072008B070BD002168463B
:10918000017506776079002800D00E206946487581
:10919000E0780290A07803902078019060780090A9
:1091A0000949684602F042F90028E5D102F0F0F9D9
:1091B00002480121801C02F091F9DDE71C2100200A
:1091C0004C280020D8C50100A9C2010010B50446F2
:1091D000064801214470401C02F0E6F9112803D131
:1091E00021460348FFF7B5FE10BD00001C210020FA
:1091F0005C280020F0B50546007D002493B00E46A3
:1092000000280DD0012001466846103103940173F7
:10921000717B4173817BF92001406846891C817311
:109220001C2104A8FEF7C1FF6946087C02210843FF
:10923000694608742A7DEF21002A02D010221043CB
:1092400000E008406A461074059407940894287D4D
:10925000002800D003A8099001270A9410469771AE
:10926000304A82800094B27B0270F27B4270807838
:10927000F9221040F722801C1040EF2108404108DD
:10928000490068468170317B017214210BA8FEF7FA
:109290008CFF01A80B9068460C908786C4860787D0
:1092A00002A80F90A888AB1D0BAA04A9A2DF002872
:1092B00035D1B068002830D0684687711A4981805E
:1092C0000094317C0170002001466846417080782E
:1092D000F9210840F721801C0840EF21084041088F
:1092E00049006846817011A8B16800F04CFC064640
:1092F00014210BA8FEF759FF01A80B9068460C90AB
:109300008686C486068711A80F902A46E8880E3202
:109310000BA9A3DF002802D100E0EC81002013B0EC
:10932000F0BD0000192A000008290000F0B50C4625
:1093300093B01F216A4611800726002791800028DC
:1093400009D0C17849070DD502A9FFF715FC0028FF
:1093500009D102AD01E000251780002C0ED0E07885
:10936000002802D0304613B0F0BD01AA0AA9204659
:10937000FFF702FC0028F6D10AAA02E068460022A4
:10938000878068468088C3B268460088C1B2284694
:1093900072DFE8E770B50D4604991646040042D026
:1093A000002E40D0424800224271C3600161242255
:1093B00031464048FEF7E0FE00F0B8F83D49343150
:1093C0000846103801602031816038215C38FEF792
:1093D000ECFE3848217838380170A1788170E17846
:1093E000C170617841706269216942610161E2681E
:1093F000A168C26081600146E369A269CB618A61AC
:10940000616A002919D00146AC310246B832416286
:109410008A60636A1B880B80616A436A89889980C5
:109420000021436A06E00E2070BD666AB668765C6D
:109430005654491C9E888E42F7D8A16A00291CD038
:109440001C4AAC3211460C398A608162A36A9B883F
:109450008B80A16A836A098819800021836A04E0ED
:10946000A66AB668765C5654491C9E888E42F7D828
:109470002C210A5D0F4918390A73216A002909D085
:109480000B4914310162226A52884A80216A026AB9
:10949000098811806168002904D00549891D41604F
:1094A00061684160034829463838FFF73FFF70BDC7
:1094B0009C2000204427002010B502881A4C102A56
:1094C00017D00021112A17D0192A11D1807900282C
:1094D0000ED1607901281BD002281FD003281FD08D
:1094E000042805D12171E2680846002A00D090477F
:1094F00010BD8088208110BD6170808821898842DC
:10950000F9D1012005E021690029F4D0884710BD78
:10951000022000F033F80028F5D110BD0320F8E751
:10952000032020710420F4E79C20002010B50721BF
:109530000148FEF73AFE10BDB420002010B50D48DA
:109540000078012814D10C4C6078002810D1607983
:10955000002802D074DF00280BD1012060706079F0
:1095600000F00CF8002803D02169002900D08847BA
:10957000002010BD442700209C200020F0B5754C31
:1095800087B06071002606A8069602F095FA0127BA
:10959000082806D000286FD10698002802D027702E
:1095A000D4E00696FFF7C2FF6B4D6878002802D022
:1095B0006079012805D0A87800280AD060790228AF
:1095C00007D1E168002903D0E7700820884700E050
:1095D000E6706079012808D16878002809D05D48D4
:1095E000193002F005FA002803D06079022802D071
:1095F0000CE002206071A878002805D05548193089
:1096000002F0F6F9002801D103206071287B0028C0
:1096100004D16079032801D104206071287E0028DC
:1096200004D16079042801D166712671E1680029AE
:109630000AD06079032801D0042805D128780028B1
:1096400002D06078002818D0A67018216846FEF76E
:10965000ACFD684606700196067203966079012893
:109660000FD0022816D03C4E243637465C3F0328E4
:109670001CD004285ED13BE069E0A7700720884732
:10968000E3E7344818300190684607704682068246
:10969000277152E02F4818300190684607702989D9
:1096A0004182A98801820220207146E0A88A694689
:1096B0004882288A08822848243002F02BFF00289C
:1096C00005D02878002802D06078002801D0032037
:1096D0002FE002206946087204200396F8701E48A5
:1096E00000213838FFF722FE002830D1052020E085
:1096F000A88B69460882288C48821748243002F0DB
:1097000009FF002805D02878002802D060780028BA
:1097100001D004200DE0022069460872042003965F
:10972000F8700D4800213838FFF700FE00280ED1F0
:10973000062020716079002803D0684673DF002876
:1097400005D1E168002901D020798847002007B0C1
:10975000F0BD00009C2000204427002038B50D46B5
:1097600004001AD0002D18D0286820600020C043C3
:10977000608228792075FF2020740121684681705D
:1097800007490180221D69460120A0DF002803D17E
:1097900029462046FFF72EFD38BD0E2038BD0000BB
:1097A0000F18000070B5054601461C220E48FEF752
:1097B000E3FC0E4C002626702968002906D00822FA
:1097C000201DFEF7D9FC201D7ADF02E00748001DAE
:1097D0007BDF002807D1401E60806670044A0021AC
:1097E0000448FFF7C3FB70BD30280020BC200020D8
:1097F00059C30100C4C50100F8B5214C02880027F7
:109800001E4DE689102A15D01E49112A21D0122A90
:109810002DD0502A1CD1C288801DB24218D1028B93
:10982000022A15D1C27E837E10021843C007C00FE2
:109830000CD112E081886980014610480822163157
:109840000C30FEF799FC6F70002E01D100F0E2FDA4
:10985000F8BD0020C04368806F700868FFF722FCE5
:109860000028F5D0A1690029F2D08847F8BD811DF4
:10987000024808220C30FEF77FFCE7E7BC200020FE
:1098800030280020C4C5010010B502480068FFF769
:1098900009FC10BDC4C501007CB5054608880C460E
:1098A0000930904201D90C207CBD684671DF002848
:1098B000FAD121880820685420881B21401C80B2DE
:1098C00020802954208800A9401C80B220804019A3
:1098D00006220131FEF750FC20886946801D80B2C7
:1098E00020800978002900D0012129542088401CBB
:1098F000208000207CBD00007FB504460121684621
:1099000081714A4981804A4A01A90120A0DF0028CB
:109910007ED1228825463C35002A09D044482B4672
:10992000801C00904348616800F05CFC00287BD1FB
:109930002289002A0AD03E482B460A3000903D4832
:10994000E168401F00F04EFC00286DD1228A002AF9
:109950000AD037482B461230009036486169001F04
:1099600000F040FC00285FD1228B002A0AD030484A
:109970002B461A3000902F48E169801E00F032FC1F
:10998000002851D1228C002A0AD029482B462230A7
:1099900000902848616AC01E00F024FC002843D1D2
:1099A000228D002A0AD022482B462A3000902148D6
:1099B000E16A401E00F016FC002835D1216B002919
:1099C0000ED002A802F0B0FA19482B4632300090AF
:1099D0001848082202A9801F00F004FC002823D1A7
:1099E000606B00280BD012492B463A310091027966
:1099F00001681048401C00F0F5FB002814D1A16B51
:109A0000002910D002A802F017F80948423000E0FF
:109A10000AE0009007482B46072202A9273000F0F1
:109A2000E1FB002800D1002004B070BD0A1800003E
:109A3000D0200020292A000010B50446FFF7DCFEE4
:109A40002146064800F040F8204601F071FF20460C
:109A5000FFF732FD204600F0F5F810BD4C2600203F
:109A600030B5184B0D4604000FCB85B003936B4601
:109A700007C324D0002D22D00020C043A082286834
:109A8000A0610020A0752146684663DF002814D13C
:109A900021786846817401210182A21C04A9012059
:109AA000A0DF002809D12946204602F08DF80028C1
:109AB00003D12946204602F063FB05B030BD0E20DD
:109AC000FBE70000C8C5010000281ED000291CD0FB
:109AD0000A88102A14D0112A14D0502A15D1CA8805
:109AE000038A891D9A4202D10B8B022B0ED08388E8
:109AF0009A420AD18369002B07D00A8B1A31184782
:109B0000898801E00021C94381827047CA7E8B7E2B
:109B100011021943C907C90F00D00121817570478F
:109B200007B584B000280DD0828A114B9A420BD021
:109B3000827D002A08D06A46128B142A06D9072093
:109B400007B000BD0E20FBE70820F9E700220092D5
:109B500001920292039282896B461A80039106A9B0
:109B6000029101219970808A6946A6DFE8E700002A
:109B7000FFFF000070B504460D460846FEF720FBC7
:109B80002080656070BD0A780270497841700220BB
:109B9000704700001CB5002348221149082002F03C
:109BA0009FF9002804D02B210E4A0901FFF79EF9E6
:109BB00000200090694601900870684660DF002828
:109BC00003D0084A0849FFF791F9084802F07EF9E6
:109BD000002804D00449034A091DFFF787F91CBD7A
:109BE000B821002048BB0100BA020000399A0100E8
:109BF0007CB5134E00250C463060002918D069460C
:109C0000002000F0B5F8002819D101A9012000F0CA
:109C1000AFF8002813D1684601790020002901D04F
:109C2000022004E069460978002900D00B2020704A
:109C30007068002802D1FFF7AAF8054628467CBDC7
:109C40009420002010B51C4C0188606810290DD0AC
:109C500011290AD1401E606007D1FFF798F800284B
:109C600003D02168002900D0884710BD00281ED1EC
:109C700000210122084600F0BFF8002801D0072883
:109C800011D107220221012000F0B6F8002801D0EE
:109C9000072808D104220221002000F0ADF8002896
:109CA00005D0072803D02168002900D088476068C4
:109CB000401C606010BD00009420002010B50320FF
:109CC00000F018FA002801D0062800D1002010BDAD
:109CD000F8B507460024234802E0641C042C1AD27D
:109CE000A2008258BA42F8D1042C14D21D481E4E4C
:109CF0000C38002929D001290ED002290BD160008F
:109D0000201880194578002D05D0184801690029D0
:109D100001D028468847F8BD61006118755C8E192E
:109D2000717800290CD011490A2249688068514392
:109D30000E4A521CFFF778F9002801D10B484770F2
:109D40000A48B17814300155DDE78068FFF7AAF9B9
:109D500006486100611814308919005D8D78A842A9
:109D6000D1D0F8BD94C50100E02600207C20002061
:109D700004280CD2074A1269074B80001B5C0120A3
:109D80009840904300D001200870002070470020C8
:109D9000FAE700000005005094C5010010B5042842
:109DA00006D007280FD00A2801D102F063F810BDB1
:109DB0000B481321408E76DF0828F8D00028F6D013
:109DC00008A20C4908E0FFF7B9FB0828EFD00028EB
:109DD000EDD0084903A20831FFF788F810BD000054
:109DE000002000202E2E5C2E2E5C2E2E5C6D6169D4
:109DF0006E2E6300D302000070B50023042811D238
:109E0000440004190D4D012A02D101290DD0002270
:109E100046008019094E801900290CD0012906D06E
:109E2000022906D00723184670BD0D30C2B22A554C
:109E3000F9E74270F7E78270F5E70000E0260020BE
:109E400010B5054A0146127A0020D20702D0084612
:109E500000F054F810BD00007C20002070B50E46C4
:109E6000204905464E608D6000200A61A9071ED575
:109E70000024012211462046FFF7BEFF641C042C7B
:109E800002D20028F5D012E0002810D17208042177
:109E90001548FEF7F1FF002809D1FEF7DBFF002887
:109EA00005D11148114A00211438FFF75FF8E9077E
:109EB00006D00F220E4952058A600023CB608A61CA
:109EC00000280DD108480B4A00211C38FFF74EF836
:109ED000002805D10448084A01211838FFF746F840
:109EE00070BD00007C200020A4C5010031A101004C
:109EF0000005005015AC01003D8E0100FEB57A4D05
:109F00000722EB6892059A4302936B6800939C00CA
:109F100006461B1900200121019349050746734C91
:109F20003300FEF775FD180D1515374755677C880A
:109F30007F8891DE9E9E9E9E9EC8CED1D8DEDE1486
:109F40000F21029A49059143A160E7602F70FEBD81
:109F5000A260E76060680F2252055040800209D578
:109F6000A160E760022E02D1E120C0000AE07D205E
:109F7000400107E0E160A760022E01D1C82001E0A6
:109F8000FF2091302E706421FEF7E0F800994143E4
:109F900000223FE0A260E76060680F225205504057
:109FA000800204D5A160E76019204001EAE7E16082
:109FB000A760E3E7A260E76060680F2252055040A7
:109FC000800202D5A160E760D1E7E160A760D7E732
:109FD000A260E76060680F2252055040800202D5FF
:109FE000A160E76001E0E160A7602E700098410089
:109FF00000220FE0A260E76060680F225205504027
:10A00000800202D5A160E76001E0E160A7602E70E8
:10A010000099002236480068FFF706F8FEBDA260EE
:10A02000E7601BE061680120800502468A43A26068
:10A030000140E16010E06068012189050A46824321
:10A04000A2600840E060E3E76068012189050A46F4
:10A050008243A2600840E0600199C9E7E160A7601F
:10A060002DE023484068FFF71DF811218A1B01D01D
:10A07000002807D00F22E96852051140A160E7606F
:10A08000EF60FEBD0121C905E960012A0CD9104627
:10A09000C82148436421FEF759F86968002241430A
:10A0A00013484068FEF7C0FF0F22E96852051140CF
:10A0B000E160A760FEBD0F214905A160E7602E7039
:10A0C000FEBD07229205AAE70D214905A160E760C0
:10A0D00001218905C2E70321C905A160E760891054
:10A0E000BCE70F214905B9E77C200020000500509E
:10A0F00088C50100F0B500210B4C0C4D03273F042F
:10A100008A00A25892005619326801238B400340FE
:10A1100000D00323BA431B0413433360491C0429B2
:10A12000EED30020F0BD000094C5010000070050F0
:10A1300010B500780221FFF7CBFD10BDF8B50C4635
:10A140001E4615460C21069FFEF700F80801401A2E
:10A15000A1084018308014212846FDF7F7FF610060
:10A160006118401838806800291807980180F8BDE8
:10A170000022D243830004490428CA5002D308189D
:10A1800020300277704700006C280020F0B50025D1
:10A19000ED43002A02D00023042601E00423082610
:10A1A0000B4C04E09F00E7597F1C04D05B1CB342BA
:10A1B000F8D32846F0BD26185DB2203635709E00D3
:10A1C000A151002AF5D1E11820310877F1E700000C
:10A1D0006C2800200249091820200856704700000A
:10A1E0006C280020FFB58FB01E4615460F0004D125
:10A1F00023A26D210020FEF779FE002D04D120A2BC
:10A200006E210020FEF772FE1C216846FDF7CDFF8F
:10A2100068460178022001436846017000240194D9
:10A22000039404940594012108A80694817068465B
:10A230000F99018407943178017771784177807F95
:10A24000F9210840F721801C0840EF21084041080F
:10A25000490068468177142109A8FDF7A6FF08A8E0
:10A26000099007A80A9068468585C4850586144824
:10A270000D9709AA69460088189BA2DF13B0F0BDAC
:10A280002E2E5C2E2E5C2E2E5C2E2E5C2E2E5C2E08
:10A290002E5C636F6D706F6E656E74735C626C655F
:10A2A0005C626C655F73657276696365735C626C32
:10A2B000655F6469735C626C655F6469732E6300DB
:10A2C000D0200020F8B52348C16800293ED00E6890
:10A2D00021494C680769C078E11B0D022D0AED1C6D
:10A2E000002814D101201D4A000450601B4A403A46
:10A2F00050601B49400008601A4908601A49012053
:10A3000008602F20FDF7F6FE12490120C870B54203
:10A3100000D23546E81900020F4B000A403318609E
:10A320000D4A5168001B091B0902090A0002000AB4
:10A33000C91C814209D9506818602F20FDF7DAFE48
:10A3400001200749400480390860F8BD01F004FC91
:10A35000F8BD00007C2100200015014040130140A1
:10A3600080E200E000E100E000100140F8B50646A0
:10A37000108814468446801D0D46984201D90C2051
:10A38000F8BD32880720062AFAD31927FF01184B97
:10A39000BA4201D99A42F3D171880629F0D3B94261
:10A3A00001D99942ECD19A4203D0994201D08A4214
:10A3B000E6D805216046295420881221401C80B22D
:10A3C000208029542088401C80B220804119308888
:10A3D00001F0BCFF2188401880B2208041197088AC
:10A3E00001F0B4FF2188401820800020F8BD000053
:10A3F000FFFF000010B5892102A28900FEF776FD5B
:10A4000010BD00002E2E5C2E2E5C2E2E5C6D616920
:10A410006E2E6300F8B5164800F0A0FB144D002620
:10A420000C3D144C002807D0616900291CD0012084
:10A430006A461070684616E02878002805D06169E1
:10A44000002911D0684606700DE0687800280DD00C
:10A45000A168094800220068FEF7E6FD002803D045
:10A46000A169002900D088472E70F8BD6168F0E727
:10A47000C820002030280020C4C50100F8B50026FF
:10A480000124154D23E06968F0004718387821460B
:10A490002A698140114218D08A432A6100F0FEFEE9
:10A4A0003A782146EB68914019400346934099421F
:10A4B0000BD17978012901D0012100E000217B68CE
:10A4C0004140002B01D010469847761CF6B2287800
:10A4D0008642D8D3F8BD00005C21002010B50E499B
:10A4E00000234A788C78A24212D0521CD2B24A7011
:10A4F000022A00D14B704A78074B920018339A58C1
:10A500000260086910180002000A0861012010BDED
:10A510000360002010BD00007C2100208268838839
:10A520001A4003689A5C0A708168491C8160704710
:10A53000C26883881A4003689954C168491CC16085
:10A54000704710B50446C0B2FEF740FE204610BD6D
:10A550000EB51120694608720A220FA102A87CDFFD
:10A56000002803D00F4A8721FEF7C0FC002000908E
:10A570001022694601900A803C224A808880FF2090
:10A580009130C88068467ADF002803D0054A9121BF
:10A59000FEF7ACFC0EBD000043542D303033563076
:10A5A0003232000048BB0100F8B50746104E0125C5
:10A5B000BD403068FEF776FD00280DD10D4C2069B6
:10A5C000284207D1384600F069FE0028E06804D030
:10A5D000284303E0A8432061F8BDA843E060206958
:10A5E000002228432061A1683068FEF71DFDF8BDF8
:10A5F00028C601005C210020FEB5F74E2422334618
:10A60000777B222020219A5E185E595E0125002466
:10A610003B00FEF7FDF90B072B2A2A2A8AF02AEFC6
:10A62000EEED2A00707901280AD1EB490B3108467A
:10A630001730FDF78FFFF07A002801D07471F472A3
:10A64000B07901280AD1E4490A3108461A30FDF7E9
:10A6500087FEB07A002801D0B471B472B0797179F4
:10A66000084302D1DD4800F055FEFEBDB17B0B0072
:10A67000FEF7CEF9050509214C510400F5E7B47247
:10A68000F4723473B573D649CA79D4491031895CF0
:10A6900081420FD0D0490B3108461730FDF75AFFE1
:10A6A000F07A002807D0F4722220305EB42802DB52
:10A6B000748400E0F472CA4D287AC84F2421083F00
:10A6C000385C715E88420FD0C3490A3108461A309F
:10A6D000FDF746FEB07A002807D0B4722420305E21
:10A6E000B42802DBB48400E0B472E979BB481030CE
:10A6F000405C2221715E8842B7D1287A2421385CDF
:10A70000715E8842B1D10320B073FEBDB548406888
:10A7100070640420F8E7B3484068716C401A282838
:10A72000F3D9B47308207073FEBDAB48B77C0278D0
:10A73000017940783B00FEF76BF9080608142B37C7
:10A740004E5F7705F0E7B574FEBDA3490B310846AF
:10A750001730FDF7FFFE30780028F5D03470022066
:10A7600044E0002A02D03470357106E0002802D09F
:10A7700074700320B0740129E6D197490B31084663
:10A780001730FDF7E7FEF07A0028DDD0F47249E0DB
:10A7900091490A3108461A30FDF7E2FD3078002869
:10A7A000D2D03470042021E0002A02D034703571F8
:10A7B00006E0002802D074700520B0740129C3D1CE
:10A7C00085490A3108461A30FDF7CAFDB07A0028DB
:10A7D000BAD0B47226E080490C3108461430FDF737
:10A7E000D9FF30780128AFD134700620B074FEBD97
:10A7F0001CE1FCE06CE026E0002A02D034703571E8
:10A8000006E0002802D074700720B0740129EED150
:10A8100071490C3108461430FDF7BCFF307B00282D
:10A82000E5D034733471E2E7347074703484748426
:10A83000B484F48434857485B485B474082070734A
:10A840007475B473D3E7F37C002B79D0012B10D04F
:10A85000022B26D0032BCAD1F47403E7B472242050
:10A86000305EB4286DDAB08C0028C0D1B472F574B3
:10A87000BDE7002812D058490B3108461730FDF7C4
:10A8800069FEF07A002806D0F4722220305EB428E7
:10A8900001DB748402E0708C0028A8D1F4720220DD
:10A8A00014E0002910D04C490C3108461430FDF753
:10A8B00071FF307B002804D034732020305EB42830
:10A8C0007EDA308C002892D134730320F0748EE746
:10A8D000707D0300FEF79CF805051E374E880400C6
:10A8E00085E740484068F16BC0084018B063FDF749
:10A8F000AFFE39491A31881C00903948019182789D
:10A9000041780078344B1E33FFF718FCB472F472B0
:10A910003473757524201E21305E715E884211D01B
:10A920002D490A3108461A30FDF71AFDB07A002881
:10A9300009D0B4722420305EB42804DBB48402E071
:10A9400063E06FE0B47222201C21305E715E8842A9
:10A950000FD021490B3108461730FDF7FBFDF07A87
:10A96000002807D0F4722220305EB42802DB748401
:10A9700000E0F47220202E21305E715E88420FD0FC
:10A9800015490C3108461430FDF704FF307B0028D0
:10A990000BD034732020305EB42806DB348404E00E
:10A9A0001A21715E884200D1347324201E21305E4A
:10A9B000715E88428BD122201C21305E715E00E0E6
:10A9C00032E088428CD120202E21305E715E884298
:10A9D00086D1042070750AE7002000202CC50100F4
:10A9E0009426002000150140747374753AE6B37D17
:10A9F000002B0AD0012B00D13BE7022B00D150E7FE
:10AA0000032BE8D17473B4752CE6002A00D12DE72E
:10AA1000304908461A30FDF7A3FCB07A002800D16F
:10AA200021E71BE7B48421E734844AE7F37D002B58
:10AA300009D0012B1ED0022B34D0032BCBD1082000
:10AA40007073F4750EE6002A11D0224908461A30B8
:10AA5000FDF786FCB07A002806D0B4722420305E60
:10AA6000B42801DBB48402E0B08C0028B3D1B47206
:10AA7000F575BCE6002812D01649491C0846173067
:10AA8000FDF768FDF07A002806D0F4722220305ECF
:10AA9000B42801DB748402E0708C00289BD1F4722E
:10AAA000022015E0002911D00A49891C08461430FB
:10AAB000FDF770FE307B002805D034732020305E17
:10AAC000B42800DB3484308C002884D13473032014
:10AAD000F0758CE60A200020F8B51E4C207800287E
:10AAE00037D02069002807D00026E068002805D06C
:10AAF0000025002E04D013E00126F6E70125F8E733
:10AB0000684651DF052806D0002806D0124A6D217C
:10AB1000FEF7ECF904E0012602E02169009888477D
:10AB2000002D12D1608869460880A06861DF052881
:10AB300006D0002806D0084A8421FEF7D7F904E0A1
:10AB4000012502E0E168A0688847002ED8D0002DDA
:10AB5000CFD0F8BDA021002030C6010041880548B3
:10AB60000288914204D34088814201D80120704775
:10AB700000207047C02000201048018CC9B2012974
:10AB800017D1818C090714D1018D09060A0F03D151
:10AB9000828D1206120F0ED0090F012903D1828D6A
:10ABA0001206120F07D0032903D1808D0006000F73
:10ABB00001D000207047012070470000C00F00F056
:10ABC00030B51588EC1C9C4201D90C2030BD022404
:10ABD0004C5513881C255B1C9BB21380CD541388E5
:10ABE0005B1C9BB21380012807D0022807D00328E2
:10ABF00007D0042807D0072030BD002004E0012042
:10AC000002E0CC5401E00320C8541088401C10809E
:10AC1000002030BD10B50448017AC90702D0007881
:10AC2000FFF76CF910BD00007C200020F8B52C491E
:10AC3000C8680A690C780F7989688646944600913D
:10AC40003EE00099E20055182A7836E01823534375
:10AC50006968521CC918AB78D2B2934200D1002265
:10AC60000B78022B02D0032B27D123E04E6803463A
:10AC7000014603E0B14204D00B46C96900291CD04B
:10AC8000F8E7002919D08B4208D1C069002805D106
:10AC9000144F0126BE600026B44601270E68C9691C
:10ACA000D961002909D00B689B190B6005E001747C
:10ACB000C06900E000210028F9D169789142C5D12E
:10ACC0002146641EE4B20029BBD1054962460A61EF
:10ACD000C8600F71704501D00120F8BD0020F8BD9B
:10ACE0007C21002000100140F8B5044631480026C0
:10ACF000C168009107784EE02E48F90080680D1871
:10AD000043E0002C02D02046E4691FE02878182197
:10AD100041436A68401CC0B251182870AA7890421A
:10AD200000D12E700A784868012A30D1027C002AAE
:10AD30002DD18A684260CA6882600A69C260496926
:10AD400081611C490979002900D04660194943688E
:10AD50000A699C46991A0902174B090A994202D2BC
:10AD60008268891807E06146511A09028268090A57
:10AD70008A4202D9511A016000E006604660012152
:10AD800086600174C66101F065F9002CB9D128789C
:10AD900069788842BAD138467F1EFFB20028ABD10D
:10ADA0000448C1680098814201D00120F8BD00200C
:10ADB000F8BD00007C210020FFFF7F008EB055A170
:10ADC00007C90692059104900023554A06210A20DE
:10ADD000FEF7E2F8002803D052A25649FEF786F8A3
:10ADE000554A07AB07CA07C3FF21013153480090FA
:10ADF00040180191039102900323514A694607A824
:10AE0000FEF794F9002804D0CB214E4A8900FEF7C2
:10AE10006DF8FF214C4A2B310320FFF71FF8002863
:10AE200003D0484A4949FEF761F869460020FEF719
:10AE3000DFFE002804D0D721424A8900FEF756F8E9
:10AE400068460078022863D0002069460871FEF742
:10AE5000A1FEFFF77DFB00F07FFFFDF7B7FF1C2190
:10AE600007A8FDF7A2F93A4908913A49002009914B
:10AE70000790032208A90A726946488508A9087341
:10AE800035480C9035480D9007A8FEF78BFC00283C
:10AE900003D02C4A3249FEF729F8FDF73FFE31492D
:10AEA000012008607D20C00000F018F904A92EA040
:10AEB000FDF79EFD20482D4A0021303800F03EFA73
:10AEC000002804D01B4917A21431FEF70FF81A48C6
:10AED000274A0021283800F031FA002804D015490B
:10AEE00010A21631FEF702F80320FEF747FB0028F8
:10AEF00004D010490BA21931FDF7F8FF134C0E34A2
:10AF000048DF0028FCD00F4A2146FDF7EFFFF7E7A6
:10AF100001209AE753746172742E2E2E0A000000ED
:10AF2000142400202E2E5C2E2E5C2E2E5C6D61696A
:10AF30006E2E6300360600005CC50100142200205E
:10AF400021C2010048BB01009D9D01005903000082
:10AF50002F3A0000175D0100B9B90100F5A3010007
:10AF60003B0200000070004025730000F9A50100BD
:10AF70001584010070B5144682880E460546208867
:10AF8000111D4118921C994201D8FE2A01D90C20AA
:10AF900070BD521C32542088FF21401C80B220809A
:10AFA00031542088401C80B220808119288801F00B
:10AFB000CDF92188401880B22080AA88002A09D0C3
:10AFC000A968002908D08019FDF7D6F82088A9883B
:10AFD00040182080002070BD072070BDF8B50F46D6
:10AFE000017814460546012902D16878002806D068
:10AFF0002088821C9A422DD8012902D006E0072021
:10B00000F8BD69784118891C994223D8181A801E06
:10B0100086B2684606802188B81C081869467DDF1C
:10B020000028EDD12878022805D169460988B14267
:10B0300001D809210AE00821012805D16878B04229
:10B0400002D86A46108001E068460680684600889B
:10B05000FE2801D90C20F8BD2288401CB854208855
:10B06000401C80B22080395420886946401C2080D2
:10B070000988401820800020F8BD000010B5017834
:10B080008A074178920F4907C90E40681143820729
:10B09000540E0C438103890F03D003210904084097
:10B0A0000443002000F00AF803494868FF22120216
:10B0B00010402043486010BD0075004010B506499F
:10B0C00002024B68FF242402A3431A434A6000286B
:10B0D00000D00120086010BD0075004031B5054C5E
:10B0E00004E0401E00902046FCF7F4FF0098002882
:10B0F000F7D138BDE70300008207D30EFF229A4044
:10B100008907090E10B5994000280BDA03071B0FB9
:10B11000083B9C080C4BA400E318DC6994430C43E7
:10B12000DC6107E08408094BA400E418236893431A
:10B130000B432360C106C90E012088400449086002
:10B140000449086010BD000000ED00E000E400E0EC
:10B1500080E200E000E100E0F3B581B00F46019825
:10B1600000F052FC012400281E4E019817D0FFF772
:10B1700031F880192030007F8009032802D001288F
:10B1800006D007E01848006901998C40204201D19F
:10B19000022100E00321019800F084FAFEBD00F0D6
:10B1A0003FFC0028FAD00198FFF714F8054681000B
:10B1B000C81D0E4AF93089180A6980B222430A6113
:10B1C0000B49401800210160002FE7D00198FFF7DC
:10B1D00001F8800030580028E0D00648AC404460B8
:10B1E000FEBD00006C2800200005005000650040F6
:10B1F0000060004000630040FEB5044623480E4650
:10B200000019202141560027C8171346401C01D0C1
:10B21000082738E0F27819462046FEF7B7FF0546C2
:10B22000401C2FD0B078002807D01948A100091879
:10B23000086802229043086007E0002173782046E6
:10B2400000910A46019100F0F5F9F078002810D03D
:10B250001048AA001018317802690F4B1A40026199
:10B26000E206D20C8907890B0A4301690A4302618D
:10B2700009E00648327840192030017F92011143DD
:10B28000017700E004273846FEBD00006C2800204E
:10B290000007005000650040FFE0FCFF034909691A
:10B2A000C140C807C00F00D0012070470005005002
:10B2B00070B5124D2879002801D0082070BD0F49C3
:10B2C00000204039421E0B182033401CC0B21A70B7
:10B2D0002028F8D300242046FEF74AFF641CE4B27D
:10B2E000082CF8D303210620FFF706FF01200449AC
:10B2F000C007486001202871002070BDAC280020E4
:10B300000063004002480079002800D00120704707
:10B31000AC2800200268012111614079014A1154D2
:10B320007047000048210020016801220A6040792E
:10B33000014A02211154704748210020F8B5044603
:10B340004079254F0D46395C1646002901D008206A
:10B35000F8BD002D02D12149C000451820492068C0
:10B36000884236D00420E9782056FFF7C5FE61797F
:10B37000194A89000C3268685050002E29D0607933
:10B380001146800008390E5005202268000212186C
:10B3900069785368C9075B085B00C90F0B435360AA
:10B3A0002168AA7809188B6892079B089B00920F66
:10B3B00013438B6021682A7808180169120709096C
:10B3C0000901120F114301616179012078540020B5
:10B3D000F8BD0720F8BD00004821002018C6010074
:10B3E00000800040F8B500250E4604462F46A80010
:10B3F000FF30413080B22158002910D001210904CA
:10B40000A94003221202A21852680A4207D027500C
:10B41000B2000549044B8958083B9A5890476D1C67
:10B42000042DE4D3F8BD000054210020F3B50446F8
:10B43000244881B0807D002801D00820FEBD002C6A
:10B4400000D1214C206800F022F9207801273946EC
:10B450001E4E8140B1600021606800F00FF91C4D64
:10B46000A0696862607D217D0843E86603CCE860DE
:10B470006961207B083C01280ED10021A06800F002
:10B48000FDF8E06800F003F9207B39468140B160A7
:10B49000E168A068A96028610A4E0298706021697D
:10B4A0003160002806D00C4A217F0A4850600220F3
:10B4B000FFF722FE042028600020F074B074B775F6
:10B4C0007075FEBDB4280020F8C5010000050050CD
:10B4D000002500408000020000230040F8B5294DFF
:10B4E000EA7C002A01D01120F8BDE974E860002050
:10B4F0002875687D002801D100F0C6FB6868224CE1
:10B50000002805D081202149800048600020F8BD36
:10B51000FF212531204600F0F7F80546FF210931CB
:10B52000204600F0F1F80746FF214531204600F0A3
:10B53000EBF80646394631432943E9D028463043E3
:10B5400006D100F02BFB0F48C17C007D8142DFD883
:10B55000FF21453100206050FF212531605009490D
:10B56000002DC87401D00320F8BD002E01D00F209B
:10B57000F8BD497D0120002901D02060C6E7606048
:10B58000C4E70000B4280020002000400023004051
:10B5900010B5044C607D002803D100F075FB01203C
:10B5A000607510BDB4280020F8B5204C0026A27CA0
:10B5B000002A01D01120F8BDA174A06000202082D3
:10B5C0001B4DFF271D37E8510120A86000F0C2FD88
:10B5D0006168002911D024E0FF270137294614486B
:10B5E00000F092F8002802D1208AB842F6D1208AD1
:10B5F000B84203D000F0AEFD00E03D46A07C218AB9
:10B600008842E9D8218AC81FF9380CD0084F29464A
:10B61000384600F079F80028F9D00120F8600020C1
:10B62000A0743046F8BD0F26F9E70000B4280020CA
:10B630000020004030B552000A439900039C0A43A1
:10B640002102049D0A4329040A430249800040184C
:10B65000026030BD0007005030B552000A43990027
:10B66000039C0A432102049D0A4329040A43024918
:10B6700080004018026030BD000700501CB5002259
:10B680000B46009211460192FFF7E6FF1CBD1CB568
:10B69000002100910B46012201911146FFF7DCFFCA
:10B6A0001CBD0000820006481018026803231B041A
:10B6B0009A430260026809040A430260704700006E
:10B6C00000070050012181400148C160704700001F
:10B6D00000050050012181400148C1607047000011
:10B6E0000005005001218140014881607047000041
:10B6F00000050050034940180068012800D00020D0
:10B7000070470000006000404058002800D0012031
:10B7100070470322120280184068084000D00120C0
:10B7200070470000FEB50878002594460C4648286E
:10B7300000D001256178A078592903D00125072878
:10B7400002D105E0072801D0012501E0002D1DD020
:10B7500007225E495E48FEF7E3F9002D7BD15C4984
:10B76000072014390870594DE078503D122872D0E6
:10B770002BDC00220300FDF74BF91059A5A5A5A568
:10B78000A5A5A56FA56EA5866E6E906E0021237986
:10B790006F4601AD0A4608461B1D06E0265C71187F
:10B7A000C9B25218401CD2B2C0B29842F6D3397016
:10B7B00060462A7020182038817F3A7891424AD119
:10B7C000C07F3979884246D1C9E7202843D008DCB8
:10B7D00013380300FDF71CF90764676F76763F7630
:10B7E0003F00E02837DA212835D0812833D0DF2800
:10B7F00031D1FF2045DF002804D0FF2135A292314E
:10B80000FDF774FB207844DF002804D0FF2131A22B
:10B810009431FDF76BFB00F063F9BFF34F8F3249B2
:10B820003048C860BFF34F8F00BFFDE74A70274B19
:10B830001422002008336A72141F04E01E5C0F18E3
:10B84000401CBE70C0B2A042F8DB891811E002E0D3
:10B850001F48FEF765F9FEBD4A700E226A7200208D
:10B8600022A31B5C0C18401CC0B2A3700A28F7D39B
:10B87000891816488A1E0830491E00F013FA144928
:10B880006A7A1439E4E700202A7A01E0401CC0B249
:10B890009042FBD30E492839DAE707220B49D7E754
:10B8A000082028720EE00020297A01E0401CC0B276
:10B8B0008842FBD306E00020297A01E0401CC0B298
:10B8C0008842FBD3014908220839C1E750200020F3
:10B8D0004C2600202E2E5C2E2E5C2E2E5C6D616977
:10B8E0006E2E63000400FA0500ED00E043542D3095
:10B8F000303356303232000010B500280CD0032807
:10B9000009D10220FEF79CFA002804D0132104A2DA
:10B910004901FDF7EBFA10BD00F0ACFA10BD0000D4
:10B920002E2E5C2E2E5C2E2E5C6D61696E2E6300B9
:10B9300070B501881D4C0546102912D011291CD064
:10B940002046408E132926D0522909D100231A46B9
:10B950001946A9DF002803D0154A1649FDF7C6FA93
:10B9600070BD0720FEF76CFA002804D01149104A78
:10B970001339FDF7BBFAA8880BE00020FEF760FA48
:10B98000002804D00B490A4A0D39FDF7AFFA002010
:10B99000C043608670BD00231A4685217FDF0028E2
:10B9A000F8D0A121024A8900D8E700000020002039
:10B9B00048BB01008A02000010B50078002809D1B8
:10B9C00005483B21408E76DF002803D003A20749BB
:10B9D000FDF78CFA10BD0000002000202E2E5C2EFA
:10B9E0002E5C2E2E5C6D61696E2E630019020000C4
:10B9F0000021425C002A01D001207047491C062921
:10BA0000F7D3002070470000044908182021415650
:10BA1000042901DB01207047002070476C280020BA
:10BA20000449081820214156042901D201207047F9
:10BA3000002070476C28002070B50D00044604D12A
:10BA40000DA24B210020FDF751FA002C04D10AA2CF
:10BA50004C210020FDF74AFA28782070698861702F
:10BA6000090AA170A988E170090A2171E88860714A
:10BA7000000AA07170BD00002E2E5C2E2E5C2E2EB2
:10BA80005C2E2E5C2E2E5C2E2E5C636F6D706F6EA6
:10BA9000656E74735C626C655C626C655F73657225
:10BAA00076696365735C626C655F6469735C626C24
:10BAB000655F6469732E630007490979490701D4FA
:10BAC00008207047002804D004494978016000200C
:10BAD00070470E207047000024210020CC28002051
:10BAE00010B514481321408E76DF002803D012A22F
:10BAF000D721FDF7FBF9FDF7C7FE002803D00EA202
:10BB0000D921FDF7F3F974DF16202FDF002803D0C9
:10BB10000DA2CF21FDF7EAF900F0FAF9002803D0D1
:10BB200009A2D121FDF7E2F97D20C000FFF7D6FA86
:10BB300010BD0000002000202E2E5C2E2E5C2E2E2C
:10BB40005C6D61696E2E63002E2E5C2E2E5C2E2E97
:10BB50005C6D61696E2E630070B501240B49600451
:10BB600008600B4940108860094940398860094DD8
:10BB70006C602F20FCF7BEFAAC60074D00242F202C
:10BB80002C61FCF7B7FAEC7070BD000080E100E0BA
:10BB900040130140001001407C210020FF21074894
:10BBA000093100224250064881690648037DC26877
:10BBB000D154017D491C01757047000000200040F0
:10BBC00000250040B428002070B500240546601C04
:10BBD00090B00007000F08A9103008940870601C8E
:10BBE0000007000F103048708878F9263040801C1C
:10BBF00088701C2101A8FCF7D8FA69460879102141
:10BC0000084369460871029408A8049405940794AF
:10BC10000690287808A98871032069468884112035
:10BC20000094087048708878F7213040801C0840E4
:10BC3000EF210840012630436946887014210AA884
:10BC4000FCF7B3FA09A80A9068460B9069460E867D
:10BC500014204C8688862B4668880C330AAA01A9D2
:10BC6000A2DF10B070BD00001FB5012269460A7046
:10BC700008720448C16801910021C17406C8684671
:10BC800090471FBDB4280020FF220548253200211F
:10BC90008150FF220932815001210160704700006C
:10BCA00000200040F0B5002305791E461C46AD1C5F
:10BCB00006E0075DFB18DBB2F618641CF6B2E4B2CE
:10BCC000AC42F6D30B701670F0BDFFB50746806A24
:10BCD00081B0144600283DD0002538462030009021
:10BCE00033E00C20B96A68430E18B088801CFE2827
:10BCF00002D90C2005B0F0BD22880299401C88545E
:10BD000020881622401C80B2208002990A54208884
:10BD1000401C80B2208002994118308800F016FB48
:10BD20002188401880B22080B288002A0AD0B168E9
:10BD300000290FD0029BC018FCF71EFA2088B1889A
:10BD4000401820806D1C0098EDB2007BA842C8D836
:10BD50000020CFE70720CDE710B592B03048109013
:10BD6000002410A92F48FDF77BFE002804D0FF21F6
:10BD70002DA2D831FDF7BAF82A4814213430FCF747
:10BD800014FA284811213430417381730021C173A2
:10BD9000491C0907090F1031017401210460017168
:10BDA00032218460017301461838FDF7D7FC002862
:10BDB00004D0FF211CA2EC31FDF798F84021684621
:10BDC000FCF7F3F91CA16846FDF7D4FE1DA106A8F7
:10BDD000FDF7D0FE1DA108A8FDF7CCFE1BA10AA807
:10BDE000FDF7C8FE1BA104A8FDF7C4FE1EA102A812
:10BDF000FDF7C0FE0120014608A8103101770020A0
:10BE0000014608A841776846FDF776FD002804D072
:10BE1000FF2105A2FD31FDF769F812B010BD000049
:10BE200025B701004C2600202E2E5C2E2E5C2E2ED7
:10BE30005C6D61696E2E63004379696E7374656928
:10BE40006E00000056302E333000000056302E3188
:10BE50003000000032303136313130354359303026
:10BE6000333030310000000043542D3030332F3058
:10BE70003034000010B50020FDF7E2FF002803D0A9
:10BE80000AA20E49FDF732F8FDF718FF002804D08A
:10BE90000A4906A2091DFDF729F83CDF002804D055
:10BEA000064902A20831FDF721F810BD2E2E5C2EA6
:10BEB0002E5C2E2E5C6D61696E2E630046020000C2
:10BEC00010B508461146C046C04610BD002803D034
:10BED0000249C860002070470E207047A021002052
:10BEE00070B5002901D08C0701D0072070BD064C29
:10BEF0000125A16062800549636010DF0028F5D14B
:10BF0000257016202EDF70BDA0210020C1BE0100CB
:10BF100011DF002801D0012100E00021014A117049
:10BF200070470000A021002070B50C00054604D128
:10BF300013A233210020FCF7D9FF002D04D110A259
:10BF400034210020FCF7D2FF207828702088FF21C0
:10BF500009020840000A6870206809020840000CC5
:10BF6000A8702068000EE87020792871207A687126
:10BF70002089000AA871A068000CE87170BD00005B
:10BF80002E2E5C2E2E5C2E2E5C2E2E5C2E2E5C2EEB
:10BF90002E5C636F6D706F6E656E74735C626C6542
:10BFA0005C626C655F73657276696365735C626C15
:10BFB000655F6469735C626C655F6469732E6300BE
:10BFC000FEB51F4C00252769E06802906846FEF721
:10BFD00085FA0190FEF72AFE06460198002822D035
:10BFE00000230098E16817E00E680A46864202D9ED
:10BFF000301A086012E0801BF31800261660D6681D
:10C00000D169B446002E07D0FE183602360A5660B3
:10C0100066469660D56115460029E5D12846E1605F
:10C02000FEF762FE06E02846FEF75EFE002801D11C
:10C03000002E02D00298FEF745F900202071FEBDC7
:10C040007C210020012002490005086070470000A3
:10C0500000E200E010B50E4BD968002906D0026856
:10C060000C68A24204D8A21A0A60C161D86010BD4F
:10C070000B4604E00B46C969121B002904D00C686A
:10C080009442F7D3A41A0C600260C161D86110BD5C
:10C090007C210020F8B51E4DEC68002C37D01D48DF
:10C0A000002740682969401A0602360A2068B04213
:10C0B0001BD8361AC7192246107CE469002812D012
:10C0C000002010746B69002B0AD091695069984761
:10C0D000002808D0FF2110A26031FCF707FF02E022
:10C0E000516990698847002CE0D16978A87881422D
:10C0F00006D1401CC0B2A870022801D10020A8704F
:10C1000003490006800D18310F50FFF79BFFF8BD63
:10C110007C210020001501402E2E5C2E2E5C2E2E40
:10C120005C2E2E5C2E2E5C2E2E5C636F6D706F6EFF
:10C13000656E74735C6C69627261726965735C745C
:10C14000696D65725C6170705F74696D65722E6394
:10C1500000000000FF2107481D3100224250064820
:10C16000028A8168895C028A521C02820348C1618A
:10C170007047000000200040B42800200025004047
:10C1800070B58EB005461C216846FCF70EF869466E
:10C1900008780C2108436946087000240194039430
:10C1A000049405940694287808A9887002206946AA
:10C1B0000884601C0007000F1030079408771120D6
:10C1C0004877887FF9210840F721801C0840EF213B
:10C1D00008400126304369468877142109A8FBF7F7
:10C1E000E4FF08A8099007A80A9069468E851420E4
:10C1F000CC85088668882B1D09AAA2DF0EB070BD09
:10C200001FB500216A4611701072044882680192BD
:10C21000817406C8684690471FBD0000B4280020FE
:10C2200070B50178002907D0012926D0022923D131
:10C23000406815A2184924E0194C184DE0792818D7
:10C24000FCF75AFFE079401CC2B2A818E27120380E
:10C25000C07F0A2801D0142A0ED310491148FDF7D7
:10C260005FFC082806D0002804D00B4906A2083934
:10C27000FCF73CFE0020E07170BD0749406802A257
:10C28000091DFCF733FE70BD2E2E5C2E2E5C2E2E6B
:10C290005C6D61696E2E63000603000000220020C1
:10C2A000002000204C2600207CB50178254D012976
:10C2B0000AD002292FD000292CD129462248FCF788
:10C2C0002BFE00282ED031E0406801781E4810383F
:10C2D000FCF73FFE1C4C103C002805D001216A46AB
:10C2E00011700190684608E0A068E168081A01280A
:10C2F00005D1002069460870684669688847A068CB
:10C30000E168081AA188884204D80E480121801CDF
:10C31000FFF7E4F87CBD02216A461170C068019005
:10C3200068460CE001210748FFF73EF9064881689E
:10C33000C0688842EED10320694608706846696883
:10C3400088477CBD1C2100205C2800200870000A62
:10C35000487002207047000038B51549154A4888D2
:10C3600090420FD04A78144C521CD2B24A70237BB0
:10C37000934208D3091D75DF002803D0A169002965
:10C3800000D0884738BD00254D70217C002907D09A
:10C390003B2176DF002803D0A169002900D088471F
:10C3A00061690029EED068460570884738BD0000F5
:10C3B000BC200020FFFF0000302800201249486800
:10C3C000C005C00D19D0103840B2002807DA0207A6
:10C3D000120F083A920892005118C96904E08108C6
:10C3E0000A4A8900891809688007C00EC1400806FA
:10C3F000800F012803D0032803D0022070470020BB
:10C40000704701207047000000ED00E000E400E00C
:10C4100042788378521CD2B2934200D10022037832
:10C42000934201D1002070470A7041684078182279
:10C43000504308187047FFB583B016460C9D0D9CFD
:10C440001F46022200950194039800F00CF8002882
:10C4500007D13B461022314600950194039800F025
:10C4600002F807B0F0BDFFB583B0074600200C9C72
:10C470008646268805463AE07868A9004218118861
:10C48000684681805188C1800022694601A865DF25
:10C49000002839D1684601780598814226D1704636
:10C4A000002801D0002200E00222208889184218CA
:10C4B0000D998A4227D8714600290AD1401C80B2C2
:10C4C0002080069A049911542088401C2080012065
:10C4D0008646218806980A18694601A865DF002863
:10C4E00012D1694620880978401820806D1C388850
:10C4F000A842C1DC704600280AD02088801B401E5C
:10C5000080B2FF2802D90C2007B0F0BD06998855EB
:10C510000020F9E70179002902D1007B002800D032
:10C5200001207047001A344D69819B000090004043
:10C530000900000000A000400A01000000060B11E5
:10C54000151A1F242A30363C41484E545A60666CF6
:10C5500072787E848A90969DA2A8AF000F0E080A7A
:10C560000000000000509D000201000000000000DB
:10C570000003030601040602050003051F1C1F1E1D
:10C580001F1E1F1F1E1F1E1FA0260020C0260020CA
:10C59000EC26002011000000120000001300000033
:10C5A0001400000011000300D19C010012000300E0
:10C5B000D19C010013000300D19C01001400030072
:10C5C000D19C0100102800209ECADC240EE5A9E0C1
:10C5D00093F3A3B50000406E090000000B000000BB
:10C5E0000A00000008000000000000000000000039
:10C5F00000509D0003000000090000000B00000037
:10C600000A00000008000000000000000000000018
:10C6100000509D0003000000000000030000000027
:10C620000000000300000000A42900200300000017
:10C630002E2E5C2E2E5C2E2E5C2E2E5C2E2E5C2E34
:10C640002E5C636F6D706F6E656E74735C736F6676
:10C65000746465766963655C636F6D6D6F6E5C7342
:10C660006F66746465766963655F68616E646C6546
:10C67000725C736F66746465766963655F68616E2A
:10C68000646C65722E630000A8C6010000200020C3
:10C69000B8010000F4810100DCC60100B8210020CF
:10C6A000101000003A8A010001330612FFFF01005A
:10C6B000023548590706370D2E4859070F291649E4
:10C6C0000200010601010A3D0443542D303033308D
:0CC6D0003103FFFFFF01121424F40000EE
:04000005000180C1B5
:00000001FF
