:020000040001F9
:108000005831002049810100638101006581010030
:108010000000000000000000000000000000000060
:108020000000000000000000000000006781010067
:108030000000000000000000698101006B81010068
:108040006D8101006D810100F98401006D810100E5
:108050006D81010000000000C18201006D810100FE
:108060006D8101006D8101006D8101006D81010054
:108070006D8101006D8101006D8101006D81010044
:108080006D8101000D8401006D8101006D81010091
:108090002D8401006D810100358401006D81010096
:1080A0006D8101006D8101000000000000000000F2
:1080B00000000000000000000000000000000000C0
:1080C0000348854600F0CCF800480047B5BD0100E4
:1080D00058310020401E00BF00BF00BF00BF00BFDE
:1080E00000BF00BF00BF00BF00BF00BF00BFF1D195
:1080F00070470000401E00BF00BF00BF00BF00BFB0
:1081000000BF00BF00BF00BF00BF00BF00BFF1D174
:1081100070470000056885F308884068FF2464B252
:10812000EFF30585002D01D1A646004725460646FA
:1081300021273FBAF0B40024002500260027F0B420
:10814000F92040B2004700000321094802680A43B1
:108150000260084802680A430260074880470748EF
:108160000047FEE7FEE7FEE7FEE7FEE7FEE700006A
:10817000240500405405004059840100C1800100DD
:1081800030B50B46014600202022012409E00D46AF
:10819000D5409D4205D31D469540491B2546954037
:1081A00040191546521E002DF1DC30BD70B500247B
:1081B0002546002801DA01244042002901DA012580
:1081C0004942FFF7DDFFAC4200D04042002C00D016
:1081D000494270BD10B5431A934209D283188818DA
:1081E00003E0401E01785B1E1970521EF9D210BDCB
:1081F00003460B439B0703D009E008C9121F08C0C0
:10820000042AFAD203E00B780370401C491C521E6A
:10821000F9D210BDD2B201E00270401C491EFBD25F
:1082200070470022F6E710B513460A460446194681
:10823000FFF7F0FF204610BD421C0178401C0029CA
:10824000FBD1801A704730B504460020034600E099
:108250005B1C934203D2E05CCD5C401BF8D030BD88
:10826000064C0125064E05E0E36807CC2B430C3C89
:1082700098471034B442F7D3FFF726FFF0D401003B
:1082800010D5010030B58C180278401C13071B0F65
:1082900001D10378401C120906D10278401C03E08A
:1082A00005780D70401C491C5B1EF9D101E00B7074
:1082B000491C521EFBD1A142E6D3002030BD000074
:1082C000F8B50024FF2501350126274600942846ED
:1082D00003F0D4FF002808D034484068304204D06E
:1082E000334800212818344301602D1D76007F1C7F
:1082F000ADB2042FEBD3FF207D3003F0BFFF002889
:1083000007D02C4800210160400704432A48006937
:1083100000902A4F200712D00126002526420AD0BD
:108320002748AA00111808690969C004C00E89030A
:10833000BA58890F904776006D1C042DEED3002C9F
:1083400030DA00241D4E0021301940304156491CBE
:1083500025D00778BD06AD0E284601F079FE8000D5
:108360003658002E1BD0BF090121A940154AA8008C
:1083700080180068009A8003800F114202D0022802
:1083800002D00CE003280AD1032F05D102280AD01D
:108390000221284603F062FF39462846B047641C94
:1083A000042CCFD3F8BD0321F3E7000000630040A5
:1083B000006000407C61004000050050C0270020A4
:1083C00000650040000700508307FF22DB0E9A4043
:1083D0008907090E994000280BDA0007000F0838BA
:1083E000830808489B001818C36993430B43C36173
:1083F0007047830804489B001B1818689043084383
:108400001860704700ED00E000E400E010B5064998
:108410000020086048608860C860034940390860EF
:10842000486004F05BFE10BD4011014010B504F03F
:10843000EBFD10BD10B507484068002807D0804705
:10844000002803D00022114600F0B6FA10BD03F058
:1084500019FB10BD5421002010B503F061FB00286A
:1084600005D01F491D484860C8131E4988611E4831
:10847000018CC9B201290BD1828C120708D1028D5F
:108480001206120F042A03D1828D1206120F0AD08F
:10849000012921D1818C09071ED1018D0906090FFF
:1084A0000A2904D007E0114A01219160F5E7828D85
:1084B0001206120F05D00D290ED1808D0006000F77
:1084C0000AD10B480168012904D00A4901600168FA
:1084D0000129FCD1C021416110BD0000DFFF07C0B0
:1084E00000050040006C0040C00F00F00006004096
:1084F00000EC064075930000F0B53C4D012185B0BD
:108500004902284603F0C9FE01270026384C0028FE
:1085100023D0FF212531284603F0BAFE00281CD0C5
:10852000FF2025302E508120324980008860607DF8
:10853000002800D16F600221684601702E4908684A
:1085400008600390E17C68460172E0680190E6747F
:1085500006CC6846083C90471DE00421284603F0FD
:108560009CFE002817D0FF210931284603F090FE19
:10857000002810D004F02CFAE07C217D88420AD13A
:10858000607D002800D16F6081201A4980008860DA
:10859000207D04F033FAFF211D31284603F078FED8
:1085A00000280DD0A07C218A884202D904F022FE46
:1085B00006E0FF211D316E50002801D004F030FE8E
:1085C000FF214531284603F063FE00280CD0FF2030
:1085D00045302E50607D002800D02F60E07C0028C0
:1085E00002D0207D04F00AFA05B0F0BD0020004062
:1085F00008280020002300408024004030B4744646
:10860000641E2578641CAB4200D21D46635D5B008E
:10861000E31830BC184702E008C8121F08C1002A3E
:10862000FAD170477047002001E001C1121F002AF3
:10863000FBD17047F7B584B0002516880746158032
:10864000406B1446002813D003780598032E51D3AD
:108650000221017021881122491C89B221804254D3
:108660002188491C89B2218043542088401C2080E5
:10867000386B00281DD00546208805990246123225
:10868000B24237D811220A5420881022401C80B2EE
:1086900020800A542088401C20800F202A5C2388D8
:1086A000401ECA54228840B2521C22800028F5DAAB
:1086B0000025384620300290807B002806D03346C3
:1086C0002246059903F078FA050014D10298407B00
:1086D000002806D032462146059800F099FE050094
:1086E00009D1B878002823D0059886462088001D37
:1086F000B04202D90C2007B0F0BD684679DF0028EF
:10870000F9D1218803207246505420881921401C39
:1087100080B22080115420887146401C80B2208095
:1087200041186846008804F08BFD2188401820809D
:10873000F878002817D0218803230A46FB56C91C65
:108740000598B142D6D80221815421880122491CC2
:1087500089B2218042542188491C89B22180435426
:108760002088401C20807868002817D021880023AA
:10877000C3560A46C91C0598B142BBD80221815490
:1087800021880A22491C89B2218042542188491C2F
:1087900089B2218043542088401C208038890028D9
:1087A0000AD0009438460196062202210830059B23
:1087B00004F0C5FD05009ED1388A00280AD0009437
:1087C00038460196072203211030059B04F0B7FDBF
:1087D000050090D1388B00280AD0009438460196C5
:1087E000152214211830059B04F0A9FD050082D143
:1087F000386A002806D033462246059901F0D8FD94
:108800000500D8D1786A002806D03346224605995B
:1088100003F06CFB0500CED10298007B002807D046
:10882000334622463846059904F069F90500C2D15D
:108830003878002807D0334622463846059903F099
:1088400089FB0500B7D1284655E710B50122022162
:10885000002001F029FA002801D0072812D10722B0
:108860000221012001F020FA002801D0072809D1B7
:1088700000210A22084601F017FA002801D0072833
:1088800000D1002010BD0000044842680121C90544
:108890000B46934383600A40C26070470005005056
:1088A00070B50024064D06E06968E000085C01210F
:1088B00003F0E4FB641C28788442F5D3002070BDEB
:1088C00018210020F8B515460C460646052A01D2A7
:1088D0000720F8BD03F0A8FC002803D103F07AFCC0
:1088E0000028F6D1104900204E600C70C8608D60E1
:1088F00008610E4D0DE0E0006968801900918178F3
:108900006A46517000780A4A694603F007FC00285D
:10891000DFD12046641EE4B20028ECD1054A0021D4
:10892000024800F083F8F8BD18210020E8D40100C7
:1089300025B801007DA501003EB504460420019044
:10894000184802906946204602F0E8F8002807D04F
:108950001549884203D00022114600F02DF83EBD93
:1089600010480C38017BC90716D0104A0C218088AA
:10897000A7DF002810D00E4988420DD008280BD060
:10898000891C884208D0112806D00A49884203D0A1
:108990000022114600F010F8204602F075F8002879
:1089A000D9D13EBD0C20002040800000FFFF000018
:1089B0000230000001340000BFF34F8F0449034828
:1089C000C860BFF34F8F00BFFDE700000400FA0549
:1089D00000ED00E0014B1B68184700009C270020B9
:1089E00038B50C46A2680C235A43064B09789D58AB
:1089F000054A126A00920246204608302369A847B9
:108A000038BD0000EC280020F420002010B50649F5
:108A100014230A785A435118091DFFF7E1FF042077
:108A200004F06AF910BD000020280020094B9B6863
:108A3000002B07D0002A07D0002805D00068037C4F
:108A4000002B03D008207047072070474174426113
:108A5000002070472C210020FFB59007002581B031
:108A600014460E46002832D11B4F002C31D003F0A3
:108A70008DFF049878610320387033461821224610
:108A800000204B43BC601834C10089180D704D7034
:108A90008E704C601C19401C0328F5DBFD607D7056
:108AA00001240E48BD702405046003211420FFF743
:108AB0008BFC0B4804600B4C0198A0600321112033
:108AC000FFF782FC60683861002005B0F0BD072028
:108AD000FBE7BD60FBE700002C21002080E200E006
:108AE00000E100E000150140FEB50D461B491746A8
:108AF0008968044600292AD0002C28D0052D01D2EF
:108B00000720FEBD6069002821D0607C012820D0AC
:108B1000002604F0D7FBC000104901908968401876
:108B2000694604F0F9FB002815D0012101700C49B9
:108B3000446049680830E2C00849019889684118D2
:108B400068460078487004F0A1FA0020FEBD0820B5
:108B5000FEBD2E46DDE70420FEBD00002C210020D6
:108B600000150140F8B5134D0446A96800291CD032
:108B7000002C1AD06069002817D00026267404F053
:108B8000A1FBC700A8686946381804F0C5FB002897
:108B90000DD0022101704460A86839186846007839
:108BA000487004F073FA3046F8BD0820F8BD042080
:108BB000F8BD00002C21002010B5184C0121002226
:108BC00009042068FFF790FF002803D00022114617
:108BD000FFF7F2FE01210022C9036068FFF784FF5E
:108BE000002803D000221146FFF7E6FE00220C49C0
:108BF000A068FFF779FF002803D000221146FFF795
:108C0000DBFE05210022C903E068FFF76DFF0028A5
:108C100003D000221146FFF7CFFE10BD2CD4010077
:108C200066260000F0B50546007D002493B00E4690
:108C300000280DD0012001466846103103940173CD
:108C4000717B4173817BF92001406846891C8173E7
:108C50001C2104A8FFF7E5FA6946087C02210843B5
:108C6000694608742A7DEF21002A02D010221043A1
:108C700000E008406A461074059407940894287D23
:108C8000002800D003A8099001270A941046977184
:108C9000304A82800094B27B0270F27B427080780E
:108CA000F9221040F722801C1040EF2108404108B3
:108CB000490068468170317B017214210BA8FFF7CF
:108CC000B0FA01A80B9068460C908786C486078787
:108CD00002A80F90A888AB1D0BAA04A9A2DF002848
:108CE00035D1B068002830D0684687711A49818034
:108CF0000094317C01700020014668464170807804
:108D0000F9210840F721801C0840EF210840410864
:108D100049006846817011A8B16800F0DEFD064682
:108D200014210BA8FFF77DFA01A80B9068460C9060
:108D30008686C486068711A80F902A46E8880E32D8
:108D40000BA9A3DF002802D100E0EC81002013B0C2
:108D5000F0BD0000192A00000829000010B50C49D8
:108D60000C4803F0BFFEC1B20948683800F048FA69
:108D700000280BD0082809D00749884206D00749A7
:108D8000884203D000221146FFF716FE10BD0000F6
:108D90006424002010200020043000000134000072
:108DA000F0B50C4693B01F216A46118007260027B4
:108DB0009180002809D0C17849070DD502A9FFF795
:108DC00039FC002809D102AD01E000251780002CF4
:108DD0000ED0E078002802D0304613B0F0BD01AAD2
:108DE0000AA92046FFF726FC0028F6D10AAA02E0CD
:108DF00068460022878068468088C3B2684600883B
:108E0000C1B2284672DFE8E770B50D4604991646F0
:108E1000040042D0002E40D0424800224271C3607C
:108E20000161242231464048FFF7D4F900F0D0F820
:108E30003D493431084610380160203181603821C5
:108E40005C38FFF7EEF93848217838380170A1789E
:108E50008170E178C1706178417062692169426115
:108E60000161E268A168C26081600146E369A269AC
:108E7000CB618A61616A002919D00146AC31024692
:108E8000B83241628A60636A1B880B80616A436AF8
:108E9000898899800021436A06E00E2070BD666AC9
:108EA000B668765C5654491C9E888E42F7D8A16AF3
:108EB00000291CD01C4AAC3211460C398A608162F0
:108EC000A36A9B888B80A16A836A09881980002124
:108ED000836A04E0A66AB668765C5654491C9E888C
:108EE0008E42F7D82C210A5D0F4918390A73216A7E
:108EF000002909D00B4914310162226A52884A8044
:108F0000216A026A098811806168002904D0054934
:108F1000891D416061684160034829463838FFF780
:108F20003FFF70BD542000206825002010B5028846
:108F30001A4C102A17D00021112A17D0192A11D142
:108F4000807900280ED1607901281BD002281FD01B
:108F500003281FD0042805D12171E2680846002AA1
:108F600000D0904710BD8088208110BD617080883E
:108F700021898842F9D1012005E021690029F4D036
:108F8000884710BD022000F04BF80028F5D110BD35
:108F90000320F8E7032020710420F4E75420002088
:108FA00010B5022801D003280ED1084C20780028E3
:108FB0000AD000202070607900F032F8002803D039
:108FC0002169002900D0884710BD000054200020EE
:108FD00010B507210148FFF724F910BD6C200020CF
:108FE00010B50D480078012814D10C4C6078002889
:108FF00010D16079002802D074DF00280BD1012045
:109000006070607900F00CF8002803D02169002915
:1090100000D08847002010BD682500205420002083
:10902000F0B5754C87B06071002606A8069603F06F
:1090300037FA0127082806D000286FD106980028A3
:1090400002D02770D4E00696FFF7C2FF6B4D687818
:10905000002802D06079012805D0A87800280AD01D
:109060006079022807D1E168002903D0E770082061
:10907000884700E0E6706079012808D16878002808
:1090800009D05D48193003F0A8F9002803D06079B1
:10909000022802D00CE002206071A878002805D0D8
:1090A0005548193003F099F9002801D10320607167
:1090B000287B002804D16079032801D10420607145
:1090C000287E002804D16079042801D166712671B8
:1090D000E16800290AD06079032801D0042805D16D
:1090E0002878002802D06078002818D0A6701821AF
:1090F0006846FFF796F86846067001960672039672
:10910000607901280FD0022816D03C4E243637460D
:109110005C3F03281CD004285ED13BE069E0A770C7
:1091200007208847E3E73448183001906846077005
:1091300046820682277152E02F4818300190684617
:10914000077029894182A98801820220207146E0A6
:10915000A88A69464882288A08822848243004F070
:109160005DF9002805D02878002802D06078002812
:1091700001D003202FE002206946087204200396E4
:10918000F8701E4800213838FFF70AFE002830D159
:10919000052020E0A88B69460882288C4882174861
:1091A000243004F03BF9002805D02878002802D0AC
:1091B0006078002801D004200DE002206946087282
:1091C00004200396F8700D4800213838FFF7E8FDB9
:1091D00000280ED1062020716079002803D068464F
:1091E00073DF002805D1E168002901D02079884784
:1091F000002007B0F0BD00005420002068250020AA
:1092000073B586B004002FD06A46217C127F0020FF
:10921000914227D0002501266846009506804580AA
:1092200007A80190E188608A6A46A4DF002819D166
:109230006846007F2074608A0D49884216D0207DE0
:10924000002813D00295039504950595E18868469A
:109250000181867241888181049001980590608A1D
:1092600002A9A6DF08B070BD0E20FBE70820F9E7D1
:10927000FFFF000038B50D4604001AD0002D18D0AD
:10928000286820600020C043608228792075FF2074
:10929000207401216846817007490180221D6946BA
:1092A0000120A0DF002803D129462046FFF7BAFCA1
:1092B00038BD0E2038BD00000F18000038B500285A
:1092C00024D0002922D00A88102A1AD0112A1AD0B4
:1092D000502A1BD1027D002A18D0CA884389891DD3
:1092E0009A4213D10A8B022A10D10268002A0DD0AB
:1092F000CB7E8C7E19022143C907C90F07D00021FC
:1093000006E0898801E00021C943418238BD01217E
:109310006B4619706946904738BD000070B5054628
:1093200001461C220E48FEF755FF0E4C0026267003
:109330002968002906D00822201DFEF74BFF201DBA
:109340007ADF02E00748001D7BDF002807D1401EBE
:1093500060806670044A00210448FFF767FB70BD17
:10936000542600207420002061D2010078D401002E
:10937000F8B5214C028800271E4DE689102A15D029
:109380001E49112A21D0122A2DD0502A1CD1C28860
:10939000801DB24218D1028B022A15D1C27E837E73
:1093A00010021843C007C00F0CD112E081886980F9
:1093B00001461048082216310C30FEF70BFF6F7083
:1093C000002E01D101F03EF8F8BD0020C0436880B6
:1093D0006F700868FFF7C6FB0028F5D0A169002967
:1093E000F2D08847F8BD811D024808220C30FEF7F4
:1093F000F1FEE7E7742000205426002078D4010015
:1094000010B502480068FFF7ADFB10BD78D401002D
:109410007CB5054608880C460930904201D90C20DD
:109420007CBD684671DF0028FAD121880820685485
:1094300020881B21401C80B220802954208800A94C
:10944000401C80B22080401906220131FEF7C2FE86
:1094500020886946801D80B220800978002900D0CC
:10946000012129542088401C208000207CBD000060
:1094700030B585B00D46040039D0002D37D068686E
:10948000002834D00020C0431A4B20800FCB049317
:1094900001AB07C318486946088001A8811E63DF35
:1094A000002822D1221D69460120A0DF00281CD1FE
:1094B00068468078A071204601F05CFA002814D13B
:1094C000204601F013FA00280FD12946204601F06A
:1094D00093FA002809D16868A062A868002800D023
:1094E000E062064901200870002005B030BD0E2062
:1094F000FBE700007CD4010030150000882000202C
:109500003EB5002828D0002926D0826A002A23D020
:109510000A88102A21D0112A30D0502A1FD0512A6F
:109520001AD10A460446891D0878022814D14888B1
:10953000238A984210D1907A04280DD006280BD0A7
:10954000052809D02046891C02F0D4FE002803D04B
:10955000E16A002900D088473EBD898810E0CB88A9
:1095600002899342F8D108226B461A708A7F1A72D8
:1095700020310191826A694690473EBD0021C9436E
:1095800001803EBD30B585B0002822D00388134C41
:10959000A34220D0124B1B78002B1CD0104B10255F
:1095A0005B1C1D705970002401259A7003226946C6
:1095B0000A820094019402940394028A0A808D70B6
:1095C0008C8004A90291039300886946A6DF05B048
:1095D00030BD0E20FBE70820F9E70000FFFF000088
:1095E000882000207FB504460121684681714A49E0
:1095F00081804A4A01A90120A0DF00287ED122886B
:1096000025463C35002A09D044482B46801C009052
:109610004348616800F024FD00287BD12289002A9C
:109620000AD03E482B460A3000903D48E168401F72
:1096300000F016FD00286DD1228A002A0AD0374892
:109640002B461230009036486169001F00F008FD7B
:1096500000285FD1228B002A0AD030482B461A30CE
:1096600000902F48E169801E00F0FAFC002851D1DB
:10967000228C002A0AD029482B4622300090284804
:10968000616AC01E00F0ECFC002843D1228D002A44
:109690000AD022482B462A3000902148E16A401E19
:1096A00000F0DEFC002835D1216B00290ED002A885
:1096B00003F070FC19482B463230009018480822FD
:1096C00002A9801F00F0CCFC002823D1606B002889
:1096D0000BD012492B463A310091027901681048AB
:1096E000401C00F0BDFC002814D1A16B002910D053
:1096F00002A802F0B5FE0948423000E00AE00090FE
:1097000007482B46072202A9273000F0A9FC0028B1
:1097100000D1002004B070BD0A1800009020002085
:10972000292A000070B5044601F0DCFA21461648EB
:1097300000F088F8144821461838FFF7BFFD20468E
:10974000FFF716FE204600F0E5F90F48214680306D
:10975000FFF7D6FE20880D4D102802D011280ED11B
:109760000AE0072000F0C4FA002803D000221146C6
:10977000FFF722F9A08801E00020C043A88020461E
:10978000FFF7D4FB70BD000014240020002000204F
:1097900030B50446008C134A8BB090421FD006AA05
:1097A000204602F02BF9694605460880002001900A
:1097B00002900390049022898A8001228A71088194
:1097C00006A803910490208C01A9A6DF002804D1EB
:1097D00069460988A94200D00C200BB030BD082092
:1097E000FBE70000FFFF000038B504460868206072
:1097F000087960710020C0430D462084002022219A
:1098000008554C2108530121684681700C4901809C
:10981000A21D69460120A0DF00280FD1294620465D
:1098200002F094F8002809D1A868002805D029463C
:10983000204600F08DF8002800D1002038BD00003F
:109840000D18000038B50A88102A17D0112A17D031
:10985000502A18D1CA888389891D9A4213D10A8B4C
:10986000022A10D10268002A0DD0CB7E8C7E19020C
:109870002143C907C90F07D0002106E0898801E00C
:109880000021C943018438BD01216B461970694626
:10989000904738BD70B5054604464035A8890E4648
:1098A000142807D12622A118881EFEF793FCA88948
:1098B000401EA88180B241000919401CA8818E84F5
:1098C00070BD20308170704770B504460D46084663
:1098D000FEF7B2FC2080656070BD0A78027049789E
:1098E00041700220704700001CB500234822154932
:1098F000082003F035FA002803D000221146FFF7B4
:109900005BF80020009001900120694608706846CD
:1099100060DF002803D000221146FFF74DF80A4807
:1099200003F014FA002803D000221146FFF744F890
:10993000064803F02DFA002803D000221146FFF755
:109940003BF81CBDB42300202597010085CF010002
:10995000F0B58FB00D4606461C216846FEF761FC47
:109960006846017802200143684601700024019492
:10997000039404940594012708A806948770154958
:10998000684601840794E97B0177297C4177807FD1
:10999000F9210840F721801C0840EF2108404108C8
:1099A000490068468177142109A8FEF73AFC08A807
:1099B000099007A80A9068468785C4850786A86825
:1099C0000D903346F088103309AA6946A2DF0FB024
:1099D000F0BD0000382A00001CB5044681786A46B4
:1099E0000C4802F071FD002812D160781C21484318
:1099F00009491C2340181A46694602F01FFE064812
:109A000006494C30807A80000A58214668469047C3
:109A10001CBD0000EC20002050270020A0D4010035
:109A2000F8B5054608206946088001236A461D49A5
:109A30002846AADF1C4800688047B12044DF002880
:109A400003D000221146FEF7B7FF11DF002803D034
:109A500000221146FEF7B0FF144C606913DF0028A6
:109A600003D000221146FEF7A7FF284600F0E2FED1
:109A700001210F4A880510600E4802680D4B002036
:109A800080330D468540154204D0C606F60E0D46BD
:109A9000B5401D60401C2028F3D3606900F00CF82D
:109AA000F8BD00004C2900204C21002000100010BF
:109AB00080E200E000E100E010B5FEF72BFB10BDF6
:109AC0007CB5134E00250C463060002918D069463D
:109AD000002000F0B5F8002819D101A9012000F0FC
:109AE000AFF8002813D1684601790020002901D081
:109AF000022004E069460978002900D00B2020707C
:109B00007068002802D1FEF7A0FE054628467CBDFD
:109B10004C20002010B51C4C0188606810290DD025
:109B200011290AD1401E606007D1FEF78EFE002881
:109B300003D02168002900D0884710BD00281ED11D
:109B400000210122084600F0AFF8002801D00728C4
:109B500011D107220221012000F0A6F8002801D02F
:109B6000072808D104220221002000F09DF80028D7
:109B700005D0072803D02168002900D088476068F5
:109B8000401C606010BD00004C20002010B5032078
:109B900000F008FA002801D0062800D1002010BDEE
:109BA000F8B507460024234802E0641C042C1AD2AE
:109BB000A2008258BA42F8D1042C14D21D481E4E7D
:109BC0000C38002929D001290ED002290BD16000C0
:109BD000201880194578002D05D018480169002902
:109BE00001D028468847F8BD61006118755C8E1960
:109BF000717800290CD011490A22496880685143C4
:109C00000E4A521CFEF770FF002801D10B48477026
:109C10000A48B17814300155DDE78068FEF7A2FFED
:109C200006486100611814308919005D8D78A842DA
:109C3000D1D0F8BD48D401000425002034200020F4
:109C400004280CD2074A1269074B80001B5C0120D4
:109C50009840904300D001200870002070470020F9
:109C6000FAE700000005005048D4010010B50428B0
:109C700006D0072810D00A2801D103F023F810BD20
:109C800008481321808876DF08E00028F7D00022FA
:109C90001146FEF791FE10BDFFF7A2F90828F4D196
:109CA00010BD00000020002070B50023042811D250
:109CB000440004190D4D012A02D101290DD00022C2
:109CC00046008019094E801900290CD0012906D0C0
:109CD000022906D00723184670BD0D30C2B22A559E
:109CE000F9E74270F7E78270F5E7000004250020ED
:109CF00010B5054A0146127A0020D20702D0084664
:109D000000F054F810BD00003420002070B50E465D
:109D1000204905464E608D6000200A61A9071ED5C6
:109D20000024012211462046FFF7BEFF641C042CCC
:109D300002D20028F5D012E0002810D172080421C8
:109D40001548FEF7BFFD002809D1FEF7A9FD002840
:109D500005D11148114A00211438FEF767FEE907C2
:109D600006D00F220E4952058A600023CB608A611B
:109D700000280DD108480B4A00211C38FEF756FE7A
:109D8000002805D10448084A01211838FEF74EFE84
:109D900070BD00003420002058D40100E19F010074
:109DA000000500500DBC010089880100FEB57A4D08
:109DB0000722EB6892059A4302936B6800939C001C
:109DC00006461B1900200121019349050746734CE3
:109DD0003300FEF713FC180D1515374755677C88BF
:109DE0007F8891DE9E9E9E9E9EC8CED1D8DEDE14D8
:109DF0000F21029A49059143A160E7602F70FEBDD3
:109E0000A260E76060680F2252055040800209D5C9
:109E1000A160E760022E02D1E120C0000AE07D20AF
:109E2000400107E0E160A760022E01D1C82001E0F7
:109E3000FF2091302E706421FEF7A2F90099414372
:109E400000223FE0A260E76060680F2252055040A8
:109E5000800204D5A160E76019204001EAE7E160D3
:109E6000A760E3E7A260E76060680F2252055040F8
:109E7000800202D5A160E760D1E7E160A760D7E783
:109E8000A260E76060680F2252055040800202D550
:109E9000A160E76001E0E160A7602E7000984100DA
:109EA00000220FE0A260E76060680F225205504078
:109EB000800202D5A160E76001E0E160A7602E703A
:109EC0000099002236480068FEF70EFEFEBDA26033
:109ED000E7601BE061680120800502468A43A260BA
:109EE0000140E16010E06068012189050A46824373
:109EF000A2600840E060E3E76068012189050A4646
:109F00008243A2600840E0600199C9E7E160A76070
:109F10002DE023484068FEF725FE11218A1B01D061
:109F2000002807D00F22E96852051140A160E760C0
:109F3000EF60FEBD0121C905E960012A0CD9104678
:109F4000C82148436421FEF71BF969680022414398
:109F500013484068FEF7C8FD0F22E968520511401A
:109F6000E160A760FEBD0F214905A160E7602E708A
:109F7000FEBD07229205AAE70D214905A160E76011
:109F800001218905C2E70321C905A160E7608910A5
:109F9000BCE70F214905B9E7342000200005005037
:109FA0003CD40100F0B500210B4C0C4D03273F04BD
:109FB0008A00A25892005619326801238B40034050
:109FC00000D00323BA431B0413433360491C042904
:109FD000EED30020F0BD000048D40100000700507F
:109FE00010B500780221FFF7DBFD10BD0022D2433F
:109FF000830004490428CA5002D30818203002778D
:10A0000070470000C0270020F0B50025ED43002A6E
:10A0100002D00023042601E0042308260B4C04E0B0
:10A020009F00E7597F1C04D05B1CB342F8D328463D
:10A03000F0BD26185DB2203635709E00A151002A71
:10A04000F5D1E11820310877F1E70000C0270020A2
:10A05000024909182020085670470000C027002038
:10A06000FFB58FB01E4615460F0004D100221146E1
:10A070001046FEF7A1FC002D04D100221146104627
:10A08000FEF79AFC1C216846FEF7CBF8684601787B
:10A090000220014368460170002401940394049453
:10A0A0000594012108A80694817068460F990184DF
:10A0B00007943178017771784177807FF9210840E2
:10A0C000F721801C0840EF210840410849006846FC
:10A0D0008177142109A8FEF7A4F808A8099007A819
:10A0E0000A9068468585C485058604480D9709AAA7
:10A0F00069460088189BA2DF13B0F0BD90200020B5
:10A10000F8B53E481422017851430C18E0680C2140
:10A1100048433A492769CC31401805894189009163
:10A12000241D466802F05EFA01463846FEF728F81C
:10A13000002932D000200099A2884D436188AE19D1
:10A140008918CD1900222E4900280A6109D002F091
:10A1500049FA6188884222D0B54202D1A0880028FD
:10A160001DD0A06802281AD002F03CFAA188CA19B2
:10A1700001461046FEF704F8214C8808E06002F022
:10A1800031FA01462846FDF7FBFF002911D00020D7
:10A19000B5422FD000280ED02CE00120CBE702F0F2
:10A1A00021FA01463846FDF7EBFF154948610320C7
:10A1B00021E00120ECE7ADB2B7B202F013FA01469C
:10A1C0003846FDF7DDFF064602F00CFA0146284648
:10A1D000FDF7D6FF864201D1781B09E002F002FAB2
:10A1E000064602F0FFF901462846FDF7C9FF701A3E
:10A1F00080082061022002F07FFDF8BD20280020A9
:10A20000F420002010B507481422017851430818A3
:10A210000079042802D000F059F810BD012002F0A6
:10A220006BFD10BD2028002010B50B4814220178CA
:10A2300051430818094AC18811620079012806D0E3
:10A24000032801D0042801D1FFF75AFF10BD0120D7
:10A2500002F052FD10BD000020280020F420002054
:10A2600014225043054A002180180171C180012247
:10A270000161C26041610181704700002028002017
:10A28000F8B5104C069E65780A2D19D027787D19EF
:10A290000A2D00D30A3D14277D432D1928716A61C8
:10A2A00003C92961E860EB802E816078401C6070F2
:10A2B00005480078002801D1FFF7B6FF0020F8BD5F
:10A2C0000420F8BD20280020F420002010B50D4CFB
:10A2D00014212078484301190020091DFEF780FB56
:10A2E0002078FFF7BDFF6078401E60702078401C2A
:10A2F000C0B220700A2801D100202070002002F096
:10A30000FBFC10BD20280020F8B52348C1680029B7
:10A310003ED00E6821494C680769C078E11B0D02E8
:10A320002D0AED1C002814D101201D4A00045060A4
:10A330001B4A403A50601B49400008601A490860B7
:10A340001A49012008602F20FDF7D4FE1249012090
:10A35000C870B54200D23546E81900020F4B000A1A
:10A36000403318600D4A5168001B091B0902090A95
:10A370000002000AC91C814209D9506818602F20C8
:10A38000FDF7B8FE01200749400480390860F8BD98
:10A3900002F0FCFAF8BD00002C210020001501405D
:10A3A0004013014080E200E000E100E000100140C5
:10A3B000F8B50646108814468446801D0D4698421E
:10A3C00001D90C20F8BD32880720062AFAD31927B4
:10A3D000FF01184BBA4201D99A42F3D1718806297C
:10A3E000F0D3B94201D99942ECD19A4203D09942B3
:10A3F00001D08A42E6D805216046295420881221DE
:10A40000401C80B2208029542088401C80B22080CB
:10A410004119308802F014FF2188401880B2208052
:10A420004119708802F00CFF21884018208000201C
:10A43000F8BD0000FFFF000010B500221146FEF736
:10A44000BBFA10BDF8B5164801F05CFB144D0026B0
:10A450000C3D144C002807D0616900291CD0012054
:10A460006A461070684616E02878002805D06169B1
:10A47000002911D0684606700DE0687800280DD0DC
:10A48000A168094800220068FEF72EFB002803D0CF
:10A49000A169002900D088472E70F8BD6168F0E7F7
:10A4A000802000205426002078D4010070B5094B8C
:10A4B00004469E7A082000250E4207D006488442B2
:10A4C00002D01889A04202D10020156070BD05207D
:10A4D00070BD000090270020FFFF00000C214843C2
:10A4E000064910B5012240188272911E0181FF2198
:10A4F000C1720721FDF795FE10BD000090270020D6
:10A5000010B5134C207900071FD46069401C6061AE
:10A51000E068002801D0042004E001F025FB0028B9
:10A5200003D0022002F024FD10BD2069002809D0CC
:10A530006068C10701D00320F4E70121084360608F
:10A540000020EFE7FFF75EFE10BD02F005FD10BD35
:10A55000F420002010B5084841680A0708D48A078B
:10A5600002D5012211434160022002F001FD10BD1D
:10A5700002F0F2FC10BD0000F4200020F8B5002627
:10A580000124154D23E06968F0004718387821460A
:10A590002A698140114218D08A432A6101F010FED5
:10A5A0003A782146EB68914019400346934099421E
:10A5B0000BD17978012901D0012100E000217B68CD
:10A5C0004140002B01D010469847761CF6B22878FF
:10A5D0008642D8D3F8BD000018210020FEB50E46F3
:10A5E000044681786A46234801F06EFF002826D190
:10A5F00060780C21204F4843C019807A40061FD450
:10A60000022E1DD0012E1DD01C4DA0781C214843C8
:10A610001B49002341181C226846A847002813D074
:10A62000022E0CD020780C21484313490C314018DD
:10A63000807A144980000A58214668469047FEBD3A
:10A64000114DE2E7114DE0E7022EF8D060780C21C1
:10A650004843C019817ABF221140817260781C2161
:10A6600048430549403941181C231A466846A84703
:10A67000D8E70000EC20002090270020DDCE01006C
:10A680008C26002090D401007DC80100A1C70100E4
:10A6900070B50546114A124800241C2363431B1859
:10A6A0009B7EFF2B04D0641C072CF6D3104670BD94
:10A6B0000A78022A09D01C2262431018FD228276F1
:10A6C00007221030FDF786FD04E01C2161430818C5
:10A6D000FE2181762C700022E8E700004380000014
:10A6E0008C260020F7B505250F4F06460024002EC6
:10A6F0000AD01C206043C019072231461030FDF7F4
:10A70000A2FD002807D00AE01C206043C019018B7D
:10A710000298814203D101980025046002E0641C84
:10A72000072CE4D32846FEBD8C2600207CB50546C8
:10A7300081B26A46074801F0C7FE040008D17421BF
:10A74000684601F0EBFE040002D1284601F050FEFD
:10A7500020467CBDEC20002070B505460C4610005C
:10A7600003D000221146FEF727F92078152802D1E0
:10A770002846FEF7E1F8002070BD00001FB56946CD
:10A78000087301F035FF002803D000221146FEF7C0
:10A7900013F903A800F01CFD002803D00022114685
:10A7A000FEF70AF901A805210130FDF73AFD6946D7
:10A7B000487901221043E1210840DF210C30084094
:10A7C00069464871072088711020C87106480090BA
:10A7D0000A71064800F064FE002803D000221146EA
:10A7E000FEF7EAF81FBD000059A701000220002073
:10A7F00001B50549684600F055FA002803D000224B
:10A800001146FEF7D9F808BD5021002010B509788F
:10A8100000290AD003220121FEF7B4FE002803D04C
:10A8200000221146FEF7C8F810BD0088FFF7F8F8BF
:10A8300010BD000010B58AB000242649009400F035
:10A8400095FC002817D101A9224800F037FC002808
:10A8500013D021491F4800F01DFD002803D000221D
:10A860001146FEF7A9F81C4800DF002803D000229B
:10A870001146FEF7A1F80AB010BD05990722164847
:10A880001031FDF7A7FC14481022C01D0599FDF7F3
:10A89000A1FC1148112218300199FDF79BFC0E48CC
:10A8A00001990A222A301231FDF794FC0A4800DF90
:10A8B000002803D000221146FEF77EF80120009008
:10A8C000042008906846099007A90794014800F001
:10A8D0007FF9CAE7502100201829002070470000A6
:10A8E00001490860704700004C21002030B58FB04E
:10A8F00005461C216846FDF794FC69460878082146
:10A900000843102210436946087000240194039400
:10A91000049405940694A87908A988701448694697
:10A920000884601C00070794000F0C7710304877EC
:10A93000887FF9210840F721801C0840104301213D
:10A94000084369468877142109A8FDF76AFC08A81E
:10A95000099007A80A9069468C851720CC8508863F
:10A960000D942B46A888103309AAA2DF0FB030BD82
:10A970003115000030B58FB005461C216846FDF743
:10A9800050FC694608780421084369460870002491
:10A9900001940394049405940694A87908A98870F6
:10A9A000144869460884601C00070794000F0C7760
:10A9B000103048778A7FF9200240F720921C02402D
:10A9C000EF200240012002438A77142109A8FDF7F5
:10A9D00028FC08A8099007A80A9069468C851420CD
:10A9E000CC8508860D942B46A888083309AAA2DFD7
:10A9F0000FB030BD32150000F0B58FB00F460546E0
:10AA00001C216846FDF70DFC68460178022631439B
:10AA10000170002401940394049405940694A97988
:10AA200008A88170174968460184601C0107090F56
:10AA30006846103107940177002001466846417747
:10AA4000817FF9200140F720891C0140EF2001405F
:10AA50000120014368468177142109A8FDF7E1FB35
:10AA600008A8099007A80A9068468685C4850686C6
:10AA70000D972B46A888203309AA6946A2DF0FB09C
:10AA8000F0BD0000341500003EB504461E480178B4
:10AA90001E48002930D0002C2FD0217800292BD13E
:10AAA0001B4900250968002926D0A178072927D24B
:10AAB0001C20184A48438018807EFF2820D0124866
:10AAC0006A46103001F000FD002815D160230422F1
:10AAD000694602A801F0B2FD0299491C0CD060231E
:10AAE00004220D49684601F0C9FE002804D1A1786E
:10AAF000084A89001C3A55503EBD0448801D3EBDA1
:10AB0000024808303EBD0000DC2000200880000024
:10AB10009C2700208C2600208CD401003EB50C46DA
:10AB200027490A782749002A30D08A1D002805D0F5
:10AB3000002C03D00278002A28D101E010463EBD47
:10AB4000214A1268002A21D08178072920D21C22AC
:10AB50001E4B4A43D218927EFF2A19D01B4AA36883
:10AB60001C3A002B17D089005350817814486A464C
:10AB7000103001F0A9FC0028E1D1602304226946CD
:10AB800002A801F05BFD002809D016E008463EBD92
:10AB90000C4808303EBD89005158A160E5E7029895
:10ABA000401C0AD0642310226946A06801F046FDCB
:10ABB0000028EFD1029961603EBD024838303EBDA9
:10ABC000DC200020088000009C2700208C2600202C
:10ABD000FEB505462D480C4601782D48002925D0A4
:10ABE000811D002D23D0002C21D0A268002A1ED068
:10ABF000297800291AD127490968002916D0A9788F
:10AC0000072916D21C22244B4A43D218927EFF2ACF
:10AC10000FD06A780C235A431E4B0C3BD218927A01
:10AC2000120703D56068042806D20720FEBD084637
:10AC3000FEBD17480830FEBD1448184E6A46103055
:10AC400001F042FC0028F6D160230422694602A8E4
:10AC500001F0F4FC002803D10298401C00D0104EF3
:10AC600060230422211D6846B0470028E3D16423F5
:10AC700010226846A16801F001FE0028DBD1AA7805
:10AC8000054B92001C3BA1689950FEBDDC200020C2
:10AC9000088000009C2700208C260020A1C701000E
:10ACA0007DC801000C4A13780C4A002B11D0931D6B
:10ACB000002905D0002803D00078002809D101E040
:10ACC00018467047064B1B68002B02D00870002006
:10ACD0007047104670470000DC200020088000000C
:10ACE0009C270020F0B5054693B000200290FF2479
:10ACF000ED480E94007800284BD0EC4F38680028BF
:10AD000047D001A800F056FA002803D000221146CF
:10AD1000FDF752FE281D05902A2069460883FF2072
:10AD2000002688710E710396E04C28880C3C102890
:10AD30000ED0A88803AA0221FFF7B8FB002807D18C
:10AD400003980C2141430919CA7A69468A714871EE
:10AD50002888132217287CD00FDC10281BD011283C
:10AD600053D0132876D0142813D103980C214843CC
:10AD70000019C07AFF2871D08DE0CD4918286BD01A
:10AD80001C286AD0522804D1B87A8000095801A83A
:10AD9000884713B0F0BDC74F03AA01213846FFF71B
:10ADA00085FB0028F5D103990C20484302220019A5
:10ADB000827211236A4613745171A9880181072296
:10ADC000A91DFDF707FA287DC10707D04108B6483D
:10ADD0000830405CFF2808D00E9006E03A460EA9E5
:10ADE000A81DFFF77FFC00280ED103990C225143C8
:10ADF00009190E98C8728A7A08231A438A7269461A
:10AE0000887101A8FEF7E8FD39E103980C21484359
:10AE10000119887AFD2210408872010706D5C00901
:10AE20000DD0002101A8FFF7D9FB08E06846807922
:10AE3000FF2804D001F0DCFAFF20694688710398EE
:10AE40000C225043102100198172122069460874A7
:10AE500015E17FE030E001E0D5E00EE1EA890EA9DE
:10AE60000020FFF73FFC00280ED103980C2250432E
:10AE700000190E99C172837A0822134383726846BF
:10AE8000817101A8FEF7A8FD03980C214843001921
:10AE9000C07AFF2806D003981C21484383494C39C7
:10AEA0004018029003981C21484383494218A888FF
:10AEB0000023029982DF6CE768460274039B0C2032
:10AEC00058430119887A042210438872C87AFF28EF
:10AED00030D01620694608742420434373481A2151
:10AEE000303818180830FDF79CF903980C214843B6
:10AEF0000019817A40221143817203990C220020AB
:10AF00004A430A901219D27A1C235A436A4B0C9076
:10AF1000D2180B921C2251431A46C4328918079149
:10AF2000089009903A1DA88807AB00217FDF002810
:10AF3000C1D1A4E00EA8FFF7ABFB002801D0064664
:10AF4000DBE769460E98887103990C225143091971
:10AF5000C872D2E7787A400840007872039A0C20D1
:10AF60009446424311198B7AFB2003408B721420C4
:10AF70006F463874A879002804D0C87AFFF7D6FB4A
:10AF8000AE797CE0E879400779D5B879FF2876D0AA
:10AF900008273B438B72EB7A9B0708D51C25034699
:10AFA0006B43454D5B199D7E6D086D009D76CB7A98
:10AFB000FF2B64D0A25C022A10D01C2250433E4DCD
:10AFC000072240191030FDF705F9684680791C21E9
:10AFD00048434019817EFD2211400EE061461C224B
:10AFE0005143324A4C3A89184A8A1C214843324913
:10AFF00040180283817E490849008176012101A819
:10B00000FFF7ECFA3BE0A8790209012A23D10007F7
:10B01000000F01281FD103980C2242431219927A83
:10B02000120718D5242148432049303940181A21E5
:10B030000830FDF7F6F816206946087403980C21CD
:10B0400048430119887A602210438872787A022175
:10B05000084378720FE003980C2250430019827A5B
:10B0600080231A43827215206A461074B87A8000D1
:10B07000095801A88847002601E068460274324654
:10B0800004A901A8FDF7A6FC6846007C122800D0A0
:10B090007FE603980C2141430919897A0129F7D0E9
:10B0A000FFF71CFA75E60000DC2000209C2700203A
:10B0B000B0D40100FFFF00008C260020F0B506464A
:10B0C00026480C460178264889B000293FD0811DCA
:10B0D000002E3ED0002C3CD03178002937D12149B8
:10B0E00000250968002932D0B078072833D21C2106
:10B0F0001D4F4843C019807EFF282CD0E560B078F2
:10B1000065614843C01920611648A5600C30606035
:10B11000684620601148B17807AA103001F0D4F9D0
:10B12000002814D11C231A4607A9684601F086FAA4
:10B1300000280CD1E560B1781C225143C919656122
:10B1400021610849A5600C3161606946216009B040
:10B15000F0BD0846FBE702480830F8E7DC20002095
:10B16000088000009C2700208C26002030B5044673
:10B17000002903D00878002814D101E00B4830BD25
:10B180000B480023006800280CD0094AFF20887073
:10B190000C3A15890520A542F1D14B70D07A887000
:10B1A000002030BD0148801F30BD00000E8000002F
:10B1B0009C270020002806D0FF210170417081707B
:10B1C000C170002070470148704700000E800000E9
:10B1D000F0B585B0040036D02948002505604572D9
:10B1E00085722846FFF77AF9254824213038FDF783
:10B1F00018F80026FF27304601F0FAF82148875555
:10B20000761C072EF7D37421684681800721C18000
:10B210001D481C4900900831684601F063FA002877
:10B220000FD1184E0120083E3070207800280CD035
:10B2300069468888C988484381B23046103001F099
:10B240006DF905B0F0BD1148FBE7114F00240D4822
:10B25000A1B202AA083001F037F9002809D11C2058
:10B260006043C01900231C2202A901F0E7F900285D
:10B2700001D03570E5E7641C072CE8D3E1E7000056
:10B280009C270020E420002015B301000E80000060
:10B290008C2600200B4610B51A491B4A0978002954
:10B2A00020D0911D002805D0002B03D00178002963
:10B2B00018D101E0084610BD14490968002911D0D1
:10B2C000114A8178D21EFF290ED01C20414310481C
:10B2D0000918887E800705D4072218461031FCF72C
:10B2E00079FF0022104610BD4078FF28FAD00C21CB
:10B2F000484306490C394118887A8007F2D507225D
:10B300001846ECE7DC200020088000009C27002085
:10B310008C260020FFB55D488FB00068189F1E4640
:10B32000002875D0742F73D86846FFF743FF0028B4
:10B3300003D000221146FDF73FFB0024684604704D
:10B340000471254605970696A9B20DAA504801F04A
:10B35000BBF8002806D108220DA90F98FCF773FF4F
:10B36000002817D06D1C072DEED368468578FF2D79
:10B370004ED01098032810D046481C21301AFCF7F4
:10B38000FFFE012707281ED204A80290119800286A
:10B390000BD011E068468570E7E7742F03D040209A
:10B3A000694608716CE02020FAE738463849A84021
:10B3B00010394968084261D0284601F047FF202033
:10B3C000694608714AE031481C214C38301AFCF7B4
:10B3D000D7FE00281DD02D4824213038301AFCF724
:10B3E000CFFE01002C482CD040216A4611712B4918
:10B3F0008E4245D0274AA9001C3A5158B1423DD14E
:10B4000004A90291C07A854228D16846447025E09B
:10B4100034E004A8029020216846017144701B4862
:10B420000A940C300B9058380790684680781C219D
:10B43000484318494018089007A80690182005901E
:10B440000CE0302269460A714C70CF70807A800718
:10B4500004D4114824212438FCF7E3FE10986946EF
:10B460000228087910D0022108436946087104A80F
:10B47000029001A96846119AFDF7ACFA13B0F0BD2D
:10B48000694608790321EFE73843EFE79C2700205E
:10B49000EC2000208C260020902700208CD4010076
:10B4A00070B5064618480D46007800280ED017499A
:10B4B000002E0ED0002D0CD02868002809D0144C86
:10B4C0002168002907D011480A3870BD0F48801F35
:10B4D00070BD084670BD20600522691D201DFCF767
:10B4E00079FE2879A072207A0221400840000843A2
:10B4F000FB2210402072E0790123184308431040DA
:10B50000E0710020307070BDDC2000200E80000053
:10B510009C27002010B50E4900234A788C78A2425F
:10B5200012D0521CD2B24A70022A00D14B704A7813
:10B53000074B920018339A580260086910180002ED
:10B54000000A0861012010BD0360002010BD00004A
:10B550002C21002010B5002803D0112802D0FDF7BF
:10B5600055FA10BD0248082241681143416010BDE0
:10B57000F420002010B51C4C217820464068012999
:10B5800006D0022929D0032912D1000717D513E0CC
:10B59000000711D415481422017851430818C188B6
:10B5A000A28B891A0904090CC18002D001F098FC11
:10B5B00010BDFEF78BFE10BD00F08CFC10BD606965
:10B5C000401C606100F0D0FA002803D0207801F020
:10B5D00093FB10BDFEF716FE10BD60780449800095
:10B5E0000858804710BD0000F420002020280020CB
:10B5F000D4D4010010B528DFFFF7ACFF10BD10B5A3
:10B6000029DFFFF7A7FF10BD0EB5112069460872AC
:10B610000A2214A102A87CDF002803D000221146D0
:10B62000FDF7CAF9124878DF002803D0002211463E
:10B63000FDF7C2F90020FF220090413269460190D7
:10B640000A804122D2004A808880FF209130C88041
:10B6500068467ADF002803D000221146FDF7ACF9D6
:10B660000EBD00004E6F726469635F48524D00006A
:10B670004103000000207047002070470020704701
:10B68000F8B506464078242104464C4324490C2250
:10B6900050436118224A00254B6824328018AE4678
:10B6A0002F469C46002B0CD0827A1346D20908D034
:10B6B0005A0606D40D461A4A614689B2175908350A
:10B6C0008E46174C008924343B4672462946A9DF32
:10B6D0000B2819D0002800D01248012F13D1707800
:10B6E0000C214843001900890F4AA7DF00280AD01F
:10B6F0000E49884212D0082810D0891C88420DD0EB
:10B7000011280BD00020F8BD70780C21484301238C
:10B710000019008972462946A9DFE0E70148F8BD13
:10B720006C27002041800000FFFF00000230000075
:10B7300070B50C46014660782422084D50434019EC
:10B74000382300F07BFF002807D161782422514381
:10B7500049194A68521C00D14A6070BD6C2700200C
:10B76000F3B589B00D461A206946888368780C21A4
:10B7700003274843224E3B468019008907AA6946A1
:10B78000AADF002838D1687824214843741A0019A8
:10B7900069468A8B0830FCF756FD0028687807D088
:10B7A000242148430119496800290DD0154E0CE0A9
:10B7B0000C2141438919897A89071DD424214843E2
:10B7C0000019FCF72EFD17E00F4E27506846828BBC
:10B7D000687824214843001942606878484300197A
:10B7E00069460830FCF7F6FC6878242148430119C3
:10B7F000382324220998B04700200BB0F0BD000088
:10B80000902700207DC80100A1C7010010B5FFF7F7
:10B8100037FF10BD10B5FFF78BFF10BD10B5FFF758
:10B820009FFF10BDF8B50746104E0125BD4030689A
:10B83000FDF798F900280DD10D4C2069284207D159
:10B84000384600F0BDFC0028E06804D0284303E03F
:10B85000A8432061F8BDA843E06020690022284386
:10B860002061A1683068FDF73FF9F8BDE8D4010018
:10B870001821002070B51B4C207900072ED41A48DF
:10B880001422017851430D182E6900F0ABFE0146D9
:10B89000E8882A89761E80188019FCF771FC2169D6
:10B8A0000025002909D06169814206D1E560606800
:10B8B00001210843606000200AE000F055F90028EB
:10B8C00002D00220E56003E02069002803D00320B5
:10B8D00001F04EFB70BDFEF795FC70BD01F03CFB26
:10B8E00070BD0000F42000202028002010B513496E
:10B8F000134801F0F7F8124C81B2183CA068401CC4
:10B90000A0600E486038FDF743FF00280BD00828E0
:10B9100009D00C49884206D00B49884203D0002246
:10B920001146FDF749F80321A068FCF729FC00291E
:10B9300001D0012000E00020207010BD7424002000
:10B94000182000200430000001340000F0B500246D
:10B9500006460D46601C010795B0090F08A8103176
:10B960000C940174297B4174817CF9273940891C2E
:10B9700081741C2105A8FCF754FC6846017D102049
:10B980000143684601750CA806940A90089409942E
:10B9900001220B9408A882761749684601870D9406
:10B9A000697B08A80175A97B4175817DF720394025
:10B9B000891C0140EF200140114308A88175142122
:10B9C0006846FCF72EFC0EA800900DA801900FAA67
:10B9D0000021304600F012F801466846018114212A
:10B9E000448181810FA804903346F08808336A4669
:10B9F00005A9A2DF15B0F0BD372A0000F7B54279DE
:10BA00000025002A00D004252222135C0222002BEC
:10BA100000D01543CBB2FF2907D901221543029A62
:10BA2000090A53709170032602E0029902264B70B6
:10BA300004464034A189002901D010210D4300277C
:10BA400016E0B11C142909D9A189C91B4A00790043
:10BA5000091824302431FCF7BDFB0CE0029B7A006E
:10BA600012189B19928C1A70120A5A70CEB27F1C4F
:10BA7000A189B942E5DCA089C01BA08102980570AC
:10BA80003046FEBDF8B51E4C2078002837D020691E
:10BA9000002807D00026E068002805D00025002EE9
:10BAA00004D013E00126F6E70125F8E7684651DFE8
:10BAB000052806D0002806D000221146FCF77CFF9E
:10BAC00004E0012602E0216900988847002D12D188
:10BAD000608869460880A06861DF052806D00028D4
:10BAE00006D000221146FCF767FF04E0012502E0C2
:10BAF000E168A0688847002ED8D0002DCFD0F8BDCF
:10BB000054210020418805480288914204D340888E
:10BB1000814201D801207047002070477820002022
:10BB20001048018CC9B2012917D1818C090714D1A1
:10BB3000018D09060A0F03D1828D1206120F0ED055
:10BB4000090F012903D1828D1206120F07D0032994
:10BB500003D1808D0006000F01D000207047012026
:10BB600070470000C00F00F070B50E481422017835
:10BB700051430C18256900F035FD0146E088228903
:10BB80006D1E80184019FCF7FBFA07494A6982428A
:10BB900006D3824202D10869002801D0002070BD7E
:10BBA000012070BD20280020F4200020800701D053
:10BBB000002070470120704730B51588EC1C9C426E
:10BBC00001D90C2030BD02244C5513881C255B1C68
:10BBD0009BB21380CD5413885B1C9BB21380012849
:10BBE00007D0022807D0032807D0042807D0072051
:10BBF00030BD002004E0012002E0CC5401E003202D
:10BC0000C8541088401C1080002030BD10B5044876
:10BC1000017AC90702D00078FEF7C8F810BD00000D
:10BC200034200020F8B52C49C8680A690C780F79CF
:10BC300089688646944600913EE00099E2005518D6
:10BC40002A7836E0182353436968521CC918AB7828
:10BC5000D2B2934200D100220B78022B02D0032BE8
:10BC600027D123E04E680346014603E0B14204D0E9
:10BC70000B46C96900291CD0F8E7002919D08B426E
:10BC800008D1C069002805D1144F0126BE600026E6
:10BC9000B44601270E68C969D961002909D00B682B
:10BCA0009B190B6005E00174C06900E000210028C9
:10BCB000F9D169789142C5D12146641EE4B20029C8
:10BCC000BBD1054962460A61C8600F71704501D059
:10BCD0000120F8BD0020F8BD2C21002000100140FB
:10BCE000F8B5044631480026C168009107784EE057
:10BCF0002E48F90080680D1843E0002C02D0204641
:10BD0000E4691FE02878182141436A68401CC0B2EA
:10BD100051182870AA78904200D12E700A7848688D
:10BD2000012A30D1027C002A2DD18A684260CA687B
:10BD300082600A69C260496981611C4909790029E8
:10BD400000D04660194943680A699C46991A09025D
:10BD5000174B090A994202D28268891807E06146A6
:10BD6000511A09028268090A8A4202D9511A0160ED
:10BD700000E006604660012186600174C66101F042
:10BD80008DF9002CB9D1287869788842BAD1384623
:10BD90007F1EFFB20028ABD10448C16800988142E1
:10BDA00001D00120F8BD0020F8BD00002C210020AA
:10BDB000FFFF7F0098B001F0D3F93F4A3F490320CD
:10BDC000FDF7A4FF002803D000221146FCF7F4FD84
:10BDD00001A90020FDF774FE002803D000221146BF
:10BDE000FCF7EAFD6846007902285BD0002168462E
:10BDF0000170FDF779FD68460078FEF7BFFCFFF79C
:10BE000003FC382101A8FCF70CFA022168460171F5
:10BE1000012484710621C17103258582284806907A
:10BE200024210FA8FCF7FDF910A80472FF202D3083
:10BE300000241390B42000941490224B0FAA2146A2
:10BE400001A8FCF7E1FF002803D000221146FCF70F
:10BE5000B3FD00F09BFE00F0EFFD1C216846FCF7EF
:10BE6000E0F90520C00301900F2000040290009427
:10BE700068460573144881896846C1810474134873
:10BE80000590134806906846FDF748FA002803D04D
:10BE900000221146FCF790FDFCF78EFE0320FDF713
:10BEA000BFF802E00121A2E748DF0028FCD0002211
:10BEB0001146FCF781FDF7E76D9C0100CD0C0000F9
:10BEC00028200020ABC2010014240020D1C20100B0
:10BED00039A4010010B5044808224168914341602B
:10BEE000007800F009FF10BDF420002070B5144662
:10BEF00082880E4605462088111D4118921C9942E1
:10BF000001D8FE2A01D90C2070BD521C3254208861
:10BF1000FF21401C80B2208031542088401C80B218
:10BF200020808119288801F08BF92188401880B27F
:10BF30002080AA88002A09D0A968002908D0801981
:10BF4000FCF748F92088A98840182080002070BD9F
:10BF5000072070BDF8B50F46017814460546012943
:10BF600002D16878002806D02088821C9A422DD8F9
:10BF7000012902D006E00720F8BD69784118891C24
:10BF8000994223D8181A801E86B2684606802188F6
:10BF9000B81C081869467DDF0028EDD128780228F2
:10BFA00005D169460988B14201D809210AE0082172
:10BFB000012805D16878B04202D86A46108001E0B5
:10BFC0006846068068460088FE2801D90C20F8BD26
:10BFD0002288401CB8542088401C80B220803954EC
:10BFE00020886946401C2080098840182080002055
:10BFF000F8BD002070470020704700207047000007
:10C0000031B5054C04E0401E00902046FCF762F874
:10C0100000980028F7D138BDE70300008207D30E4F
:10C02000FF229A408907090E10B5994000280BDAC3
:10C0300003071B0F083B9C080C4BA400E318DC69AA
:10C0400094430C43DC6107E08408094BA400E41826
:10C05000236893430B432360C106C90E0120884027
:10C06000044908600449086010BD000000ED00E0CC
:10C0700000E400E080E200E000E100E0F3B581B020
:10C080000F46019800F0D4F9012400281E4E0198B3
:10C0900017D0FDF7DDFF80192030007F80090328CD
:10C0A00002D0012806D007E01848006901998C40A9
:10C0B000204201D1022100E00321019800F0CEF8D6
:10C0C000FEBD00F0C1F90028FAD00198FDF7C0FFCD
:10C0D00005468100C81D0E4AF93089180A6980B2E8
:10C0E00022430A610B49401800210160002FE7D06C
:10C0F0000198FDF7ADFF800030580028E0D00648D9
:10C10000AC404460FEBD0000C02700200005005088
:10C11000006500400060004000630040FEB504463A
:10C1200023480E460019202141560027C817134600
:10C13000401C01D0082738E0F27819462046FDF768
:10C1400063FF0546401C2FD0B078002807D019485F
:10C15000A1000918086802229043086007E0002146
:10C160007378204600910A46019100F065F8F07856
:10C17000002810D01048AA001018317802690F4B1F
:10C180001A400261E206D20C8907890B0A43016951
:10C190000A43026109E00648327840192030017FE5
:10C1A00092011143017700E004273846FEBD0000EC
:10C1B000C02700200007005000650040FFE0FCFFA2
:10C1C00003490969C140C807C00F00D0012070476A
:10C1D0000005005070B5124D2879002801D00820C4
:10C1E00070BD0F4900204039421E0B182033401CFF
:10C1F000C0B21A702028F8D300242046FDF7F6FEBE
:10C20000641CE4B2082CF8D303210620FFF706FFD4
:10C2100001200449C007486001202871002070BD3A
:10C22000002800200063004002480079002800D068
:10C23000012070470028002030B552000A439900C1
:10C24000039C0A432102049D0A4329040A4302492C
:10C2500080004018026030BD000700508200064890
:10C260001018026803231B049A4302600268090441
:10C270000A4302607047000000070050034940185D
:10C280000068012800D000207047000000600040D6
:10C290004058002800D00120704703221202801865
:10C2A0004068084000D00120704710B500280BD02E
:10C2B000032808D10220FDF71BFD002803D000222F
:10C2C0001146FCF779FB10BD00F0FCFC10BD00002E
:10C2D00010B50078002809D105483B21808876DF19
:10C2E000002803D000221146FCF766FB10BD0000B9
:10C2F00000200020F0B58BB0044602276846077383
:10C30000002609968784C68408A80A900D46A18A4B
:10C31000208809AAA5DF002804D0E16A00291AD0E4
:10C32000884718E06846008CC007C00F13D06846E5
:10C330000682208803A9A8DF002813D1A97E2846F9
:10C340001B3001220B00FCF759F909460F1C22276C
:10C35000292C442E4600FF20FE30694608822088A2
:10C3600003A9A8DF0BB0F0BD6B461E700BE00622E0
:10C370001EE069460A72019027E02046904700209F
:10C38000F0E76B461A702B8B022BF2D2EFE7684670
:10C3900007706946A26AF0E7032000E004206946BE
:10C3A00012E00520FBE7298B032905D2032208218F
:10C3B0002046FDF7E7F8D5E74178027808021043F8
:10C3C0006946888003D006200870A26AD5E7072056
:10C3D000FAE70920E3E70322EAE70021425C002AAA
:10C3E00001D001207047491C0629F7D3002070476F
:10C3F00070B505461C200D4968434418204611308D
:10C400000621FBF70EFF20461021FBF70AFFFF2154
:10C4100021740020A176C0432083284600F016FF37
:10C42000024A0020A9001C3A505070BD8C26002002
:10C430000449081820214156042901DB01207047D6
:10C4400000207047C02700200449081820214156C9
:10C45000042901D20120704700207047C027002026
:10C4600070B50D00044604D1002211461046FCF7B9
:10C47000A3FA002C04D1002211461046FCF79CFAC6
:10C480002878207069886170090AA170A988E17014
:10C49000090A2171E8886071000AA07170BD00006E
:10C4A00007490979490701D408207047002804D0BA
:10C4B000044949780160002070470E207047000051
:10C4C000F42000202028002030B5124B1B795B0798
:10C4D00001D4082030BD002805D0002A03D004680C
:10C4E000002C10D101E00E2030BD0B4B1D68002D3B
:10C4F00009D045681889414369185D8945435868E2
:10C500002818884201D8072030BD146000205160EF
:10C5100030BD0000F4200020EC280020FEB50546C8
:10C5200025480E460079400701D40820FEBD002DA5
:10C5300003D02868002834D101E00E20FEBD1F4C36
:10C54000216800292DD060892189484361684118FC
:10C550006868814225D9FFF729FB00280FD0686859
:10C56000019029680C2251430F1979680091401AF3
:10C5700039890C46FBF704FE002912D101E0102096
:10C58000FEBD21463046FBF7FBFD002909D1002EF8
:10C5900007D0788944430198811900980019814295
:10C5A00001D90720FEBD00200246009033462946EF
:10C5B0000320FDF765FEFEBDF4200020EC280020DE
:10C5C00010B507484469601C06D000F00BF801461E
:10C5D0002046FBF7D5FD10BD01200007406910BDC6
:10C5E0000010001001200007006980B270470000B1
:10C5F00070B500240F482546047044702846FDF7A6
:10C600002FFE6D1C0A2DF9D30B4D6C80FFF7D8FF60
:10C61000861EFFF7E7FF46430648AE60CC306C61EC
:10C620000460048144812C70AC610420EC6168607A
:10C63000002070BD20280020F4200020FFB52748EE
:10C6400081B000791F4616460D46400702D40820E7
:10C6500005B0F0BD002D06D00198002803D0286851
:10C66000002815D101E00E20F2E71D4C20680028BB
:10C670000ED0618920896268414389186A689142B5
:10C6800006D9002E04D0B04202D3F119814201D95B
:10C690000720DDE70198FFF789FA00281BD038460C
:10C6A000FFF784FA002816D06868FFF77FFA0028A1
:10C6B00011D068683246C1190198FBF78BFD0096CE
:10C6C00028680C2148432458002202212846019B57
:10C6D000A0470020BCE71020BAE70000F4200020AB
:10C6E000EC280020F8B52C4D044628790E4640076A
:10C6F00001D40820F8BD002C20D0002E1ED02068C8
:10C7000000281BD0FFF76EFF0146A088814213D39B
:10C71000102811D3E08800280ED0FFF751FF471EE4
:10C72000FFF760FF4743E288A188A8684A431218D0
:10C73000974201D3890703D00720F8BD0E20F8BD2A
:10C740006988012926D031600C22144B5143706056
:10C75000CA18506020685850A0881081E088508125
:10C76000FFF740FF0646FFF73DFFA188E288401E25
:10C77000514340183146FBF719FD0446FFF732FFDD
:10C780000146A86861430818A8606888401C688052
:10C790000020F8BD0420F8BDF4200020EC28002083
:10C7A000F8B5044620481E46007915460F46400756
:10C7B00001D40820F8BD002F05D0002C03D020683C
:10C7C000002815D101E00E20F8BD184801680029A5
:10C7D0000ED04289018940684A431018626890422D
:10C7E00006D9002D04D0A94202D3A819884201D944
:10C7F0000720F8BD3846FFF7D9F9002811D0304698
:10C80000FFF7D4F900280CD06068FFF7CFF90028B3
:10C8100007D02B463A46214601200096FDF730FD11
:10C82000F8BD1020F8BD0000F4200020EC28002006
:10C8300010B5114902460878002811D004280FD0FD
:10C84000022A16D0032A0BD10A79120711D48A6959
:10C85000521C8A61032A08D0022802D000F04CFA48
:10C8600010BD487800F084FB10BD0D20FCF7CEF819
:10C8700010BDFEF77FFE10BDF4200020F8B5044681
:10C8800020481E46007915460F46400701D408206F
:10C89000F8BD002F05D0002C03D02068002815D14A
:10C8A00001E00E20F8BD1848016800290ED0428929
:10C8B000018940684A4310186268904206D9002DE9
:10C8C00004D0A94202D3A819884201D90720F8BD93
:10C8D0003846FFF76BF9002811D03046FFF766F9AC
:10C8E00000280CD06068FFF761F9002807D02B46BC
:10C8F0003A46214604200096FDF7C2FCF8BD102000
:10C90000F8BD0000F4200020EC28002010B51348EA
:10C9100013498088884207D0132176DF05E0002282
:10C920001146FCF749F802E074DF0028F7D1002037
:10C93000FDF7DEF9002803D000221146FCF73CF891
:10C94000FCF75EFD002803D000221146FCF734F806
:10C95000FF20F530FFF754FB10BD00000020002041
:10C96000FFFF000010B507480078002809D00548EF
:10C970000549203000F0B6F881B203487038FCF762
:10C9800089FF10BD002000208424002070B5012400
:10C990000B49600408600B49401088600949403920
:10C9A0008860094D6C602F20FBF7A4FBAC60074D3D
:10C9B00000242F202C61FBF79DFBEC7070BD000064
:10C9C00080E100E040130140001001402C210020D4
:10C9D000FF21074809310022425006488169064874
:10C9E000037DC268D154017D491C01757047000068
:10C9F0000020004000250040082800201FB501222B
:10CA000069460A7008720448C16801910021C17426
:10CA100006C8684690471FBD0828002010B5044886
:10CA200001224178514041700248FCF74AFF10BD95
:10CA3000002000201424002070B514480124512146
:10CA40006425846022C004711049114800F03EF84A
:10CA50000E488C2110300160FF212D3141600A21E8
:10CA600081600026067301460948083000F02EF860
:10CA70000648FF2120300560F5318460416006736F
:10CA800001460348103000F021F870BD64240020F6
:10CA90001020002010B503680A6889689C1A8C422F
:10CAA00002D9591A016010BD01210260017110BD47
:10CAB00010B54B68026889689C1A8C4202D95118DB
:10CAC000016010BD00210360017110BD0A7B002AC6
:10CAD00003D049680160002102E00968016001217A
:10CAE0000171704710B5044600790028204602D035
:10CAF000FFF7DEFF01E0FFF7CDFF206810BDFFB5B7
:10CB00000746806A81B0144600283DD0002538468B
:10CB10002030009033E00C20B96A68430E18B088CA
:10CB2000801CFE2802D90C2005B0F0BD2288029995
:10CB3000401C885420881622401C80B22080029914
:10CB40000A542088401C80B2208002994118308805
:10CB500000F076FB2188401880B22080B288002A3D
:10CB60000AD0B16800290FD0029BC018FBF732FB36
:10CB70002088B188401820806D1C0098EDB2007BA1
:10CB8000A842C8D80020CFE70720CDE730B59FB036
:10CB9000032118A80175142110A8FBF742FB0024FB
:10CBA000012510A8109405711DA81290601C0107A2
:10CBB000090F10A81031017344738473601C0107BE
:10CBC000090F10A81031C1730020014610A801748C
:10CBD00001463348FCF708FE002803D00022114626
:10CBE000FBF7EAFE142115A8FBF71BFB0120014609
:10CBF00018A8103141700120014618A81031817029
:10CC00000020014618A8C1700120014618A8103163
:10CC1000017110A815940576642118A81794017065
:10CC20001F4815A91838FCF725FB002803D000225F
:10CC30001146FBF7C1FE40216846FBF7F2FA19A145
:10CC40006846FCF741FE0120014608A81031017733
:10CC50000020014608A841776846FCF7C3FC00287D
:10CC600003D000221146FBF7A7FE13481B901A942D
:10CC70001C9410A805850A481AA98030FCF7F8FB17
:10CC8000002803D000221146FBF796FE0B48FDF763
:10CC900027FE0B488078FDF7ABFD1FB030BD0000CC
:10CCA000142400204E6F7264696353656D69636F6D
:10CCB0006E647563746F72000DA801000DC90100E8
:10CCC0000020002010B50020FDF712F8002803D046
:10CCD00000221146FBF770FEFCF758FF002803D036
:10CCE00000221146FBF768FE3CDF002803D000223B
:10CCF0001146FBF761FE10BD10B50F490028087002
:10CD000009D0012811D0022812D0032802D1486985
:10CD1000FEF770FC10BD00208861C86107484078AC
:10CD20000028F7D0FDF780FA10BD00F0D9F810BD4B
:10CD300000F038F810BD0000F4200020202800206A
:10CD400010B508461146C046C04610BD002803D0A5
:10CD50000249C860002070470E207047542100200F
:10CD600070B5002901D08C0701D0072070BD064C9A
:10CD70000125A16062800549636010DF0028F5D1BC
:10CD8000257016202EDF70BD5421002041CD0100FA
:10CD9000002803D002490861002070470E20704728
:10CDA00054210020F8B5164C142260684008400059
:10CDB00060601448017851430E183769FFF712FC80
:10CDC00001463846FBF7DCF905466061FFF70AFCCF
:10CDD0000146F0887F1EC019FBF7D2F90222854276
:10CDE000606801D1104300E090436060E16810404A
:10CDF000084303D0002000F0BBF8F8BD0220FAE79A
:10CE0000F42000202028002010B502484069FEF7D9
:10CE1000F1FB10BDF420002010B5FFF7D1FB441E3C
:10CE2000FFF7E0FB4443FFF7DDFB04494A69521E6C
:10CE30005043CA682146FEF7E2FB10BDF4200020F3
:10CE4000F8B510481422017851430C182569FFF7F2
:10CE5000C9FB0146E088228980184019FBF790F948
:10CE60000F46FFF7ADFB461EFFF7BCFB4643E088CD
:10CE70002289F1198018044A40191269FEF7BFFB94
:10CE8000F8BD000020280020F420002070B5FFF736
:10CE9000A9FB0546FFF794FB441EFFF7A3FB604385
:10CEA0002946FBF76DF9FEF7A5FB70BD70B5FFF7DE
:10CEB00099FB8608FFF796FB0749496948430446F2
:10CEC000FFF77EFB451EFFF78DFB68433246214688
:10CED000FEF795FB70BD0000F42000200020704795
:10CEE00070B514481422017851430C18241DFFF723
:10CEF00079FB6188104E884211D2FFF773FB61887D
:10CF00000D1AFFF76FFB8208A188E06840182169BD
:10CF100040194919FEF773FBFFF764FB07E0A2888D
:10CF2000E06880188A082169FEF769FB6088F06173
:10CF300070BD000020280020F420002010B5054816
:10CF40000079000703D4012000F012F810BD00F0B2
:10CF500003F810BDF420002010B5044808224168F1
:10CF600091434160407800F003F810BDF4200020A8
:10CF7000024948700249800008580047F420002008
:10CF8000C0D4010010B50446FFF752FC2046FCF760
:10CF900007F810BD70B50C00054604D100221146FB
:10CFA0001046FBF709FD002D04D100221146104662
:10CFB000FBF702FD207828702088FF210902084035
:10CFC000000A6870206809020840000CA8702068F8
:10CFD000000EE87020792871207A68712089000A93
:10CFE000A871A068000CE87170BD000010B505487C
:10CFF0000079000702D4FDF705F910BDFFF7ACFF7B
:10D0000010BD0000F4200020FEB51F4C002527694C
:10D01000E06802906846FEF77DFA0190FEF702FE96
:10D0200006460198002822D000230098E16817E006
:10D030000E680A46864202D9301A086012E0801B48
:10D04000F31800261660D668D169B446002E07D0C2
:10D05000FE183602360A566066469660D561154659
:10D060000029E5D12846E160FEF73AFE06E02846B1
:10D07000FEF736FE002801D1002E02D00298FDF7FF
:10D0800043F900202071FEBD2C210020012002491F
:10D09000000508607047000000E200E010B50E4B8C
:10D0A000D968002906D002680C68A24204D8A21AE6
:10D0B0000A60C161D86010BD0B4604E00B46C96927
:10D0C000121B002904D00C689442F7D3A41A0C60F8
:10D0D0000260C161D86110BD2C210020F8B51E4D41
:10D0E000EC68002C36D01D48002740682969401A9A
:10D0F0000602360A2068B0421AD8361AC7192246E4
:10D10000107CE469002811D0002010746B69002B9A
:10D1100009D0916950699847002807D0002211462C
:10D12000FBF74AFC02E0516990698847002CE1D185
:10D130006978A878814206D1401CC0B2A870022844
:10D1400001D10020A87004490006800D18310F504D
:10D15000FFF79CFFF8BD00002C21002000150140C6
:10D1600010B500231D4A05211846FBF775FC002861
:10D1700003D000221146FBF71FFC194A0121194870
:10D18000FBF754FC002803D000221146FBF714FCE7
:10D190001448154A0121001DFBF748FC002803D064
:10D1A00000221146FBF708FC0E48104A0121083006
:10D1B000FBF73CFC002803D000221146FBF7FCFBE8
:10D1C00008480B4A01210C30FBF730FC002803D043
:10D1D00000221146FBF7F0FB10BD0000EC210020FF
:10D1E0005D8D01002CD40100EDB8010065C901007E
:10D1F0001DCA0100FF2107481D3100224250064888
:10D20000028A8168895C028A521C02820348C161D9
:10D210007047000000200040082800200025004042
:10D220001FB500216A46117010720448826801928D
:10D23000817406C8684690471FBD0000082800207A
:10D240000870000A487002207047000001218140E8
:10D25000024842688A43426070470000DC20002098
:10D2600038B51549154A488890420FD04A78144C71
:10D27000521CD2B24A70237B934208D3091D75DF3A
:10D28000002803D0A169002900D0884738BD0025B7
:10D290004D70217C002907D03B2176DF002803D088
:10D2A000A169002900D0884761690029EED068464D
:10D2B0000570884738BD000074200020FFFF000083
:10D2C0005426002012494868C005C00D19D01038F6
:10D2D00040B2002807DA0207120F083A92089200BB
:10D2E0005118C96904E081080A4A89008918096847
:10D2F0008007C00EC1400806800F012803D0032814
:10D3000003D00220704700207047012070470000C2
:10D3100000ED00E000E400E042788378521CD2B2D5
:10D32000934200D100220378934201D1002070473C
:10D330000A70416840781822504308187047FFB5BA
:10D3400083B016460C9D0D9C1F4602220095019449
:10D35000039800F00CF8002807D13B461022314614
:10D3600000950194039800F002F807B0F0BDFFB5F6
:10D3700083B0074600200C9C8646268805463AE086
:10D380007868A90042181188684681805188C18058
:10D390000022694601A865DF002839D16846017876
:10D3A0000598814226D17046002801D0002200E075
:10D3B00002222088891842180D998A4227D871467E
:10D3C00000290AD1401C80B22080069A0499115489
:10D3D0002088401C208001208646218806980A1853
:10D3E000694601A865DF002812D1694620880978BE
:10D3F000401820806D1C3888A842C1DC7046002887
:10D400000AD02088801B401E80B2FF2802D90C2041
:10D4100007B0F0BD069988550020F9E70179002989
:10D4200002D1007B002800D0012070476C21002031
:10D430008C210020AC210020CC210020C42400201D
:10D44000E42400201025002011000000120000003C
:10D45000130000001400000011000300A19B010054
:10D4600012000300A19B010013000300A19B010017
:10D4700014000300A19B01003426002023D1BCEA44
:10D480005F782315DEEF121200000000FFFFFFFFA0
:10D49000FBBF010061B701007DB601001DB80100AE
:10D4A000F7BF010031B7010079B6010015B80100DE
:10D4B000F3BF010081B6010075B601000DB801008F
:10D4C0008DCE0100ADCE010009CE010041CE01009C
:10D4D00019CE01003DCF010055A5010001A50100B5
:10D4E000EDCF010075B80100F8280020030000000E
:10D4F00010D50100002000206C0100008482010092
:10D5000030D501006C210020EC0F000026860100C0
:10D5100042010323FFFF0C2A0D1801000F18010020
:10D520000A180103EFFFFF041BDDA8011424F40017
:04000005000180C1B5
:00000001FF
