:020000040001F9
:10800000902A0020158101002F810100318101009B
:108010000000000000000000000000000000000060
:10802000000000000000000000000000338101009B
:1080300000000000000000003581010037810100D0
:108040003981010039810100398101003981010044
:108050005D850100000000009D8101003981010063
:108060003981010039810100398101003981010024
:108070003981010039810100398101003981010014
:10808000398101003D8501003981010039810100FC
:108090009185010039810100398101003981010098
:1080A000398101003981010000000000000000005A
:1080B00000000000000000000000000000000000C0
:1080C0000348854600F058F8004800475D900100DD
:1080D000902A0020401E00BF00BF00BF00BF00BFAD
:1080E00000BF00BF00BF00BF00BF00BF00BFF1D195
:1080F00070470000401E00BF00BF00BF00BF00BFB0
:1081000000BF00BF00BF00BF00BF00BF00BFF1D174
:10811000704700000321094802680A4302600848CA
:1081200002680A4302600748804707480047FEE7A5
:10813000FEE7FEE7FEE7FEE7FEE70000240500405D
:108140005405004099850100C180010030B50B46FF
:10815000014600202022012409E00D46D5409D4221
:1081600005D31D469540491B2546954040191546A7
:10817000521E002DF1DC30BD064C0125064E05E0F7
:10818000E36807CC2B430C3C98471034B442F7D338
:10819000FFF79AFFA8970100C8970100F8B50024DF
:1081A000FF250135012627460094284601F0F4F802
:1081B000002808D034484068304204D033480021B9
:1081C0002818344301602D1D76007F1CADB2042FAA
:1081D000EBD3FF207D3001F0DFF8002807D02C48DA
:1081E00000210160400704432A48006900902A4F9B
:1081F000200712D00126002526420AD02748AA00CF
:10820000111808690969C004C00E8903BA58890F9A
:10821000904776006D1C042DEED3002C30DA00243C
:108220001D4E0021301940304156491C25D0077899
:10823000BD06AD0E284600F045FD80003658002EE4
:108240001BD0BF090121A940154AA8008018006869
:10825000009A8003800F114202D0022802D00CE065
:1082600003280AD1032F05D102280AD0022128466B
:1082700001F072F839462846B047641C042CCFD36D
:10828000F8BD0321F3E700000063004000600040F8
:108290007C61004000050050102200200065004075
:1082A0000007005018B5BF24042809D04023002837
:1082B00023D001283CD0022857D003287BD077E078
:1082C00069462E2000F0B4F8002872D06846007885
:1082D000C106C90E684601702E2000F0FBF8002888
:1082E00067D06946242000F0A3F8002861D06846D2
:1082F000017821400170242056E06946242000F0D6
:1083000097F8002855D0684601782140194301703C
:10831000242000F0DFF800284BD069462E2000F022
:1083200087F8002845D068460078C106C90E38E0B5
:108330006946242000F07CF800283AD0684601788D
:1083400021401C4621430170242000F0C3F800287E
:108350002FD069462E2000F06BF8002829D06846FF
:1083600000782146C006C00E1AE06946242000F0BD
:108370005FF800281DD0684601782140194301703C
:10838000242000F0A7F8002813D069462E2000F022
:108390004FF800280DD068460078C006C00E802136
:1083A0000143684601702E2000F094F8002800D0A8
:1083B000012018BDFFE76946242000F039F80028A5
:1083C000F7D068460178214019430170242000F05D
:1083D00081F80028EDD069462E2000F029F8002809
:1083E000E7D068460078C006C00EC021D8E700007C
:1083F00010B500221146012001F058F8002814D0D1
:10840000012001F02BF809480470012000F034F835
:108410000120FFF747FF002000F018F8002000F0CF
:1084200043F8012000F0FCFF012010BD14200020C3
:1084300080221043034A10700348407808700120DE
:1084400070470000002000200820002008B50346E7
:1084500069463820FFF7ECFF00280CD0684600780A
:1084600081098901194368460170382000F032F80B
:10847000002800D0012008BD08B503466946232026
:10848000FFF7D6FF00280ED068460178CF200140C4
:1084900018010843C1B268460170232000F01AF8A1
:1084A000002800D0012008BD08B5034669463020E9
:1084B000FFF7BEFF00280CD068460178402001403D
:1084C000194368460170302000F004F8002800D0FD
:1084D000012008BD054B02221A70054B00221A70BC
:1084E000044A1070517001207047000011200020D4
:1084F00010200020002000208307FF22DB0E9A407E
:108500008907090E994000280BDA0007000F083888
:10851000830808489B001818C36993430B43C36141
:108520007047830804489B001B1818689043084351
:108530001860704700ED00E000E400E010B5064967
:108540000020086048608860C860034940390860BE
:10855000486001F05FF810BD4011014070B5FF2187
:1085600009480931094C00254550214601F094F88D
:10857000002808D1A079FF2801D000F005FF65711F
:1085800021680020884770BD00400040582200202C
:1085900010B500F0D5FF10BD10B500F067FC002845
:1085A00005D00E490C484860C8130D4988610D4834
:1085B000018CC9B201290ED1818C09070BD1018D23
:1085C0000906090F042906D1808D0006000F02D18B
:1085D00005490120886010BDDFFF07C0000500408D
:1085E000006C0040C00F00F00006004030B474463C
:1085F000641E2578641CAB4200D21D46635D5B009F
:10860000E31830BC184702E008C8121F08C1002A4E
:10861000FAD170477047002001E001C1121F002A03
:10862000FBD17047044842680121C9050B469343BA
:1086300083600A40C26070470005005070B5002496
:10864000064D06E06968E000085C012100F06EFD5F
:10865000641C28788442F5D3002070BD34200020AB
:10866000F8B515460C460646052A01D20720F8BD86
:1086700000F032FE002803D100F004FE0028F6D1FD
:10868000104900204E600C70C8608D6008610E4D6E
:108690000DE0E00069688019009181786A465170A8
:1086A00000780A4A694600F091FD0028DFD1204693
:1086B000641EE4B20028ECD1054A0021024800F013
:1086C00017F8F8BD34200020A09701001D8E01008E
:1086D0007D8D0100BFF34F8F04490348C860BFF38D
:1086E0004F8F00BFFDE700000400FA0500ED00E039
:1086F000094B9B68002B07D0002A07D0002805D023
:108700000068037C002B03D00820704707207047C7
:10871000417442610020704748200020FFB5900757
:10872000002581B014460E46002832D11B4F002C84
:1087300031D000F053FE049878610320387033463E
:108740001821224600204B43BC601834C100891810
:108750000D704D708E704C601C19401C0328F5DBA9
:10876000FD607D7001240E48BD7024050460032166
:108770001420FFF7C1FE0B4804600B4C0198A06069
:1087800003211120FFF7B8FE60683861002005B0B2
:10879000F0BD0720FBE7BD60FBE70000482000209C
:1087A00080E200E000E100E000150140FEB50D466A
:1087B0001B4917468968044600292AD0002C28D076
:1087C000052D01D20720FEBD6069002821D0607C04
:1087D000012820D0002600F087FFC000104901903A
:1087E00089684018694600F0A9FF002815D00121CA
:1087F00001700C49446049680830E2C0084901989A
:108800008968411868460078487000F0DBFE002057
:10881000FEBD0820FEBD2E46DDE70420FEBD0000A3
:108820004820002000150140F8B5134D0446A96802
:1088300000291CD0002C1AD06069002817D000260F
:10884000267400F051FFC700A8686946381800F088
:1088500075FF00280DD0022101704460A868391806
:1088600068460078487000F0ADFE3046F8BD08203C
:10887000F8BD0420F8BD000048200020F8B50746E8
:108880000024234802E0641C042C1AD2A20082585F
:10889000BA42F8D1042C14D21D481E4E0C380029BF
:1088A00029D001290ED002290BD16000201880198F
:1088B0004578002D05D018480169002901D02846C7
:1088C0008847F8BD61006118755C8E1971780029C0
:1088D0000CD011490A224968806851430E4A521C43
:1088E000FFF764FF002801D10B4847700A48B178B0
:1088F00014300155DDE78068FFF796FF06486100F8
:10890000611814308919005D8D78A842D1D0F8BD66
:1089100070970100E42100201C20002010B51149AF
:1089200001208861104900224A60820790604868EF
:108930000028FCD000230D4A03211846FFF7EEFE65
:10894000002803D000221146FFF7C4FE0022084988
:10895000012000F033F8002803D000221146FFF771
:10896000B9FE10BD00050040000100406C20002051
:10897000CD0C000070B50023042811D24400041966
:108980000D4D012A02D101290DD000224600801987
:10899000094E801900290CD0012906D0022906D0E1
:1089A0000723184670BD0D30C2B22A55F9E7427050
:1089B000F7E78270F5E70000E421002070B50E466D
:1089C000204905464E608D6000200A61A9071ED52A
:1089D0000024012211462046FFF7CCFF641C042C22
:1089E00002D20028F5D012E0002810D1720804212C
:1089F0001548FFF735FE002809D1FFF71FFE0028B4
:108A000005D11148114A00211438FFF771FEE9071A
:108A100006D00F220E4952058A600023CB608A617E
:108A200000280DD108480B4A00211C38FFF760FED2
:108A3000002805D10448084A01211838FFF758FEDC
:108A400070BD00001C20002080970100558C0100A3
:108A500000050050B58E010025860100FEB57A4D57
:108A60000722EB6892059A4302936B6800939C007F
:108A700006461B1900200121019349050746734C46
:108A80003300FFF7B3FD180D1515374755677C8880
:108A90007F8891DE9E9E9E9E9EC8CED1D8DEDE143B
:108AA0000F21029A49059143A160E7602F70FEBD36
:108AB000A260E76060680F2252055040800209D52D
:108AC000A160E760022E02D1E120C0000AE07D2013
:108AD000400107E0E160A760022E01D1C82001E05B
:108AE000FF2091302E706421FFF730FB0099414345
:108AF00000223FE0A260E76060680F22520550400C
:108B0000800204D5A160E76019204001EAE7E16036
:108B1000A760E3E7A260E76060680F22520550405B
:108B2000800202D5A160E760D1E7E160A760D7E7E6
:108B3000A260E76060680F2252055040800202D5B3
:108B4000A160E76001E0E160A7602E70009841003D
:108B500000220FE0A260E76060680F2252055040DB
:108B6000800202D5A160E76001E0E160A7602E709D
:108B70000099002236480068FFF718FEFEBDA2608B
:108B8000E7601BE061680120800502468A43A2601D
:108B90000140E16010E06068012189050A468243D6
:108BA000A2600840E060E3E76068012189050A46A9
:108BB0008243A2600840E0600199C9E7E160A760D4
:108BC0002DE023484068FFF72FFE11218A1B01D0BA
:108BD000002807D00F22E96852051140A160E76024
:108BE000EF60FEBD0121C905E960012A0CD91046DC
:108BF000C82148436421FFF7A9FA6968002241436C
:108C000013484068FFF7D2FD0F22E9685205114072
:108C1000E160A760FEBD0F214905A160E7602E70ED
:108C2000FEBD07229205AAE70D214905A160E76074
:108C300001218905C2E70321C905A160E760891008
:108C4000BCE70F214905B9E71C20002000050050B2
:108C50006497010010B500780221FFF70FFE10BDE8
:108C60000022D243830004490428CA5002D30818C2
:108C7000203002777047000010220020F0B5002558
:108C8000ED43002A02D00023042601E00423082635
:108C90000B4C04E09F00E7597F1C04D05B1CB342DF
:108CA000F8D32846F0BD26185DB2203635709E00F8
:108CB000A151002AF5D1E11820310877F1E7000031
:108CC0001022002002490918202008567047000091
:108CD00010220020F8B52348C16800293ED00E6854
:108CE00021494C680769C078E11B0D022D0AED1C73
:108CF000002814D101201D4A000450601B4A403A4C
:108D000050601B49400008601A4908601A49012058
:108D100008602F20FFF7EEF912490120C870B54214
:108D200000D23546E81900020F4B000A40331860A4
:108D30000D4A5168001B091B0902090A0002000ABA
:108D4000C91C814209D9506818602F20FFF7D2F959
:108D500001200749400480390860F8BD00F03EFB5F
:108D6000F8BD0000482000200015014040130140DC
:108D700080E200E000E100E000100140F8B50026CC
:108D80000124154D23E06968F00047183878214622
:108D90002A698140114218D08A432A6100F068FA9A
:108DA0003A782146EB689140194003469340994236
:108DB0000BD17978012901D0012100E000217B68E5
:108DC0004140002B01D010469847761CF6B2287817
:108DD0008642D8D3F8BD00003420002010B50E49DB
:108DE00000234A788C78A24212D0521CD2B24A7028
:108DF000022A00D14B704A78074B920018339A58D8
:108E00000260086910180002000A0861012010BD04
:108E10000360002010BD000048200020F8B5074680
:108E2000104E0125BD403068FFF7FEFC00280DD133
:108E30000D4C2069284207D1384600F019FA002865
:108E4000E06804D0284303E0A8432061F8BDA843AC
:108E5000E0602069002228432061A1683068FFF7A4
:108E6000A5FCF8BDA0970100342000201048018C1B
:108E7000C9B2012917D1818C090714D1018D0906C6
:108E80000A0F03D1828D1206120F0ED0090F01298D
:108E900003D1828D1206120F07D0032903D1808DD2
:108EA0000006000F01D0002070470120704700002D
:108EB000C00F00F010B50448017AC90702D000784D
:108EC000FFF7CCFD10BD00001C200020F8B52C4998
:108ED000C8680A690C780F798968864694460091BB
:108EE0003EE00099E20055182A7836E018235343F3
:108EF0006968521CC918AB78D2B2934200D10022E3
:108F00000B78022B02D0032B27D123E04E680346B7
:108F1000014603E0B14204D00B46C96900291CD0C8
:108F2000F8E7002919D08B4208D1C069002805D183
:108F3000144F0126BE600026B44601270E68C96999
:108F4000D961002909D00B689B190B6005E00174F9
:108F5000C06900E000210028F9D169789142C5D1AB
:108F60002146641EE4B20029BBD1054962460A616C
:108F7000C8600F71704501D00120F8BD0020F8BD18
:108F80004820002000100140F8B504463148002672
:108F9000C168009107784EE02E48F90080680D18EE
:108FA00043E0002C02D02046E4691FE02878182115
:108FB00041436A68401CC0B251182870AA78904298
:108FC00000D12E700A784868012A30D1027C002A2C
:108FD0002DD18A684260CA6882600A69C2604969A4
:108FE00081611C490979002900D04660194943680C
:108FF0000A699C46991A0902174B090A994202D23A
:109000008268891807E06146511A09028268090AD4
:109010008A4202D9511A016000E0066046600121CF
:1090200086600174C66100F0D5FA002CB9D12878A9
:1090300069788842BAD138467F1EFFB20028ABD18A
:109040000448C1680098814201D00120F8BD002089
:10905000F8BD000048200020FFFF7F00FFF75EFC06
:10906000092000F06EF9012000F06BF9082000F0F3
:1090700068F901250D4C6D05E5607D26F60030464A
:1090800000F016F8FFF7B4F9304600F011F830465A
:1090900000F00EF8FFF7ACF9E560642000F008F886
:1090A000152000F069F96420F2E700000005005087
:1090B00031B5054C04E0401E00902046FFF70AF849
:1090C00000980028F7D138BDE70300008207D30ECF
:1090D000FF229A408907090E10B5994000280BDA43
:1090E00003071B0F083B9C080C4BA400E318DC692A
:1090F00094430C43DC6107E08408094BA400E418A6
:10910000236893430B432360C106C90E01208840A6
:10911000044908600449086010BD000000ED00E04B
:1091200000E400E080E200E000E100E0F3B581B09F
:109130000F46019800F03AF9012400281E4E0198CC
:1091400017D0FFF7BFFD80192030007F800903286A
:1091500002D0012806D007E01848006901998C4028
:10916000204201D1022100E00321019800F0F4F82F
:10917000FEBD00F027F90028FAD00198FFF7A2FD04
:1091800005468100C81D0E4AF93089180A6980B267
:1091900022430A610B49401800210160002FE7D0EB
:1091A0000198FFF78FFD800030580028E0D0064876
:1091B000AC404460FEBD00001022002000050050BD
:1091C000006500400060004000630040FEB50446BA
:1091D00023480E460019202141560027C817134680
:1091E000401C01D0082738E0F27819462046FFF7E6
:1091F00045FD0546401C2FD0B078002807D01948FF
:10920000A1000918086802229043086007E00021C5
:109210007378204600910A46019100F077F8F078C3
:10922000002810D01048AA001018317802690F4B9E
:109230001A400261E206D20C8907890B0A430169D0
:109240000A43026109E00648327840192030017F64
:1092500092011143017700E004273846FEBD00006B
:10926000102200200007005000650040FFE0FCFFD6
:1092700003490969C140C807C00F00D001207047E9
:109280000005005070B5124D2879002801D0082043
:1092900070BD0F4900204039421E0B182033401C7E
:1092A000C0B21A702028F8D300242046FFF7D8FC5B
:1092B000641CE4B2082CF8D303210620FFF706FF54
:1092C00001200449C007486001202871002070BDBA
:1092D000502200200063004002480079002800D09E
:1092E000012070475022002030B552000A439900F7
:1092F000039C0A432102049D0A4329040A430249AC
:1093000080004018026030BD0007005030B55200A8
:109310000A439900039C0A432102049D0A4329043D
:109320000A43024980004018026030BD0007005027
:109330001CB500220B46009211460192FFF7D4FFA4
:109340001CBD1CB5002100910B4601220191114664
:10935000FFF7CAFF1CBD0000820006481018026813
:1093600003231B049A430260026809040A43026053
:1093700070470000000700500121814001488160D2
:1093800070470000000500500121814001488160C4
:10939000704700000005005003494018006801288C
:1093A00000D0002070470000006000400449081809
:1093B00020214156042901DB01207047002070471D
:1093C000102200200449081820214156042901D206
:1093D00001207047002070471022002070B5012442
:1093E0000B49600408600B49401088600949403906
:1093F0008860094D6C602F20FEF77CFEAC60074D45
:1094000000242F202C61FEF775FEEC7070BD00006B
:1094100080E100E04013014000100140482000209E
:1094200002220B4900280AD00A4B4A620A62CA602B
:109430004A60052100200902591808607047044855
:10944000054B4030C26302618261CA62F1E70000ED
:1094500000070050004000400030004010B50028D8
:1094600013D0104C0920FFF76CFF0820FFF769FFAD
:1094700000210320FFF75CFF0120FFF762FF0521B9
:10948000012009026118086010BD074C1F20FFF77A
:1094900058FF1420FFF755FF00211620FFF748FF63
:1094A0000B20EAE70040004000300040F7B50527F8
:1094B0001E4E01253F02002824D01E481C4C0921C5
:1094C00081600821C160032101610120FFF754FF81
:1094D00075600121C907E01941620199002906D090
:1094E00001291DD002291DD003291DD00021029A77
:1094F000002A00D0294341650021FF200930015195
:109500002046FEBD0D480C4C1F2181601421C16016
:10951000162101610B20FFF72FFF0B207060D8E7A9
:109520000221E4E70421E2E70621E0E7142000201D
:109530000040004000450040003000400035004041
:10954000FEB51F4C00252769E06802906846FFF7CA
:1095500045FC0190FFF7BAFC06460198002822D08E
:1095600000230098E16817E00E680A46864202D997
:10957000301A086012E0801BF31800261660D668C7
:10958000D169B446002E07D0FE183602360A56605E
:1095900066469660D56115460029E5D12846E1600A
:1095A000FFF7F2FC06E02846FFF7EEFC002801D1A9
:1095B000002E02D00298FFF78DFB00202071FEBD27
:1095C0004820002001200249000508607047000083
:1095D00000E200E010B50E4BD968002906D0026801
:1095E0000C68A24204D8A21A0A60C161D86010BDFA
:1095F0000B4604E00B46C969121B002904D00C6815
:109600009442F7D3A41A0C600260C161D86110BD06
:1096100048200020F8B51E4DEC68002C36D01D48BF
:10962000002740682969401A0602360A2068B042BD
:109630001AD8361AC7192246107CE469002811D0BE
:10964000002010746B69002B09D09169506998470C
:10965000002807D000221146FFF73CF802E05169CC
:1096600090698847002CE1D16978A878814206D1B9
:10967000401CC0B2A870022801D10020A870044983
:109680000006800D18310F50FFF79CFFF8BD000059
:10969000482000200015014038B505221202831829
:1096A00098696A461070887A4A7A904203D26A466C
:1096B00012780C692254887A401CC2B28A720C7AE1
:1096C000501C844202D9C968085C03E04D7A854287
:1096D00002D9C879D86103E0A24201D3AA4201D2DB
:1096E000012038BD002038BD12494868C005C00DB2
:1096F00019D0103840B2002807DA0207120F083AD2
:10970000920892005118C96904E081080A4A890048
:10971000891809688007C00EC1400806800F01281B
:1097200003D0032803D00220704700207047012097
:109730007047000000ED00E000E400E0427883782C
:10974000521CD2B2934200D100220378934201D13D
:10975000002070470A70416840781822504308186A
:1097600070470000A4210020C4210020F021002027
:10977000110000001200000013000000140000009F
:10978000110003007D880100120003007D880100A4
:10979000130003007D880100140003007D88010090
:1097A0007022002003000000C89701000020002064
:1097B0006C00000006860100349801006C20002037
:1097C000240A0000168601000000000000000000CE
:1097D0000000000000000000000000000000000089
:1097E0000000000000000000000000000000000079
:1097F0000000000000000000000000000000000069
:109800000000000000000000000000000000000058
:109810000000000000000000000000000000000048
:109820000000000000000000000000000000000038
:049830000024F4001C
:04000005000180C1B5
:00000001FF
