:020000040001F9
:10800000B8310020158101002F810100318101006C
:108010000000000000000000000000000000000060
:10802000000000000000000000000000338101009B
:1080300000000000000000003581010037810100D0
:108040003981010039810100018901003981010074
:108050003981010000000000758201004D8201009D
:1080600039810100E1880100F188010039810100B6
:108070003981010039810100398101003981010014
:10808000398101004D8601003981010039810100EB
:108090007D87010039810100858701003981010058
:1080A000398101003981010000000000000000005A
:1080B00000000000000000000000000000000000C0
:1080C0000348854600F084F8004800478DAC010065
:1080D000B8310020401E00BF00BF00BF00BF00BF7E
:1080E00000BF00BF00BF00BF00BF00BF00BFF1D195
:1080F00070470000401E00BF00BF00BF00BF00BFB0
:1081000000BF00BF00BF00BF00BF00BF00BFF1D174
:10811000704700000321094802680A4302600848CA
:1081200002680A4302600748804707480047FEE7A5
:10813000FEE7FEE7FEE7FEE7FEE70000240500405D
:108140005405004041880100C180010030B50B4654
:10815000014600202022012409E00D46D5409D4221
:1081600005D31D469540491B2546954040191546A7
:10817000521E002DF1DC30BD03460B439B0703D09C
:1081800009E008C9121F08C0042AFAD203E00B78DC
:108190000370401C491C521EF9D27047D2B201E054
:1081A0000270401C491EFBD270470022F6E710B552
:1081B00013460A4604461946FFF7F0FF204610BD55
:1081C000421C0178401C0029FBD1801A7047000036
:1081D000064C0125064E05E0E36807CC2B430C3C1A
:1081E00098471034B442F7D3FFF76EFF20C4010064
:1081F00040C4010070B58C180578401C6B075B0FFC
:1082000001D10378401C2A1106D10278401C03E0FA
:1082100006780E70401C491C5B1EF9D12B0705D453
:108220000023521E0DD40B70491CFAE70378401C42
:10823000CB1A921C03E01D780D70491C5B1C521E6A
:10824000F9D5A142D8D3002070BD00000549002017
:1082500008600548816805480160006804490873A2
:10826000704700000071004000750040442000206D
:1082700074260020F8B50024FF2501350126274685
:108280000094284603F0C8F9002808D03448406814
:10829000304204D0334800212818344301602D1D9A
:1082A00076007F1CADB2042FEBD3FF207D3003F0AE
:1082B000B3F9002807D02C4800210160400704438F
:1082C0002A48006900902A4F200712D00126002575
:1082D00026420AD02748AA00111808690969C00473
:1082E000C00E8903BA58890F904776006D1C042D83
:1082F000EED3002C30DA00241D4E0021301940301E
:108300004156491C25D00778BD06AD0E284601F020
:1083100021FF80003658002E1BD0BF090121A94043
:10832000154AA80080180068009A8003800F114247
:1083300002D0022802D00CE003280AD1032F05D175
:1083400002280AD00221284603F03EF93946284681
:10835000B047641C042CCFD3F8BD0321F3E7000021
:1083600000630040006000407C6100400005005058
:1083700060280020006500400007005070B51F4CC9
:108380000E460546E1882046007858292DD006DCA7
:10839000002924D0242928D034291CD11FE06629A3
:1083A0001DD08A2921D0164AD14214D1002800D0EC
:1083B000012003F021F90020E080217800291AD063
:1083C00020703178491C31702988491C09B22980F4
:1083D000B42900DB2880E088401CE08070BD0028C4
:1083E00000D0012003F010F9F5E7002800D00120AB
:1083F00003F002F9EFE701212170E2E76A20002093
:108400008FFDFFFF10B5044680070CD16421204684
:10841000FFF79CFE002908D1FF2191312046FFF78C
:1084200095FE002901D0002010BD012010BD0000E4
:10843000F8B5494C4949608E401C80B260860A6993
:10844000474FD203D20F0126002A2AD002460B3A08
:10845000272A02D3283AF92A03D20B2003F0C4F8C2
:10846000F8BD0346FF3B01222E3BD202132B01D263
:108470008A60F8BD0346FF3B423BB32BEDD3B43BD0
:10848000132BF5D3374BC418FF23E0339C42E4D3BE
:10849000C419132CECD33249143940189842DCD358
:1084A000F8BD0869000CC007C00FF9D10B2003F01C
:1084B0009BF8608E0025811F13290AD226706570F3
:1084C000A570E570607B00283FD1207E401C20769F
:1084D0003BE00146FF221A39133291420CD226703A
:1084E0006570A570E570607B00282ED11E4806607F
:1084F000606C6064667325E00146FF392E39C72938
:1085000008D225706670A570E570607B00281CD1CC
:10851000052016E00246FF3AFF21F63AF4318A427E
:1085200004D225706570A670E5700EE0C01988420F
:108530000BD225706570A570E670607B002804D1B1
:1085400006206073094802F081FE084865860830FD
:1085500002F072FEF8BD000000200020000500506F
:1085600017FCFFFFF7FDFFFF007000401CC3010078
:1085700070B5234C0E46054621892046807858293F
:1085800031D008DC002926D0012924D024292AD082
:1085900034291CD11FE066291DD08A2923D0194A0D
:1085A000D14214D1002826D0032003F025F8002062
:1085B0002081A178002920D0A0703178491C317029
:1085C0002988491C09B22980B42900DB2880208928
:1085D000401C208170BD002803D0032003F014F854
:1085E000F5E70220FAE7002803D0032003F004F89F
:1085F000EDE70220FAE70220D7E70121A170DCE7CE
:108600006A2000208FFDFFFF8307FF22DB0E9A40C8
:108610008907090E994000280BDA0007000F083877
:10862000830808489B001818C36993430B43C36130
:108630007047830804489B001B1818689043084340
:108640001860704700ED00E000E400E010B5064956
:108650000020086048608860C860034940390860AD
:10866000486003F045FC10BD40110140F8B52B49AE
:10867000FFF76CFD00912A4904460A88294DA24261
:108680002FD0FF270C80284E6E3711E03046FFF7C1
:10869000B9FE002808D0FF206F30844201D3241A8D
:1086A00004E0761CB6B205E0FF3C6E3C761CB6B228
:1086B000BC42EBD2AE8000261C4F0CE0A888FFF72E
:1086C000A1FE002801D0012E23D0B85DA04204D81D
:1086D000241A761CB6B21C2CF0D2761CAE71641C27
:1086E000EC71E12109010098FFF730FD0C4628707C
:1086F00020463C21FFF72AFD687020463C21FFF709
:1087000025FDA970EA79A979A88800F011F82872E6
:10871000F8BD1D2CE1D31D3CDBE7000080510100BA
:108720006820002088260020B20700006CC30100EA
:1087300070B50D4616466421FFF708FDC0B20C4621
:10874000132801D96434E4B2A00800190721FFF707
:10875000FDFC0948891940192038C07F401880B2B3
:10876000A10703D1032D01D2401E80B20721FFF7DC
:10877000EDFC084670BD000060C3010010B503F0B9
:108780004DFB10BD10B507484068002807D0804752
:10879000002803D00022114600F0AEFB10BD02F00D
:1087A00005F910BD9421002070B5234C0E460546F6
:1087B000618920464078582931D008DC002926D02C
:1087C000012924D024292AD034291CD11FE066296C
:1087D0001DD08A2923D0194AD14214D1002826D08D
:1087E000052002F009FF002060816178002920D077
:1087F00060703178491C31702988491C09B2298080
:10880000B42900DB28806089401C608170BD00288D
:1088100003D0052002F0F8FEF5E70420FAE700286F
:1088200003D0052002F0E8FEEDE70420FAE704207B
:10883000D7E701216170DCE76A2000208FFDFFFF90
:1088400010B502F001F9002805D01F491D48486005
:10885000C8131E4988611E48018CC9B201290BD179
:10886000828C120708D1028D1206120F042A03D13E
:10887000828D1206120F0AD0012921D1818C09079D
:108880001ED1018D0906090F0A2904D007E0114AFB
:1088900001219160F5E7828D1206120F05D00D2996
:1088A0000ED1808D0006000F0AD10B480168012906
:1088B00004D00A49016001680129FCD1C02141614D
:1088C00010BD0000DFFF07C000050040006C004045
:1088D000C00F00F00006004000EC06407593000059
:1088E00010B50021014802F00FFD10BD00900040BE
:1088F00010B50121014802F007FD10BD00A00040A5
:10890000F0B53C4D012185B04902284602F093FEA6
:1089100001270026384C002823D0FF212531284686
:1089200002F084FE00281CD0FF2025302E5081202C
:10893000324980008860607D002800D16F6002218C
:10894000684601702E49086808600390E17C68461B
:108950000172E0680190E67406CC6846083C9047D6
:108960001DE00421284602F066FE002817D0FF21F2
:108970000931284602F05AFE002810D003F078F89A
:10898000E07C217D88420AD1607D002800D16F60A3
:1089900081201A4980008860207D03F0CFF8FF21F4
:1089A0001D31284602F042FE00280DD0A07C218A0D
:1089B000884202D903F0DEFA06E0FF211D316E5035
:1089C000002801D003F02CFBFF214531284602F09E
:1089D0002DFE00280CD0FF2045302E50607D002851
:1089E00000D02F60E07C002802D0207D03F0A6F8A4
:1089F00005B0F0BD00200040A82800200023004062
:108A0000802400400FB410B503A9044B044A029817
:108A100000F024F810BC08BC04B018476FA4010093
:108A20009021002030B47446641E2578641CAB424B
:108A300000D21D46635D5B00E31830BC184702E0BE
:108A400008C8121F08C1002AFAD1704770470020D9
:108A500001E001C1121F002AFBD17047FFB581B0B0
:108A60000546002706E025280AD0049A0399904776
:108A70006D1C7F1C28780028F5D1384605B0F0BD64
:108A8000002269786D1C10462E2913D169780422C2
:108A90006D1C2A2909D102996D1C01C9029109E0B6
:108AA0000A235843303808186D1C29780B46303B90
:108AB000092BF5D92B78002BDFD0632B07D0732B34
:108AC00010D0049A1846039990477F1C2DE0029914
:108AD0006C460B782370091D0291002161706E466F
:108AE000012104E0029940C902910021C9435207C3
:108AF0000AD5002400E0641C84420DDA8C42FADBC3
:108B0000325D002AF7D107E0002400E0641C8C42AB
:108B1000FCDB305D0028F9D13F1904E03078049A7D
:108B2000761C03999047641EF8D26D1CA2E70000E2
:108B30001CB5104903C900900191684602F030FA53
:108B40000D4901204A688003FF231B029A4310430A
:108B50004860012008600949486009490A68120212
:108B6000120A83071A430A60064A802111600649E7
:108B700008601CBD58C30100007500400073004030
:108B800004E400E000E100E000700040F7B584B0CC
:108B90000025168807461580406B1446002813D020
:108BA00003780598032E51D30221017021881122E8
:108BB000491C89B2218042542188491C89B22180F4
:108BC00043542088401C2080386B00281DD0054667
:108BD0002088059902461232B24237D811220A542F
:108BE00020881022401C80B220800A542088401C1B
:108BF00020800F202A5C2388401ECA54228840B25D
:108C0000521C22800028F5DA0025384620300290D8
:108C1000807B002806D033462246059901F038FFB4
:108C2000050014D10298407B002806D03246214628
:108C3000059800F02FFE050009D1B878002823D050
:108C4000059886462088001DB04202D90C2007B046
:108C5000F0BD684679DF0028F9D1218803207246EB
:108C6000505420881921401C80B220801154208843
:108C70007146401C80B2208041186846008803F08D
:108C80005DFA218840182080F878002817D02188C4
:108C900003230A46FB56C91C0598B142D6D80221C7
:108CA000815421880122491C89B2218042542188A3
:108CB000491C89B2218043542088401C2080786858
:108CC000002817D021880023C3560A46C91C0598DE
:108CD000B142BBD80221815421880A22491C89B2A1
:108CE000218042542188491C89B221804354208824
:108CF000401C2080388900280AD00094384601960C
:108D0000062202210830059B03F08DFA05009ED152
:108D1000388A00280AD00094384601960722032199
:108D20001030059B03F07FFA050090D1388B0028A6
:108D30000AD0009438460196152214211830059B5C
:108D400003F071FA050082D1386A002806D0334654
:108D50002246059901F0AAFA0500D8D1786A0028C0
:108D600006D033462246059902F096F80500CED18A
:108D70000298007B002807D03346224638460599E2
:108D800002F00BFF0500C2D13878002807D0334627
:108D900022463846059902F0B3F80500B7D12846B7
:108DA00055E710B501220221002000F0E5FF002860
:108DB00001D0072812D107220221012000F0DCFF98
:108DC000002801D0072809D100210A22084600F016
:108DD000D3FF002801D0072800D1002010BD0000DB
:108DE00030B5A7B0382101A8FFF7DFF902216846A6
:108DF0000171002484710521C17138210FA8FFF78A
:108E0000D4F9012510A885810D48149024211DA8AE
:108E1000FFF7CBF920A8057040202190B4202290C4
:108E2000084B1DAA0FA9009401A800F0B1FA002870
:108E300003D00022114600F05FF827B030BD0000DB
:108E4000362000206DB80100044842680121C905A0
:108E50000B46934383600A40C26070470005005090
:108E600070B50024064D06E06968E000085C012149
:108E700002F004F9641C28788442F5D3002070BD08
:108E80005C210020F8B515460C460646052A01D29D
:108E90000720F8BD02F0C8F9002803D102F09AF9C2
:108EA0000028F6D1104900204E600C70C8608D601B
:108EB00008610E4D0DE0E00069688019009181782D
:108EC0006A46517000780A4A694602F027F900287C
:108ED000DFD12046641EE4B20028ECD1054A00210F
:108EE000024800F041F8F8BD5C21002018C40100E0
:108EF0007DA40100A9A30100BFF34F8F04490348DB
:108F0000C860BFF34F8F00BFFDE700000400FA0503
:108F100000ED00E010B58268C368934203D001F011
:108F200093FA002010BD052010BD002906D0002AAC
:108F300002D0531E134203D0092070470E20704701
:108F40000160838000218160C1600846704710B5D0
:108F50008268C3689A1A83889A4203D801F07EFA1D
:108F6000002010BD042010BD094B9B68002B07D0CA
:108F7000002A07D0002805D00068037C002B03D00E
:108F800008207047072070474174426100207047F5
:108F900070210020FFB59007002581B014460E46D1
:108FA000002832D11B4F002C31D002F03FFD049835
:108FB00078610320387033461821224600204B4345
:108FC000BC601834C10089180D704D708E704C60F3
:108FD0001C19401C0328F5DBFD607D7001240E4840
:108FE000BD702405046003211420FFF70DFB0B481E
:108FF00004600B4C0198A06003211120FFF704FBD3
:1090000060683861002005B0F0BD0720FBE7BD6057
:10901000FBE700007021002080E200E000E100E0BA
:1090200000150140FEB50D461B49174689680446E8
:1090300000292AD0002C28D0052D01D20720FEBD02
:109040006069002821D0607C012820D0002603F030
:10905000ADF8C0001049019089684018694603F0D6
:10906000CFF8002815D0012101700C4944604968EF
:109070000830E2C0084901988968411868460078BC
:10908000487002F00DFF0020FEBD0820FEBD2E46F8
:10909000DDE70420FEBD0000702100200015014026
:1090A000F8B5134D0446A96800291CD0002C1AD02D
:1090B0006069002817D00026267403F077F8C700EF
:1090C000A8686946381803F09BF800280DD00221E3
:1090D00001704460A868391868460078487002F04A
:1090E000DFFE3046F8BD0820F8BD0420F8BD0000C2
:1090F0007021002010B5044609488168C268808844
:10910000511A814207D10121064802F079F900285D
:1091100001D0052010BD21460148FFF7FBFE10BD20
:10912000402800201E21002070B50446224888B047
:109130001E460D0042601CD0A888296882B21F48D4
:10914000FFF7F3FE002815D1A889A96882B21B4851
:109150001030FFF7EAFE00280CD12022184968469B
:10916000FFF70AF8A06806902079002804D00121B2
:1091700003E0072008B070BD00216846017506773E
:109180006079002800D00E2069464875E07802908A
:10919000A078039020780190607800900949684693
:1091A00002F0D6F80028E5D102F084F90248012146
:1091B000801C02F025F9DDE71C210020402800205A
:1091C000C8C3010099C0010010B50446064801213A
:1091D0004470401C02F07AF9112803D1214603485B
:1091E000FFF7B5FE10BD00001C2100205028002014
:1091F000F0B50546007D002493B00E4600280DD042
:10920000012001466846103103940173717B41735C
:10921000817BF92001406846891C81731C2104A8C8
:10922000FEF7C3FF6946087C0221084369460874BB
:109230002A7DEF21002A02D01022104300E00840CE
:109240006A461074059407940894287D002800D07D
:1092500003A8099001270A9410469771304A82802A
:109260000094B27B0270F27B42708078F922104049
:10927000F722801C1040EF21084041084900684651
:109280008170317B017214210BA8FEF78EFF01A8BB
:109290000B9068460C908786C486078702A80F90BB
:1092A000A888AB1D0BAA04A9A2DF002835D1B0689D
:1092B000002830D0684687711A4981800094317C3B
:1092C000017000200146684641708078F92108400D
:1092D000F721801C0840EF210840410849006846FA
:1092E000817011A8B16800F04CFC064614210BA84F
:1092F000FEF75BFF01A80B9068460C908686C4863B
:10930000068711A80F902A46E8880E320BA9A3DF22
:10931000002802D100E0EC81002013B0F0BD000075
:10932000192A000008290000F0B50C4693B01F214F
:109330006A461180072600279180002809D0C1784D
:1093400049070DD502A9FFF721FC002809D102AD7C
:1093500001E000251780002C0ED0E078002802D014
:10936000304613B0F0BD01AA0AA92046FFF70EFC53
:109370000028F6D10AAA02E06846002287806846E3
:109380008088C3B268460088C1B2284672DFE8E729
:1093900070B50D4604991646040042D0002E40D008
:1093A000424800224271C360016124223146404894
:1093B000FEF7E2FE00F0B8F83D49343108461038B7
:1093C00001602031816038215C38FEF7EEFE3848BC
:1093D000217838380170A1788170E178C1706178A6
:1093E00041706269216942610161E268A168C260FD
:1093F00081600146E369A269CB618A61616A0029E3
:1094000019D00146AC310246B83241628A60636AC3
:109410001B880B80616A436A898899800021436AAE
:1094200006E00E2070BD666AB668765C5654491C2C
:109430009E888E42F7D8A16A00291CD01C4AAC3203
:1094400011460C398A608162A36A9B888B80A16A6D
:10945000836A098819800021836A04E0A66AB668D5
:10946000765C5654491C9E888E42F7D82C210A5DA2
:109470000F4918390A73216A002909D00B491431A0
:109480000162226A52884A80216A026A0988118030
:109490006168002904D00549891D41606168416007
:1094A000034829463838FFF73FFF70BD9C20002055
:1094B0003827002010B502881A4C102A17D0002136
:1094C000112A17D0192A11D1807900280ED160797C
:1094D00001281BD002281FD003281FD0042805D143
:1094E0002171E2680846002A00D0904710BD8088AC
:1094F000208110BD6170808821898842F9D10120C6
:1095000005E021690029F4D0884710BD022000F051
:1095100033F80028F5D110BD0320F8E703202071AF
:109520000420F4E79C20002010B507210148FEF735
:109530003CFE10BDB420002010B50D480078012875
:1095400014D10C4C6078002810D16079002802D02A
:1095500074DF00280BD101206070607900F00CF8F6
:10956000002803D02169002900D08847002010BDC1
:10957000382700209C200020F0B5754C87B0607122
:10958000002606A8069602F011FA0127082806D040
:1095900000286FD10698002802D02770D4E00696E4
:1095A000FFF7C2FF6B4D6878002802D06079012870
:1095B00005D0A87800280AD06079022807D1E16890
:1095C000002903D0E7700820884700E0E670607942
:1095D000012808D16878002809D05D48193002F0C8
:1095E000A1F9002803D06079022802D00CE0022003
:1095F0006071A878002805D05548193002F092F91A
:10960000002801D103206071287B002804D16079F3
:10961000032801D104206071287E002804D16079DC
:10962000042801D166712671E16800290AD06079A9
:10963000032801D0042805D12878002802D06078BA
:10964000002818D0A67018216846FEF7AEFD6846BF
:109650000670019606720396607901280FD00228E1
:1096600016D03C4E243637465C3F03281CD00428D5
:109670005ED13BE069E0A77007208847E3E7344804
:10968000183001906846077046820682277152E0C2
:109690002F48183001906846077029894182A988AF
:1096A00001820220207146E0A88A69464882288A01
:1096B00008822848243002F025FE002805D02878AA
:1096C000002802D06078002801D003202FE002207B
:1096D0006946087204200396F8701E480021383845
:1096E000FFF722FE002830D1052020E0A88B694634
:1096F0000882288C48821748243002F003FE002894
:1097000005D02878002802D06078002801D00420F5
:109710000DE002206946087204200396F8700D4897
:1097200000213838FFF700FE00280ED106202071F6
:109730006079002803D0684673DF002805D1E1680E
:10974000002901D020798847002007B0F0BD000033
:109750009C2000203827002038B50D4604001AD080
:10976000002D18D0286820600020C043608228792E
:109770002075FF202074012168468170074901800F
:10978000221D69460120A0DF002803D1294620467A
:10979000FFF72EFD38BD0E2038BD00000F18000069
:1097A00070B5054601461C220E48FEF7E5FC0E4C3E
:1097B000002626702968002906D00822201DFEF701
:1097C000DBFC201D7ADF02E00748001D7BDF00285C
:1097D00007D1401E60806670044A00210448FFF7EC
:1097E000C3FB70BD24280020BC20002049C101001B
:1097F000B4C30100F8B5214C028800271E4DE6894C
:10980000102A15D01E49112A21D0122A2DD0502AF3
:109810001CD1C288801DB24218D1028B022A15D1F8
:10982000C27E837E10021843C007C00F0CD112E025
:109830008188698001461048082216310C30FEF7F5
:109840009BFC6F70002E01D100F07AFDF8BD002066
:10985000C04368806F700868FFF722FC0028F5D0CD
:10986000A1690029F2D08847F8BD811D024808226D
:109870000C30FEF781FCE7E7BC2000202428002004
:10988000B4C3010010B502480068FFF709FC10BD21
:10989000B4C301007CB5054608880C4609309042E7
:1098A00001D90C207CBD684671DF0028FAD12188DF
:1098B0000820685420881B21401C80B22080295435
:1098C000208800A9401C80B2208040190622013166
:1098D000FEF752FC20886946801D80B220800978FE
:1098E000002900D0012129542088401C208000201C
:1098F0007CBD00007FB504460121684681714A495C
:1099000081804A4A01A90120A0DF00287ED1228857
:1099100025463C35002A09D044482B46801C00903F
:109920004348616800F01EFC00287BD12289002A90
:109930000AD03E482B460A3000903D48E168401F5F
:1099400000F010FC00286DD1228A002A0AD0374886
:109950002B461230009036486169001F00F002FC6F
:1099600000285FD1228B002A0AD030482B461A30BB
:1099700000902F48E169801E00F0F4FB002851D1CF
:10998000228C002A0AD029482B46223000902848F1
:10999000616AC01E00F0E6FB002843D1228D002A38
:1099A0000AD022482B462A3000902148E16A401E06
:1099B00000F0D8FB002835D1216B00290ED002A879
:1099C00002F000FA19482B4632300090184808225D
:1099D00002A9801F00F0C6FB002823D1606B00287D
:1099E0000BD012492B463A31009102790168104898
:1099F000401C00F0B7FB002814D1A16B002910D047
:109A000002A801F0B3FF0948423000E00AE00090EC
:109A100007482B46072202A9273000F0A3FB0028A5
:109A200000D1002004B070BD0A180000D020002032
:109A3000292A000010B50446FFF7DCFE214606483F
:109A400000F040F8204601F023FF2046FFF732FDEA
:109A5000204600F0C7F810BD4026002030B5184B56
:109A60000D4604000FCB85B003936B4607C324D08B
:109A7000002D22D00020C043A0822868A0610020D1
:109A8000A0752146684663DF002814D12178684616
:109A9000817401210182A21C04A90120A0DF0028F9
:109AA00009D12946204601F0F9FF002803D12946B3
:109AB000204602F075FA05B030BD0E20FBE700002D
:109AC000B8C3010000281ED000291CD00A88102A23
:109AD00014D0112A14D0502A15D1CA88038A891D9E
:109AE0009A4202D10B8B022B0ED083889A420AD164
:109AF0008369002B07D00A8B1A311847898801E047
:109B00000021C94381827047CA7E8B7E11021943AE
:109B1000C907C90F00D001218175704707B584B00E
:109B200000280DD0828A114B9A420BD0827D002AE8
:109B300008D06A46128B142A06D9072007B000BD48
:109B40000E20FBE70820F9E7002200920192029222
:109B5000039282896B461A80039106A90291012122
:109B60009970808A6946A6DFE8E70000FFFF0000E1
:109B700070B504460D460846FEF722FB208065605E
:109B800070BD0A7802704978417002207047000069
:109B90007CB5134E00250C463060002918D069466C
:109BA000002000F0B5F8002819D101A9012000F02B
:109BB000AFF8002813D1684601790020002901D0B0
:109BC000022004E069460978002900D00B202070AB
:109BD0007068002802D1FFF7E4F8054628467CBDEE
:109BE0009420002010B51C4C0188606810290DD00D
:109BF00011290AD1401E606007D1FFF7D2F8002872
:109C000003D02168002900D0884710BD00281ED14C
:109C100000210122084600F0AFF8002801D00728F3
:109C200011D107220221012000F0A6F8002801D05E
:109C3000072808D104220221002000F09DF8002806
:109C400005D0072803D02168002900D08847606824
:109C5000401C606010BD00009420002010B503205F
:109C600000F008FA002801D0062800D1002010BD1D
:109C7000F8B507460024234802E0641C042C1AD2DD
:109C8000A2008258BA42F8D1042C14D21D481E4EAC
:109C90000C38002929D001290ED002290BD16000EF
:109CA000201880194578002D05D018480169002931
:109CB00001D028468847F8BD61006118755C8E198F
:109CC000717800290CD011490A22496880685143F3
:109CD0000E4A521CFFF7A6F9002801D10B48477025
:109CE0000A48B17814300155DDE78068FFF7D8F9EC
:109CF00006486100611814308919005D8D78A8420A
:109D0000D1D0F8BD84C30100D42600207C200020DF
:109D100004280CD2074A1269074B80001B5C012003
:109D20009840904300D00120087000207047002028
:109D3000FAE700000005005084C3010010B50428B4
:109D400006D0072810D00A2801D101F0EDFF10BD80
:109D500008481321808E76DF08E00028F7D0002223
:109D60001146FFF7C9F810BDFFF7E6FB0828F4D14C
:109D700010BD00000020002070B50023042811D27F
:109D8000440004190D4D012A02D101290DD00022F1
:109D900046008019094E801900290CD0012906D0EF
:109DA000022906D00723184670BD0D30C2B22A55CD
:109DB000F9E74270F7E78270F5E70000D42600204B
:109DC00010B5054A0146127A0020D20702D0084693
:109DD00000F054F810BD00007C20002070B50E4645
:109DE000204905464E608D6000200A61A9071ED5F6
:109DF0000024012211462046FFF7BEFF641C042CFC
:109E000002D20028F5D012E0002810D172080421F7
:109E10001548FFF737F8002809D1FFF721F8002887
:109E200005D11148114A00211438FFF79DF8E907C0
:109E300006D00F220E4952058A600023CB608A614A
:109E400000280DD108480B4A00211C38FFF78CF878
:109E5000002805D10448084A01211838FFF784F882
:109E600070BD00007C20002094C30100B1A001005F
:109E700000050050E5AA0100498E0100FEB57A4DAB
:109E80000722EB6892059A4302936B6800939C004B
:109E900006461B1900200121019349050746734C12
:109EA0003300FEF7BFFD180D1515374755677C8841
:109EB0007F8891DE9E9E9E9E9EC8CED1D8DEDE1407
:109EC0000F21029A49059143A160E7602F70FEBD02
:109ED000A260E76060680F2252055040800209D5F9
:109EE000A160E760022E02D1E120C0000AE07D20DF
:109EF000400107E0E160A760022E01D1C82001E027
:109F0000FF2091302E706421FEF720F90099414323
:109F100000223FE0A260E76060680F2252055040D7
:109F2000800204D5A160E76019204001EAE7E16002
:109F3000A760E3E7A260E76060680F225205504027
:109F4000800202D5A160E760D1E7E160A760D7E7B2
:109F5000A260E76060680F2252055040800202D57F
:109F6000A160E76001E0E160A7602E700098410009
:109F700000220FE0A260E76060680F2252055040A7
:109F8000800202D5A160E76001E0E160A7602E7069
:109F90000099002236480068FFF744F8FEBDA26031
:109FA000E7601BE061680120800502468A43A260E9
:109FB0000140E16010E06068012189050A468243A2
:109FC000A2600840E060E3E76068012189050A4675
:109FD0008243A2600840E0600199C9E7E160A760A0
:109FE0002DE023484068FFF75BF811218A1B01D060
:109FF000002807D00F22E96852051140A160E760F0
:10A00000EF60FEBD0121C905E960012A0CD91046A7
:10A01000C82148436421FEF799F86968002241434A
:10A0200013484068FEF7FEFF0F22E9685205114011
:10A03000E160A760FEBD0F214905A160E7602E70B9
:10A04000FEBD07229205AAE70D214905A160E76040
:10A0500001218905C2E70321C905A160E7608910D4
:10A06000BCE70F214905B9E77C200020000500501E
:10A0700078C30100F0B500210B4C0C4D03273F04C1
:10A080008A00A25892005619326801238B4003407F
:10A0900000D00323BA431B0413433360491C042933
:10A0A000EED30020F0BD000084C301000007005083
:10A0B00010B500780221FFF7DBFD10BDF8B50C46A6
:10A0C0001E4615460C21069FFEF740F80801401A6F
:10A0D000A1084018308014212846FEF737F86100A7
:10A0E0006118401838806800291807980180F8BD69
:10A0F0000022D243830004490428CA5002D308181E
:10A10000203002777047000060280020F0B500255D
:10A11000ED43002A02D00023042601E00423082690
:10A120000B4C04E09F00E7597F1C04D05B1CB3423A
:10A13000F8D32846F0BD26185DB2203635709E0053
:10A14000A151002AF5D1E11820310877F1E700008C
:10A150006028002002490918202008567047000096
:10A1600060280020FFB58FB01E4615460F0004D1B1
:10A17000002211461046FEF7BFFE002D04D100223A
:10A1800011461046FEF7B8FE1C216846FEF70DF892
:10A19000684601780220014368460170002401945A
:10A1A000039404940594012108A8069481706846DC
:10A1B0000F99018407943178017771784177807F16
:10A1C000F9210840F721801C0840EF210840410890
:10A1D000490068468177142109A8FDF7E6FF08A821
:10A1E000099007A80A9068468585C48505860448B5
:10A1F0000D9709AA69460088189BA2DF13B0F0BD2D
:10A20000D0200020F8B52348C16800293ED00E6850
:10A2100021494C680769C078E11B0D022D0AED1C2D
:10A22000002814D101201D4A000450601B4A403A06
:10A2300050601B49400008601A4908601A49012013
:10A2400008602F20FDF756FF12490120C870B54263
:10A2500000D23546E81900020F4B000A403318605F
:10A260000D4A5168001B091B0902090A0002000A75
:10A27000C91C814209D9506818602F20FDF73AFFA8
:10A2800001200749400480390860F8BD01F0CEFB89
:10A29000F8BD00007021002000150140401301406E
:10A2A00080E200E000E100E000100140F8B5064661
:10A2B000108814468446801D0D46984201D90C2012
:10A2C000F8BD32880720062AFAD31927FF01184B58
:10A2D000BA4201D99A42F3D171880629F0D3B94222
:10A2E00001D99942ECD19A4203D0994201D08A42D5
:10A2F000E6D805216046295420881221401C80B2EE
:10A30000208029542088401C80B220804119308848
:10A3100001F014FF2188401880B220804119708814
:10A3200001F00CFF2188401820800020F8BD0000BB
:10A33000FFFF000010B500221146FEF7DDFD10BD45
:10A34000F8B5164800F072FB144D00260C3D144C75
:10A35000002807D0616900291CD001206A461070CE
:10A36000684616E02878002805D06169002911D0D8
:10A37000684606700DE0687800280DD0A16809488D
:10A3800000220068FEF74EFE002803D0A1690029D4
:10A3900000D088472E70F8BD6168F0E7C820002023
:10A3A00024280020B4C30100F8B500260124154D6F
:10A3B00023E06968F0004718387821462A6981400F
:10A3C000114218D08A432A6100F0FAFE3A782146F9
:10A3D000EB68914019400346934099420BD179783C
:10A3E000012901D0012100E000217B684140002BC0
:10A3F00001D010469847761CF6B228788642D8D30A
:10A40000F8BD00005C21002010B50E4900234A78F9
:10A410008C78A24212D0521CD2B24A70022A00D1C9
:10A420004B704A78074B920018339A5802600869BB
:10A4300010180002000A0861012010BD036000200E
:10A4400010BD000070210020826883881A400368D4
:10A450009A5C0A708168491C81607047C268838871
:10A460001A4003689954C168491CC160704710B50F
:10A470000446C0B2FEF7A8FE204610BDF8B5074658
:10A48000104E0125BD403068FEF70AFE00280DD1B0
:10A490000D4C2069284207D1384600F091FE002873
:10A4A000E06804D0284303E0A8432061F8BDA84336
:10A4B000E0602069002228432061A1683068FEF72F
:10A4C000B1FDF8BD18C401005C210020FEB5F74EB7
:10A4D00026223346777B242022219A5E185E595E1D
:10A4E000012500243B00FEF79DFA0B072B2A2A2AA0
:10A4F0008AF02AEFEEED2A00707901280AD1EB49A3
:10A500000B3108461930FEF733F8F07A002801D0F5
:10A510007471F472B07901280AD1E4490A3108460D
:10A520001C30FDF72BFFB07A002801D0B471B47253
:10A53000B0797179084302D1DD4800F07DFEFEBD9F
:10A54000B17B0B00FEF76EFA050509214C510400A2
:10A55000F5E7B472F4723473B573D649CA79D44945
:10A560001031895C81420FD0D0490B310846193037
:10A57000FDF7FEFFF07A002807D0F4722420305E49
:10A58000B42802DBB48400E0F472CA4D287AC84FC4
:10A590002621083F385C715E88420FD0C3490A31DA
:10A5A00008461C30FDF7EAFEB07A002807D0B472E6
:10A5B0002620305EB42802DBF48400E0B472E9792E
:10A5C000BB481030405C2421715E8842B7D1287AA4
:10A5D0002621385C715E8842B1D10320B073FEBD84
:10A5E000B5484068B0640420F8E7B3484068B16CEF
:10A5F000401A2828F3D9B47308207073FEBDAB4805
:10A60000B77C0278017940783B00FEF70BFA080628
:10A6100008142B374E5F7705F0E7B574FEBDA349EC
:10A620000B3108461930FDF7A3FF30780028F5D02C
:10A630003470022044E0002A02D03470357106E004
:10A64000002802D074700320B0740129E6D1974924
:10A650000B3108461930FDF78BFFF07A0028DDD06A
:10A66000F47249E091490A3108461C30FDF786FE34
:10A6700030780028D2D03470042021E0002A02D0A3
:10A680003470357106E0002802D074700520B07473
:10A690000129C3D185490A3108461C30FDF76EFEF9
:10A6A000B07A0028BAD0B47226E080490C3108464E
:10A6B0001630FEF779F830780128AFD134700620D3
:10A6C000B074FEBD1CE1FCE06CE026E0002A02D084
:10A6D0003470357106E0002802D074700720B07421
:10A6E0000129EED171490C3108461630FEF75CF8AD
:10A6F000307B0028E5D034733471E2E73470747035
:10A700007484B484F48434857485B485F485B47415
:10A71000082070737475B473D3E7F37C002B79D081
:10A72000012B10D0022B26D0032BCAD1F47403E7DF
:10A73000B4722620305EB4286DDAF08C0028C0D1C7
:10A74000B472F574BDE7002812D058490B310846A1
:10A750001930FDF70DFFF07A002806D0F47224209E
:10A76000305EB42801DBB48402E0B08C0028A8D1AC
:10A77000F472022014E0002910D04C490C31084634
:10A780001630FEF711F8307B002804D034732220F5
:10A79000305EB4287EDA708C002892D134730320A6
:10A7A000F0748EE7707D0300FEF73CF905051E3757
:10A7B0004E88040085E740484068316CC008401866
:10A7C000F063FDF753FF39491C31881C009039486C
:10A7D0000191827841780078344B2033FFF76EFC8A
:10A7E000B472F4723473757526202021305E715E68
:10A7F000884211D02D490A3108461C30FDF7BEFDB4
:10A80000B07A002809D0B4722620305EB42804DB68
:10A81000F48402E063E06FE0B47224201E21305E15
:10A82000715E88420FD021490B3108461930FDF77F
:10A830009FFEF07A002807D0F4722420305EB428FE
:10A8400002DBB48400E0F47222203021305E715EBD
:10A8500088420FD015490C3108461630FDF7A4FF89
:10A86000307B00280BD034732220305EB42806DB06
:10A87000748404E01C21715E884200D13473262068
:10A880002021305E715E88428BD124201E21305EF3
:10A89000715E00E032E088428CD122203021305EAF
:10A8A000715E884286D1042070750AE7002000207E
:10A8B0001CC30100882600200015014074737475C4
:10A8C0003AE6B37D002B0AD0012B00D13BE7022BE7
:10A8D00000D150E7032BE8D17473B4752CE6002A3D
:10A8E00000D12DE7304908461C30FDF747FDB07A0E
:10A8F000002800D121E71BE7F48421E774844AE7AC
:10A90000F37D002B09D0012B1ED0022B34D0032B5A
:10A91000CBD108207073F4750EE6002A11D02249BD
:10A9200008461C30FDF72AFDB07A002806D0B47224
:10A930002620305EB42801DBF48402E0F08C00288D
:10A94000B3D1B472F575BCE6002812D01649491C83
:10A9500008461930FDF70CFEF07A002806D0F47294
:10A960002420305EB42801DBB48402E0B08C0028DF
:10A970009BD1F472022015E0002911D00A49891CEC
:10A9800008461630FDF710FF307B002805D03473E1
:10A990002220305EB42800DB7484708C002884D1BF
:10A9A00034730320F0758CE60A200020F8B51E4CA5
:10A9B0002078002837D02069002807D00026E068DA
:10A9C000002805D00025002E04D013E00126F6E76C
:10A9D0000125F8E7684651DF052806D0002806D093
:10A9E00000221146FEF788FA04E0012602E0216900
:10A9F00000988847002D12D1608869460880A068B9
:10AA000061DF052806D0002806D000221146FEF797
:10AA100073FA04E0012502E0E168A0688847002E8F
:10AA2000D8D0002DCFD0F8BD942100204188054812
:10AA30000288914204D34088814201D801207047A6
:10AA400000207047C02000201048018CC9B20129A5
:10AA500017D1818C090714D1018D09060A0F03D182
:10AA6000828D1206120F0ED0090F012903D1828D9B
:10AA70001206120F07D0032903D1808D0006000FA4
:10AA800001D000207047012070470000C00F00F087
:10AA900030B51588EC1C9C4201D90C2030BD022435
:10AAA0004C5513881C255B1C9BB21380CD54138816
:10AAB0005B1C9BB21380012807D0022807D0032813
:10AAC00007D0042807D0072030BD002004E0012073
:10AAD00002E0CC5401E00320C8541088401C1080D0
:10AAE000002030BD10B50448017AC90702D00078B3
:10AAF000FFF7C4F910BD00007C200020F8B52C49F8
:10AB0000C8680A690C780F7989688646944600916E
:10AB10003EE00099E20055182A7836E018235343A6
:10AB20006968521CC918AB78D2B2934200D1002296
:10AB30000B78022B02D0032B27D123E04E6803466B
:10AB4000014603E0B14204D00B46C96900291CD07C
:10AB5000F8E7002919D08B4208D1C069002805D137
:10AB6000144F0126BE600026B44601270E68C9694D
:10AB7000D961002909D00B689B190B6005E00174AD
:10AB8000C06900E000210028F9D169789142C5D15F
:10AB90002146641EE4B20029BBD1054962460A6120
:10ABA000C8600F71704501D00120F8BD0020F8BDCC
:10ABB0007021002000100140F8B5044631480026FD
:10ABC000C168009107784EE02E48F90080680D18A2
:10ABD00043E0002C02D02046E4691FE028781821C9
:10ABE00041436A68401CC0B251182870AA7890424C
:10ABF00000D12E700A784868012A30D1027C002AE0
:10AC00002DD18A684260CA6882600A69C260496957
:10AC100081611C490979002900D0466019494368BF
:10AC20000A699C46991A0902174B090A994202D2ED
:10AC30008268891807E06146511A09028268090A88
:10AC40008A4202D9511A016000E006604660012183
:10AC500086600174C66101F02BF9002CB9D1287807
:10AC600069788842BAD138467F1EFFB20028ABD13E
:10AC70000448C1680098814201D00120F8BD00203D
:10AC8000F8BD000070210020FFFF7F008CB06EA295
:10AC900007CA04920391029000236E4A06210A20FB
:10ACA000FEF778F9002803D000221146FEF724F9B8
:10ACB000694A09AB07CA07C3FF21013167480590FC
:10ACC00040180691089107900323654A05A909A831
:10ACD000FEF72AFA002803D000221146FEF70CF9ED
:10ACE000FF21604A2B310320FFF778F8002803D0BA
:10ACF00000221146FEF700F969460020FEF748FFE2
:10AD0000002803D000221146FEF7F6F868460078C6
:10AD100002287CD00020694608715049002348224F
:10AD20005C39082001F02AF8002803D000221146DF
:10AD3000FEF7E2F80024009468460194047060DF96
:10AD4000002803D000221146FEF7D6F8464801F04D
:10AD50000BF8002803D000221146FEF7CDF8112091
:10AD6000694608760A2241A106A87CDF002803D0A4
:10AD700000221146FEF7C0F80094102168460194A5
:10AD800001803C214180FF2184809131C1807ADFA4
:10AD9000002803D000221146FEF7AEF800F044FF71
:10ADA000FEF71EF81C2105A8FDF7FFF932480690B2
:10ADB000324807900594032108A80170684644842E
:10ADC00008A804712E480A902E480B9005A8FEF79B
:10ADD000E7FC002803D000221146FEF78DF8FDF7AE
:10ADE000A7FE2949012008607D20C00000F008F975
:10ADF00002A926A0FDF706FE1748254A0021303893
:10AE000000F02EFA002805D00022114600E011E0E3
:10AE1000FEF772F810481F4A0021283800F020FA87
:10AE2000002803D000221146FEF766F80320FEF743
:10AE3000A3FB02E001206EE748DF0028FCD00022DF
:10AE40001146FEF759F8F7E753746172742E2E2EEF
:10AE50000A000000082400204CC301000822002042
:10AE600041C001003D9D0100359A010043542D3041
:10AE700030335630303100002F3A0000175D0100AA
:10AE800001B9010035A301000070004025730000E6
:10AE9000CDA401003184010070B5144682880E46AD
:10AEA00005462088111D4118921C994201D8FE2A9E
:10AEB00001D90C2070BD521C32542088FF21401C47
:10AEC00080B2208031542088401C80B220808119BB
:10AED000288801F033F92188401880B22080AA88A0
:10AEE000002A09D0A968002908D08019FDF744F983
:10AEF0002088A98840182080002070BD072070BDE0
:10AF0000F8B50F46017814460546012902D1687844
:10AF1000002806D02088821C9A422DD8012902D010
:10AF200006E00720F8BD69784118891C994223D8AA
:10AF3000181A801E86B2684606802188B81C081838
:10AF400069467DDF0028EDD12878022805D16946C1
:10AF50000988B14201D809210AE00821012805D158
:10AF60006878B04202D86A46108001E068460680E0
:10AF700068460088FE2801D90C20F8BD2288401CB4
:10AF8000B8542088401C80B22080395420886946FB
:10AF9000401C20800988401820800020F8BD000057
:10AFA00010B501788A074178920F4907C90E4068A9
:10AFB00011438207540E0C438103890F03D00321F0
:10AFC000090408400443002000F00AF803494868D7
:10AFD000FF22120210402043486010BD007500405F
:10AFE00010B5064902024B68FF242402A3431A430A
:10AFF0004A60002800D00120086010BD00750040A4
:10B0000031B5054C04E0401E00902046FDF762F883
:10B0100000980028F7D138BDE70300008207D30E5F
:10B02000FF229A408907090E10B5994000280BDAD3
:10B0300003071B0F083B9C080C4BA400E318DC69BA
:10B0400094430C43DC6107E08408094BA400E41836
:10B05000236893430B432360C106C90E0120884037
:10B06000044908600449086010BD000000ED00E0DC
:10B0700000E400E080E200E000E100E0F3B581B030
:10B080000F46019800F05AFC012400281E4E01983A
:10B0900017D0FFF75FF880192030007F8009032860
:10B0A00002D0012806D007E01848006901998C40B9
:10B0B000204201D1022100E00321019800F084FA2E
:10B0C000FEBD00F047FC0028FAD00198FFF742F8D7
:10B0D00005468100C81D0E4AF93089180A6980B2F8
:10B0E00022430A610B49401800210160002FE7D07C
:10B0F0000198FFF72FF8800030580028E0D006486C
:10B10000AC404460FEBD00006028002000050050F7
:10B11000006500400060004000630040FEB504464A
:10B1200023480E460019202141560027C817134610
:10B13000401C01D0082738E0F27819462046FEF777
:10B14000E5FF0546401C2FD0B078002807D01948ED
:10B15000A1000918086802229043086007E0002156
:10B160007378204600910A46019100F0F5F9F078D5
:10B17000002810D01048AA001018317802690F4B2F
:10B180001A400261E206D20C8907890B0A43016961
:10B190000A43026109E00648327840192030017FF5
:10B1A00092011143017700E004273846FEBD0000FC
:10B1B000602800200007005000650040FFE0FCFF11
:10B1C00003490969C140C807C00F00D0012070477A
:10B1D0000005005070B5124D2879002801D00820D4
:10B1E00070BD0F4900204039421E0B182033401C0F
:10B1F000C0B21A702028F8D300242046FEF778FF4A
:10B20000641CE4B2082CF8D303210620FFF706FFE4
:10B2100001200449C007486001202871002070BD4A
:10B22000A02800200063004002480079002800D0D8
:10B2300001207047A0280020026801211161407997
:10B24000014A115470470000482100200168012282
:10B250000A604079014A02211154704748210020B8
:10B26000F8B504464079254F0D46395C164600294D
:10B2700001D00820F8BD002D02D12149C000451899
:10B2800020492068884236D00420E9782056FFF70C
:10B29000C5FE6179194A89000C3268685050002E49
:10B2A00029D060791146800008390E5005202268A7
:10B2B0000002121869785368C9075B085B00C90F60
:10B2C0000B4353602168AA7809188B6892079B0882
:10B2D0009B00920F13438B6021682A78081801693C
:10B2E000120709090901120F114301616179012057
:10B2F00078540020F8BD0720F8BD00004821002048
:10B3000008C4010000800040F8B500250E46044640
:10B310002F46A800FF30413080B22158002910D0BC
:10B3200001210904A94003221202A21852680A420C
:10B3300007D02750B2000549044B8958083B9A585A
:10B3400090476D1C042DE4D3F8BD0000542100206B
:10B35000F3B50446244881B0807D002801D0082040
:10B36000FEBD002C00D1214C206800F022F920788D
:10B37000012739461E4E8140B1600021606800F00F
:10B380000FF91C4DA0696862607D217D0843E86665
:10B3900003CCE8606961207B083C01280ED10021C4
:10B3A000A06800F0FDF8E06800F003F9207B394662
:10B3B0008140B160E168A068A96028610A4E0298E6
:10B3C000706021693160002806D00C4A217F0A484C
:10B3D00050600220FFF722FE042028600020F07455
:10B3E000B074B7757075FEBDA8280020E8C30100D1
:10B3F00000050050002500408000020000230040AE
:10B40000F8B5294DEA7C002A01D01120F8BDE97475
:10B41000E86000202875687D002801D100F09EFBBF
:10B420006868224C002805D08120214980004860AE
:10B430000020F8BDFF212531204600F0F7F8054631
:10B44000FF210931204600F0F1F80746FF21453180
:10B45000204600F0EBF80646394631432943E9D04F
:10B460002846304306D100F003FB0F48C17C007D25
:10B470008142DFD8FF21453100206050FF21253176
:10B4800060500949002DC87401D00320F8BD002E7A
:10B4900001D00F20F8BD497D0120002901D0206096
:10B4A000C6E76060C4E70000A82800200020004034
:10B4B0000023004010B5044C607D002803D100F04B
:10B4C0004DFB0120607510BDA8280020F8B5204C68
:10B4D0000026A27C002A01D01120F8BDA174A06032
:10B4E000002020821B4DFF271D37E8510120A86056
:10B4F00000F040FD6168002911D024E0FF270137EA
:10B500002946144800F092F8002802D1208AB84257
:10B51000F6D1208AB84203D000F02CFD00E03D4671
:10B52000A07C218A8842E9D8218AC81FF9380CD02A
:10B53000084F2946384600F079F80028F9D0012054
:10B54000F8600020A0743046F8BD0F26F9E700002F
:10B55000A82800200020004030B552000A4399007E
:10B56000039C0A432102049D0A4329040A43024919
:10B5700080004018026030BD0007005030B5520016
:10B580000A439900039C0A432102049D0A432904AB
:10B590000A43024980004018026030BD0007005095
:10B5A0001CB500220B46009211460192FFF7E6FF00
:10B5B0001CBD1CB5002100910B46012201911146D2
:10B5C000FFF7DCFF1CBD000082000648101802686F
:10B5D00003231B049A430260026809040A430260C1
:10B5E0007047000000070050012181400148C16000
:10B5F0007047000000050050012181400148C160F2
:10B600007047000000050050012181400148816021
:10B6100070470000000500500349401800680128E9
:10B6200000D0002070470000006000404058002813
:10B6300000D00120704703221202801840680840A1
:10B6400000D0012070470000FEB516460C460025CC
:10B6500005E0605DFDF7B8FD0028FAD16D1CB5422C
:10B66000F7D321780020482900D00120617859299A
:10B6700000D00120A178072900D00120F1B2611883
:10B6800020398A7F0192C97F00288C4602D0072288
:10B690006F4982E0002122796F4602AD0B460846D1
:10B6A000121D07E02618B6787118C9B25B18401C45
:10B6B000DBB2C0B29042F5D339702B703978019863
:10B6C00081426ED1634E624D3B7A07210420193DC1
:10B6D000321D6345317012D1E37806210527122B04
:10B6E0005FD014DC1C462300FDF79CF91042A0A09B
:10B6F000A0A05CA0A075895B94965BA0A05B0F21C5
:10B7000071706872531E02215148921E9CE0202BDA
:10B7100074D009DC1C46133C2300FDF783F9078A2B
:10B720008787878787874200E02B7FD039DC212BF2
:10B730007CD0812B7AD0DF2B33D1FF2045DF00284E
:10B7400003D000221146FDF7D7FB207844DF002804
:10B7500003D000221146FDF7CFFB00F03BF9BFF309
:10B760004F8F3E493C48C860BFF34F8F00BFFDE795
:10B7700000207070364A1420002133326872031F93
:10B7800004E0545C7718491CBC70C9B29942F8DBDC
:10B7900032182EE0521E57E02E492E481430FEF784
:10B7A000BDF9FEBD77700920294F00246872433728
:10B7B00004E0385D3119641C8870E4B224484330D9
:10B7C000FCF7FEFCA042F4D8687A02213218204827
:10B7D000931E4330DEE7082070700E21697200204E
:10B7E0001FA2125C3318401CC0B29A700A28F7D30B
:10B7F00072181748931E02213330CBE716E07170A0
:10B8000068721348931E02213330521E00F0B4F9BF
:10B810000822C1E76A7ABFE700202A7A01E0401CCB
:10B82000C0B29042FBD30B491439B6E7717068720D
:10B83000DFE7132070705020B070064A0448D31C14
:10B840006F7202213330121D00F096F9E2E700001A
:10B85000192000202C2600200400FA0500ED00E04D
:10B8600043542D30303356303031000010B50028AD
:10B870000BD0032808D10220FEF7A2FA002803D03B
:10B8800000221146FDF738FB10BD00F04DFA10BD47
:10B8900070B50188194C0546102912D011291BD00A
:10B8A0002046808E132924D0522909D100231A461C
:10B8B0001946A9DF002803D000221146FDF71CFB22
:10B8C00070BD0720FEF77CFA002803D00022114645
:10B8D000FDF712FBA8880AE00020FEF771FA0028A5
:10B8E00003D000221146FDF707FB0020C043A086CD
:10B8F00070BD00231A4685217FDFDBE70020002092
:10B9000010B50078002809D105483B21808E76DFEC
:10B91000002803D000221146FDF7EEFA10BD00000A
:10B92000002000200021425C002A01D00120704745
:10B93000491C0629F7D30020704700000449081865
:10B9400020214156042901DB012070470020704767
:10B95000602800200449081820214156042901D2FA
:10B9600001207047002070476028002070B50D004E
:10B97000044604D1002211461046FDF7BDFA002C02
:10B9800004D1002211461046FDF7B6FA287820703F
:10B9900069886170090AA170A988E170090A21719A
:10B9A000E8886071000AA07170BD0000074909793C
:10B9B000490701D408207047002804D00449497879
:10B9C0000160002070470E207047000024210020F5
:10B9D000C028002010B514481321808E76DF00287F
:10B9E00003D000221146FDF787FAFDF74BFF002830
:10B9F00003D000221146FDF77FFA74DF16202FDFF7
:10BA0000002803D000221146FDF776FA00F0CEF9A7
:10BA1000002803D000221146FDF76EFA7D20C000F9
:10BA2000FFF7EEFA10BD00000020002070B50124E1
:10BA30000B49600408600B4940108860094940398F
:10BA40008860094D6C602F20FCF754FBAC60074DFB
:10BA500000242F202C61FCF74DFBEC7070BD000022
:10BA600080E100E0401301400010014070210020FF
:10BA7000FF210748093100224250064881690648E3
:10BA8000037DC268D154017D491C017570470000D7
:10BA90000020004000250040A828002070B50024A8
:10BAA0000546601C90B00007000F08A910300894EC
:10BAB0000870601C0007000F103048708878F92665
:10BAC0003040801C88701C2101A8FCF76EFB694681
:10BAD00008791021084369460871029408A8049463
:10BAE000059407940690287808A988710320694670
:10BAF000888411200094087048708878F7213040BD
:10BB0000801C0840EF2108400126304369468870B8
:10BB100014210AA8FCF749FB09A80A9068460B9073
:10BB200069460E8614204C8688862B4668880C331E
:10BB30000AAA01A9A2DF10B070BD00001FB5012242
:10BB400069460A7008720448C16801910021C174F5
:10BB500006C8684690471FBDA8280020FF22054858
:10BB6000253200218150FF220932815001210160DC
:10BB70007047000000200040F0B500252E462C46FE
:10BB800006E0075D7D19EDB27619641CF6B2E4B2E9
:10BB90008C42F6D315701E70F0BDFFB50746806A63
:10BBA00081B0144600283DD0002538462030009052
:10BBB00033E00C20B96A68430E18B088801CFE2858
:10BBC00002D90C2005B0F0BD22880299401C88548F
:10BBD00020881622401C80B2208002990A542088B6
:10BBE000401C80B2208002994118308800F0A6FAEB
:10BBF0002188401880B22080B288002A0AD0B1681B
:10BC000000290FD0029BC018FCF7B6FA2088B18833
:10BC1000401820806D1C0098EDB2007BA842C8D867
:10BC20000020CFE70720CDE710B592B02E48109046
:10BC3000002410A92D48FDF711FF002803D0002291
:10BC40001146FDF759F9294814213430FCF7ADFAB3
:10BC5000264811213430417381730021C173491C7E
:10BC60000907090F103101740121046001713221AB
:10BC70008460017301461838FDF76EFD002803D07B
:10BC800000221146FDF738F940216846FCF78DFA8D
:10BC900017A16846FDF76CFF18A106A8FDF768FF1D
:10BCA000184908A8FDF764FF17A10AA8FDF760FF6F
:10BCB00017A104A8FDF75CFF18A102A8FDF758FF23
:10BCC0000120014608A8103101770020014608A88C
:10BCD00041776846FDF70EFE002803D0002211468A
:10BCE000FDF70AF912B010BD49B601004026002048
:10BCF0004379696E737465696E00000056302E33A7
:10BD0000300000005C20002056302E313000000052
:10BD100031323334353637383930000043542D3022
:10BD200030332F303034000010B50020FEF748F8D3
:10BD3000002803D000221146FDF7DEF8FDF78EFF44
:10BD4000002803D000221146FDF7D6F83CDF00287A
:10BD500003D000221146FDF7CFF810BD10B50846FC
:10BD60001146C046C04610BD002803D00249C86035
:10BD7000002070470E2070479421002070B50029E4
:10BD800001D08C0701D0072070BD064C0125A160B1
:10BD900062800549636010DF0028F5D12570162008
:10BDA0002EDF70BD942100205DBD010011DF002851
:10BDB00001D0012100E00021014A1170704700000C
:10BDC0009421002070B50C00054604D100221146D4
:10BDD0001046FDF791F8002D04D1002211461046BF
:10BDE000FDF78AF8207828702088FF210902084092
:10BDF000000A6870206809020840000CA8702068DA
:10BE0000000EE87020792871207A68712089000A74
:10BE1000A871A068000CE87170BD0000FEB51F4C51
:10BE200000252769E06802906846FEF7EDFA019068
:10BE3000FEF764FE06460198002822D000230098F1
:10BE4000E16817E00E680A46864202D9301A086097
:10BE500012E0801BF31800261660D668D169B4463C
:10BE6000002E07D0FE183602360A566066469660E7
:10BE7000D56115460029E5D12846E160FEF79CFE14
:10BE800006E02846FEF798FE002801D1002E02D0D9
:10BE90000298FEF7B7F900202071FEBD7021002046
:10BEA00001200249000508607047000000E200E040
:10BEB00010B50E4BD968002906D002680C68A24262
:10BEC00004D8A21A0A60C161D86010BD0B4604E014
:10BED0000B46C969121B002904D00C689442F7D3A1
:10BEE000A41A0C600260C161D86110BD70210020ED
:10BEF000F8B51E4DEC68002C36D01D480027406870
:10BF00002969401A0602360A2068B0421AD8361A41
:10BF1000C7192246107CE469002811D00020107453
:10BF20006B69002B09D0916950699847002807D0A8
:10BF300000221146FCF7E0FF02E051699069884752
:10BF4000002CE1D16978A878814206D1401CC0B2AA
:10BF5000A870022801D10020A87004490006800DB5
:10BF600018310F50FFF79CFFF8BD00007021002032
:10BF700000150140FF2107481D31002242500648AC
:10BF8000028A8168895C028A521C02820348C1616C
:10BF90007047000000200040A82800200025004035
:10BFA00070B58EB005461C216846FCF7FEF8694660
:10BFB00008780C2108436946087000240194039412
:10BFC000049405940694287808A98870022069468C
:10BFD0000884601C0007000F1030079408771120B8
:10BFE0004877887FF9210840F721801C0840EF211D
:10BFF00008400126304369468877142109A8FCF7D8
:10C00000D4F808A8099007A80A9069468E851420DC
:10C01000CC85088668882B1D09AAA2DF0EB070BDEA
:10C020001FB500216A46117010720448826801929F
:10C03000817406C8684690471FBD0000A8280020EC
:10C0400070B50178002909D0012901D0022904D155
:10C05000002240681146FCF74FFF70BD0C4C0B4DA1
:10C06000E0792818FDF746F8E079401CC2B2A8181C
:10C07000E2712038C07F0A2801D0142AEDD3034989
:10C080000448FDF74BFD0020E07170BDF421002055
:10C0900000200020402600207CB50178254D012994
:10C0A0000AD002292FD000292CD129462248FCF79A
:10C0B00031FF00282ED031E0406801781E4810384A
:10C0C000FCF745FF1C4C103C002805D001216A46B6
:10C0D00011700190684608E0A068E168081A01281C
:10C0E00005D1002069460870684669688847A068DD
:10C0F000E168081AA188884204D80E480121801CF2
:10C10000FFF77EF97CBD02216A461170C06801907C
:10C1100068460CE001210748FFF7D8F90648816816
:10C12000C0688842EED10320694608706846696895
:10C1300088477CBD1C210020502800200870000A80
:10C14000487002207047000038B51549154A4888E4
:10C1500090420FD04A78144C521CD2B24A70237BC2
:10C16000934208D3091D75DF002803D0A169002977
:10C1700000D0884738BD00254D70217C002907D0AC
:10C180003B2176DF002803D0A169002900D0884731
:10C1900061690029EED068460570884738BD000007
:10C1A000BC200020FFFF000024280020124948681E
:10C1B000C005C00D19D0103840B2002807DA0207B8
:10C1C000120F083A920892005118C96904E08108D8
:10C1D0000A4A8900891809688007C00EC14008060C
:10C1E000800F012803D0032803D0022070470020CD
:10C1F000704701207047000000ED00E000E400E01F
:10C2000042788378521CD2B2934200D10022037844
:10C21000934201D1002070470A704168407818228B
:10C22000504308187047FFB583B016460C9D0D9C0F
:10C230001F46022200950194039800F00CF8002894
:10C2400007D13B461022314600950194039800F037
:10C2500002F807B0F0BDFFB583B0074600200C9C84
:10C260008646268805463AE07868A9004218118873
:10C27000684681805188C1800022694601A865DF37
:10C28000002839D1684601780598814226D1704648
:10C29000002801D0002200E00222208889184218DC
:10C2A0000D998A4227D8714600290AD1401C80B2D4
:10C2B0002080069A049911542088401C2080012077
:10C2C0008646218806980A18694601A865DF002875
:10C2D00012D1694620880978401820806D1C388862
:10C2E000A842C1DC704600280AD02088801B401E6E
:10C2F00080B2FF2802D90C2007B0F0BD06998855FE
:10C300000020F9E70179002902D1007B002800D044
:10C3100001207047001A344D69819B000090004055
:10C320000900000000A000400A01000000060B11F7
:10C33000151A1F242A30363C41484E545A60666C08
:10C3400072787E848A90969DA2A8AF000B09080A95
:10C350000100000000509D000201000000000000EC
:10C360000003030601040602050003051F1C1F1E2F
:10C370001F1E1F1F1E1F1E1F94260020B4260020F4
:10C38000E026002011000000120000001300000051
:10C390001400000011000300719C01001200030052
:10C3A000719C010013000300719C01001400030044
:10C3B000719C0100042800209ECADC240EE5A9E03F
:10C3C00093F3A3B50000406E090000000B000000CD
:10C3D0000A0000000800000000000000000000004B
:10C3E00000509D0003000000090000000B00000049
:10C3F0000A0000000800000000000000000000002B
:10C4000000509D0003000000000000030000000039
:10C410000000000300000000982900200300000035
:10C4200040C4010000200020AC010000F4810100A4
:10C4300068C40100AC2100200C1000004E8A0100ED
:10C4400001190319070F14FFFF010213027F435460
:10C4500030303330011D3153542D111A560A013E2C
:08C4600003FFFFFF411324F468
:04000005000180C1B5
:00000001FF
