:020000040001F9
:10800000002F0020158101002F8101003181010026
:108010000000000000000000000000000000000060
:10802000000000000000000000000000338101009B
:1080300000000000000000003581010037810100D0
:108040003981010039810100398101003981010044
:1080500039810100000000003981010039810100EF
:108060003981010039810100398101003981010024
:108070003981010039810100398101003981010014
:1080800039810100558201003981010039810100E7
:10809000E784010039810100F18401003981010088
:1080A000398101003981010000000000000000005A
:1080B00000000000000000000000000000000000C0
:1080C0000348854600F07CF800480047C18D010058
:1080D000002F0020401E00BF00BF00BF00BF00BF38
:1080E00000BF00BF00BF00BF00BF00BF00BFF1D195
:1080F00070470000401E00BF00BF00BF00BF00BFB0
:1081000000BF00BF00BF00BF00BF00BF00BFF1D174
:10811000704700000321094802680A4302600848CA
:1081200002680A4302600748804707480047FEE7A5
:10813000FEE7FEE7FEE7FEE7FEE70000240500405D
:108140005405004015850100C180010030B50B4683
:10815000014600202022012409E00D46D5409D4221
:1081600005D31D469540491B2546954040191546A7
:10817000521E002DF1DC30BD03460B439B0703D09C
:1081800009E008C9121F08C0042AFAD203E00B78DC
:108190000370401C491C521EF9D27047D2B201E054
:1081A0000270401C491EFBD270470022F6E710B552
:1081B00013460A4604461946FFF7F0FF204610BD55
:1081C000064C0125064E05E0E36807CC2B430C3C2A
:1081D00098471034B442F7D3FFF776FFB893010005
:1081E000D893010010B54F21202001F0BAF80021EA
:1081F000222001F0B6F80021232001F0B2F800217E
:10820000242001F0AEF80421212001F0AAF810BDCD
:108210008307FF22DB0E9A408907090E9940002848
:108220000BDA0007000F0838830808489B0018186D
:10823000C36993430B43C3617047830804489B00A1
:108240001B181868904308431860704700ED00E061
:1082500000E400E010B5064900200860486088602E
:10826000C860034940390860486000F0FBFF10BD5A
:108270004011014037B514460D46002282B0114628
:10828000012000F0DBFE6A46117A802211436A4623
:108290001172012C03D9402211436A461172022146
:1082A00000912B4602AA611C00F026FF05B030BDEC
:1082B000F7B518214843214916464418E16A880752
:1082C000800F02280BD0A06A626A801A401E01D576
:1082D000226A1018864202DD89072DD00646002E3C
:1082E0002AD00027A06A616A451A6D1E01D5206A4E
:1082F0004519616A206A411AA94201DC616A451A7E
:10830000B54200DB3546616AE0692A4640180199AA
:10831000FFF732FF01987F1940190190606A761BC0
:1083200040196062606A216A884201D1002060625F
:10833000002ED7D13846FEBD0020FEBD44200020CF
:108340000FB408B504A900916A46039900F004F837
:1083500001B008BC04B01847F7B598B007A8029060
:10836000402000250495039018980C46059506902A
:108370002178641C002974D0252907D002A800F0B8
:10838000C7F905980028F3DA1BB0F0BD00210123DE
:108390000227042208262078232817D02B2813D060
:1083A0002D280DD030280DD0002220780346303BF8
:1083B0000A2B0ED20A235A431218303A641CF4E7EF
:1083C000194304E0394302E0114300E03143641CE7
:1083D000E1E70023C7B22E2F0AD1641C207807469C
:1083E000303F0A2F04D20A277B431B18303BF4E7A7
:1083F0006C280DD068280BD0702852D00BDC2528B3
:108400005AD058282ED063280CD0642858D110E0B8
:108410002078641CECE7732832D0752817D07828B0
:108420004ED11FE01A981A9A0068011D1160017858
:1084300043E01A981A9F0068061D3E60006801918B
:10844000009201460A2202A800F08EF838E01A983D
:108450001A9F0068061D3E600068009201910A2282
:1084600009E02FE01A981A9F0068061D3E60006818
:10847000009201911022014602A800F0D7F81FE0F7
:108480001A981A9A0068011D116006683178761CE6
:10849000002915D002A800F03BF905980028F5DA6C
:1084A0000EE01A981A9A00680823011D11600168ED
:1084B000102200960195DFE7252102A800F028F997
:1084C000641C5EE70598002800DC5DE7049800283E
:1084D00004D0024607A91898FFF7EAFE0499059808
:1084E0004018059050E710B500F052FE10BD000096
:1084F00010B507484068002807D08047002803D0FF
:108500000022114600F032F910BD00F04DFA10BD06
:108510002C20002010B500F087FA002805D00E4965
:108520000C484860C8130D4988610D48018CC9B2D8
:1085300001290ED1818C09070BD1018D0906090F84
:10854000042906D1808D0006000F02D105490120C3
:10855000886010BDDFFF07C000050040006C0040D0
:10856000C00F00F000060040FFB583B00E46704219
:108570000D9F0C9C0090002900DB0846012502E0BD
:10858000FFF7E4FD6D1C05998842F9D20698A842D0
:1085900000D90546002C04D0002E01DB780700D559
:1085A000641EB80702D50698002811D0F8070FD12D
:1085B000002C0DD02046641EA84209D92021039822
:1085C00000F0A6F80398C0680028F1DA07B0F0BD03
:1085D000002E02DA2D21009E02E0780707D52B211C
:1085E000039800F095F80398C0680028EEDBB80700
:1085F000800F022811D1069800280ED1002C0CD033
:108600002046641EA84208D93021039800F080F863
:108610000398C0680028F1DAD8E701970094314642
:10862000069B059A039800F001F8CFE7FFB581B0EB
:1086300001271E463D460A9C029802E0FFF786FD90
:108640006D1C03998842F9D2AE4200D935460B9889
:10865000C0071CD1002C1AD00B98800701D5002E22
:1086600002D0202000900BE03020FBE70099019819
:1086700000F04EF80198C068002845DB002C06D0B9
:108680002046641EA842F1D801E0039847433946CA
:108690000298FFF75BFD01460398814201D3012058
:1086A00000E000203146761E012901DD012100E0B5
:1086B00000210843E9D1154E39460298FFF746FDDF
:1086C0000146029A7943511A0291315C019800F0F7
:1086D0001FF80198C068002805DB38460399FFF7AA
:1086E00035FD0700E8D10B98C0070DD0002C0BD04A
:1086F0002046641EA84207D92021019800F008F8FE
:108700000198C0680028F1DA05B0F0BD9C93010023
:1087100010B5044680686368421C934205DB2368F9
:108720001954A260E068401CE060A2686068824260
:1087300009D121682069FFF7BBFDA168884203D0F9
:108740000020C043E06010BD0020A06010BD02E02A
:1087500008C8121F08C1002AFAD1704770470020CC
:1087600001E001C1121F002AFBD17047BFF34F8FF8
:1087700004490348C860BFF34F8F00BFFDE7000006
:108780000400FA0500ED00E0094B9B68002B07D0C0
:10879000002A07D0002805D00068037C002B03D0F6
:1087A00008207047072070474174426100207047DD
:1087B00008200020FFB59007002581B014460E4622
:1087C000002832D11B4F002C31D000F0F7FB049869
:1087D00078610320387033461821224600204B432D
:1087E000BC601834C10089180D704D708E704C60DB
:1087F0001C19401C0328F5DBFD607D7001240E4828
:10880000BD702405046003211420FFF701FD0B480F
:1088100004600B4C0198A06003211120FFF7F8FCC5
:1088200060683861002005B0F0BD0720FBE7BD603F
:10883000FBE700000820002080E200E000E100E00B
:1088400000150140FEB50D461B49174689680446D0
:1088500000292AD0002C28D0052D01D20720FEBDEA
:108860006069002821D0607C012820D0002600F01B
:108870003BFDC0001049019089684018694600F02E
:108880005DFD002815D0012101700C494460496844
:108890000830E2C0084901988968411868460078A4
:1088A000487000F0B7FC0020FEBD0820FEBD2E463B
:1088B000DDE70420FEBD0000082000200015014077
:1088C000F8B52348C16800293ED00E6821494C689C
:1088D0000769C078E11B0D022D0AED1C002814D198
:1088E00001201D4A000450601B4A403A50601B4959
:1088F000400008601A4908601A49012008602F20CA
:10890000FFF7F8FB12490120C870B54200D2354686
:10891000E81900020F4B000A403318600D4A5168F5
:10892000001B091B0902090A0002000AC91C814236
:1089300009D9506818602F20FFF7DCFB0120074998
:10894000400480390860F8BD00F038FBF8BD000035
:1089500008200020001501404013014080E200E0A3
:1089600000E100E00010014010B50E4900234A78F4
:108970008C78A24212D0521CD2B24A70022A00D184
:108980004B704A78074B920018339A580260086976
:1089900010180002000A0861012010BD03600020C9
:1089A00010BD000008200020F8B51E4C20780028DB
:1089B00037D02069002807D00026E068002805D0BD
:1089C0000025002E04D013E00126F6E70125F8E784
:1089D000684651DF052806D0002806D0002211463F
:1089E000FFF7C4FE04E0012602E0216900988847F1
:1089F000002D12D1608869460880A06861DF0528D3
:108A000006D0002806D000221146FFF7AFFE04E092
:108A1000012502E0E168A0688847002ED8D0002D2B
:108A2000CFD0F8BD2C2000201048018CC9B20129FC
:108A300017D1818C090714D1018D09060A0F03D1C2
:108A4000828D1206120F0ED0090F012903D1828DDB
:108A50001206120F07D0032903D1808D0006000FE4
:108A600001D000207047012070470000C00F00F0C7
:108A70000378054A8168002B01D0D16000E0916045
:108A80000021417070470000000500500378054A3E
:108A90008168002B01D0916000E0D160012141701C
:108AA0007047000000050050F8B5044640780028E3
:108AB00036D0A178884233D9E078002830D0E668F3
:108AC000002E2DD044211748FFF76FFB154D07CC22
:108AD0002B460C3347C301266E700C3CA078E1781E
:108AE000124A4018A88000202870E068A860287BFF
:108AF0002877E0682862FF2068770B48194668628B
:108B000008460C30074600F025F9002807D1AE7062
:108B1000A078E1784018C1B2384600F013F9F8BDEA
:108B20000720F8BD8822002098930100318B0100B6
:108B300070B51A491A480A68002A2CDC02464478A3
:108B4000D37B9288002C0CD0447BE51A954206DC3E
:108B500000224270848042690BE0521D0BE0D11864
:108B60000CE0847BE518954207D301224270848093
:108B70000269002AF1D10A6001E0D11A81800179ED
:108B80000748283000F0DEF8002803D00022114604
:108B9000FFF7ECFD70BDFF3AEDE700002820002054
:108BA0008822002010B50146014800F0FDF810BDF4
:108BB000B0220020F8B52C49C8680A690C780F79F2
:108BC00089688646944600913EE00099E200551877
:108BD0002A7836E0182353436968521CC918AB78C9
:108BE000D2B2934200D100220B78022B02D0032B89
:108BF00027D123E04E680346014603E0B14204D08A
:108C00000B46C96900291CD0F8E7002919D08B420E
:108C100008D1C069002805D1144F0126BE60002686
:108C2000B44601270E68C969D961002909D00B68CB
:108C30009B190B6005E00174C06900E00021002869
:108C4000F9D169789142C5D12146641EE4B2002968
:108C5000BBD1054962460A61C8600F71704501D0F9
:108C60000120F8BD0020F8BD0820002000100140C0
:108C7000F8B5044631480026C168009107784EE0F7
:108C80002E48F90080680D1843E0002C02D02046E1
:108C9000E4691FE02878182141436A68401CC0B28B
:108CA00051182870AA78904200D12E700A7848682E
:108CB000012A30D1027C002A2DD18A684260CA681C
:108CC00082600A69C260496981611C490979002989
:108CD00000D04660194943680A699C46991A0902FE
:108CE000174B090A994202D28268891807E0614647
:108CF000511A09028268090A8A4202D9511A01608E
:108D000000E006604660012186600174C66100F0E3
:108D100089FA002CB9D1287869788842BAD13846C6
:108D20007F1EFFB20028ABD10448C1680098814281
:108D300001D00120F8BD0020F8BD0000082000206F
:108D4000FFFF7F0082788A4201D207207047C170FE
:108D50000020704770B54261054608784E6828705B
:108D60004868A8604878A870886800240C4A2146A2
:108D7000A861FFF709FD002811D10A490320002E40
:108D800007D0F20702D0A200521810607608641CC7
:108D9000F5E72846FFF76CFE01202871002070BD22
:108DA0003D8F01000007005010B5044600202074DC
:108DB000204600F0C3F802202071002010BD000002
:108DC0001FB5002348223049082000F01FF9002871
:108DD00003D000221146FFF7C9FC2B4A002348327A
:108DE00004211846FFF7E6FC002803D000221146B4
:108DF000FFF7BCFC254B6C460FCB0FC46846FFF752
:108E000053FE002803D000221146FFF7AFFC0F20CD
:108E10004005FFF7C7FE002803D000221146FFF7E8
:108E2000A5FC01221A490F20FFF724FAFFF7DAF90F
:108E3000174C7D25641CED0015490622491C28208D
:108E4000FFF718FA227813A10020FFF779FA627869
:108E500012A10020FFF774FAA27812A10020FFF7F8
:108E60006FFAE27811A10020FFF76AFA227911A1C6
:108E70000020FFF765FA627910A10020FFF760FA81
:108E8000284600F01FF8D7E7C02000208893010093
:108E90000020002058483A2578200000584C3A25F8
:108EA000780D0A0059483A2578200000594C3A2597
:108EB000780D0A005A483A25782000005A4C3A2585
:108EC000780D0A0031B5054C04E0401E00902046A4
:108ED000FFF700F900980028F7D138BDE70300003C
:108EE00030B552000A439900039C0A432102049DB5
:108EF0000A4329040A43024980004018026030BD39
:108F0000000700501CB500220B460092114601924A
:108F1000FFF7E6FF1CBD1CB5002100910B460122A6
:108F200001911146FFF7DCFF1CBD000001218140CB
:108F300001488160704700000005005070B50126AF
:108F400004460671007C00280AD02046FFF790FDF9
:108F500000202074A078E178411A414308121BE0F8
:108F60006169002901D020468847E578A078A842A9
:108F700003D12046FFF78AFD0DE0002D204608D0E2
:108F8000FFF784FDA0786843000A401DE060267466
:108F900004E0FFF76DFDA078401DE0602079012816
:108FA0000BD1A069E16800682246FFF74BFC00285E
:108FB00003D000221146FFF7D9FB70BD70B5012424
:108FC0000B49600408600B4940108860094940392A
:108FD0008860094D6C602F20FFF78CF8AC60074D5E
:108FE00000242F202C61FFF785F8EC7070BD000085
:108FF00080E100E040130140001001400820002003
:1090000010B508461146C046C04610BD70B50029CF
:1090100001D08C0701D0072070BD064C0125A1604E
:1090200062800549636010DF0028F5D125701620A5
:109030002EDF70BD2C20002001900100F8B505271F
:109040003F0215460E46002825D0274C0920FFF781
:1090500062FF0820FFF75FFF00210320FFF752FFA8
:109060000120FFF758FF2148092181600821C160D4
:10907000032101610120FFF759FF0121C907E01910
:109080004162002E05D0012E1CD0022E1CD0032ED2
:109090001CD000211BE0164C1F20FFF73CFF1420C2
:1090A000FFF739FF00211620FFF72CFF1E20FFF7E6
:1090B00032FF10481F2181601421C1601621016117
:1090C0001E20D8E7022102E0042100E0062101224F
:1090D000002D00D0114341650023FF2109310B51C0
:1090E00002602046F8BD00000040004000450040FE
:1090F0000030004000350040FFB596460025224A6A
:1091000081B02B46904201D11E2400E001240122AF
:109110001E4EA240F2602AE072460527D65C3F024E
:10912000C2199446D66103273F03C61DF93600E0F5
:109130006D1CB268002A01D1BD42F9D3BD4205D1F0
:109140002046FFF7F3FE002005B0F0BD0027B76012
:109150000A9A002A12D0012A10D062469269002B86
:1091600003D0049EF618203EF2775B1C9BB28B4224
:10917000D2D32046FFF7DAFE0120E5E76246926986
:10918000049EF254F1E7000000300040000500505A
:10919000FEB51F4C00252769E06802906846FFF77E
:1091A000E3FB0190FFF706FD06460198002822D058
:1091B00000230098E16817E00E680A46864202D94B
:1091C000301A086012E0801BF31800261660D6687B
:1091D000D169B446002E07D0FE183602360A566012
:1091E00066469660D56115460029E5D12846E160BE
:1091F000FFF73EFD06E02846FFF73AFD002801D1C3
:10920000002E02D00298FFF75BFB00202071FEBD0C
:109210000820002001200249000508607047000076
:1092200000E200E010B50E4BD968002906D00268B4
:109230000C68A24204D8A21A0A60C161D86010BDAD
:109240000B4604E00B46C969121B002904D00C68C8
:109250009442F7D3A41A0C600260C161D86110BDBA
:1092600008200020F8B51E4DEC68002C36D01D48B3
:10927000002740682969401A0602360A2068B04271
:109280001AD8361AC7192246107CE469002811D072
:10929000002010746B69002B09D0916950699847C0
:1092A000002807D000221146FFF760FA02E051695A
:1092B00090698847002CE1D16978A878814206D16D
:1092C000401CC0B2A870022801D10020A870044937
:1092D0000006800D18310F50FFF79CFFF8BD00000D
:1092E000082000200015014012494868C005C00D43
:1092F00019D0103840B2002807DA0207120F083AD6
:10930000920892005118C96904E081080A4A89004C
:10931000891809688007C00EC1400806800F01281F
:1093200003D0032803D0022070470020704701209B
:109330007047000000ED00E000E400E04278837830
:10934000521CD2B2934200D100220378934201D141
:10935000002070470A70416840781822504308186E
:1093600070477CB50C460546002211460120FFF7E8
:1093700065FE69460D714C71012101AB00911A46E1
:109380000221FFF7B9FE7CBD00DC000500000100F2
:10939000000000000000E001CC2200203031323318
:1093A0003435363738394142434445465465726D49
:1093B000696E616C00000000D8930100002000205D
:1093C000C00000004E87010098940100C0200020DA
:1093D000400E00005E870100000000000000000059
:1093E000000000000000000000000000000000007D
:1093F000000000000000000000000000000000006D
:10940000000000000000000000000000000000005C
:109410000000000000000000000000005345474726
:109420004552205254540000000000000200000089
:1094300002000000AC930100EC22002000040000B8
:10944000000000000000000000000000000000001C
:10945000000000000000000000000000000000000C
:1094600000000000AC930100EC260020100000007A
:1094700000000000000000000000000000000000EC
:1094800000000000000000000000000000000000DC
:08949000000000000024F400BC
:04000005000180C1B5
:00000001FF
