:020000040001F9
:10800000602B0020F58001000F810100118101002B
:108010000000000000000000000000000000000060
:1080200000000000000000000000000013810100BB
:108030000000000000000000158101001781010010
:1080400019810100198101001981010025840100B5
:1080500039840100000000007D81010019810100C8
:1080600019810100198101001981010019810100A4
:108070001981010019810100198101001981010094
:108080001981010005840100198101001981010095
:108090004D8401001981010019810100198101003D
:1080A000198101001981010000000000000000009A
:1080B00000000000000000000000000000000000C0
:1080C0000348854600F048F8004800474D8F0100FE
:1080D000602B0020401E00BF00BF00BF00BF00BFDC
:1080E00000BF00BF00BF00BF00BF00BF00BFF1D195
:1080F000704700000321094802680A4302600848EB
:1081000002680A4302600748804707480047FEE7C5
:10811000FEE7FEE7FEE7FEE7FEE70000240500407D
:108120005405004055840100C180010030B50B4664
:10813000014600202022012409E00D46D5409D4241
:1081400005D31D469540491B2546954040191546C7
:10815000521E002DF1DC30BD064C0125064E05E017
:10816000E36807CC2B430C3C98471034B442F7D358
:10817000FFF7AAFF5095010070950100F8B50024A3
:10818000FF250135012627460094284601F068F8AE
:10819000002808D034484068304204D033480021D9
:1081A0002818344301602D1D76007F1CADB2042FCA
:1081B000EBD3FF207D3001F053F8002807D02C4886
:1081C00000210160400704432A48006900902A4FBB
:1081D000200712D00126002526420AD02748AA00EF
:1081E000111808690969C004C00E8903BA58890FBB
:1081F000904776006D1C042DEED3002C30DA00245D
:108200001D4E0021301940304156491C25D00778B9
:10821000BD06AD0E284600F0B7FC80003658002E93
:108220001BD0BF090121A940154AA8008018006889
:10823000009A8003800F114202D0022802D00CE085
:1082400003280AD1032F05D102280AD0022128468B
:1082500000F0DEFF39462846B047641C042CCFD31B
:10826000F8BD0321F3E70000006300400060004018
:108270007C61004000050050C822002000650040DD
:10828000000700501CB5012000F0B8FF092000F0E5
:10829000B5FF082000F0B2FF002103200346009143
:1082A0000A46019100F086FF04480221816009021C
:1082B00081604910816000691CBD0000000500500C
:1082C000F7B58406A40EC02004431546012000F033
:1082D000AFFF204600F048F800240A4F6D1E09E069
:1082E000019800780019C0B200F00EF8641C064630
:1082F0003870E4B2AC42F3DB012000F099FF304665
:10830000FEBD00000820002070B500240B4E25465D
:10831000092000F08DFF092000F092FF3069C008AD
:10832000C007C00F02D06000401C00E060006D1C60
:10833000EDB2C4B2082DEBD3204670BD000500504D
:1083400010B58406A40E80200443012000F070FFC5
:10835000204600F009F82046FFF7D6FF044601202A
:1083600000F066FF204610BD70B504460025E00908
:1083700003D0082000F064FF02E0082000F058FF5E
:10838000092000F055FF092000F05AFF60066D1C1F
:10839000040EEDB2082DEAD370BD70B58406A40EAC
:1083A000802004430D46012000F042FF2046FFF7E5
:1083B000DBFF2846FFF7D8FF012000F039FF70BD32
:1083C0008307FF22DB0E9A408907090E9940002897
:1083D0000BDA0007000F0838830808489B001818BC
:1083E000C36993430B43C3617047830804489B00F0
:1083F0001B181868904308431860704700ED00E0B0
:1084000000E400E010B5064900200860486088607C
:10841000C860034940390860486000F0CFFF10BDD4
:108420004011014010B50249024800F081FC10BD26
:10843000102300200030004010B50249024800F02F
:1084400077FC10BD282300200040004010B500F04C
:108450004BFF10BD10B500F081FC002805D00E497F
:108460000C484860C8130D4988610D48018CC9B299
:1084700001290ED1818C09070BD1018D0906090F45
:10848000042906D1808D0006000F02D10549012084
:10849000886010BDDFFF07C000050040006C004091
:1084A000C00F00F00006004030B47446641E25780A
:1084B000641CAB4200D21D46635D5B00E31830BC18
:1084C000184702E008C8121F08C1002AFAD17047F5
:1084D0007047002001E001C1121F002AFBD1704744
:1084E000044842680121C9050B46934383600A4052
:1084F000C26070470005005070B50024064D06E0CC
:108500006968E000085C012100F076FD641C2878B1
:108510008442F5D3002070BD24200020F8B5154614
:108520000C460646052A01D20720F8BD00F03AFEA7
:10853000002803D100F00CFE0028F6D110490020DD
:108540004E600C70C8608D6008610E4D0DE0E0005B
:1085500069688019009181786A46517000780A4AEA
:10856000694600F099FD0028DFD12046641EE4B280
:108570000028ECD1054A0021024800F00DF8F8BDB2
:108580002420002048950100E18C0100418C01006D
:108590000C2000F067F9FEE7094B9B68002B07D021
:1085A000002A07D0002805D00068037C002B03D0E8
:1085B00008207047072070474174426100207047CF
:1085C00038200020FFB59007002581B014460E46E4
:1085D000002832D11B4F002C31D000F063FE0498EC
:1085E00078610320387033461821224600204B431F
:1085F000BC601834C10089180D704D708E704C60CD
:108600001C19401C0328F5DBFD607D7001240E4819
:10861000BD702405046003211420FFF7D1FE0B4830
:1086200004600B4C0198A06003211120FFF7C8FEE5
:1086300060683861002005B0F0BD0720FBE7BD6031
:10864000FBE700003820002080E200E000E100E0CD
:1086500000150140FEB50D461B49174689680446C2
:1086600000292AD0002C28D0052D01D20720FEBDDC
:108670006069002821D0607C012820D0002600F00D
:1086800007FFC0001049019089684018694600F052
:1086900029FF002815D0012101700C494460496868
:1086A0000830E2C008490198896841186846007896
:1086B000487000F05BFE0020FEBD0820FEBD2E4687
:1086C000DDE70420FEBD0000382000200015014039
:1086D000F8B5134D0446A96800291CD0002C1AD007
:1086E0006069002817D00026267400F0D1FEC7006C
:1086F000A8686946381800F0F5FE00280DD0022160
:1087000001704460A868391868460078487000F025
:108710002DFE3046F8BD0820F8BD0420F8BD00004D
:1087200038200020F8B507460024234802E0641CE6
:10873000042C1AD2A2008258BA42F8D1042C14D2C6
:108740001D481E4E0C38002929D001290ED00229BF
:108750000BD16000201880194578002D05D01848ED
:108760000169002901D028468847F8BD61006118D9
:10877000755C8E19717800290CD011490A2249685C
:10878000806851430E4A521CFFF764FF002801D154
:108790000B4847700A48B17814300155DDE780680E
:1087A000FFF796FF06486100611814308919005DD3
:1087B0008D78A842D1D0F8BD189501009C220020E8
:1087C0000C20002010B511490120886110490022B9
:1087D0004A608207906048680028FCD000230D4A58
:1087E00003211846FFF7EEFE002803D00C2000F00E
:1087F00039F8FEE700220849012000F041F800287E
:1088000003D00C2000F02EF8FEE710BD000500405C
:10881000000100405C200020CD0C000070B500235A
:10882000042811D2440004190D4D012A02D1012956
:108830000DD0002246008019094E801900290CD065
:10884000012906D0022906D00723184670BD0D3035
:10885000C2B22A55F9E74270F7E78270F5E70000E7
:108860009C22002010B5054A0146127A0020D2074A
:1088700002D0084600F054F810BD00000C20002083
:1088800070B50E46204905464E608D6000200A6195
:10889000A9071ED50024012211462046FFF7BEFF7E
:1088A000641C042C02D20028F5D012E0002810D15C
:1088B000720804211548FFF731FE002809D1FFF79F
:1088C0001BFE002805D11148114A00211438FFF77A
:1088D00063FEE90706D00F220E4952058A60002385
:1088E000CB608A6100280DD108480B4A00211C3852
:1088F000FFF752FE002805D10448084A0121183824
:10890000FFF74AFE70BD00000C20002028950100F2
:10891000198B010000050050A58D0100E1840100C4
:10892000FEB57A4D0722EB6892059A4302936B6875
:1089300000939C0006461B19002001210193490564
:108940000746734C3300FFF7AFFD180D1515374779
:1089500055677C887F8891DE9E9E9E9E9EC8CED164
:10896000D8DEDE140F21029A49059143A160E76029
:108970002F70FEBDA260E76060680F225205504074
:10898000800209D5A160E760022E02D1E120C0007B
:108990000AE07D20400107E0E160A760022E01D1DE
:1089A000C82001E0FF2091302E706421FFF7BEFB4C
:1089B0000099414300223FE0A260E76060680F2217
:1089C00052055040800204D5A160E76019204001A3
:1089D000EAE7E160A760E3E7A260E76060680F2272
:1089E00052055040800202D5A160E760D1E7E16006
:1089F000A760D7E7A260E76060680F225205504089
:108A0000800202D5A160E76001E0E160A7602E70FE
:108A10000098410000220FE0A260E76060680F222A
:108A200052055040800202D5A160E76001E0E1609C
:108A3000A7602E700099002236480068FFF70AFEF2
:108A4000FEBDA260E7601BE0616801208005024670
:108A50008A43A2600140E16010E06068012189055D
:108A60000A468243A2600840E060E3E760680121B3
:108A700089050A468243A2600840E0600199C9E77F
:108A8000E160A7602DE023484068FFF721FE112137
:108A90008A1B01D0002807D00F22E9685205114037
:108AA000A160E760EF60FEBD0121C905E960012A10
:108AB0000CD91046C82148436421FFF737FB696889
:108AC0000022414313484068FFF7C4FD0F22E968C4
:108AD00052051140E160A760FEBD0F214905A1606C
:108AE000E7602E70FEBD07229205AAE70D21490519
:108AF000A160E76001218905C2E70321C905A160E2
:108B0000E7608910BCE70F214905B9E70C20002078
:108B1000000500500C95010010B500780221FFF708
:108B200001FE10BD0022D243830004490428CA502C
:108B300002D308182030027770470000C8220020B6
:108B4000F0B50025ED43002A02D00023042601E001
:108B5000042308260B4C04E09F00E7597F1C04D037
:108B60005B1CB342F8D32846F0BD26185DB2203610
:108B700035709E00A151002AF5D1E1182031087707
:108B8000F1E70000C82200200249091820200856F9
:108B900070470000C8220020F8B52348C1680029AA
:108BA0003ED00E6821494C680769C078E11B0D0270
:108BB0002D0AED1C002814D101201D4A000450602C
:108BC0001B4A403A50601B49400008601A4908603F
:108BD0001A49012008602F20FFF77CFA1249012072
:108BE000C870B54200D23546E81900020F4B000AA2
:108BF000403318600D4A5168001B091B0902090A1D
:108C00000002000AC91C814209D9506818602F204F
:108C1000FFF760FA01200749400480390860F8BD79
:108C200000F040FBF8BD0000382000200015014096
:108C30004013014080E200E000E100E0001001404C
:108C4000F8B500260124154D23E06968F0004718A7
:108C5000387821462A698140114218D08A432A6116
:108C600000F06CFA3A782146EB68914019400346CF
:108C7000934099420BD17978012901D0012100E07C
:108C800000217B684140002B01D010469847761C9C
:108C9000F6B228788642D8D3F8BD00002420002000
:108CA00010B50E4900234A788C78A24212D0521C8B
:108CB000D2B24A70022A00D14B704A78074B920018
:108CC00018339A580260086910180002000A0861F7
:108CD000012010BD0360002010BD000038200020DE
:108CE000F8B50746104E0125BD403068FFF7F0FC8F
:108CF00000280DD10D4C2069284207D1384600F0DC
:108D00001DFA0028E06804D0284303E0A84320614E
:108D1000F8BDA843E0602069002228432061A168D3
:108D20003068FFF797FCF8BD48950100242000202B
:108D300070B50C46FF21093100254550214600F051
:108D40007FFB002808D1A079FF2801D000F080FA2D
:108D5000657121680020884770BD00001048018CB3
:108D6000C9B2012917D1818C090714D1018D0906D7
:108D70000A0F03D1828D1206120F0ED0090F01299E
:108D800003D1828D1206120F07D0032903D1808DE3
:108D90000006000F01D0002070470120704700003E
:108DA000C00F00F010B50448017AC90702D000785E
:108DB000FFF7B6FD10BD00000C200020F8B52C49CF
:108DC000C8680A690C780F798968864694460091CC
:108DD0003EE00099E20055182A7836E01823534304
:108DE0006968521CC918AB78D2B2934200D10022F4
:108DF0000B78022B02D0032B27D123E04E680346C9
:108E0000014603E0B14204D00B46C96900291CD0D9
:108E1000F8E7002919D08B4208D1C069002805D194
:108E2000144F0126BE600026B44601270E68C969AA
:108E3000D961002909D00B689B190B6005E001740A
:108E4000C06900E000210028F9D169789142C5D1BC
:108E50002146641EE4B20029BBD1054962460A617D
:108E6000C8600F71704501D00120F8BD0020F8BD29
:108E70003820002000100140F8B504463148002693
:108E8000C168009107784EE02E48F90080680D18FF
:108E900043E0002C02D02046E4691FE02878182126
:108EA00041436A68401CC0B251182870AA789042A9
:108EB00000D12E700A784868012A30D1027C002A3D
:108EC0002DD18A684260CA6882600A69C2604969B5
:108ED00081611C490979002900D04660194943681D
:108EE0000A699C46991A0902174B090A994202D24B
:108EF0008268891807E06146511A09028268090AE6
:108F00008A4202D9511A016000E0066046600121E0
:108F100086600174C66100F031FA002CB9D128785E
:108F200069788842BAD138467F1EFFB20028ABD19B
:108F30000448C1680098814201D00120F8BD00209A
:108F4000F8BD000038200020FFFF7F00FFF73AFC4B
:108F5000FFF798F90F20FFF7F3F90E4948704F21FA
:108F60002020FFF71AFA00212220FFF716FA00212D
:108F70002320FFF712FA00212420FFF70EFA042124
:108F80002120FFF70AFA03490622891C2820FFF74F
:108F900097F9FEE7002000208207D30EFF229A40B7
:108FA0008907090E10B5994000280BDA03071B0F3B
:108FB000083B9C080C4BA400E318DC6994430C4369
:108FC000DC6107E08408094BA400E418236893439C
:108FD0000B432360C106C90E012088400449086084
:108FE0000449086010BD000000ED00E000E400E06E
:108FF00080E200E000E100E0F3B581B00F460198A7
:1090000000F038F9012400281E4E019817D0FFF710
:10901000BBFD80192030007F8009032802D0012881
:1090200006D007E01848006901998C40204201D120
:10903000022100E00321019800F0EAF8FEBD00F0F3
:1090400025F90028FAD00198FFF79EFD054681001A
:10905000C81D0E4AF93089180A6980B222430A6194
:109060000B49401800210160002FE7D00198FFF75D
:109070008BFD800030580028E0D00648AC404460AA
:10908000FEBD0000C8220020000500500065004021
:109090000060004000630040FEB5044623480E46D1
:1090A0000019202141560027C8171346401C01D043
:1090B000082738E0F27819462046FFF741FD0546BB
:1090C000401C2FD0B078002807D01948A1000918FB
:1090D000086802229043086007E000217378204668
:1090E00000910A46019100F077F8F078002810D03E
:1090F0001048AA001018317802690F4B1A4002611B
:10910000E206D20C8907890B0A4301690A4302610E
:1091100009E00648327840192030017F920111435E
:10912000017700E004273846FEBD0000C822002079
:109130000007005000650040FFE0FCFF034909699B
:10914000C140C807C00F00D0012070470005005083
:1091500070B5124D2879002801D0082070BD0F4944
:1091600000204039421E0B182033401CC0B21A7038
:109170002028F8D300242046FFF7D4FC641CE4B276
:10918000082CF8D303210620FFF706FF012004492D
:10919000C007486001202871002070BD082300200E
:1091A0000063004002480079002800D00120704789
:1091B0000823002030B552000A439900039C0A435B
:1091C0002102049D0A4329040A43024980004018F1
:1091D000026030BD0007005030B552000A439900CC
:1091E000039C0A432102049D0A4329040A430249BD
:1091F00080004018026030BD000700501CB50021FF
:1092000000910B46012201911146FFF7D3FF1CBDCF
:10921000820006481018026803231B049A43026068
:10922000026809040A43026070470000000700500A
:10923000012181400148C1607047000000050050D5
:109240000121814001488160704700000005005005
:1092500001218140014881607047000000050050F5
:10926000034940180068012800D000207047000022
:10927000006000400449081820214156042901DB00
:109280000120704700207047C822002004490818B8
:1092900020214156042901D2012070470020704747
:1092A000C822002070B501240B49600408600B49F6
:1092B00040108860094940398860094D6C602F2052
:1092C000FEF708FFAC60074D00242F202C61FEF74D
:1092D00001FFEC7070BD000080E100E04013014030
:1092E0000010014038200020FEB51F4C00252769E2
:1092F000E06802906846FFF7D3FC0190FFF75EFD3F
:1093000006460198002822D000230098E16817E063
:109310000E680A46864202D9301A086012E0801BA5
:10932000F31800261660D668D169B446002E07D01F
:10933000FE183602360A566066469660D5611546B6
:109340000029E5D12846E160FFF796FD06E02846B2
:10935000FFF792FD002801D1002E02D00298FFF7FE
:109360001BFC00202071FEBD382000200120024996
:10937000000508607047000000E200E010B50E4BE9
:10938000D968002906D002680C68A24204D8A21A43
:109390000A60C161D86010BD0B4604E00B46C96984
:1093A000121B002904D00C689442F7D3A41A0C6055
:1093B0000260C161D86110BD38200020F8B51E4D93
:1093C000EC68002C36D01D48002740682969401AF7
:1093D0000602360A2068B0421AD8361AC719224641
:1093E000107CE469002811D0002010746B69002BF8
:1093F00009D0916950699847002807D0002211468A
:10940000FFF7C6F802E0516990698847002CE1D166
:109410006978A878814206D1401CC0B2A8700228A1
:1094200001D10020A87004490006800D18310F50AA
:10943000FFF79CFFF8BD0000382000200015014018
:1094400038B505221202831898696A461070887A26
:109450004A7A904203D26A4612780C692254887A7A
:10946000401CC2B28A720C7A501C844202D9C9686C
:10947000085C03E04D7A854202D9C879D86103E0DF
:10948000A24201D3AA4201D2012038BD002038BD3A
:1094900012494868C005C00D19D0103840B20028E4
:1094A00007DA0207120F083A920892005118C969A8
:1094B00004E081080A4A8900891809688007C00EFB
:1094C000C1400806800F012803D0032803D00220E2
:1094D00070470020704701207047000000ED00E059
:1094E00000E400E042788378521CD2B2934200D16B
:1094F00000220378934201D1002070470A7041682E
:109500004078182250430818704700005C22002061
:109510007C220020A8220020110000001200000080
:109520001300000014000000110003002587010053
:1095300012000300258701001300030025870100A6
:1095400014000300258701004023002003000000D1
:1095500070950100002000205C000000C284010022
:10956000CC9501005C200020040B0000D284010097
:1095700001000000000000000000000000000000EA
:1095800000000000000000000000000000000000DB
:1095900000000000000000000000000000000000CB
:1095A00000000000000000000000000000000000BB
:1095B00000000000000000000000000000000000AB
:0C95C00000000000000000000024F40087
:04000005000180C1B5
:00000001FF
