:020000040000FA
:1000000040160020150100002F0100003101000002
:1000100000000000000000000000000000000000E0
:10002000000000000000000000000000330100009C
:100030000000000000000000350100003701000052
:10004000390100003901000001050000F90300003A
:1000500039010000000000007902000039010000B1
:1000600039010000390100003901000039010000A8
:100070003901000039010000390100003901000098
:1000800039010000D90300003901000039010000E6
:100090002D0400003901000035040000590400005F
:1000A00039010000390100000000000000000000DC
:1000B0000000000000000000000000000000000040
:1000C0000348854600F0A8F800480047ED6D0000A1
:1000D00040160020401E00BF00BF00BF00BF00BF91
:1000E00000BF00BF00BF00BF00BF00BF00BFF1D115
:1000F00070470000401E00BF00BF00BF00BF00BF30
:1001000000BF00BF00BF00BF00BF00BF00BFF1D1F4
:10011000704700000321094802680A43026008484A
:1001200002680A4302600748804707480047FEE725
:10013000FEE7FEE7FEE7FEE7FEE7000024050040DD
:1001400054050040AD040000C100000030B50B466E
:10015000014600202022012409E00D46D5409D42A1
:1001600005D31D469540491B254695404019154627
:10017000521E002DF1DC30BD10B5431A934209D256
:100180008318881803E0401E01785B1E1970521E08
:10019000F9D210BD03460B439B0703D009E008C901
:1001A000121F08C0042AFAD203E00B780370401C27
:1001B000491C521EF9D210BDD2B201E00270401C9F
:1001C000491EFBD270470022F6E710B513460A46D7
:1001D00004461946FFF7F0FF204610BD421C017887
:1001E000401C0029FBD1801A704730B5044600201E
:1001F000034600E05B1C934203D2E05CCD5C401BF5
:10020000F8D030BD0321001D401E037812021A43AE
:10021000491EF9D510467047064C0125064E05E0EB
:10022000E36807CC2B430C3C98471034B442F7D317
:10023000FFF74AFF289800004898000030B58C1856
:100240000278401C13071B0F01D10378401C1209D0
:1002500006D10278401C03E005780D70401C491C53
:100260005B1EF9D101E00B70491C521EFBD1A1426B
:10027000E6D3002030BD0000F8B50024FF2501358D
:10028000012627460094284607F02EF9002808D0BA
:1002900034484068304204D03348002128183443A1
:1002A00001602D1D76007F1CADB2042FEBD3FF2023
:1002B0007D3007F019F9002807D02C480021016093
:1002C000400704432A48006900902A4F200712D0B3
:1002D0000126002526420AD02748AA0011180869DD
:1002E0000969C004C00E8903BA58890F9047760087
:1002F0006D1C042DEED3002C30DA00241D4E00219D
:10030000301940304156491C25D00778BD06AD0E46
:10031000284605F03DF980003658002E1BD0BF0955
:100320000121A940154AA80080180068009A80039E
:10033000800F114202D0022802D00CE003280AD11B
:10034000032F05D102280AD00221284607F0ACF875
:1003500039462846B047641C042CCFD3F8BD03218E
:10036000F3E7000000630040006000407C61004053
:1003700000050050DC070020006500400007005029
:10038000C106C90E0120884001490860704700007D
:1003900000E200E08307FF22DB0E9A408907090E86
:1003A000994000280BDA0007000F08388308084836
:1003B0009B001818C36993430B43C36170478308BC
:1003C00004489B001B181868904308431860704746
:1003D00000ED00E000E400E010B5064900200860F0
:1003E00048608860C860034940390860486008F088
:1003F000E9FE10BD4011014070B5FF2109480931E7
:10040000094C00254550214608F068FF002808D116
:10041000A079FF2801D007F05FF8657121680020FE
:10042000884770BD003000402408002010B508F057
:100430005FFE10BD10B507484068002807D0804710
:10044000002803D00022114600F0C8FA10BD06F0C3
:100450000DFB10BDA001002070B5134C20780025C5
:10046000002803D02570012008F00AFB60780028DE
:1004700003D06570002008F003FBA078002803D0AB
:10048000A570022008F0FCFAE078002803D0E5709F
:10049000042008F0F5FA2079002803D02571032004
:1004A00008F0EEFA70BD00005401002010B506F00F
:1004B0002DFB002805D00E490C484860C8130D4993
:1004C00088610D48018CC9B201290ED1818C0907C0
:1004D0000BD1018D0906090F042906D1808D000674
:1004E000000F02D105490120886010BDDFFF07C061
:1004F00000050040006C0040C00F00F00006004006
:10050000F0B53C4D012185B04902284606F0FBFFBD
:1005100001270026384C002823D0FF21253128460A
:1005200006F0ECFF00281CD0FF2025302E50812043
:10053000324980008860607D002800D16F60022110
:10054000684601702E49086808600390E17C68469F
:100550000172E0680190E67406CC6846083C90475A
:100560001DE00421284606F0CEFF002817D0FF2109
:100570000931284606F0C2FF002810D007F09AFB88
:10058000E07C217D88420AD1607D002800D16F6027
:1005900081201A4980008860207D07F0A1FBFF219F
:1005A0001D31284606F0AAFF00280DD0A07C218A24
:1005B000884202D908F0F8FE06E0FF211D316E5096
:1005C000002801D008F006FFFF214531284606F03B
:1005D00095FF00280CD0FF2045302E50607D00286C
:1005E00000D02F60E07C002802D0207D07F078FB4F
:1005F00005B0F0BD002000403C0800200023004072
:100600008024004030B47446641E2578641CAB42DC
:1006100000D21D46635D5B00E31830BC184702E062
:1006200008C8121F08C1002AFAD17047704700207D
:1006300001E001C1121F002AFBD17047F7B584B059
:100640000027158806461780406B1446002813D0F3
:1006500003780598032D51D30221017021881122BE
:10066000491C89B2218042542188491C89B22180C9
:1006700043542088401C2080306B00281DD0074642
:100680002088059902461232AA4237D811220A540C
:1006900020881022401C80B220800A542088401CF0
:1006A00020800F203A5C2388401ECA54228840B222
:1006B000521C22800028F5DA0027304620300290B4
:1006C000807B002806D02B462246059906F048FA82
:1006D000070014D10298407B002806D02A46214604
:1006E000059800F0FDFE070009D1B078002825D05C
:1006F000059800902088001DA84202D90C2007B060
:10070000F0BD01A807F0C4FB0028F8D122880099A9
:100710000320885420881921401C80B22080009A30
:1007200011542088401C80B22080009941186846EE
:10073000808808F06EFE218840182080F07800281C
:1007400017D0218803230A46F356C91C0598A942ED
:10075000D4D80221815421880122491C89B22180E8
:1007600042542188491C89B2218043542088401C6E
:1007700020807068002817D021880023C3560A46BD
:10078000C91C0598A942B9D80221815421880A229E
:10079000491C89B2218042542188491C89B2218098
:1007A00043542088401C2080308900280AD00094BF
:1007B00030460195062202210830059B08F058FFBB
:1007C00007009CD1308A00280AD000943046019559
:1007D000072203211030059B08F04AFF07008ED145
:1007E000308B00280AD00094304601951522142140
:1007F0001830059B08F03CFF070080D1306A0028C4
:1008000006D02B462246059904F0BEFF0700D8D13A
:10081000706A002806D02B462246059906F078FB20
:100820000700CED10298007B002807D02B46224635
:100830003046059908F008FB0700C2D1307800283F
:1008400007D02B4622463046059906F095FB070057
:10085000B7D1384653E710B501220221002004F039
:1008600065FC002801D0072812D1072202210120AF
:1008700004F05CFC002801D0072809D100210A22DD
:10088000084604F053FC002801D0072800D10020BE
:1008900010BD0000044842680121C9050B4693437E
:1008A00083600A40C26070470005005030B5064AB8
:1008B0000446957804200023002D04D10120907077
:1008C000148000200B6030BD8408002010B505495D
:1008D00003460C88052000229C4201D18A7000202A
:1008E00010BD00008408002030B5064A0446158873
:1008F00005200023A54204D19278012A01D10020CD
:100900000B6030BD8408002010B5054903460C88F3
:10091000052000229C4201D18A70002010BD0000F9
:10092000A008002030B5064A04461588052000239B
:10093000A54204D19278012A01D100200B6030BD7C
:10094000A008002070B50024064D06E06968E000AC
:10095000085C012106F0A4FB641C28788442F5D3CE
:10096000002070BDF8000020F8B515460C4606467C
:10097000052A01D20720F8BD06F068FC002803D143
:1009800006F03AFC0028F6D1104900204E600C70A9
:10099000C8608D6008610E4D0DE0E0006968801947
:1009A000009181786A46517000780A4A694606F0DB
:1009B000C7FB0028DFD12046641EE4B20028ECD13A
:1009C000054A0021024800F097F8F8BDF800002021
:1009D000F89700002968000015590000BFF34F8FF9
:1009E00004490348C860BFF34F8F00BFFDE7000014
:1009F0000400FA0500ED00E0014B1B6818470000F9
:100A0000B8070020426800211170426851704268A6
:100A100091704068C1700846704708B56A4600F09A
:100A200006F808BD10B5028900F025F810BDF7B52D
:100A300082B00689817A076800910025446804F035
:100A40004BFFA078002814D02078361D7043C619BB
:100A50002046009904F052FF3088311D82B204987C
:100A600002800398FFF788FB04F03EFF284605B09C
:100A7000F0BD0425F8E7F7B582B001680091857AEA
:100A80000789446804F028FFA078A8420AD1E078DA
:100A9000002805D02946204604F030FF042602E055
:100AA000042615E0002661783F1D0846009A784329
:100AB0008018A278491C521CC9B2A270A94200D168
:100AC00000216170049902C0049A0399FFF754FB56
:100AD00004F00AFF304605B0F0BD0000F8B5046828
:100AE000044E24013459154600930B46069A2946B4
:100AF000A047F8BD54080020094B9B68002B07D085
:100B0000002A07D0002805D00068037C002B03D002
:100B100008207047072070474174426100207047E9
:100B20000C010020FFB59007002581B014460E4649
:100B3000002832D11B4F002C31D007F099F80498CF
:100B400078610320387033461821224600204B4339
:100B5000BC601834C10089180D704D708E704C60E7
:100B60001C19401C0328F5DBFD607D7001240E4834
:100B7000BD702405046003211420FFF70BFC0B4813
:100B800004600B4C0198A06003211120FFF702FCC8
:100B900060683861002005B0F0BD0720FBE7BD604C
:100BA000FBE700000C01002080E200E000E100E033
:100BB00000150140FEB50D461B49174689680446DD
:100BC00000292AD0002C28D0052D01D20720FEBDF7
:100BD0006069002821D0607C012820D0002608F020
:100BE000F7FCC0001049019089684018694608F078
:100BF00019FD002815D0012101700C494460496895
:100C00000830E2C0084901988968411868460078B0
:100C1000487008F0AFFA0020FEBD0820FEBD2E4649
:100C2000DDE70420FEBD00000C010020001501409E
:100C3000F8B5134D0446A96800291CD0002C1AD021
:100C40006069002817D00026267408F0C1FCC70090
:100C5000A8686946381808F0E5FC00280DD0022184
:100C600001704460A868391868460078487008F038
:100C700081FA3046F8BD0820F8BD0420F8BD000018
:100C80000C01002010B5184C012100220904206835
:100C9000FFF790FF002803D000221146FFF79EFEC9
:100CA00001210022C9036068FFF784FF002803D0F8
:100CB00000221146FFF792FE00220C49A068FFF7C0
:100CC00079FF002803D000221146FFF787FE052197
:100CD0000022C903E068FFF76DFF002803D000225F
:100CE0001146FFF77BFE10BD6497000066260000EA
:100CF000F0B50546007D002493B00E4600280DD0C7
:100D0000012001466846103103940173717B4173E1
:100D1000817BF92001406846891C81731C2104A84D
:100D2000FFF751FA6946087C0221084369460874B6
:100D30002A7DEF21002A02D01022104300E0084053
:100D40006A461074059407940894287D002800D002
:100D500003A8099001270A9410469771314A8280AE
:100D60000094B27B0270F27B42708078F9221040CE
:100D7000F722801C1040EF210840410849006846D6
:100D80008170317B017214210BA8FFF71CFA01A8B6
:100D90000B9068460C908786C486078702A80F9040
:100DA000A888AB1D0BAA04A907F0F6F9002836D1D4
:100DB000B068002831D0684687711B498180009453
:100DC000317C017000200146684641708078F9212D
:100DD0000840F721801C0840EF21084041084900E5
:100DE0006846817011A8B16803F073FF06461421AC
:100DF0000BA8FFF7E8F901A80B9068460C908686CF
:100E0000C486068711A80F902A46E8880E320BA9DF
:100E100007F0F0F9002802D100E0EC81002013B0C7
:100E2000F0BD0000192A00000829000010B50C4987
:100E30000C4807F0DDFBC1B20948683800F04CFAF5
:100E400000280BD0082809D00749884206D0074956
:100E5000884203D000221146FFF7C0FD10BD0000FC
:100E6000B00400200C000020043000000134000019
:100E7000F0B50C4693B01F216A4611800726002763
:100E80009180002809D0C17849070DD502A9FFF744
:100E9000D5FB002809D102AD01E000251780002C08
:100EA0000ED0E078002802D0304613B0F0BD01AA81
:100EB0000AA92046FFF7C2FB0028F6D10AAA02E0E1
:100EC00068460022878068468088C3B268460088EA
:100ED000C1B2284606F074FFE7E7000070B50D4682
:100EE00004991646040042D0002E40D04248002209
:100EF0004271C3600161242231464048FFF73CF94A
:100F000000F0D0F83D4934310846103801602031F6
:100F1000816038215C38FFF756F938482178383835
:100F20000170A1788170E178C17061784170626967
:100F3000216942610161E268A168C2608160014685
:100F4000E369A269CB618A61616A002919D001460F
:100F5000AC310246B83241628A60636A1B880B80FA
:100F6000616A436A898899800021436A06E00E20FD
:100F700070BD666AB668765C5654491C9E888E427F
:100F8000F7D8A16A00291CD01C4AAC3211460C3992
:100F90008A608162A36A9B888B80A16A836A0988C0
:100FA00019800021836A04E0A66AB668765C56540C
:100FB000491C9E888E42F7D82C210A5D0F491839AA
:100FC0000A73216A002909D00B4914310162226A8F
:100FD00052884A80216A026A098811806168002962
:100FE00004D00549891D4160616841600348294674
:100FF0003838FFF73DFF70BD500000208405002009
:1010000010B502881A4C102A17D00021112A17D0C7
:10101000192A11D1807900280ED1607901281BD0BE
:1010200002281FD003281FD0042805D12171E268AF
:101030000846002A00D0904710BD8088208110BD4E
:101040006170808821898842F9D1012005E02169F9
:101050000029F4D0884710BD022000F04DF8002888
:10106000F5D110BD0320F8E7032020710420F4E738
:101070005000002010B5022801D003280ED1084CE2
:10108000207800280AD000202070607900F034F821
:10109000002803D02169002900D0884710BD000036
:1010A0005000002010B507210148FFF78CF810BD53
:1010B0006800002010B50E480078012815D10D4CAD
:1010C0006078002811D16079002803D006F0C2FEB4
:1010D00000280BD101206070607900F00DF8002825
:1010E00003D02169002900D08847002010BD0000EE
:1010F0008405002050000020F0B5754C87B0607169
:10110000002606A8069606F067FB0127082806D0E9
:1011100000286FD10698002802D02770D5E00696E7
:10112000FFF7C0FF6B4D6878002802D06079012876
:1011300005D0A87800280AD06079022807D1E16894
:10114000002903D0E7700820884700E0E670607946
:10115000012808D16878002809D05D48193006F0C8
:1011600000FA002803D06079022802D00CE00220A7
:101170006071A878002805D05548193006F0F1F9BB
:10118000002801D103206071287B002804D16079F8
:10119000032801D104206071287E002804D16079E1
:1011A000042801D166712671E16800290AD06079AE
:1011B000032801D0042805D12878002802D06078BF
:1011C000002818D0A67018216846FEF7FCFF684674
:1011D0000670019606720396607901280FD00228E6
:1011E00016D03C4E243637465C3F03281CD00428DA
:1011F0005ED13BE06AE0A77007208847E3E7344808
:10120000183001906846077046820682277152E0C6
:101210002F48183001906846077029894182A988B3
:1012200001820220207146E0A88A69464882288A05
:1012300008822848243008F08CFA002805D0287845
:10124000002802D06078002801D003202FE002207F
:101250006946087204200396F8701E480021383849
:10126000FFF706FE002831D1052020E0A88B694653
:101270000882288C48821748243008F06AFA00282F
:1012800005D02878002802D06078002801D00420FA
:101290000DE002206946087204200396F8700D489C
:1012A00000213838FFF7E4FD00280FD10620207117
:1012B0006079002804D0684606F0ACFD002805D10E
:1012C000E168002901D020798847002007B0F0BDEF
:1012D000500000208405002073B586B0040031D092
:1012E0006A46217C127F0020914229D000250126E8
:1012F000684600950680458007A80190E188608ACD
:101300006A4607F06DF800281AD16846007F2074FD
:10131000608A0E49884217D0207D002814D002959B
:10132000039504950595E188684601818672418898
:101330008181049001980590608A02A906F082FFDD
:1013400008B070BD0E20FBE70820F9E7FFFF0000A2
:1013500038B50D4604001BD0002D19D02868206038
:101360000020C043608228792075FF20207401216D
:101370006846817007490180221D6946012006F0F8
:101380008BFF002803D129462046FFF7B1FC38BD6A
:101390000E2038BD0F18000038B5002824D00029D1
:1013A00022D00A88102A1AD0112A1AD0502A1BD10A
:1013B000027D002A18D0CA884389891D9A4213D118
:1013C0000A8B022A10D10268002A0DD0CB7E8C7EB7
:1013D00019022143C907C90F07D0002106E08988F7
:1013E00001E00021C943418238BD01216B461970DB
:1013F0006946904738BD000070B5054601461C227D
:101400000F48FEF7B9FE0F4C002626702968002908
:1014100007D00822201DFEF7AFFE201D06F02EFE8D
:1014200003E00848001D06F005FE002807D1401E15
:1014300060806670044A00210448FFF75DFB70BDC0
:10144000700600207000002069950000B097000031
:10145000F8B5214C028800271E4DE689102A15D0C8
:101460001E49112A21D0122A2DD0502A1CD1C288FF
:10147000801DB24218D1028B022A15D1C27E837E12
:1014800010021843C007C00F0CD112E08188698098
:1014900001461048082216310C30FEF76DFE6F70C1
:1014A000002E01D104F0BAF9F8BD0020C0436880D5
:1014B0006F700868FFF7BCFB0028F5D0A169002910
:1014C000F2D08847F8BD811D024808220C30FEF793
:1014D00053FEE7E77000002070060020B097000080
:1014E0007CB5054608880C460930904201D90C208D
:1014F0007CBD684606F040FC0028F9D12188082010
:10150000685420881B21401C80B2208029542088E8
:1015100000A9401C80B22080401906220131FEF74C
:101520002BFE20886946801D80B220800978002922
:1015300000D0012129542088401C208000207CBD3F
:101540007FB504460121684681714B4981804B4A31
:1015500001A9012006F0A0FE00287DD122882546A1
:101560003C35002A09D045482B46801C0090444851
:10157000616804F015F800287BD12289002A0AD07E
:101580003E482B460A3000903D48E168401F04F079
:1015900007F800286DD1228A002A0AD037482B4646
:1015A0001230009036486169001F03F0F9FF0028EF
:1015B0005FD1228B002A0AD030482B461A30009087
:1015C0002F48E169801E03F0EBFF002851D1228CE7
:1015D000002A0AD029482B46223000902848616A08
:1015E000C01E03F0DDFF002843D1228D002A0AD05F
:1015F00022482B462A3000902148E16A401E03F021
:10160000CFFF002835D1216B00290ED002A807F0AA
:1016100044FD1A482B46323000901948082202A98E
:10162000801F03F0BDFF002823D1606B00280BD082
:1016300012492B463A310091027901681048401C4A
:1016400003F0AEFF002814D1A16B002910D002A82E
:1016500006F092F8094800E00BE04230009008489C
:101660002B46072202A9273003F09AFF002800D159
:10167000002004B070BD00000A18000084000020A3
:10168000292A000070B51C68944201D1092070BD60
:101690000578001DED07ED0F0D551C68641C1C60DE
:1016A00007F001FF70BD00001CB514460022019236
:1016B000002906D0002C04D02268032A03D2092076
:1016C0001CBD0E201CBD60220A7001220192054A39
:1016D000009201AB226804F03EF80028F2D1019993
:1016E00021601CBD8516000010B51346602206F06F
:1016F000DFFF10BDF8B51C461546002810D0002CA1
:101700000ED002290AD34278037816021E43801CA9
:10171000891E002D08D02268042A03D20920F8BDB2
:101720000E20F8BD121F226000271E2E72D012DC80
:101730003300FEF767FF1E2F33383D2F2F2F2F2F3B
:101740002F2F2F2F2F2F2F5B604C757042477A560B
:10175000656ADDE7512F382E71D009DC3246303A08
:101760001300FEF74FFF087C9D67726D81989317F9
:10177000532E6FD008DC392E6DD0502E6CD0512EE8
:101780006BD0522E06D1A4E0542E67D0552E70D0C7
:10179000702E6FD00520002D6DD1BEE023462A4665
:1017A00000F0F4F8B2E023462A4600F07BF9ADE001
:1017B00023462A4600F01EF9A8E023462A4600F0F8
:1017C0009EFFA3E023462A4600F06AFD9EE02346E2
:1017D0002A4600F02DFE99E023462A4600F06FFECF
:1017E00094E023462A4600F0B1FE8FE023462A46C5
:1017F00000F0F2FE8AE023462A4600F04EFF85E024
:1018000023462A4601F013F980E023462A4600F0D9
:10181000ACFF7BE071E023462A4601F015F875E045
:1018200023462A4601F074F870E023462A4600F069
:1018300069FD6BE023462A4601F00EFD66E01BE0E1
:1018400023462A4601F0D9FD60E023462A4601F0EE
:10185000E4FE5BE038E014E027E03FE02FE02346C1
:101860002A4601F0B4FF51E023462A4602F02AF846
:101870004CE01FE037E04DE023462A4601F041FFEF
:1018800044E023462A4602F0ECF83FE023462A468D
:1018900002F01AF93AE023462A4601F060FE35E0EC
:1018A00023462A4602F074F830E023462A4602F026
:1018B00069FD2BE023462A4602F032FD26E023464E
:1018C0002A4602F0D3FC21E023462A4602F0BDFB63
:1018D0001CE023462A4602F0F1FC17E023462A4684
:1018E00002F020FC12E023462A4603F055F90DE0F1
:1018F00023462A4600F06EFC08E023462A4600F004
:1019000066FF03E023462A4601F03CF8002D04D090
:10191000002806D02F80002169802168091D2160E0
:10192000F8BD2E80218889B2F6E7000070B5044624
:1019300004F022F92146134803F0ECF8114821463F
:101940001838FFF729FD2046FFF782FD204603F0F7
:1019500023FB20880C4D102802D011280ED10AE05C
:10196000072003F007FC002803D000221146FFF7F0
:1019700035F8A08801E00020C043A8802046FFF78A
:101980003FFB70BD6004002000000020FFB581B067
:101990000020009001981D4614460F4600280CD0E8
:1019A000002D0AD0032F1FD30326002C07D0286850
:1019B000032806D20C2005B0F0BD0E20FBE71E6008
:1019C00015E00120208003206080231D6A460198D5
:1019D00007F010FD234608336A463946019807F0A0
:1019E0007BFD0098B84201D00920E4E72E6000207A
:1019F000E1E70000FFB583B003981E4614460028B7
:101A00002ED0002E2CD0002010270090002C2AD0A1
:101A1000032020801020608025460835231D6A465B
:101A20000499039807F009FD00281AD12B466A464D
:101A30000499039807F05BFD002812D12B46083368
:101A40006A460499039807F0F8FC002809D1039925
:101A50000098095C401C0090012907D0002011E08B
:101A60000E2007B0F0BD00201F60FAE7A08801A992
:101A7000FEF758FF0028F4D101980C21484308498B
:101A8000401840686860A088FEF73EFF0028E8D153
:101A9000009A04998A4201D00920E2E73760E0E722
:101AA000A0080020FFB581B01D461446070022D0D3
:101AB000002D20D0002005260090002C1DD00220F3
:101AC000208005206080231D6A463846029907F071
:101AD000B4FC00280DD1234608336A4638460299E3
:101AE00007F005FD002804D1009A02998A4207D028
:101AF000092005B0F0BD0E20FBE700201E60F8E7CE
:101B00002E60F6E7F8B516460F460546002407E0B6
:101B1000A0003958284604F0CFFB641CA4B22D1D48
:101B2000B442F5D30020F8BD014610B501200007EE
:101B3000006980B2484304F0A9FB002010BD10B535
:101B40001446024618462368C91A072901D20920FB
:101B500010BD99180722FEF70FFB2068C01D2060FA
:101B6000002010BD10B51C460B4601462068121A15
:101B7000072A01D2092010BD0A781A5420680622CB
:101B8000401C2060C018491CFEF7F6FA2068801D32
:101B90002060002010BD002906D0002A04D0136860
:101BA000022B03D2092070470E20704771230B705F
:101BB000002800D0012048700220106000207047EB
:101BC000FEB51F46144606000D4627D0002F25D02F
:101BD00000200A460190712301A90097304606F0C3
:101BE0007AFD002819D13868002801D0019811E049
:101BF000019AD01DA8420FD8002C0FD0B05C2070E5
:101C0000521CB11801920622601CFEF7B5FA019829
:101C1000801D0190A84203D00920FEBD0E20FEBD0C
:101C20000020FEBD38B5002911D0002B0FD0007860
:101C30008507C407ED0F4007E40F6D00C00F2C436C
:101C4000800004436846047007F05EFC38BD0E2037
:101C500038BDFFB583B00C9D0D9C1F46002D25D0CF
:101C6000002C23D00020019072206946087201AB3D
:101C7000294602A8226807F047FC002814D101AECB
:101C800000962A4623680499039804F0CFFF0028A1
:101C90000AD100962A4639462368059804F0C6FF03
:101CA000002801D10199216007B0F0BD0E20FBE7AB
:101CB00010B51346722206F0FBFC10BDFEB50446BB
:101CC000002015460E460190002907D0002D05D0B2
:101CD0002F680221022F03D20920FEBD0E20FEBD77
:101CE0007322327001220192002C00D000E0002209
:101CF00072700191002C3FD001AB3A46314620462C
:101D000007F002FC0028EAD11D48009001AB3A46DA
:101D10003146606803F01FFD0028E0D1204601AB8A
:101D20003A463146083007F0EFFB0028D7D1154876
:101D3000009001AB3A463146E06803F00CFD002804
:101D4000CDD1204601AB3A463146103007F087FB33
:101D50000028C4D1204601AB3A463146123007F084
:101D60007EFB0028BBD1204601AB3A4631461430F9
:101D7000FFF758FF0028B2D101992960FEBD00008D
:101D8000651B0000B931000010B51346732206F040
:101D90008FFC10BD1CB50C46002811D0002C0FD0B4
:101DA00074216A46117100212268009101466B4638
:101DB00001A807F0A9FB002801D1009921601CBDF2
:101DC0000E201CBD10B51346742206F071FC10BD28
:101DD000002906D0002A04D01368022B03D2092060
:101DE00070470E20704779230B70002800D0012027
:101DF00048700220106000207047FEB51D4617464F
:101E000006000C4613D0002D11D000200A46019088
:101E1000792301A90095304606F05DFC002807D122
:101E20002868002805D00198A0420DD10EE00E20B0
:101E3000FEBD0198801CA04206D83B4601AA21465F
:101E4000304607F0D7FAEEE70920FEBD0020FEBDC0
:101E5000002906D0002A04D01368032B03D20920DE
:101E600070470E20704778230B704870000A887006
:101E7000032010600020704710B51346782206F04A
:101E800017FC10BDF8B51F4615000E460ED0002FEA
:101E90000CD03968042915D375212970691C07F005
:101EA000BDFA401C002E03D0012102E00E20F8BD37
:101EB0000021441C2954002E1AD0204639680930CC
:101EC000814201D20920F8BD2919308807F0A6FA0D
:101ED00004192919708807F0A1FA04192919B08882
:101EE00007F09CFA04192919F08807F097FA0419E9
:101EF00000203C60F8BD10B51346752206F0D8FBF3
:101F000010BDF8B5074610680E46801C15461C46E5
:101F1000B0421AD8384607F06DFA2868801CB042E3
:101F200013D8A31C2A463146384607F063FA2868BE
:101F3000801CB04209D8231D2A463146384607F096
:101F400059FA2868801CB04201D90920F8BDA31DA8
:101F50002A463146384607F04DFA0020F8BD38B51C
:101F600000786C462070684607F0CEFA38BD30B570
:101F7000002A0AD0002B08D01C68022C18D37D241C
:101F80001470002903D0012402E00E2030BD00248B
:101F900054700224002907D01C68042C08D30C8834
:101FA0009470240AD47004241D68611C8D4201D2EF
:101FB000092030BD002800D001201055641C0020ED
:101FC0001C6030BDFFB583B00C9D1E460C4607005B
:101FD00025D0002D23D000200A4601907D2301A9A1
:101FE0000095384606F077FB002806D128680028BF
:101FF00005D00198A04210D1002007B0F0BD002EFE
:102000000DD005AB01AA21463846009604F0DEFD4E
:102010000028F2D10199A142EFD00920EDE70E206E
:10202000EBE770B5049D002B0AD0002D08D02C687A
:10203000022C2CD37C241C70002803D0012402E045
:102040000E2070BD00245C700224002805D02C688E
:10205000032C1CD30078987003241F2A01D9072071
:1020600070BD2E68E01C864211D31819160A027042
:10207000A41C4670002901D0012000E00020185562
:10208000641C002909D02868A618864201D90920B5
:1020900070BD1819FEF770F8344600202C6070BD32
:1020A00010B513467C2206F003FB10BD10B5002AC4
:1020B00006D0002B04D01C68042C03D2092010BDCC
:1020C0000E2010BD762414705070000A9070D170EC
:1020D00004201860002010BD10B51346762206F0CB
:1020E000E7FA10BDF8B5064610680F46091A1446FF
:1020F0001D46102909D3811910221846FEF73CF815
:10210000206810302060B84201D10920F8BD297C38
:10211000305C4908C0074900C00F01432974C80753
:102120002168C00F715C4908490008432874206881
:10213000401C20600020F8BDF8B5054618680E4622
:102140000027111A1C46112901D20920F8BD801957
:1021500010222946FEF710F8206810302060297CF4
:10216000C907C90F31542A7C206852085200114314
:1021700031542068401C20603846F8BDF8B515463B
:102180000F4606000ED0002D0CD01C46FFF7AAFF0C
:10219000002806D1234612332A463946304600F03D
:1021A000C9FCF8BD0E20F8BDF8B51D4617460E0057
:1021B0000ED0002D0CD00446FFF7BEFF002806D13C
:1021C00020462B463A463146123000F0CFFCF8BD8F
:1021D0000E20F8BDFFB583B00020019003981D4686
:1021E00014460F4600280CD0002D0AD00B2F53D3D5
:1021F0002A26002C07D028682A2807D20C2007B0EE
:10220000F0BD0E20FBE700201E60F8E71B202080B9
:102210002A206080231D01AA039807F00EF90028E8
:10222000EDD1A31D01AA39460398FFF788FC0028C9
:10223000E5D123460D3301AA3946039807F057F933
:102240000028DCD102AB01AA3946039807F04FF908
:102250000028D4D16946A07B097A4008CA0740000B
:10226000D20F1043F92210404A07920F5200104338
:102270004007C908400FC9000843A073C00823469F
:1022800000900F3301AA3946039807F04AF9002855
:10229000B5D10199B94201D00920B0E72E60AEE76F
:1022A000FFB581B00020009001981D4614460F46EE
:1022B00000280CD0002D0AD0032F1ED30326002C9B
:1022C00007D02868032806D20C2005B0F0BD0E20E8
:1022D000FBE71E6014E01620208003206080231D91
:1022E0006A46019807F086F8A31D6A4639460198A8
:1022F00007F0F2F80098B84201D00920E5E72E6017
:102300000020E2E7FFB583B00020009003981D464F
:1023100014460F46002837D0002D35D0082F30D373
:102320002A26002C32D0172020802A206080231DEE
:102330006A46039807F081F8002823D1A31D6A4656
:102340003946039800F02AF800281BD1A08801A97B
:10235000FEF7CAFA002815D101981C2148430E49FE
:102360006A46431839461B1D039800F0B1FD00284A
:1023700008D1A088FEF7AAFA002803D10099B94233
:1023800007D0092007B0F0BD0E20FBE700201E603B
:10239000F8E72E60F6E7000084080020F8B507464D
:1023A00010681546081A0E461C46062801D2092058
:1023B000F8BD002C3AD0384607F099F80028F7D13C
:1023C0006B462A463146384607F091F80028EFD18F
:1023D0006946097860788A0780088000920F104368
:1023E000FB2249071040C90F890008436070A31CF5
:1023F0002A463146384600F097FD0028D8D1E31C24
:102400002A463146384600F08FFD0028D0D1231DE2
:102410002A463146384600F0BFFC0028C8D1631D6B
:102420002A463146384600F0B7FCF8BD0E20F8BD0C
:10243000FFB581B00020009001981D4614460F465C
:1024400000280CD0002D0AD0042F33D30A26002CEC
:1024500007D028680A2806D20C2005B0F0BD0E204F
:10246000FBE71E6029E0122020800A206080231DE7
:102470006A46019806F0BEFFA31D6A4639460198D8
:1024800006F0B8FF234608336A463946019806F03D
:10249000B1FF23460A336A463946019806F0AAFF7F
:1024A00023460C336A463946019806F0A3FF00988C
:1024B000B84201D00920D0E72E600020CDE7FFB55B
:1024C00081B00020009001981D4614460F46002858
:1024D0000CD0002D0AD0042F33D30A26002C07D0AD
:1024E00028680A2806D20C2005B0F0BD0E20FBE7B4
:1024F0001E6029E01D2020800A206080231D6A467E
:10250000019806F077FFA31D6A463946019806F048
:1025100071FF234608336A463946019806F06AFF80
:1025200023460A336A463946019806F063FF23467C
:102530000C336A463946019806F05CFF0098B842B1
:1025400001D00920D0E72E600020CDE7FFB5064678
:10255000002081B01D4614460090002E0DD0002DA5
:102560000BD00298042832D30427002C07D0286807
:10257000042806D20C2005B0F0BD0E20FBE71F603A
:1025800028E01820208004206080231D6A46304601
:10259000029906F02FFFA079E31D010900980901B7
:1025A000325C1207120F1143A171325C0907120944
:1025B000090F12011143A171401C00906A46304678
:1025C000029906F089FF00990298814201D0092002
:1025D000D1E72F600020CEE7FFB50746002081B08D
:1025E0001D4614460090002F0AD0002D08D01A2650
:1025F000002C07D028681A2807D20C2005B0F0BD9F
:102600000E20FBE700201E60F8E71A206080231DE3
:102610006A463846029906F010FF0028EED1A31D45
:102620006A463846029900F00AF80028E6D1009A76
:1026300002998A4201D00920E0E72E60DEE7F8B572
:102640000E46074600206946087015461C4631466E
:102650003846FFF774FA00281ED1E31D2A4631469A
:102660003846FFF76CFA002816D16B462A463146E9
:10267000384606F03CFF00280ED16946097823460B
:10268000C8074908C00F49000843A07310332A4601
:1026900031463846FFF735FCF8BDFFB581B0002064
:1026A000009001981D4614460F4600280CD0002DBE
:1026B0000AD0032F1ED30326002C07D02868032836
:1026C00006D20C2005B0F0BD0E20FBE71E6014E022
:1026D0001120208003206080231D6A46019806F0A7
:1026E00089FEA31D6A463946019806F0F5FE00985A
:1026F000B84201D00920E5E72E600020E2E7FFB5EF
:102700000746002081B01D4614460090002F0DD0D2
:10271000002D0BD00298082822D30826002C07D0C1
:102720002868082806D20C2005B0F0BD0E20FBE773
:102730001E6018E01520208008206080231D6A4656
:102740003846029906F056FE009806223918A01D58
:10275000FDF712FD00980299801D0090884201D07B
:102760000920E1E72E600020DEE7FFB581B0002000
:10277000009001981D4614460F4600280CD0002DED
:102780000AD0032F1ED30326002C07D02868032865
:1027900006D20C2005B0F0BD0E20FBE71E6014E051
:1027A0001A20208003206080231D6A46019806F0CD
:1027B00021FEA31D6A463946019804F04BF90098A2
:1027C000B84201D00920E5E72E600020E2E7FFB51E
:1027D0000746002081B01D4614460090002F0AD005
:1027E000002D08D00A26002C07D028680A2807D216
:1027F0000C2005B0F0BD0E20FBE700201E60F8E7BE
:102800001E2020800A206080231D6A4638460299D7
:1028100006F013FE0028ECD1E31D6A463846029903
:10282000FFF78DF90028E4D1A31D6A4638460299C6
:1028300006F05DFE0028DCD1009A02998A4201D0A0
:102840000920D6E72E60D4E7FFB581B000200090C4
:1028500001981D4614460F4600280CD0002D0AD0C2
:10286000042F20D31626002C07D02868162806D25D
:102870000C2005B0F0BD0E20FBE71E6016E0142012
:10288000208016206080231D6A46019806F0B2FD64
:10289000A31D6A463946019800F00AF80028E8D1DD
:1028A0000098B84201D00920E3E72E600020E0E75D
:1028B000F8B515460E4607461C46FFF740F90028B6
:1028C00025D1234608332A463146384600F032F9EE
:1028D00000281CD16B462A463146384606F007FED2
:1028E000002814D16A46A17C12784908D307490010
:1028F000DB0F1943FD2319409307DB0F5B001943DE
:102900005207FB23D20F194092001143A174F8BD66
:10291000FFB581B00020009001981D4614460F4677
:1029200000280CD0002D0AD0072F23D30726002C17
:1029300007D02868072807D20C2005B0F0BD0E206C
:10294000FBE700201E60F8E713202080072060804E
:10295000231D6A46019806F070FD0028EDD1A31DE5
:102960006A463946019800F009F80028E5D1009937
:10297000B94201D00920E0E72E60DEE710B500F093
:102980006DFB10BDFFB581B00020009001981D4681
:1029900014460F4600280CD0002D0AD0032F1ED35A
:1029A0000326002C07D02868032806D20C2005B087
:1029B000F0BD0E20FBE71E6014E003206080231DA5
:1029C0006A46019806F016FDA31D6A46394601982D
:1029D00000F00AF80028EAD10098B84201D0092096
:1029E000E5E72E600020E2E730B5002807D0002A96
:1029F00005D0156800248D4203D1092030BD0E207A
:102A000030BD1978455D4908ED074900ED0F2943B0
:102A10001970FD2529401568405D8007C00F4000F2
:102A2000014319701068401C1060204630BDF8B595
:102A3000074600201D4614460090002F04D0002DAC
:102A400002D003291FD101E00E20F8BD0326002C7F
:102A500004D02868032803D20C20F8BD1E6015E0BE
:102A600019202080032060800146231D6A463846D5
:102A700006F0C0FCA31D6A460321384606F02CFD73
:102A80000098032801D00920F8BD2E600020F8BD71
:102A9000F8B515460F4606000ED0002D0CD01C468A
:102AA00000F022F8002806D1234610332A46394682
:102AB0003046FFF744F8F8BD0E20F8BDF8B51D46C6
:102AC00017460E000ED0002D0CD0044600F01FF863
:102AD000002806D120462B463A4631461030FFF7F3
:102AE00041F8F8BD0E20F8BD10B514460246184650
:102AF0002368C91A102901D2092010BD9918102283
:102B0000FDF73AFB206810302060002010BD10B5A2
:102B10001C460B4601462068121A102A01D20920D1
:102B200010BDC0181022FDF727FB20681030206070
:102B3000002010BDFFB581B015460F461C46019818
:102B400006F07BFC060004D12868391A082902D255
:102B5000092005B0F0BD019908224118A01CFDF71D
:102B60000BFB2868083028603046F2E7FFB581B0DB
:102B70001D4616460446029906F071FC0746286871
:102B8000311A082902D2092005B0F0BD02990822A5
:102B90004018A11CFDF7F0FA286808302860384674
:102BA000F2E7002906D0002A04D01368022B03D2D2
:102BB000092070470E2070477B230B70002800D03F
:102BC000012048700220106000207047FFB583B0DC
:102BD000144600201F460D46009301900A467B23B1
:102BE00001A9039805F077FD060003D13868002895
:102BF00002D0002007B0F0BD002C20D00198083092
:102C0000A8421AD8234601AA2946039806F0F2FBE7
:102C1000A31C01AA2946039806F0ECFB231D01AA78
:102C20002946039806F0E6FBA31D01AA294603984E
:102C300006F0E0FB0198A84203D00920DAE70E2055
:102C4000D8E73046D6E7F8B516460C0005460AD058
:102C5000002E08D0306802280FD37A202070002D73
:102C600003D0012002E00E20F8BD00206070022099
:102C7000002D18D030680A2801D20920F8BDA11C07
:102C8000288806F0D0FB871CE119688806F0CBFB8A
:102C9000C719E119A88806F0C6FBC719E119E88829
:102CA00006F0C1FBC01930600020F8BD10B5134616
:102CB0007A2205F0FDFC10BDFFB583B00C9C0D9E83
:102CC0000F46002C20D0002E1ED0822069460872AC
:102CD00035680020019001AB2A46214602A806F083
:102CE00013FC002811D101AB2A46214603A806F0A7
:102CF000B6FB002809D101980146401CA84236D8ED
:102D0000002F04D0012203E00E2007B0F0BD002206
:102D100062540190002F0ED001461131A94226D8ED
:102D2000201810223946FDF727FA0198397C103017
:102D30002154401C01901448009001AB2A462146C2
:102D4000059802F008FD0700DFD101980146401CFC
:102D5000A8420CD8069A002A00D0012262540190A1
:102D6000069900290DD001461031A94201D9092048
:102D7000CBE7201810220699FDF7FEF901981030D4
:102D8000019030603846C0E70F2B000010B51346A5
:102D9000822205F08DFC10BD30B5002807D0002A36
:102DA00005D0156800248D4203D1092030BD0E20C6
:102DB00030BD1978455D4908ED074900ED0F2943FD
:102DC0001970FD2529401568455DAD07ED0F6D00B3
:102DD00029431970FB2529401568405D4007C00F45
:102DE0008000014319701068401C1060204630BDFF
:102DF00070B5002908D0002B06D004461D680020BD
:102E0000954203D1092070BD0E2070BD2278D207F3
:102E1000D20F4A5526781D68B607F60F7600324362
:102E20004A5524781D686407E40FA40022434A55DC
:102E30001968491C196070BDF8B507460E48009026
:102E400015460E461C46384602F056FC002812D1A4
:102E50000A480090231D2A463146384602F04CFCB1
:102E6000002808D106482346009008332A463146F8
:102E7000384602F041FCF8BD7D210000912A000097
:102E80006D310000F8B504460E4800901D46164608
:102E90000F46206802F05FFC002811D10A4800901C
:102EA0002B4632463946606802F055FC002807D1AF
:102EB000064800902B4632463946A06802F04BFC8B
:102EC000F8BD0000A9210000BD2A000093310000D8
:102ED000F8B515460F4606000ED0002D0CD01C4646
:102EE000FFF7AAFF002806D123460C332A463946AD
:102EF0003046FFF7A1FFF8BD0E20F8BDF8B51D461E
:102F000017460E000ED0002D0CD00446FFF7BAFF76
:102F1000002806D120462B463A4631460C30FFF7B2
:102F2000B1FFF8BD0E20F8BD38B51C4613688B42C2
:102F300001D1092038BD6B4606F0D9FA0028F9D135
:102F4000207800994008CA074000D20F1043FD22A4
:102F500010408A07D20F520010434907FB22C90FC5
:102F60001040890008432070002038BDFFB583B0B1
:102F70000C9E0D9C1746002E37D0002C35D07F209C
:102F80006946087225680020019001AB2A46314647
:102F900002A806F0B9FA002825D101AB2A4631462D
:102FA00003A806F05CFA00281DD101AB2A46314681
:102FB00004A806F0A9FA002815D10D48009001AB2D
:102FC0002A463146384602F0C6FB00280BD1094894
:102FD000009001AB2A463146069802F0BCFB00285F
:102FE00001D10199216007B0F0BD0E20FBE7000080
:102FF000F7300000FD2E00007FB582B01C460D4664
:10300000060027D0002C25D000200A4601907F23FF
:1030100001A90094304605F05EFB002806D1206827
:10302000002805D00198A84212D1002006B070BD3A
:10303000049800280ED00848009004AB01AA294645
:10304000304602F059FB0028F0D10199A942EDD099
:103050000920EBE70E20E9E7D12E0000F8B51C4669
:1030600015460E4607466B4606F041FA002841D148
:103070006946207809784008C9074000C90F08430D
:103080002070FD21084069460978631C8907C90F33
:10309000490008432070E3210840694609782A4620
:1030A000C906490F890008432070DF21084069469E
:1030B00009788906C90F490108432070314638460E
:1030C00006F015FA002815D1A31C2A4631463846C9
:1030D00006F00DFA00280DD1E31C2A463146384689
:1030E000FFF75AFE002805D1231D2A4631463846EF
:1030F000FFF752FEF8BDF8B50446007816460F46B5
:103100008207C107D20FC90F52001143C206520FE6
:10311000920080061143C00F4001014368460170D0
:103120001D463246394606F0EFF900281DD12B46E0
:1031300032463946601C06F0E7F9002815D12B46C7
:1031400032463946A01C06F0DFF900280DD12B4687
:1031500032463946E01CFFF74BFE002805D12B46CE
:1031600032463946201DFFF743FEF8BD10B5144620
:1031700002462068091A102901D2092010BD8118C1
:1031800010221846FCF7F8FF20681030206000205D
:1031900010BD10B51C461B68D21A102A01D2092096
:1031A00010BD5B18014610221846FCF7E5FF2068A9
:1031B00010302060002010BDFFB581B002990029B9
:1031C0000DD0049900290AD004460079002508286A
:1031D00002D8207B082804D9072005B0F0BD0E20B6
:1031E000FBE70B46201D039A029906F08DF9002695
:1031F000009602AF0ECF206802F0ADFA144F08E03F
:1032000000972068A900405802A90EC902F0A3FA4D
:103210006D1C2079A842F3D802AD0ECD20460C30AB
:1032200006F072F9009602AD0ECDA06802F093FA96
:103230000025084E08E00096A068A900405802AF9B
:103240000ECF02F088FA6D1C217BA942F3D8C4E7A7
:10325000651B00000F2B0000FFB58BB00020029013
:103260000B98154600282BD00E98002828D00C98D3
:1032700008287DD3014607AB02AA0B9806F0BAF8DE
:1032800008AB02AA0C990B9806F0B4F809AB02AA95
:103290000C990B9806F0AEF801AB02AA0C990B98AA
:1032A00006F0A8F8684686880A2046430E36002DA8
:1032B0007DD00E980068B04204D20C200FB0F0BD53
:1032C0000E20FBE7322028806E806846808BA88025
:1032D0006846008CE8806846808C28816846808833
:1032E000A881C1004018029941180C9881427ED8EB
:1032F000002774E00A207843441923460E3302AABB
:103300000C990B9806F076F82346103302AA0C9914
:103310000B9806F0E1F804AB02AA0C990B9806F0A2
:10332000DBF86946A07C097C4008C9074000C90F4A
:103330000843A074FD2108406946097C8907C90F2C
:1033400049000843A074FB2108406946097C4907ED
:10335000C90F89000843A074F72108406946097C19
:103360000907C90FC9000843A074EF21084000E015
:103370003DE06946097C06ABC906C90F090108434F
:10338000A074DF2108406946097C02AA8906C90F9A
:1033900049010843A074BF2108406946097C4906D9
:1033A000C90F89010843A0740C990B9800E020E034
:1033B00006F092F86946087E2346C007C00FE07405
:1033C000143302AA0C990B9806F014F8234616330E
:1033D00002AA0C990B9806F00DF87F1CBFB2684644
:1033E0008088874286D302990C98814201D00920B7
:1033F00064E70E980660002060E7FFB587B0079885
:103400001D4614460E46002845D0002D43D000200E
:103410000190062E3CD308202F68286003AB01AA38
:10342000079805F0E7FF04AB01AA3146079805F0BD
:10343000E1FF05AB01AA3146079805F0DBFF00204C
:10344000002C0FD02868B84222D83420208068464B
:103450008089A0806846008AE0806846808A208152
:1034600020460C3029680090791A029102AB01AA1B
:103470003146079800F011F800280AD12968029A0D
:1034800089182960002C00D061800199B14200D0D8
:1034900009200BB0F0BD0E20FBE7FFB585B0002082
:1034A0000390116806980E9C401A1E461546042883
:1034B00038D36B460699059805F09CFF02AB2A4667
:1034C0000699059805F096FF694608880989C200A3
:1034D0000F464743121DD21933683260002C37D093
:1034E00061802080306898421CD868460088002699
:1034F000C00007193F1D26E0F0000019001D0190D3
:10350000476029680698401A02280BD32A46019B77
:103510000699059805F06EFF286806996288091AD1
:103520008A4202D9092009B0F0BD059941180198D5
:103530004068FCF721FE61882868401828606846CA
:1035400000893F18761C684600888642D4D304E080
:10355000891C2A684843101828600398E3E7F8B5E7
:103560000546002014460E460090002D0FD0002B7B
:103570000DD00A2E30D3E879A97902020A430A3223
:10358000002C06D01868904206D20C20F8BD0E2000
:10359000F8BD00201A60F8BD1A6036202080231D77
:1035A0006A463146284605F025FFA31D6A46314686
:1035B000284605F01FFF234608336A463146284651
:1035C00005F018FF23460C336A463146284600F0C2
:1035D00005F80099B142DED00920F8BDF8B50746DC
:1035E0000020009010681546081A0E461C46022856
:1035F00007D3384605F0FEFE28682288311A8A4231
:1036000001D90920F8BDC119A01CFCF7B5FD21881E
:103610002868401828600098F8BDFFB587B00020E2
:10362000009007981F461446002829D0002F27D065
:103630000898082860D3014603AB6A46079805F04E
:10364000D9FE04AB6A460899079805F0D3FE05AB8E
:103650006A460899079805F0CDFE01AB6A460899BD
:10366000079805F0C7FE68468588062045430E3555
:10367000002C43D03868A84204D20C200BB0F0BD17
:103680000E20FBE733202080658068468089A0807B
:103690006846008AE0806846808A20816846808883
:1036A000A08181004018009941180898814223D8D0
:1036B000002619E006207043031902936A460E3370
:1036C0000899079805F096FE029B6A461033089900
:1036D000079805F08FFE029B6A46123308990798F7
:1036E00005F0FAFE761CB6B2684680888642E1D3C1
:1036F00000990898814201D00920BFE700203D6071
:10370000BCE7FFB581B00020009001981F46144629
:10371000002813D0002F11D002980B2852D3019803
:10372000817A407A0E02064335461335002C07D0C5
:103730003868A84206D20C2005B0F0BD0E20FBE789
:103740001D6042E0382020806580231D6A46029972
:10375000019805F04FFEA31D6A460299019805F0F5
:1037600049FE234608336A460299019805F042FE55
:1037700023460C336A460299019805F03BFE234626
:103780000E336A460299019805F0A6FE23461033CF
:103790006A460299019805F02DFE00980299821957
:1037A0008A420FD8002E09D00199324609182046C6
:1037B0001230FCF7E1FC0098801900900146029855
:1037C000814201D00920B7E73D600020B4E7FFB592
:1037D00085B0002000900598144600282AD008984B
:1037E000002827D00698082866D3014602AB6A460F
:1037F000059805F0FFFD03AB6A460699059805F0AC
:10380000F9FD04AB6A460699059805F0F3FD01AB96
:103810006A460699059805F0EDFD68468088C50062
:103820000E35002C4AD008980068A84204D20C201B
:1038300009B0F0BD0E20FBE730202080658068468F
:103840000089A08068468089E0806846008A2081DF
:1038500068468088A081C100081A0099411806981E
:10386000814229D800261FE0F00007193B460E339D
:103870006A460699059805F0BDFD3B4610336A4639
:103880000699059805F028FE3B4612336A460699CC
:10389000059805F0AFFD3B4614336A460699059836
:1038A00005F0A8FD761CB6B2684680888642DBD358
:1038B00000990698814201D00920B9E7089805606F
:1038C0000020B5E7FFB581B00020009001981F46A9
:1038D0001446002813D0002F11D002980C2852D380
:1038E0000198C17A807A0E02064335461335002CC2
:1038F00007D03868A84206D20C2005B0F0BD0E20D3
:10390000FBE71D6042E0352020806580231D6A466C
:103910000299019805F06EFDA31D6A46029901986F
:1039200005F068FD234608336A460299019805F0C0
:1039300061FD23460C336A460299019805F05AFD51
:1039400023460E336A460299019805F053FD23463B
:1039500010336A460299019805F04CFD00980299CF
:1039600082198A420FD8002E09D0019932460918CF
:1039700020461230FCF700FC0098801900900146A8
:103980000298814201D00920B7E73D600020B4E7EA
:10399000F8B50646002014460D460090002E11D0C2
:1039A000002B0FD0082D39D3F079B17902020A43E8
:1039B0000A2042430A32002C06D01868904206D2F0
:1039C0000C20F8BD0E20F8BD00201A60F8BD312093
:1039D0002080231D6A462946304605F02EFD00282A
:1039E000F4D1A31D6A462946304605F026FD00287D
:1039F000ECD1234608336A462946304605F01DFDC2
:103A00000028E3D123460C336A462946304600F0AD
:103A100007F80028DAD10099A942D7D00920F8BDCB
:103A2000FFB581B01C4615460E466B46019805F061
:103A300004FD002813D16946098821800027A41CB1
:103A400009E023462A463146019800F0C2F80028D2
:103A500005D10A347F1C694609888F42F1D305B02D
:103A6000F0BDFFB581B00020009001981D461446BE
:103A70000F4600280CD0002D0AD0032F1FD30D268F
:103A8000002C07D028680D2806D20C2005B0F0BD08
:103A90000E20FBE71E6015E0392020800D2060809D
:103AA000231D6A46019805F0A5FC23460C336A469F
:103AB0003946019805F010FD0098B84201D0092060
:103AC000E4E72E600020E1E7FFB581B00020009020
:103AD00001981F461446002813D0002F11D00298D9
:103AE0000D2859D30198017BC07A0E020643354652
:103AF0001535002C07D03868A84206D20C2005B036
:103B0000F0BD0E20FBE71D6049E037202080658076
:103B1000231D6A460299019805F06CFCA31D6A46B4
:103B20000299019805F066FC234608336A4602991B
:103B3000019805F05FFC23460C336A460299019810
:103B400005F058FC23460E336A460299019805F0A9
:103B5000C3FC234610336A460299019805F04AFCDB
:103B6000234612336A460299019805F043FC0098F7
:103B7000029982198A420FD8002E09D00199324643
:103B8000091820461430FCF7F7FA009880190090C5
:103B900001460298814201D00920B0E73D60002033
:103BA000ADE7FFB510680027081A81B015460E462C
:103BB0001C46042802D2092005B0F0BD019805F08A
:103BC00019FCA31C2A463146019805F013FC38461F
:103BD000F2E7F8B515460E4607461C4605F02DFCE3
:103BE000002805D1A31C2A463146384600F001F8CA
:103BF000F8BDF8B515460E4607461C4601F013F908
:103C0000002805D1231D2A4631463846FFF7C9FF53
:103C1000F8BDFFB581B016460F461C46019801F06D
:103C200002F9002815D1231D32463946019801F0CA
:103C3000FAF800280DD12346083332463946019858
:103C400001F0F1F8050004D13068381A052802D2D5
:103C5000092005B0F0BD23460C33324639460198A1
:103C600005F0C8FB23460E3332463946019805F06D
:103C7000C1FB2346103332463946019805F02CFC2F
:103C80002846E6E7F8B50446194800901D46164652
:103C90000F46206801F05FFD002821D115480090F3
:103CA0002B4632463946606801F055FD002817D191
:103CB00020462B46324639460A3005F0D0FB002814
:103CC0000ED120462B46324639460C3005F0C7FB54
:103CD000002805D1218901204002814201D9072015
:103CE000F8BD009533463A46206902F087FFF8BDDB
:103CF000534E0000F93C0000F8B51D4616460F462D
:103D00000446FEF72CF900281DD12B4632463946D1
:103D1000601CFEF724F9002815D1A1784A07930FFB
:103D2000012B00D00720CA07D20F5B001A430B07F4
:103D3000DB0FC906DB00C90F1A4309010A432968D2
:103D4000B14201D10920F8BD7A542968491C296083
:103D5000F8BDF8B5074610681546081A0E461C4609
:103D6000082801D20920F8BD384605F043FBA31C02
:103D70002A463146384605F03DFB231D2A4631468A
:103D8000384605F037FBA31D2A463146384605F074
:103D900031FB0020F8BD0000FFB504460078164650
:103DA0008207C107D20FC90F520011434207D20F39
:103DB000920011430207D20FD2001143C206D20F64
:103DC000120111438206D20F520140061143C00F67
:103DD000800183B00143684601711D46324601A847
:103DE000049905F091FB00281FD160782B46C1078C
:103DF0008007C00FC90F4000014368460171324679
:103E000001A8049905F080FB00280ED120462B461E
:103E100032460830049905F022FB002805D161895B
:103E200001204002814202D9072007B0F0BD009571
:103E300033466068049A02F0E1FE0028F5D112488A
:103E400000902B463246E068049901F084FC00287B
:103E5000EBD10E4F00972B4632462069049901F0B2
:103E60007AFC0028E1D100972B463246606904991C
:103E700001F071FC0028D8D100972B463246A0698A
:103E8000049901F068FCD0E715870000F93C0000B8
:103E9000FFB583B00C9F0D9C002F38D0002C36D07E
:103EA0000025A220694601950872266801AB3246BA
:103EB000394602A805F028FB002826D101AB32467E
:103EC000394603A805F0CBFA00281ED1114800900E
:103ED00001AB32463946049801F03DFC002814D16C
:103EE0000D48009001AB32463946059801F033FC8D
:103EF00000280AD101AB324639460095069801F0F8
:103F00002AFC002801D10199216007B0F0BD0E20E4
:103F1000FBE70000993D0000853C0000FEB51C4613
:103F2000174606000D4614D0002C12D000200A4679
:103F30000190A22301A90094304604F0CCFB002894
:103F400006D12068002806D00198A84210D1002090
:103F5000FEBD0E20FEBD074800903B4601AA294643
:103F6000304601F0C9FB0028F4D10199A942F1D0F3
:103F70000920FEBD533D0000FFB583B000200C9C1E
:103F80001D4616460F460190002B23D0002C21D051
:103F9000206800281BD0A32028700120019001ABCD
:103FA000294603A8226805F05AFA002810D10F48C4
:103FB000009001AB29463846226801F0CCFB00286E
:103FC00006D1019923680A46491C8B4204D2092074
:103FD00007B0F0BD0E20FBE7002E01D0012300E06A
:103FE0000023AB5401912160F2E70000853C000002
:103FF000FEB51D46164607000C4620D0002D1ED0EB
:1040000000200A460190A32301A90095384604F038
:1040100062FB002814D12868002803D00198A04230
:104020000FD110E00198801CA0420AD8002E06D0C3
:10403000334601AA2146384605F0DCF9EEE70E20AA
:10404000FEBD0920FEBD0020FEBDFFB581B00020F1
:10405000009001981D4614460F4600280CD0002DF4
:104060000AD0032F1ED30426002C07D0286804286A
:1040700006D20C2005B0F0BD0E20FBE71E6014E058
:104080005320208004206080231D6A46019805F09B
:10409000B1F9A31D6A463946019805F0ABF90098BD
:1040A000B84201D00920E5E72E600020E2E7FFB525
:1040B0008BB00B98149C1D461646002823D0002E6A
:1040C00021D016202F68286002AB0C990B9805F0C0
:1040D000B4F9002815D104AB32460C990B98FFF7C0
:1040E00098FD00280DD103AB32460C990B9805F0D2
:1040F000A4F9060005D1002C12D02868B84204D9D2
:1041000009200FB0F0BD0E20FBE768460089208033
:10411000122204A9A01CFCF72FF868468089A0820F
:104120003046EEE7FFB585B01D46144606002FD099
:10413000002D2DD00020019002202F68286003ABB5
:1041400001AA3046069905F078F9002821D1002C03
:1041500008D02868B8423BD8512020806846808922
:10416000A080A01D29680090791A029102AB01AAD3
:104170003046069900F032F807000AD12868029903
:1041800040182860002C1FD0A079022803D01BE023
:104190000E2009B0F0BDA07A062815D1A08804A988
:1041A000FCF7C0FB05280FD004980C2148430A49AE
:1041B00001AA431818460830009030461B1D069986
:1041C00002F004FD0700E4D101990698814201D074
:1041D0000920DEE73846DCE7A0080020FFB583B001
:1041E0000C9C1D461646070019D0002D17D0002E36
:1041F00015D001AB049905F07AF900280DD1296892
:104200000220029128600020002C11D0684600791D
:1042100020702868884204D9092007B0F0BD0E201C
:10422000FBE768460079012801D0022806D1A01CCE
:1042300069460979012903D0022909D00B20ECE74E
:10424000009002AB324638460499FFF730FF06E093
:10425000009002AB32463846049900F0EBF8002893
:10426000DBD12968029A89182960D6E7F8B50E468D
:1042700000211C46009100280BD0002C09D0022EF2
:1042800017D30225002A06D02168022905D20C2066
:10429000F8BD0E20F8BD1D600EE0542111800221F2
:1042A0005180131D6A46314605F0A4F80098B042CB
:1042B00001D00920F8BD25600020F8BDFFB581B010
:1042C0000020009001981D4614460F4600280CD08F
:1042D000002D0AD0032F1ED30326002C07D02868F8
:1042E000032806D20C2005B0F0BD0E20FBE71E60AF
:1042F00014E05220208003206080231D6A4601982C
:1043000005F078F8A31D6A463946019805F0E4F8EF
:104310000098B84201D00920E5E72E600020E2E7CE
:10432000FFB581B00020009001981D4614460F464D
:1043300000280CD0002D0AD0032F1ED30326002CFA
:1043400007D02868032806D20C2005B0F0BD0E2047
:10435000FBE71E6014E05520208003206080231DB1
:104360006A46019805F046F8A31D6A463946019849
:1043700005F0B2F80098B84201D00920E5E72E60B8
:104380000020E2E7FFB585B01D46144606002DD09B
:10439000002D2BD00020019002202F68286003AB55
:1043A00001AA3046069905F048F800281FD1002CD4
:1043B00006D02868B84236D868468089A080A01DFB
:1043C00029680090791A029102AB01AA3046069939
:1043D00000F030F807000AD12868029940182860D8
:1043E000002C1CD0207A062803D018E00E2009B03B
:1043F000F0BDA08804A9FCF795FA05280FD0049811
:104400000C2148430A4901AA431818460830009075
:1044100030461B1D069902F0D9FB0700E7D1019930
:104420000698814201D00920E1E73846DFE7000025
:10443000A0080020FFB58DB00D98169F1C461546AC
:10444000002852D0002D50D0002C4ED0206807906C
:104450001A20206005AB0E990D9804F0EEFF00289D
:1044600041D103AB2A460E990D9805F040F800287B
:1044700039D108AB2A460E990D98FFF7CAFB0028E0
:1044800031D102AB2A460E990D9804F0D6FF0028D0
:1044900029D101AB2A460E990D9804F0CEFF0600F3
:1044A00021D169468988206840182060002F24D0D7
:1044B00007993C46884215D86846808A208068461D
:1044C000007BA070122208A9201DFBF755FE68464C
:1044D0000089E08268468288228328680E99091A3A
:1044E0008A4204D9092011B0F0BD0E20FBE70D99D6
:1044F000411820461A30FBF73FFE69468988286834
:10450000401828603046EEE7F8B51F4615000E4605
:1045100009D0002F07D0002E07D0B168002904D1A0
:10452000F168002901D00E20F8BD3968052940D373
:10453000A6212970691C04F07BFF401C002E01D0CD
:10454000012100E00021441C2954002E42D039688A
:10455000E01D81422DD32919308804F069FF041928
:10456000B0782855641C2919B08804F061FF04193B
:10457000B068002831D03A68211D8A4219D30088DA
:1045800001214902884201D90720F8BD01202855A0
:10459000B068641C2919008804F04AFF0419F06807
:1045A000002815D0B0680188601C08183968884256
:1045B00001D90920F8BD01202855B068641C028883
:1045C0002819F168FBF7D8FDB0680088041901E0EC
:1045D0002855641C00203C60F8BD00202855641C50
:1045E000F6E70000FEB51F46144606000D4614D03F
:1045F000002C12D000200A460190A62301A90094A5
:10460000304604F068F8002806D12068002806D05B
:104610000198A8420ED00920FEBD0E20FEBD06481E
:1046200000903B4601AA2946304601F065F8002873
:10463000F4D1EDE70020FEBD3B94000030B5039CB3
:10464000002B0BD0002C09D02568042D1BD3A025EE
:104650001D705870002903D0012002E00E2030BDEB
:10466000002098700320002909D0206806280AD36A
:104670000D88DD702D0A1D71887858710620256817
:10468000411C8D4201D2092030BD002A01D00121F8
:1046900000E000211954401C2060002030BDFFB50F
:1046A00083B0174600201E460C46009301900A4630
:1046B000A02301A9039804F00EF8050006D1306884
:1046C000002805D00198A04211D1002007B0F0BD0C
:1046D000002F0ED00198801CA04208D83B4601AAAA
:1046E0002146039804F086FE0198A04203D00920D9
:1046F000ECE70E20EAE72846E8E73FB583B0002064
:104700000A9C0090A72069461D460871002B25D001
:10471000002C23D00B46294601A8226804F0F4FEA1
:10472000002819D16B46294603A8226804F097FE99
:10473000002811D16B46294604A8226804F08FFE98
:10474000002809D16B46294605A8226804F087FE97
:10475000002801D10099216007B030BD0E20FBE791
:1047600010B51346A72203F0A3FF10BD3FB581B0DB
:104770000D4600230899099C009300290FD0002CB6
:104780000DD02368082B21D3AA230B704870000A90
:10479000887003200090002A04D0012003E00E203E
:1047A00005B030BD0020C87004200090002A08D059
:1047B00020680623062809D312880A71120A4A7152
:1047C000009300982368421C934201D20920E7E736
:1047D000002D01D0012300E000230B5400926B4612
:1047E00004A8226804F05FFE0028D9D10098206058
:1047F0000020D5E7FFB583B00C9F1C460D46060090
:1048000036D0002F34D000200A460190AA2301A9F7
:104810000097304603F05FFF002827D13868002852
:1048200003D00198A84235D136E00198C01CA842B7
:1048300030D802AB01AA2946304604F0DBFD0199CD
:10484000705C491C0191012805D0002CE9D0684614
:1048500000892080E5E70598002809D0002C07D0C2
:104860006A4620881289904204D20C2007B0F0BD1D
:104870000E20FBE78818A8420CD871180598FBF7A2
:104880007BFC6846008920806846008901990818E9
:104890000190C6E70920E9E70020E7E77FB582B08D
:1048A0000B4600210A9C0B9E15460091002C0FD050
:1048B000002E0DD0316808291DD3A9212170607008
:1048C000000AA07003200090002B04D0012003E018
:1048D0000E2006B070BD0020E07004200090002B78
:1048E00018D0C001854201D90720F2E72846316877
:1048F0000A30884201D90920EBE72571290A617144
:1049000006200090A01D2A461946FBF735FC0098AA
:10491000401900906B46214605A8326804F0C3FD9B
:104920000028D6D1009830600020D2E710B5134699
:10493000A92203F0BDFE10BD7CB516460022069DDF
:104940001C460192002B06D0002D04D02A68052AAF
:1049500003D209207CBD0E207CBDA4222270607091
:10496000000AA070E170090A052021710190002E53
:1049700006D0308801214902884201D907207CBD38
:104980000648009001AB214630462A6800F0E3FE5D
:104990000028F4D10198286000207CBD2D4A000039
:1049A000FEB51C46174606000D4614D0002C12D04A
:1049B00000200A460190A42301A90094304603F088
:1049C0008AFE002806D12068002806D00198A84257
:1049D0000CD00920FEBD0E20FEBD3B4601AA294693
:1049E000304600F005F80028F6D1EFE70020FEBDC4
:1049F000FFB583B015460E461C461F88039804F089
:104A00001CFD002810D1A31C2A463146039804F04F
:104A100014FD002808D120880190231D2A46314624
:104A20000097039800F01EFD07B0F0BDF8B51D46D5
:104A300016460F46044604F012FD00280ED12B4600
:104A400032463946A01C04F00AFD002806D1009524
:104A5000218833463A46606800F039FDF8BD000011
:104A600030B50446008C134A8BB0904220D006AA81
:104A7000204601F0ABFF6946054608800020019002
:104A800002900390049022898A8001228A71088111
:104A900006A803910490208C01A903F0D3FB002801
:104AA00004D169460988A94200D00C200BB030BD62
:104AB0000820FBE7FFFF000038B5044608682060C7
:104AC000087960710020C0430D4620840020222117
:104AD00008554C2108530121684681700C4901801A
:104AE000A21D6946012003F0D7FB00280FD12946FB
:104AF000204601F011FF002809D1A868002805D040
:104B00002946204600F0B6F9002800D1002038BD23
:104B10000D18000038B50A88102A17D0112A17D0AE
:104B2000502A18D1CA888389891D9A4213D10A8BC9
:104B3000022A10D10268002A0DD0CB7E8C7E190289
:104B40002143C907C90F07D0002106E0898801E089
:104B50000021C943018438BD01216B4619706946A3
:104B6000904738BD70B5054604464035A8890E46C5
:104B7000142807D12622A118881EFBF7FDFAA88960
:104B8000401EA88180B241000919401CA8818E8472
:104B900070BD203081707047FFB585B01D4614464A
:104BA000070030D0002C2ED0002D2CD000200190FA
:104BB00002202E68286003AB01AA3846069904F04B
:104BC0003CFC00281DD1231D01AA3846069904F09B
:104BD00034FC002815D12868A41D301A029002ABBD
:104BE00001AA00943846069900F00FF8002808D171
:104BF0002968029A89182960019A06998A4200D088
:104C0000092009B0F0BD0E20FBE7FFB583B0039883
:104C10000C9C1F46154600282ED0002D2CD0002FAE
:104C20002AD03868029028680190002069460880E0
:104C30006B4601AA0499039804F0FFFB060019D102
:104C4000694609886118081B001D3860002C1ED0B9
:104C5000029988420DD823462A460499039800F009
:104C600018F8060006D1286804992288091A8A4291
:104C700004D9092007B0F0BD0E20FBE703994118C5
:104C8000201DFBF779FA21882868401828603046F3
:104C9000F0E7F8B515460F4606000FD0002D0DD0F1
:104CA000002B0BD01C4604F0C8FB002805D1A31C28
:104CB0002A463946304604F0C0FBF8BD0E20F8BD48
:104CC00070B504460D460846FBF788FA20806560FB
:104CD00070BD0A7802704978417002207047000068
:104CE0001CB5002348221649082004F09FF900282B
:104CF00003D000221146FBF771FE002000900190C6
:104D0000012069460870684602F0FEFF002803D0C3
:104D100000221146FBF762FE0A4804F07DF90028E4
:104D200003D000221146FBF759FE074804F098F91A
:104D3000002803D000221146FBF750FE1CBD0000E6
:104D4000000400202D1900008B90000070B5049D18
:104D5000002B0AD0002D08D02C68022C1AD3652411
:104D60001C70002803D0012402E00E2070BD002436
:104D70005C700224002809D02C68052C0AD3068810
:104D80009E70360ADE708078187105242E68A01C8B
:104D9000864201D2092070BD002901D0012000E027
:104DA00000201855641C002A01D0012000E00020DA
:104DB0001855641C00202C6070BDFFB583B00746F9
:104DC000164600200C460C9D0A460190652301A959
:104DD0000095384603F07FFC002820D12868002881
:104DE00003D00198A04219D11BE001980146401C54
:104DF000A04213D87D5C0190002EF2D006990029C4
:104E00000AD04119A14209D839182A460698FBF759
:104E1000B3F90198401901903570E2E7092007B015
:104E2000F0BD0020FBE7F8B5074610681546081AE4
:104E30000E461C46032801D20920F8BD384604F06E
:104E4000D9FAA31C2A463146384604F045FB002017
:104E5000F8BDF8B51D4616460F46044604F0FFFAA5
:104E6000002805D12B4632463946A01C04F04CFBE5
:104E7000F8BD0000F0B58FB00D4606461C2168460F
:104E8000FBF7A1F9684601780220014368460170EA
:104E900000240194039404940594012708A806941F
:104EA00087701549684601840794E97B0177297C5E
:104EB0004177807FF9210840F721801C0840EF21CD
:104EC00008404108490068468177142109A8FBF78A
:104ED0007AF908A8099007A80A9068468785C485CA
:104EE0000786A8680D903346F088103309AA6946F2
:104EF00003F052F90FB0F0BD382A00001CB504468B
:104F000081786A460C4802F06DFC002812D1607866
:104F10001C21484309491C2340181A46694602F0DF
:104F2000F5FC064806494C30807A80000A58214634
:104F3000684690471CBD0000E00000206C07002080
:104F4000C89700007CB5134E00250C463060002940
:104F500018D06946002000F0B5F8002819D101A941
:104F6000012000F0AFF8002813D168460179002035
:104F7000002901D0022004E069460978002900D008
:104F80000B2020707068002802D1FBF764FC0546F6
:104F900028467CBD4800002010B51C4C0188606884
:104FA00010290DD011290AD1401E606007D1FBF7EE
:104FB00052FC002803D02168002900D0884710BD8A
:104FC00000281ED100210122084600F0AFF8002879
:104FD00001D0072811D107220221012000F0A6F8F4
:104FE000002801D0072808D104220221002000F067
:104FF0009DF8002805D0072803D02168002900D09B
:1050000088476068401C606010BD000048000020B8
:1050100010B5032000F008FA002801D0062800D1BE
:10502000002010BDF8B507460024234802E0641CA8
:10503000042C1AD2A2008258BA42F8D1042C14D2FD
:105040001D481E4E0C38002929D001290ED00229F6
:105050000BD16000201880194578002D05D0184824
:105060000169002901D028468847F8BD6100611810
:10507000755C8E19717800290CD011490A22496893
:10508000806851430E4A521CFBF794FD002801D161
:105090000B4847700A48B17814300155DDE7806845
:1050A000FBF7C6FD06486100611814308919005DE0
:1050B0008D78A842D1D0F8BD80970000200500204F
:1050C0003000002004280CD2074A1269074B8000E8
:1050D0001B5C01209840904300D001200870002004
:1050E00070470020FAE7000000050050809700009C
:1050F00010B5042806D0072811D00A2801D103F0E2
:1051000069FF10BD08481321808802F071FF08E094
:105110000028F6D000221146FBF760FC10BDFBF71B
:10512000C9FF0828F4D110BD0000002070B500238D
:10513000042811D2440004190D4D012A02D101297D
:105140000DD0002246008019094E801900290CD08C
:10515000012906D0022906D00723184670BD0D305C
:10516000C2B22A55F9E74270F7E78270F5E700000E
:105170002005002010B5054A0146127A0020D2070A
:1051800002D0084600F054F810BD000030000020A6
:1051900070B50E46204905464E608D6000200A61BC
:1051A000A9071ED50024012211462046FFF7BEFFA5
:1051B000641C042C02D20028F5D012E0002810D183
:1051C000720804211548FBF7CFFB002809D1FBF733
:1051D000B9FB002805D11148114A00211438FBF70A
:1051E0008BFCE90706D00F220E4952058A60002386
:1051F000CB608A6100280DD108480B4A00211C3879
:10520000FBF77AFC002805D10448084A0121183828
:10521000FBF772FC70BD000030000020909700008A
:105220001F55000000050050B56B000095080000F8
:10523000FEB57A4D0722EB6892059A4302936B689C
:1052400000939C0006461B1900200121019349058B
:105250000746734C3300FBF7D5F9180D1515374782
:1052600055677C887F8891DE9E9E9E9E9EC8CED18B
:10527000D8DEDE140F21029A49059143A160E76050
:105280002F70FEBDA260E76060680F22520550409B
:10529000800209D5A160E760022E02D1E120C000A2
:1052A0000AE07D20400107E0E160A760022E01D105
:1052B000C82001E0FF2091302E706421FAF746FFEC
:1052C0000099414300223FE0A260E76060680F223E
:1052D00052055040800204D5A160E76019204001CA
:1052E000EAE7E160A760E3E7A260E76060680F2299
:1052F00052055040800202D5A160E760D1E7E1602D
:10530000A760D7E7A260E76060680F2252055040AF
:10531000800202D5A160E76001E0E160A7602E7025
:105320000098410000220FE0A260E76060680F2251
:1053300052055040800202D5A160E76001E0E160C3
:10534000A7602E700099002236480068FBF732FCF7
:10535000FEBDA260E7601BE0616801208005024697
:105360008A43A2600140E16010E060680121890584
:105370000A468243A2600840E060E3E760680121DA
:1053800089050A468243A2600840E0600199C9E7A6
:10539000E160A7602DE023484068FBF749FC11213C
:1053A0008A1B01D0002807D00F22E968520511405E
:1053B000A160E760EF60FEBD0121C905E960012A37
:1053C0000CD91046C82148436421FAF7BFFE69682A
:1053D0000022414313484068FBF7ECFB0F22E968C9
:1053E00052051140E160A760FEBD0F214905A16093
:1053F000E7602E70FEBD07229205AAE70D21490540
:10540000A160E76001218905C2E70321C905A16008
:10541000E7608910BCE70F214905B9E7300000209B
:105420000005005074970000F0B500210B4C0C4DA6
:1054300003273F048A00A2589200561932680123BC
:105440008B40034000D00323BA431B041343336053
:10545000491C0429EED30020F0BD00008097000015
:1054600000070050FFB581B00F46002069460B9E33
:10547000087010681C461546B8421BD00B463946CA
:10548000019804F029F868460078012806D0002C1D
:1054900001D000202060002005B0F0BD002C0BD012
:1054A0002068002808D00A998E4203D829687A1A01
:1054B000B24203D20920EFE70E20EDE7019A8918E6
:1054C0003246FAF759FE286880192860E3E7FFB5ED
:1054D00081B00A9C0D46060001D0012000E00020AA
:1054E0006946087023466846049A039904F00CF84C
:1054F000070007D1002E10D020680499091AA9428C
:1055000002D2092005B0F0BD03992A464018314661
:10551000FAF732FE2068401920603846F2E710B5ED
:1055200000780221FFF77EFD10BD00000022D2436B
:10553000830004490428CA5002D308182030027797
:1055400070470000DC070020F0B50025ED43002A7D
:1055500002D00023042601E0042308260B4C04E0BB
:105560009F00E7597F1C04D05B1CB342F8D3284648
:10557000F0BD26185DB2203635709E00A151002A7C
:10558000F5D1E11820310877F1E70000DC070020B1
:10559000024909182020085670470000DC07002047
:1055A000FFB58FB01E4615460F0004D100221146EC
:1055B0001046FBF713FA002D04D1002211461046C5
:1055C000FBF70CFA1C216846FAF7FDFD68460178E6
:1055D000022001436846017000240194039404945E
:1055E0000594012108A80694817068460F990184EA
:1055F00007943178017771784177807FF9210840ED
:10560000F721801C0840EF21084041084900684606
:105610008177142109A8FAF7D6FD08A8099007A8F0
:105620000A9068468585C485058605480D9709AAB0
:1056300069460088189B02F0AFFD13B0F0BD000072
:1056400084000020F8B52348C16800293ED00E68C8
:1056500021494C680769C078E11B0D022D0AED1C39
:10566000002814D101201D4A000450601B4A403A12
:1056700050601B49400008601A4908601A4901201F
:1056800008602F20FAF736FD12490120C870B54294
:1056900000D23546E81900020F4B000A403318606B
:1056A0000D4A5168001B091B0902090A0002000A81
:1056B000C91C814209D9506818602F20FAF71AFDD9
:1056C00001200749400480390860F8BD02F0D0FA93
:1056D000F8BD00000C0100200015014040130140FE
:1056E00080E200E000E100E000100140401A80B2DA
:1056F000FF2800D9FF207047FFB581B011680298DC
:1057000000250A9E1C461746814202D1092005B099
:10571000F0BD01466B46019803F0DEFE6846007856
:10572000012804D0002811D00B252846EFE7002CD3
:105730000AD02368002B07D0002EF6D03A460299F3
:105740000198B0470546F0E70E20E0E7002CECD0CA
:1057500000202060E9E7F8B51E680025069C964207
:1057600001D10920F8BD002801D0012700E0002761
:105770008F551E68761C1E60002803D0002C01D0B7
:10578000A04705462846F8BDF8B5064610881446D9
:105790008446801D0D46984201D90C20F8BD328800
:1057A0000720062AFAD31927FF01184BBA4201D95C
:1057B0009A42F3D171880629F0D3B94201D99942AE
:1057C000ECD19A4203D0994201D08A42E6D8052111
:1057D0006046295420881221401C80B22080295420
:1057E0002088401C80B220804119308803F011FECF
:1057F0002188401880B220804119708803F009FE8A
:105800002188401820800020F8BD0000FFFF000024
:1058100010B500221146FBF7E1F810BDF8B51648A7
:1058200001F066F9144D00260C3D144C002807D0F9
:10583000616900291CD001206A461070684616E094
:105840002878002805D06169002911D068460670C3
:105850000DE0687800280DD0A16809480022006892
:10586000FBF7A8F9002803D0A169002900D08847D8
:105870002E70F8BD6168F0E77C0000207006002003
:10588000B097000070B5094B04469E7A08200025A9
:105890000E4207D00648844202D01889A04202D1A5
:1058A0000020156070BD052070BD0000AC07002011
:1058B000FFFF00000C214843064910B501224018A3
:1058C0008272911E0181FF21C1720721FAF77BFCD0
:1058D00010BD0000AC07002072B602480168491CE8
:1058E000016070472C01002003490868401E0860D1
:1058F00000D162B6704700002C0100200278837846
:10590000521C5B1ED2B283708A4200D10022027008
:1059100070470000F8B500260124154D23E06968A2
:10592000F0004718387821462A698140114218D082
:105930008A432A6101F056FC3A782146EB6891408F
:1059400019400346934099420BD17978012901D03F
:10595000012100E000217B684140002B01D010466E
:105960009847761CF6B228788642D8D3F8BD000056
:10597000F8000020FEB50E46044681786A462348AA
:1059800001F030FF002826D160780C21204F4843D9
:10599000C019807A40061FD4022E1DD0012E1DD0C2
:1059A0001C4DA0781C2148431B49002341181C2290
:1059B0006846A847002813D0022E0CD020780C216E
:1059C000484313490C314018807A144980000A5822
:1059D000214668469047FEBD114DE2E7114DE0E7D4
:1059E000022EF8D060780C214843C019817ABF227A
:1059F0001140817260781C214843054940394118A3
:105A00001C231A466846A847D8E70000E00000209B
:105A1000AC07002087900000A8060020B89700007F
:105A2000E97A0000517A000070B50546114A124823
:105A300000241C2363431B189B7EFF2B04D0641C93
:105A4000072CF6D3104670BD0A78022A09D01C2212
:105A500062431018FD22827607221030FAF78CFB81
:105A600004E01C2161430818FE2181762C7000227D
:105A7000E8E7000043800000A8060020F7B50525F0
:105A80000F4F06460024002E0AD01C206043C01988
:105A9000072231461030FAF7A8FB002807D00AE0A9
:105AA0001C206043C019018B0298814203D10198E8
:105AB0000025046002E0641C072CE4D32846FEBDE8
:105AC000A80600207CB5054681B26A46074801F069
:105AD00089FE040008D17421684601F0ADFE04007F
