:020000040001F9
:1080000050290020D5800100EF800100F18001009F
:108010000000000000000000000000000000000060
:10802000000000000000000000000000F3800100DC
:108030000000000000000000F5800100F780010052
:10804000F9800100F9800100A9810100F980010097
:10805000F980010000000000F9800100F9800100B2
:10806000F9800100F9800100F9800100F980010028
:10807000F9800100F9800100F9800100F980010018
:10808000F9800100F9800100F9800100F980010008
:10809000F9800100F9800100F9800100F9800100F8
:1080A000F9800100F98001000000000000000000DC
:1080B00000000000000000000000000000000000C0
:1080C0000348854600F034F800480047E584010085
:1080D000502900200321094802680A430260084829
:1080E00002680A4302600748804707480047FEE7E6
:1080F000FEE7FEE7FEE7FEE7FEE70000240500409E
:108100005405004055810100C180010003460B4326
:108110009B0703D009E008C9121F08C0042AFAD23D
:1081200003E00B780370401C491C521EF9D27047C3
:10813000064C0125064E05E0E36807CC2B430C3CBA
:1081400098471034B442F7D3FFF7BEFF2C8A0100E2
:108150004C8A010010B500F0A1F9002805D00E49A5
:108160000C484860C8130D4988610D48018CC9B29C
:1081700001290ED1818C09070BD1018D0906090F48
:10818000042906D1808D0006000F02D10549012087
:10819000886010BDDFFF07C000050040006C004094
:1081A000C00F00F000060040F0B53C4D012185B045
:1081B0004902284600F054FB01270026384C0028CD
:1081C00023D0FF212531284600F045FB00281CD094
:1081D000FF2025302E508120324980008860607D4C
:1081E000002800D16F600221684601702E4908689E
:1081F00008600390E17C68460172E0680190E674D3
:1082000006CC6846083C90471DE00421284600F053
:1082100027FB002817D0FF210931284600F01BFB5F
:10822000002810D000F024FBE07C217D88420AD198
:10823000607D002800D16F6081201A49800088602D
:10824000207D00F02BFBFF211D31284600F003FBB1
:1082500000280DD0A07C218A884202D900F03CFB86
:1082600006E0FF211D316E50002801D000F04AFBCE
:10827000FF214531284600F0EEFA00280CD0FF20FF
:1082800045302E50607D002800D02F60E07C002813
:1082900002D0207D00F002FB05B0F0BD00200040C0
:1082A00034210020002300408024004010B5024A01
:1082B000024900F014F810BD8F8401000C2000204A
:1082C00002E008C8121F08C1002AFAD1704770479F
:1082D000002001E001C1121F002AFBD17047F8B550
:1082E00016460F460446002503E03946B047641C95
:1082F0006D1C20780028F8D12846F8BDBFF34F8FB9
:1083000004490348C860BFF34F8F00BFFDE700007A
:108310000400FA0500ED00E010B58268C3689342DE
:1083200003D000F0A1F8002010BD052010BD0029E9
:1083300006D0002A02D0531E134203D009207047F2
:108340000E2070470160838000218160C160084673
:10835000704710B58268C3689A1A83889A4203D816
:1083600000F08CF8002010BD042010BD10B50446AC
:1083700009488168C2688088511A814207D1012169
:10838000064800F097F9002801D0052010BD2146CD
:108390000148FFF7C1FF10BD142100200620002076
:1083A00070B50446224888B01E460D0042601CD0BD
:1083B000A888296882B21F48FFF7B9FF002815D1A5
:1083C000A889A96882B21B481030FFF7B0FF0028C7
:1083D0000CD1202218496846FFF798FEA068069045
:1083E0002079002804D0012103E0072008B070BDE7
:1083F00000216846017506776079002800D00E20BC
:1084000069464875E0780290A07803902078019042
:10841000607800900949684600F0F4F80028E5D13A
:1084200000F0A2F902480121801C00F043F9DDE7C9
:108430000420002014210020EC8901003D89010066
:1084400010B50446064801214470401C00F098F91C
:10845000112803D121460348FFF77BFF10BD000020
:108460000420002024210020826883881A400368A9
:108470009A5C0A708168491C81607047C268838871
:108480001A4003689954C168491CC160704710B50F
:108490000446C0B2FFF7D4FF204610BD1048018C3F
:1084A000C9B2012917D1818C090714D1018D0906A0
:1084B0000A0F03D1828D1206120F0ED0090F012967
:1084C00003D1828D1206120F07D0032903D1808DAC
:1084D0000006000F01D00020704701207047000007
:1084E000C00F00F000200121224C88B00346032277
:1084F0000D468540ED012D0F02D085002D192A6013
:10850000401C2028F4D30F221B4852058260C36010
:108510001A4B0DCB00901A4803901A48059001920F
:10852000FF2001300293049106900323164A03A909
:108530006846FFF735FF002803D000221146FFF7F9
:10854000DDFE12A0FFF7B2FE03A8FFF70FFF002821
:10855000FAD16846007BFFF773FF0028F9D168461F
:10856000007B712801D05128EED10BA0FFF79EFEB1
:10857000FEE700000007005000050050E089010000
:108580000020002014200020258901000A0D5374CA
:108590006172743A200A0D00200A0D457869742131
:1085A0000A0D00008207D30EFF229A408907090EA8
:1085B00010B5994000280BDA03071B0F083B9C08F5
:1085C0000C4BA400E318DC6994430C43DC6107E026
:1085D0008408094BA400E418236893430B432360E9
:1085E000C106C90E0120884004490860044908609A
:1085F00010BD000000ED00E000E400E080E200E0DB
:1086000000E100E0F3B50446244881B0807D0028F5
:1086100001D00820FEBD002C00D1214C206800F0C4
:1086200010F92078012739461E4E8140B1600021A3
:10863000606800F0FDF81C4DA0696862607D217DD6
:108640000843E86603CCE8606961207B083C0128A8
:108650000ED10021A06800F0EBF8E06800F0F1F81E
:10866000207B39468140B160E168A068A96028613B
:108670000A4E0298706021693160002806D00C4AC9
:10868000217F0A4850600220FFF78CFF04202860F9
:108690000020F074B074B7757075FEBD34210020F1
:1086A0000C8A0100000500500025004080000200F7
:1086B00000230040F8B5294DEA7C002A01D01120A2
:1086C000F8BDE974E86000202875687D002801D1B4
:1086D00000F0F4F86868224C002805D08120214978
:1086E000800048600020F8BDFF212531204600F0C1
:1086F000B2F80546FF210931204600F0ACF80746E4
:10870000FF214531204600F0A6F8064639463143A0
:108710002943E9D02846304306D100F0A9F80F4894
:10872000C17C007D8142DFD8FF21453100206050AF
:10873000FF21253160500949002DC87401D0032064
:10874000F8BD002E01D00F20F8BD497D0120002981
:1087500001D02060C6E76060C4E70000342100203B
:10876000002000400023004010B5044C607D00282C
:1087700003D100F0A3F80120607510BD3421002062
:10878000F8B5204C0026A27C002A01D01120F8BDAB
:10879000A174A060002020821B4DFF271D37E851E7
:1087A0000120A86000F098F86168002911D024E049
:1087B000FF2701372946144800F04DF8002802D160
:1087C000208AB842F6D1208AB84203D000F084F85B
:1087D00000E03D46A07C218A8842E9D8218AC81F52
:1087E000F9380CD0084F2946384600F034F80028F4
:1087F000F9D00120F8600020A0743046F8BD0F26A3
:10880000F9E70000342100200020004030B552007C
:108810000A439900039C0A432102049D0A43290448
:108820000A43024980004018026030BD0007005032
:108830001CB500220B46009211460192FFF7E6FF9D
:108840001CBD1CB5002100910B460122019111466F
:10885000FFF7DCFF1CBD4058002800D00120704706
:108860000322120280184068084000D0012070479F
:10887000FF21074809310022425006488169064815
:10888000037DC268D154017D491C01757047000009
:108890000020004000250040342100201FB50122A7
:1088A00069460A7008720448C16801910021C174C8
:1088B00006C8684690471FBD34210020FF220548A6
:1088C000253200218150FF220932815001210160AF
:1088D0007047000000200040FF2107481D310022A2
:1088E00042500648028A8168895C028A521C0282D0
:1088F0000348C1617047000000200040342100207F
:10890000002500401FB500216A461170107204480E
:1089100082680192817406C8684690471FBD0000B6
:108920003421002010B50178022901D0012904D199
:10893000002240681146FFF7E1FC10BD7CB50178CC
:10894000254D01290AD002292FD000292CD12946F2
:108950002248FFF7E1FC00282ED031E04068017882
:108960001E481038FFF7F5FC1C4C103C002805D0C1
:1089700001216A4611700190684608E0A068E1682C
:10898000081A012805D10020694608706846696800
:108990008847A068E168081AA188884204D80E4870
:1089A0000121801CFFF786FE7CBD02216A46117002
:1089B000C068019068460CE001210748FFF7E0FE1F
:1089C00006488168C0688842EED103206946087075
:1089D0006846696888477CBD042000202421002067
:1089E0000B09080A0100000000509D00090000006A
:1089F0000B0000000A00000008000000000000005A
:108A00000000000000509D0003000000090000006D
:108A10000B0000000A000000080000000000000039
:108A20000000000000509D00030000004C8A01007F
:108A30000020002014000000C0820100608A0100B4
:108A4000142000203C090000D0820100000000003A
:108A50000000000000000000000000000024F400FE
:04000005000180C1B5
:00000001FF
