:020000040001F9
:10800000582B0020158101002F81010031810100D2
:108010000000000000000000000000000000000060
:10802000000000000000000000000000338101009B
:1080300000000000000000003581010037810100D0
:108040003981010039810100398101007D830100FE
:1080500091830100000000009D8101003981010031
:108060003981010039810100398101003981010024
:108070003981010039810100398101003981010014
:10808000398101005D8301003981010039810100DE
:10809000A583010039810100398101003981010086
:1080A000398101003981010000000000000000005A
:1080B00000000000000000000000000000000000C0
:1080C0000348854600F058F800480047A98E010093
:1080D000582B0020401E00BF00BF00BF00BF00BFE4
:1080E00000BF00BF00BF00BF00BF00BF00BFF1D195
:1080F00070470000401E00BF00BF00BF00BF00BFB0
:1081000000BF00BF00BF00BF00BF00BF00BFF1D174
:10811000704700000321094802680A4302600848CA
:1081200002680A4302600748804707480047FEE7A5
:10813000FEE7FEE7FEE7FEE7FEE70000240500405D
:1081400054050040AD830100C180010030B50B46ED
:10815000014600202022012409E00D46D5409D4221
:1081600005D31D469540491B2546954040191546A7
:10817000521E002DF1DC30BD064C0125064E05E0F7
:108180002046E36807C82B4398471034B442F7D31E
:10819000FFF79AFF2895010048950100F8B50025E2
:1081A000FF24013401262F460095204601F03AF8BD
:1081B000002808D034484068304204D033480021B9
:1081C000201835430160241D76007F1CA4B2042FC3
:1081D000EBD3FF207D3001F025F8002807D02C4894
:1081E00000210160400705432A48006900902A4E9B
:1081F000280713D001270024384628420AD02748F0
:10820000A200111808690969C004C00E8903B25898
:10821000890F90477F00641C042CEDD3002D30DAC9
:1082200000241D4E0021301940304156491C25D0F4
:108230000778BD06AD0E284600F052FC8000365887
:10824000002E1BD0BF090121A940154AA8008018A3
:108250000068009A8003800F114202D0022802D0E9
:108260000CE003280AD1032F05D102280AD00221ED
:10827000284600F0AFFF39462846B047641C042C5E
:10828000CFD3F8BD0321F3E7006300400060004056
:108290007C61004000050050C022002000650040C5
:1082A00000070050F8B500268021084334460546F3
:1082B000E80903D0082000F0A5FF02E0082000F044
:1082C00099FF092000F096FF092000F09BFF680647
:1082D000761C050EF6B2082EEAD30D4F0D4E002582
:1082E000092000F087FF092000F08CFF38690007A3
:1082F000C00F02D06000401C00E06000C4B2B47047
:10830000F5706D1CEDB2082DEAD32046F8BD0000D3
:1083100000050050002000208307FF22DB0E9A405A
:108320008907090E994000280BDA0007000F08386A
:10833000830808489B001B18D86990430843D861FC
:108340007047830804489B001B1818689043084333
:108350001860704700ED00E000E400E010B5064949
:108360000020086048608860C860034940390860A0
:10837000486001F00FF810BD4011014010B50249EE
:10838000024800F083FC10BD0823002000300040AC
:1083900010B50249024800F079FC10BD20230020EE
:1083A0000040004010B500F08BFF10BD10B500F08C
:1083B00083FC002805D00E490C484860C8130D49BD
:1083C00088610D48018CC9B201290ED1818C090741
:1083D0000BD1018D0906090F042906D1808D0006F5
:1083E000000F02D105490120886010BDDFFF07C0E2
:1083F00000050040006C0040C00F00F00006004087
:1084000030B47446641E2578641CAB4200D21D460D
:10841000635D5B00E31830BC184702E008C8121F18
:1084200008C1002AFAD170477047002001E001C15D
:10843000121F002AFBD17047044842680121C90578
:108440000B46934383600A40C260704700050050AA
:1084500070B50024064D06E06968E000085C012163
:1084600000F0B0FD641C28788442F5D3002070BD74
:1084700020200020F8B515460C460646052A01D2F4
:108480000720F8BD00F070FE002803D100F042FE86
:108490000028F6D1104900204E600C70C8608D6035
:1084A00008610E4D0DE0E000696880190091817847
:1084B0006A46517000780A4A694600F0D3FD0028E8
:1084C000DFD12046641EE4B20028ECD1054A002129
:1084D000024800F00DF8F8BD202000202095010092
:1084E000398C0100998B01000C2000F067F9FEE740
:1084F000094B9B68002B07D0002A07D0002805D025
:108500000068037C002B03D00820704707207047C9
:10851000417442610020704734200020FFB590076D
:10852000002581B014460E46002832D11B4F002C86
:1085300031D000F0A3FE0498786103203870224601
:10854000BC6018340020334618214B43C100891801
:108550000D704D708E704C601C19401C0328F5DBAB
:10856000FD607D7001240E48BD7024050460032168
:108570001420FFF7D1FE0B4804600B4C0198A0605B
:1085800003211120FFF7C8FE60683861002005B0A4
:10859000F0BD0720FBE7BD60FBE7000034200020B2
:1085A00080E200E000E100E000150140FEB50D466C
:1085B0001B4917468968044600292AD0002C28D078
:1085C000052D01D20720FEBD6069002821D0607C06
:1085D000012820D0002600F047FFC000104901907C
:1085E00089684018694600F069FF002815D001210C
:1085F00001700C49446049680830E2C0084901989C
:108600008968411868460078487000F09BFE002099
:10861000FEBD0820FEBD2E46DDE70420FEBD0000A5
:108620003420002000150140F8B5134D0446A96818
:1086300000291CD0002C1AD06069002817D0002611
:10864000267400F011FFC700A8686946381800F0CA
:1086500035FF00280DD0022101704460A868391848
:1086600068460078487000F06DFE3046F8BD08207E
:10867000F8BD0420F8BD000034200020F8B50746FE
:108680000024234802E0641C042C1AD2A200825861
:10869000BA42F8D1042C14D21D481E4E0C380029C1
:1086A00029D001290ED002290BD160002018801991
:1086B0004578002D05D018480169002901D02846C9
:1086C0008847F8BD61006118755C8E1971780029C2
:1086D0000CD011490A224968806851430E4A521C45
:1086E000FFF764FF002801D10B4847700A48B178B2
:1086F00014300155DDE78068FFF796FF06486100FA
:10870000611814308919005D8D78A842D1D0F8BD68
:10871000F0940100942200200420002010B511499B
:1087200001208861104900224A60820790604868F1
:108730000028FCD000230D4A03211846FFF7EEFE67
:10874000002803D00C2000F039F8FEE70022084989
:10875000012000F041F8002803D00C2000F02EF892
:10876000FEE710BD0005004000010040542000203D
:10877000CD0C000070B50023042811D24400041968
:108780000D4D012A02D101290DD000224600801989
:10879000094E801900290CD0012906D0022906D0E3
:1087A0000723184670BD0D30C2B22A55F9E7427052
:1087B000F7E78270F5E700009422002010B5054A23
:1087C0000146127A0020D20702D0084600F054F881
:1087D00010BD00000420002070B50E46204905465B
:1087E0004E608D6000200A61A9071ED50024012279
:1087F00011462046FFF7BEFF641C042C02D200285D
:10880000F5D012E0002810D1720804211548FFF7B6
:1088100031FE002809D1FFF71BFE002805D11148C1
:10882000114A00211438FFF763FEE90706D00F2232
:108830000E4952058A600023CB608A6100280DD161
:1088400008480B4A00211C38FFF752FE002805D1CA
:108850000448084A01211838FFF74AFE70BD00009D
:108860000420002000950100718A010000050050DD
:10887000018D010039840100FEB57A4D0722EB68B5
:1088800092059A4302936B6800939C0006461B195D
:1088900000200121019349050746734C3300FFF77F
:1088A000AFFD180D1515374755677C887F8891DE19
:1088B0009E9E9E9E9EC8CED1D8DEDE140F21029AC7
:1088C00049059143A160E7602F70FEBDA260E7609B
:1088D00060680F2252055040800209D5A160E76010
:1088E000022E02D1E120C0000AE07D20400107E015
:1088F000E160A760022E01D1C82001E0FF20913085
:108900002E706421FFF722FC0099414300223FE0D2
:10891000A260E76060680F2252055040800204D5D3
:10892000A160E76019204001EAE7E160A760E3E7A2
:10893000A260E76060680F2252055040800202D5B5
:10894000A160E760D1E7E160A760D7E7A260E760D8
:1089500060680F2252055040800202D5A160E76096
:1089600001E0E160A7602E700098410000220FE056
:10897000A260E76060680F2252055040800202D575
:10898000A160E76001E0E160A7602E70009900221D
:1089900036480068FFF70AFEFEBDA260E7601BE0F4
:1089A00061680120800502468A43A2600140E160BF
:1089B00010E06068012189050A468243A2600840F0
:1089C000E060E3E76068012189050A468243A2600E
:1089D0000840E0600199C9E7E160A7602DE0234805
:1089E0004068FFF721FE11218A1B01D0002807D023
:1089F0000F22E96852051140A160E760EF60FEBDFB
:108A00000121C905E960012A0CD91046C821484353
:108A10006421FFF79BFB69680022414313484068CB
:108A2000FFF7C4FD0F22E96852051140E160A7601D
:108A3000FEBD0F214905A160E7602E70FEBD072233
:108A40009205AAE70D214905A160E760012189058A
:108A5000C2E70321C905A160E7608910BCE70F21C7
:108A60004905B9E70420002000050050E494010006
:108A700010B500780221FFF701FE10BD0022D2439D
:108A8000830004490428CA5002D308182030027712
:108A900070470000C0220020F0B50025ED43002AF9
:108AA00002D00023042601E0042308260B4C04E036
:108AB0009F00E7597F1C04D05B1CB342F8D32846C3
:108AC000F0BD26185DB2203635709E00A151002AF7
:108AD000F5D1E11820310877F1E70000C02200202D
:108AE000024909182020085670470000C0220020C3
:108AF000F8B52348C16800293ED00E6821494C686A
:108B00000769C078E11B0D022D0AED1C002814D165
:108B100001201D4A000450601B4A403A50601B4926
:108B2000400008601A4908601A49012008602F2097
:108B3000FFF7E0FA12490120C870B54200D235466D
:108B4000E81900020F4B000A403318600D4A5168C3
:108B5000001B091B0902090A0002C91C000A814204
:108B600009D9506818602F20FFF7C4FA012007497F
:108B7000400480390860F8BD00F080FBF8BD0000BB
:108B800034200020001501404013014080E200E045
:108B900000E100E000100140F8B500260124154D69
:108BA00024E06968F00047183878214681402A6936
:108BB0000B46134218D08A432A6100F0A1FA3A7892
:108BC0002146EB68914019400346934099420BD1EE
:108BD0007978012901D0012100E000217B68414022
:108BE000002B01D010469847761CF6B228788642B2
:108BF000D7D3F8BD2020002010B50E4900234A78B5
:108C00008C78A24212D0521CD2B24A70022A00D1F1
:108C10004B704A78074B920018339A5802600869E3
:108C200010180002000A0861012010BD0360002036
:108C300010BD000034200020F8B50746114E012574
:108C4000BD403068FFF7F0FC002806D10E4C2069CB
:108C50000146294202D0A8432061F8BD384600F001
:108C60004FFA0028E06801D0284300E0A843E06004
:108C70002069002228432061A1683068FFF796FC34
:108C8000F8BD0000209501002020002070B50C46A2
:108C9000FF21093100254550214600F0BDFB002889
:108CA00008D1A079FF2801D000F0B4FA65712168DD
:108CB0000020884770BD00001048018CC9B201290E
:108CC00017D1818C090714D1018D09060A0F03D130
:108CD000828D1206120F0ED0090F012903D1828D49
:108CE0001206120F07D0032903D1808D0006000F52
:108CF00001D000207047012070470000C00F00F035
:108D000010B50448017AC90702D00078FFF7B4FD16
:108D100010BD000004200020F8B52C49C8680A697D
:108D20000C780F7989688646944600913EE0009958
:108D3000E20055182A7836E0182353436968521C1C
:108D4000C918AB78D2B2934200D100220B78022B23
:108D500002D0032B27D123E04E680346014603E0EF
:108D6000B14204D00B46C96900291CD0F8E700299C
:108D700019D08B4208D1C069002805D1144F0126B3
:108D8000BE600026B44601270E68C969D961002972
:108D900009D00B689B190B6005E00174C06900E005
:108DA00000210028F9D169789142C5D12146641E7D
:108DB000E4B20029BBD1054962460A61C8600F715F
:108DC000704501D00120F8BD0020F8BD34200020FE
:108DD00000100140F8B5044631480026C1680091F2
:108DE00007784EE02E48F90080680D1843E0002C0B
:108DF00002D02046E4691FE02878182141436A68C0
:108E0000401CC0B251182870AA78904200D12E7030
:108E10000A784868012A30D1027C002A2DD18A685C
:108E20004260CA6882600A69C260496981611C49FE
:108E30000979002900D04660194943680A699C46AF
:108E4000991A0902174B090A994202D282688918B5
:108E500007E06146511A09028268090A8A4202D96A
:108E6000511A016000E006604660012186600174CD
:108E7000C66100F06FFA002CB9D128786978884271
:108E8000BAD138467F1EFFB20028ABD10448C16872
:108E90000098814201D00120F8BD0020F8BD0000FB
:108EA00034200020FFFF7F001CB5FFF737FC0120B6
:108EB00000F086F9092000F083F9082000F080F91D
:108EC00000210320034600910A46019100F054F965
:108ED000012000F097F9092000F094F9082000F033
:108EE00091F917480069012000F08CF90A2000F080
:108EF0002BF8012000F07EF9022000F025F80F2069
:108F0000FFF7D0F90F4C6070012000F07BF91520BD
:108F100000F070F97D25ED00012000F073F928467E
:108F200000F012F8012000F065F9022000F00CF8C2
:108F30000F20FFF7B7F96070012000F063F9EBE74D
:108F4000000500500020002031B5054C04E0401E13
:108F500000902046FFF7BEF800980028F7D138BDF2
:108F6000E70300008207D30EFF229A408907090E0B
:108F700010B5994000280BDA03071B0F083B9C082B
:108F80000C4BA400E318DC6994430C43DC6107E05C
:108F90008408094BA400E418236893430B4323601F
:108FA000C106C90E012088400449086004490860D0
:108FB00010BD000000ED00E000E400E080E200E011
:108FC00000E100E0F3B581B00F46019800F03EF9F2
:108FD000012400281E4E019817D0FFF781FD80194B
:108FE0002030007F8009032802D001280BD005E043
:108FF0001848006901998C40204204D0032101984F
:1090000000F0E8F8FEBD0221F9E700F02BF9002896
:10901000F8D00198FFF764FD05468100C81D0E4A8F
:10902000F93089180A6980B222430A610B49401855
:1090300000210160002FE5D00198FFF751FD80006D
:1090400030580028DED00648AC404460FEBD000029
:10905000C022002000050050006500400060004074
:1090600000630040FEB515460E460446002700F09A
:10907000E3F8002801D0082738E0F2782946204696
:10908000FFF70AFD0546401C2FD0B078002807D016
:109090001748A1000918086802229043086007E0F9
:1090A00000217378204600910A46019100F076F87D
:1090B000F078002810D00F48AA0010183178026903
:1090C0000D4B1A400261E206D20C8907890B0A4354
:1090D00001690A43026109E00848327840192030EA
:1090E000017F92011143017700E004273846FEBD5D
:1090F0000007005000650040FFE0FCFFC022002098
:1091000003490969C140C807C00F00D0012070475A
:109110000005005070B5124D2879002801D00820B4
:1091200070BD0F4900204039421E0B182033401CEF
:10913000C0B21A702028F8D300242046FFF79EFC06
:10914000641CE4B2082CF8D303210620FFF70AFFC1
:1091500001200449C007486001202871002070BD2B
:10916000002300200063004002480079002800D05E
:10917000012070470023002030B552000A439900B7
:10918000039C0A432102049D0A4329040A4302491D
:1091900080004018026030BD0007005030B552001A
:1091A0000A439900039C0A432102049D0A432904AF
:1091B0000A43024980004018026030BD0007005099
:1091C0001CB5002100910B46012201911146FFF7C9
:1091D000D3FF1CBD820006481018026803231B043D
:1091E0009A430260026809040A4302607047000063
:1091F00000070050012181400148C1607047000014
:109200000005005001218140014881607047000045
:109210000005005001218140014881607047000035
:1092200000050050034940180068012800D00020C4
:109230007047000000600040034908182021415693
:10924000C817401C70470000C022002004490818BD
:1092500020214156042901DB01207047002070477E
:10926000C02200200449081820214156042901D2B7
:109270000120704700207047C022002070B50124F3
:109280000B49600408600B49401088600949403967
:109290008860094D6C602F20FEF72CFFAC60074DF5
:1092A00000242F202C61FEF725FFEC7070BD00001C
:1092B00080E100E040130140001001403420002014
:1092C000FEB51F4C00252769E06802906846FFF74D
:1092D00093FC0190FFF720FD06460198002822D05C
:1092E00000230098E16817E00E680A46864202D91A
:1092F000301A086012E0801BF31800261660D6684A
:10930000D169B446002E07D0FE183602360A5660E0
:1093100066469660D56115460029E5D12846E1608C
:10932000FFF758FD06E02846FFF754FD002801D15D
:10933000002E02D00298FFF7DBFB00202071FEBD5B
:109340003420002001200249000508607047000019
:1093500000E200E010B50E4BD968002906D0026883
:109360000C68A24204D8A21A0A60C161D86010BD7C
:109370000B4604E00B46C969121B002904D00C6897
:109380009442F7D3A41A0C600260C161D86110BD89
:1093900034200020F8B51E4DEC68002C36D01D4856
:1093A000002740682969401A0602360A2068B04240
:1093B0001AD8361AC7192246107CE469002811D041
:1093C000002010746B69002B09D09169506998478F
:1093D000002807D000221146FFF786F802E0516905
:1093E00090698847002CE1D16978A878814206D13C
:1093F000401CC0B2A870022801D10020A870044906
:109400000006800D18310F50FFF79CFFF8BD0000DB
:10941000342000200015014038B5052212028318BF
:1094200098696A461070887A4A7A904203D26A46EE
:1094300012780C692254887A401CC2B28A720C7A63
:10944000501C844202D9C968085C03E04D7A854209
:1094500002D9C879D86103E0A24201D3AA4201D25D
:10946000012038BD002038BD12494868C005C00D34
:1094700019D0103840B2002807DA0207120F083A54
:10948000920892005118C96904E081080A4A8900CB
:10949000891809688007C00EC1400806800F01289E
:1094A00003D0032803D0022070470020704701201A
:1094B0007047000000ED00E000E400E042788378AF
:1094C000521CD2B2934200D100220378934201D1C0
:1094D000002070470A7041684078182250430818ED
:1094E000704700005422002074220020A022002097
:1094F0001100000012000000130000001400000022
:10950000110003007D860100120003007D8601002A
:10951000130003007D860100140003007D86010016
:10952000382300200300000048950100002000209F
:10953000540000001A8401009C9501005420002072
:10954000040B00002A84010001000000000000005C
:10955000000000000000000000000000000000000B
:10956000000000000024F4000000000000000000E3
:1095700000000000000000000000000000000000EB
:1095800000000000000000000000000000000000DB
:0C959000000000000000000000000000CF
:04000005000180C1B5
:00000001FF
